{
	"data": {
		"bytecode": {
			"linkReferences": {},
			"object": "608060405234801561001057600080fd5b50613276806100206000396000f3fe60806040523480156200001157600080fd5b5060043610620000465760003560e01c806345d34fef146200004b5780634d2f327914620000815780635b5fb3fb14620000a3575b600080fd5b620000696004803603810190620000639190620002b6565b620000d9565b60405162000078919062000373565b60405180910390f35b6200008b62000119565b6040516200009a91906200045e565b60405180910390f35b620000c16004803603810190620000bb9190620009f3565b620001a9565b604051620000d0919062000ab2565b60405180910390f35b60008181548110620000ea57600080fd5b906000526020600020016000915054906101000a900473ffffffffffffffffffffffffffffffffffffffff1681565b606060008054806020026020016040519081016040528092919081815260200182805480156200019f57602002820191906000526020600020905b8160009054906101000a900473ffffffffffffffffffffffffffffffffffffffff1673ffffffffffffffffffffffffffffffffffffffff168152602001906001019080831162000154575b5050505050905090565b600080848484604051620001bd9062000259565b620001cb9392919062000dde565b604051809103906000f080158015620001e8573d6000803e3d6000fd5b5090506000819080600181540180825580915050600190039060005260206000200160009091909190916101000a81548173ffffffffffffffffffffffffffffffffffffffff021916908373ffffffffffffffffffffffffffffffffffffffff160217905550809150509392505050565b6124178062000e2a83390190565b6000604051905090565b600080fd5b600080fd5b6000819050919050565b62000290816200027b565b81146200029c57600080fd5b50565b600081359050620002b08162000285565b92915050565b600060208284031215620002cf57620002ce62000271565b5b6000620002df848285016200029f565b91505092915050565b600073ffffffffffffffffffffffffffffffffffffffff82169050919050565b6000819050919050565b6000620003336200032d6200032784620002e8565b62000308565b620002e8565b9050919050565b6000620003478262000312565b9050919050565b60006200035b826200033a565b9050919050565b6200036d816200034e565b82525050565b60006020820190506200038a600083018462000362565b92915050565b600081519050919050565b600082825260208201905092915050565b6000819050602082019050919050565b620003c7816200034e565b82525050565b6000620003db8383620003bc565b60208301905092915050565b6000602082019050919050565b6000620004018262000390565b6200040d81856200039b565b93506200041a83620003ac565b8060005b8381101562000451578151620004358882620003cd565b97506200044283620003e7565b9250506001810190506200041e565b5085935050505092915050565b600060208201905081810360008301526200047a8184620003f4565b905092915050565b600080fd5b6000601f19601f8301169050919050565b7f4e487b7100000000000000000000000000000000000000000000000000000000600052604160045260246000fd5b620004d28262000487565b810181811067ffffffffffffffff82111715620004f457620004f362000498565b5b80604052505050565b60006200050962000267565b9050620005178282620004c7565b919050565b600080fd5b600080fd5b600080fd5b600067ffffffffffffffff82111562000549576200054862000498565b5b620005548262000487565b9050602081019050919050565b82818337600083830152505050565b60006200058762000581846200052b565b620004fd565b905082815260208101848484011115620005a657620005a562000526565b5b620005b384828562000561565b509392505050565b600082601f830112620005d357620005d262000521565b5b8135620005e584826020860162000570565b91505092915050565b60008160010b9050919050565b6200060681620005ee565b81146200061257600080fd5b50565b6000813590506200062681620005fb565b92915050565b60008160030b9050919050565b62000644816200062c565b81146200065057600080fd5b50565b600081359050620006648162000639565b92915050565b60006101a0828403121562000684576200068362000482565b5b620006916101a0620004fd565b9050600082013567ffffffffffffffff811115620006b457620006b36200051c565b5b620006c284828501620005bb565b600083015250602082013567ffffffffffffffff811115620006e957620006e86200051c565b5b620006f784828501620005bb565b602083015250604082013567ffffffffffffffff8111156200071e576200071d6200051c565b5b6200072c84828501620005bb565b604083015250606082013567ffffffffffffffff8111156200075357620007526200051c565b5b6200076184828501620005bb565b606083015250608082013567ffffffffffffffff8111156200078857620007876200051c565b5b6200079684828501620005bb565b60808301525060a0620007ac8482850162000615565b60a08301525060c082013567ffffffffffffffff811115620007d357620007d26200051c565b5b620007e184828501620005bb565b60c08301525060e082013567ffffffffffffffff8111156200080857620008076200051c565b5b6200081684828501620005bb565b60e08301525061010082013567ffffffffffffffff8111156200083e576200083d6200051c565b5b6200084c84828501620005bb565b6101008301525061012082013567ffffffffffffffff8111156200087557620008746200051c565b5b6200088384828501620005bb565b6101208301525061014082013567ffffffffffffffff811115620008ac57620008ab6200051c565b5b620008ba84828501620005bb565b61014083015250610160620008d28482850162000653565b61016083015250610180620008ea848285016200029f565b6101808301525092915050565b600067ffffffffffffffff82111562000915576200091462000498565b5b602082029050602081019050919050565b600080fd5b6000620009426200093c84620008f7565b620004fd565b9050808382526020820190506020840283018581111562000968576200096762000926565b5b835b81811015620009b657803567ffffffffffffffff81111562000991576200099062000521565b5b808601620009a08982620005bb565b855260208501945050506020810190506200096a565b5050509392505050565b600082601f830112620009d857620009d762000521565b5b8135620009ea8482602086016200092b565b91505092915050565b60008060006060848603121562000a0f5762000a0e62000271565b5b600084013567ffffffffffffffff81111562000a305762000a2f62000276565b5b62000a3e868287016200066a565b935050602062000a518682870162000653565b925050604084013567ffffffffffffffff81111562000a755762000a7462000276565b5b62000a8386828701620009c0565b9150509250925092565b600062000a9a82620002e8565b9050919050565b62000aac8162000a8d565b82525050565b600060208201905062000ac9600083018462000aa1565b92915050565b600081519050919050565b600082825260208201905092915050565b60005b8381101562000b0b57808201518184015260208101905062000aee565b60008484015250505050565b600062000b248262000acf565b62000b30818562000ada565b935062000b4281856020860162000aeb565b62000b4d8162000487565b840191505092915050565b62000b6381620005ee565b82525050565b62000b74816200062c565b82525050565b62000b85816200027b565b82525050565b60006101a083016000830151848203600086015262000bab828262000b17565b9150506020830151848203602086015262000bc7828262000b17565b9150506040830151848203604086015262000be3828262000b17565b9150506060830151848203606086015262000bff828262000b17565b9150506080830151848203608086015262000c1b828262000b17565b91505060a083015162000c3260a086018262000b58565b5060c083015184820360c086015262000c4c828262000b17565b91505060e083015184820360e086015262000c68828262000b17565b91505061010083015184820361010086015262000c86828262000b17565b91505061012083015184820361012086015262000ca4828262000b17565b91505061014083015184820361014086015262000cc2828262000b17565b91505061016083015162000cdb61016086018262000b69565b5061018083015162000cf261018086018262000b7a565b508091505092915050565b62000d08816200062c565b82525050565b600081519050919050565b600082825260208201905092915050565b6000819050602082019050919050565b600062000d48838362000b17565b905092915050565b6000602082019050919050565b600062000d6a8262000d0e565b62000d76818562000d19565b93508360208202850162000d8a8562000d2a565b8060005b8581101562000dcc578484038952815162000daa858262000d3a565b945062000db78362000d50565b925060208a0199505060018101905062000d8e565b50829750879550505050505092915050565b6000606082019050818103600083015262000dfa818662000b8b565b905062000e0b602083018562000cfd565b818103604083015262000e1f818462000d5d565b905094935050505056fe60806040523480156200001157600080fd5b506040516200241738038062002417833981810160405281019062000037919062000a3a565b336000806101000a81548173ffffffffffffffffffffffffffffffffffffffff021916908373ffffffffffffffffffffffffffffffffffffffff160217905550620000a6604051806060016040528060278152602001620023f0602791396200026360201b62000b641760201c565b8260016000820151816000019081620000c0919062000d15565b506020820151816001019081620000d8919062000d15565b506040820151816002019081620000f0919062000d15565b50606082015181600301908162000108919062000d15565b50608082015181600401908162000120919062000d15565b5060a08201518160050160006101000a81548161ffff021916908360010b61ffff16021790555060c08201518160060190816200015e919062000d15565b5060e082015181600701908162000176919062000d15565b506101008201518160080190816200018f919062000d15565b50610120820151816009019081620001a8919062000d15565b5061014082015181600a019081620001c1919062000d15565b5061016082015181600b0160006101000a81548163ffffffff021916908360030b63ffffffff16021790555061018082015181600c015590505081600e60006101000a81548163ffffffff021916908360030b63ffffffff16021790555080600f90805190602001906200023792919062000364565b506000601160006101000a81548163ffffffff021916908363ffffffff16021790555050505062000ea1565b62000303816040516024016200027a919062000e4e565b6040516020818303038152906040527f41304fac000000000000000000000000000000000000000000000000000000007bffffffffffffffffffffffffffffffffffffffffffffffffffffffff19166020820180517bffffffffffffffffffffffffffffffffffffffffffffffffffffffff83818316178352505050506200030660201b60201c565b50565b6200032c81620003276200032f60201b62000bfd176200035060201b60201c565b60201c565b50565b60006a636f6e736f6c652e6c6f679050600080835160208501845afa505050565b620003c460201b62000d3917819050919050565b828054828255906000526020600020908101928215620003b1579160200282015b82811115620003b05782518290816200039f919062000d15565b509160200191906001019062000385565b5b509050620003c09190620003d0565b5090565b620003ce62000e72565b565b5b80821115620003f45760008181620003ea9190620003f8565b50600101620003d1565b5090565b508054620004069062000b0e565b6000825580601f106200041a57506200043b565b601f0160209004906000526020600020908101906200043a91906200043e565b5b50565b5b80821115620004595760008160009055506001016200043f565b5090565b6000604051905090565b600080fd5b600080fd5b600080fd5b6000601f19601f8301169050919050565b7f4e487b7100000000000000000000000000000000000000000000000000000000600052604160045260246000fd5b620004c18262000476565b810181811067ffffffffffffffff82111715620004e357620004e262000487565b5b80604052505050565b6000620004f86200045d565b9050620005068282620004b6565b919050565b600080fd5b600080fd5b600080fd5b600067ffffffffffffffff82111562000538576200053762000487565b5b620005438262000476565b9050602081019050919050565b60005b838110156200057057808201518184015260208101905062000553565b60008484015250505050565b6000620005936200058d846200051a565b620004ec565b905082815260208101848484011115620005b257620005b162000515565b5b620005bf84828562000550565b509392505050565b600082601f830112620005df57620005de62000510565b5b8151620005f18482602086016200057c565b91505092915050565b60008160010b9050919050565b6200061281620005fa565b81146200061e57600080fd5b50565b600081519050620006328162000607565b92915050565b60008160030b9050919050565b620006508162000638565b81146200065c57600080fd5b50565b600081519050620006708162000645565b92915050565b6000819050919050565b6200068b8162000676565b81146200069757600080fd5b50565b600081519050620006ab8162000680565b92915050565b60006101a08284031215620006cb57620006ca62000471565b5b620006d86101a0620004ec565b9050600082015167ffffffffffffffff811115620006fb57620006fa6200050b565b5b6200070984828501620005c7565b600083015250602082015167ffffffffffffffff81111562000730576200072f6200050b565b5b6200073e84828501620005c7565b602083015250604082015167ffffffffffffffff8111156200076557620007646200050b565b5b6200077384828501620005c7565b604083015250606082015167ffffffffffffffff8111156200079a57620007996200050b565b5b620007a884828501620005c7565b606083015250608082015167ffffffffffffffff811115620007cf57620007ce6200050b565b5b620007dd84828501620005c7565b60808301525060a0620007f38482850162000621565b60a08301525060c082015167ffffffffffffffff8111156200081a57620008196200050b565b5b6200082884828501620005c7565b60c08301525060e082015167ffffffffffffffff8111156200084f576200084e6200050b565b5b6200085d84828501620005c7565b60e08301525061010082015167ffffffffffffffff8111156200088557620008846200050b565b5b6200089384828501620005c7565b6101008301525061012082015167ffffffffffffffff811115620008bc57620008bb6200050b565b5b620008ca84828501620005c7565b6101208301525061014082015167ffffffffffffffff811115620008f357620008f26200050b565b5b6200090184828501620005c7565b6101408301525061016062000919848285016200065f565b6101608301525061018062000931848285016200069a565b6101808301525092915050565b600067ffffffffffffffff8211156200095c576200095b62000487565b5b602082029050602081019050919050565b600080fd5b60006200098962000983846200093e565b620004ec565b90508083825260208201905060208402830185811115620009af57620009ae6200096d565b5b835b81811015620009fd57805167ffffffffffffffff811115620009d857620009d762000510565b5b808601620009e78982620005c7565b85526020850194505050602081019050620009b1565b5050509392505050565b600082601f83011262000a1f5762000a1e62000510565b5b815162000a3184826020860162000972565b91505092915050565b60008060006060848603121562000a565762000a5562000467565b5b600084015167ffffffffffffffff81111562000a775762000a766200046c565b5b62000a8586828701620006b1565b935050602062000a98868287016200065f565b925050604084015167ffffffffffffffff81111562000abc5762000abb6200046c565b5b62000aca8682870162000a07565b9150509250925092565b600081519050919050565b7f4e487b7100000000000000000000000000000000000000000000000000000000600052602260045260246000fd5b6000600282049050600182168062000b2757607f821691505b60208210810362000b3d5762000b3c62000adf565b5b50919050565b60008190508160005260206000209050919050565b60006020601f8301049050919050565b600082821b905092915050565b60006008830262000ba77fffffffffffffffffffffffffffffffffffffffffffffffffffffffffffffffff8262000b68565b62000bb3868362000b68565b95508019841693508086168417925050509392505050565b6000819050919050565b600062000bf662000bf062000bea8462000676565b62000bcb565b62000676565b9050919050565b6000819050919050565b62000c128362000bd5565b62000c2a62000c218262000bfd565b84845462000b75565b825550505050565b600090565b62000c4162000c32565b62000c4e81848462000c07565b505050565b5b8181101562000c765762000c6a60008262000c37565b60018101905062000c54565b5050565b601f82111562000cc55762000c8f8162000b43565b62000c9a8462000b58565b8101602085101562000caa578190505b62000cc262000cb98562000b58565b83018262000c53565b50505b505050565b600082821c905092915050565b600062000cea6000198460080262000cca565b1980831691505092915050565b600062000d05838362000cd7565b9150826002028217905092915050565b62000d208262000ad4565b67ffffffffffffffff81111562000d3c5762000d3b62000487565b5b62000d48825462000b0e565b62000d5582828562000c7a565b600060209050601f83116001811462000d8d576000841562000d78578287015190505b62000d84858262000cf7565b86555062000df4565b601f19841662000d9d8662000b43565b60005b8281101562000dc75784890151825560018201915060208501945060208101905062000da0565b8683101562000de7578489015162000de3601f89168262000cd7565b8355505b6001600288020188555050505b505050505050565b600082825260208201905092915050565b600062000e1a8262000ad4565b62000e26818562000dfc565b935062000e3881856020860162000550565b62000e438162000476565b840191505092915050565b6000602082019050818103600083015262000e6a818462000e0d565b905092915050565b7f4e487b7100000000000000000000000000000000000000000000000000000000600052605160045260246000fd5b61153f8062000eb16000396000f3fe608060405234801561001057600080fd5b506004361061007d5760003560e01c80638da5cb5b1161005b5780638da5cb5b146100c8578063cebd31bc146100e6578063e7f9aced14610104578063f2fde38b146101225761007d565b80634364bab914610082578063715018a6146100a057806386bf221c146100aa575b600080fd5b61008a61013e565b6040516100979190610f43565b60405180910390f35b6100a8610217565b005b6100b2610315565b6040516100bf91906110d2565b60405180910390f35b6100d06104b2565b6040516100dd9190611103565b60405180910390f35b6100ee6104d6565b6040516100fb919061112d565b60405180910390f35b61010c6104ed565b60405161011991906112d5565b60405180910390f35b61013c60048036038101906101379190611328565b610b00565b005b6060600f805480602002602001604051908101604052809291908181526020016000905b8282101561020e57838290600052602060002001805461018190611384565b80601f01602080910402602001604051908101604052809291908181526020018280546101ad90611384565b80156101fa5780601f106101cf576101008083540402835291602001916101fa565b820191906000526020600020905b8154815290600101906020018083116101dd57829003601f168201915b505050505081526020019060010190610162565b50505050905090565b60008054906101000a900473ffffffffffffffffffffffffffffffffffffffff1673ffffffffffffffffffffffffffffffffffffffff163373ffffffffffffffffffffffffffffffffffffffff161461026f57600080fd5b60008054906101000a900473ffffffffffffffffffffffffffffffffffffffff1673ffffffffffffffffffffffffffffffffffffffff167ff8df31144d9c2f0f6b59d69b8b98abd5459d07f2742c4df920b25aae33c6482060405160405180910390a260008060006101000a81548173ffffffffffffffffffffffffffffffffffffffff021916908373ffffffffffffffffffffffffffffffffffffffff160217905550565b60606000601160009054906101000a900463ffffffff1663ffffffff1667ffffffffffffffff81111561034b5761034a6113b5565b5b60405190808252806020026020018201604052801561038457816020015b610371610d43565b8152602001906001900390816103695790505b50905060005b601160009054906101000a900463ffffffff1663ffffffff168163ffffffff1610156104aa57601060008263ffffffff1663ffffffff1681526020019081526020016000206040518060600160405290816000820160009054906101000a900473ffffffffffffffffffffffffffffffffffffffff1673ffffffffffffffffffffffffffffffffffffffff1673ffffffffffffffffffffffffffffffffffffffff1681526020016000820160149054906101000a900460030b60030b60030b81526020016000820160189054906101000a900463ffffffff1663ffffffff1663ffffffff1681525050828263ffffffff168151811061048c5761048b6113e4565b5b602002602001018190525080806104a290611442565b91505061038a565b508091505090565b60008054906101000a900473ffffffffffffffffffffffffffffffffffffffff1681565b6000600e60009054906101000a900460030b905090565b6104f5610d83565b6001604051806101a001604052908160008201805461051390611384565b80601f016020809104026020016040519081016040528092919081815260200182805461053f90611384565b801561058c5780601f106105615761010080835404028352916020019161058c565b820191906000526020600020905b81548152906001019060200180831161056f57829003601f168201915b505050505081526020016001820180546105a590611384565b80601f01602080910402602001604051908101604052809291908181526020018280546105d190611384565b801561061e5780601f106105f35761010080835404028352916020019161061e565b820191906000526020600020905b81548152906001019060200180831161060157829003601f168201915b5050505050815260200160028201805461063790611384565b80601f016020809104026020016040519081016040528092919081815260200182805461066390611384565b80156106b05780601f10610685576101008083540402835291602001916106b0565b820191906000526020600020905b81548152906001019060200180831161069357829003601f168201915b505050505081526020016003820180546106c990611384565b80601f01602080910402602001604051908101604052809291908181526020018280546106f590611384565b80156107425780601f1061071757610100808354040283529160200191610742565b820191906000526020600020905b81548152906001019060200180831161072557829003601f168201915b5050505050815260200160048201805461075b90611384565b80601f016020809104026020016040519081016040528092919081815260200182805461078790611384565b80156107d45780601f106107a9576101008083540402835291602001916107d4565b820191906000526020600020905b8154815290600101906020018083116107b757829003601f168201915b505050505081526020016005820160009054906101000a900460010b60010b60010b815260200160068201805461080a90611384565b80601f016020809104026020016040519081016040528092919081815260200182805461083690611384565b80156108835780601f1061085857610100808354040283529160200191610883565b820191906000526020600020905b81548152906001019060200180831161086657829003601f168201915b5050505050815260200160078201805461089c90611384565b80601f01602080910402602001604051908101604052809291908181526020018280546108c890611384565b80156109155780601f106108ea57610100808354040283529160200191610915565b820191906000526020600020905b8154815290600101906020018083116108f857829003601f168201915b5050505050815260200160088201805461092e90611384565b80601f016020809104026020016040519081016040528092919081815260200182805461095a90611384565b80156109a75780601f1061097c576101008083540402835291602001916109a7565b820191906000526020600020905b81548152906001019060200180831161098a57829003601f168201915b505050505081526020016009820180546109c090611384565b80601f01602080910402602001604051908101604052809291908181526020018280546109ec90611384565b8015610a395780601f10610a0e57610100808354040283529160200191610a39565b820191906000526020600020905b815481529060010190602001808311610a1c57829003601f168201915b50505050508152602001600a82018054610a5290611384565b80601f0160208091040260200160405190810160405280929190818152602001828054610a7e90611384565b8015610acb5780601f10610aa057610100808354040283529160200191610acb565b820191906000526020600020905b815481529060010190602001808311610aae57829003601f168201915b50505050508152602001600b820160009054906101000a900460030b60030b60030b8152602001600c82015481525050905090565b60008054906101000a900473ffffffffffffffffffffffffffffffffffffffff1673ffffffffffffffffffffffffffffffffffffffff163373ffffffffffffffffffffffffffffffffffffffff1614610b5857600080fd5b610b6181610c1e565b50565b610bfa81604051602401610b7891906114b8565b6040516020818303038152906040527f41304fac000000000000000000000000000000000000000000000000000000007bffffffffffffffffffffffffffffffffffffffffffffffffffffffff19166020820180517bffffffffffffffffffffffffffffffffffffffffffffffffffffffff8381831617835250505050610d14565b50565b60006a636f6e736f6c652e6c6f679050600080835160208501845afa505050565b600073ffffffffffffffffffffffffffffffffffffffff168173ffffffffffffffffffffffffffffffffffffffff1603610c5757600080fd5b8073ffffffffffffffffffffffffffffffffffffffff1660008054906101000a900473ffffffffffffffffffffffffffffffffffffffff1673ffffffffffffffffffffffffffffffffffffffff167f8be0079c531659141344cd1fd0a4f28419497f9722a3daafe3b4186f6b6457e060405160405180910390a3806000806101000a81548173ffffffffffffffffffffffffffffffffffffffff021916908373ffffffffffffffffffffffffffffffffffffffff16021790555050565b610d2b81610d23610bfd610d2e565b63ffffffff16565b50565b610d39819050919050565b610d416114da565b565b6040518060600160405280600073ffffffffffffffffffffffffffffffffffffffff168152602001600060030b8152602001600063ffffffff1681525090565b604051806101a001604052806060815260200160608152602001606081526020016060815260200160608152602001600060010b81526020016060815260200160608152602001606081526020016060815260200160608152602001600060030b8152602001600081525090565b600081519050919050565b600082825260208201905092915050565b6000819050602082019050919050565b600081519050919050565b600082825260208201905092915050565b60005b83811015610e57578082015181840152602081019050610e3c565b60008484015250505050565b6000601f19601f8301169050919050565b6000610e7f82610e1d565b610e898185610e28565b9350610e99818560208601610e39565b610ea281610e63565b840191505092915050565b6000610eb98383610e74565b905092915050565b6000602082019050919050565b6000610ed982610df1565b610ee38185610dfc565b935083602082028501610ef585610e0d565b8060005b85811015610f315784840389528151610f128582610ead565b9450610f1d83610ec1565b925060208a01995050600181019050610ef9565b50829750879550505050505092915050565b60006020820190508181036000830152610f5d8184610ece565b905092915050565b600081519050919050565b600082825260208201905092915050565b6000819050602082019050919050565b600073ffffffffffffffffffffffffffffffffffffffff82169050919050565b6000610fbc82610f91565b9050919050565b610fcc81610fb1565b82525050565b60008160030b9050919050565b610fe881610fd2565b82525050565b600063ffffffff82169050919050565b61100781610fee565b82525050565b6060820160008201516110236000850182610fc3565b5060208201516110366020850182610fdf565b5060408201516110496040850182610ffe565b50505050565b600061105b838361100d565b60608301905092915050565b6000602082019050919050565b600061107f82610f65565b6110898185610f70565b935061109483610f81565b8060005b838110156110c55781516110ac888261104f565b97506110b783611067565b925050600181019050611098565b5085935050505092915050565b600060208201905081810360008301526110ec8184611074565b905092915050565b6110fd81610fb1565b82525050565b600060208201905061111860008301846110f4565b92915050565b61112781610fd2565b82525050565b6000602082019050611142600083018461111e565b92915050565b60008160010b9050919050565b61115e81611148565b82525050565b6000819050919050565b61117781611164565b82525050565b60006101a083016000830151848203600086015261119b8282610e74565b915050602083015184820360208601526111b58282610e74565b915050604083015184820360408601526111cf8282610e74565b915050606083015184820360608601526111e98282610e74565b915050608083015184820360808601526112038282610e74565b91505060a083015161121860a0860182611155565b5060c083015184820360c08601526112308282610e74565b91505060e083015184820360e086015261124a8282610e74565b9150506101008301518482036101008601526112668282610e74565b9150506101208301518482036101208601526112828282610e74565b91505061014083015184820361014086015261129e8282610e74565b9150506101608301516112b5610160860182610fdf565b506101808301516112ca61018086018261116e565b508091505092915050565b600060208201905081810360008301526112ef818461117d565b905092915050565b600080fd5b61130581610fb1565b811461131057600080fd5b50565b600081359050611322816112fc565b92915050565b60006020828403121561133e5761133d6112f7565b5b600061134c84828501611313565b91505092915050565b7f4e487b7100000000000000000000000000000000000000000000000000000000600052602260045260246000fd5b6000600282049050600182168061139c57607f821691505b6020821081036113af576113ae611355565b5b50919050565b7f4e487b7100000000000000000000000000000000000000000000000000000000600052604160045260246000fd5b7f4e487b7100000000000000000000000000000000000000000000000000000000600052603260045260246000fd5b7f4e487b7100000000000000000000000000000000000000000000000000000000600052601160045260246000fd5b600061144d82610fee565b915063ffffffff820361146357611462611413565b5b600182019050919050565b600082825260208201905092915050565b600061148a82610e1d565b611494818561146e565b93506114a4818560208601610e39565b6114ad81610e63565b840191505092915050565b600060208201905081810360008301526114d2818461147f565b905092915050565b7f4e487b7100000000000000000000000000000000000000000000000000000000600052605160045260246000fdfea264697066735822122049f2544e5d62262d23fed6e7e37919dac3b7a3e8d38c8787dc22aa37d1fe3c8f64736f6c634300081200334e65772056656869636c6520436f6e747261637420686173206265656e206465706c6f7965642ea26469706673582212209c3544bb174dae2b75b713604b245e3c7790c9d87aa0cb5c62e227202e8b954664736f6c63430008120033",
			"opcodes": "PUSH1 0x80 PUSH1 0x40 MSTORE CALLVALUE DUP1 ISZERO PUSH2 0x10 JUMPI PUSH1 0x0 DUP1 REVERT JUMPDEST POP PUSH2 0x3276 DUP1 PUSH2 0x20 PUSH1 0x0 CODECOPY PUSH1 0x0 RETURN INVALID PUSH1 0x80 PUSH1 0x40 MSTORE CALLVALUE DUP1 ISZERO PUSH3 0x11 JUMPI PUSH1 0x0 DUP1 REVERT JUMPDEST POP PUSH1 0x4 CALLDATASIZE LT PUSH3 0x46 JUMPI PUSH1 0x0 CALLDATALOAD PUSH1 0xE0 SHR DUP1 PUSH4 0x45D34FEF EQ PUSH3 0x4B JUMPI DUP1 PUSH4 0x4D2F3279 EQ PUSH3 0x81 JUMPI DUP1 PUSH4 0x5B5FB3FB EQ PUSH3 0xA3 JUMPI JUMPDEST PUSH1 0x0 DUP1 REVERT JUMPDEST PUSH3 0x69 PUSH1 0x4 DUP1 CALLDATASIZE SUB DUP2 ADD SWAP1 PUSH3 0x63 SWAP2 SWAP1 PUSH3 0x2B6 JUMP JUMPDEST PUSH3 0xD9 JUMP JUMPDEST PUSH1 0x40 MLOAD PUSH3 0x78 SWAP2 SWAP1 PUSH3 0x373 JUMP JUMPDEST PUSH1 0x40 MLOAD DUP1 SWAP2 SUB SWAP1 RETURN JUMPDEST PUSH3 0x8B PUSH3 0x119 JUMP JUMPDEST PUSH1 0x40 MLOAD PUSH3 0x9A SWAP2 SWAP1 PUSH3 0x45E JUMP JUMPDEST PUSH1 0x40 MLOAD DUP1 SWAP2 SUB SWAP1 RETURN JUMPDEST PUSH3 0xC1 PUSH1 0x4 DUP1 CALLDATASIZE SUB DUP2 ADD SWAP1 PUSH3 0xBB SWAP2 SWAP1 PUSH3 0x9F3 JUMP JUMPDEST PUSH3 0x1A9 JUMP JUMPDEST PUSH1 0x40 MLOAD PUSH3 0xD0 SWAP2 SWAP1 PUSH3 0xAB2 JUMP JUMPDEST PUSH1 0x40 MLOAD DUP1 SWAP2 SUB SWAP1 RETURN JUMPDEST PUSH1 0x0 DUP2 DUP2 SLOAD DUP2 LT PUSH3 0xEA JUMPI PUSH1 0x0 DUP1 REVERT JUMPDEST SWAP1 PUSH1 0x0 MSTORE PUSH1 0x20 PUSH1 0x0 KECCAK256 ADD PUSH1 0x0 SWAP2 POP SLOAD SWAP1 PUSH2 0x100 EXP SWAP1 DIV PUSH20 0xFFFFFFFFFFFFFFFFFFFFFFFFFFFFFFFFFFFFFFFF AND DUP2 JUMP JUMPDEST PUSH1 0x60 PUSH1 0x0 DUP1 SLOAD DUP1 PUSH1 0x20 MUL PUSH1 0x20 ADD PUSH1 0x40 MLOAD SWAP1 DUP2 ADD PUSH1 0x40 MSTORE DUP1 SWAP3 SWAP2 SWAP1 DUP2 DUP2 MSTORE PUSH1 0x20 ADD DUP3 DUP1 SLOAD DUP1 ISZERO PUSH3 0x19F JUMPI PUSH1 0x20 MUL DUP3 ADD SWAP2 SWAP1 PUSH1 0x0 MSTORE PUSH1 0x20 PUSH1 0x0 KECCAK256 SWAP1 JUMPDEST DUP2 PUSH1 0x0 SWAP1 SLOAD SWAP1 PUSH2 0x100 EXP SWAP1 DIV PUSH20 0xFFFFFFFFFFFFFFFFFFFFFFFFFFFFFFFFFFFFFFFF AND PUSH20 0xFFFFFFFFFFFFFFFFFFFFFFFFFFFFFFFFFFFFFFFF AND DUP2 MSTORE PUSH1 0x20 ADD SWAP1 PUSH1 0x1 ADD SWAP1 DUP1 DUP4 GT PUSH3 0x154 JUMPI JUMPDEST POP POP POP POP POP SWAP1 POP SWAP1 JUMP JUMPDEST PUSH1 0x0 DUP1 DUP5 DUP5 DUP5 PUSH1 0x40 MLOAD PUSH3 0x1BD SWAP1 PUSH3 0x259 JUMP JUMPDEST PUSH3 0x1CB SWAP4 SWAP3 SWAP2 SWAP1 PUSH3 0xDDE JUMP JUMPDEST PUSH1 0x40 MLOAD DUP1 SWAP2 SUB SWAP1 PUSH1 0x0 CREATE DUP1 ISZERO DUP1 ISZERO PUSH3 0x1E8 JUMPI RETURNDATASIZE PUSH1 0x0 DUP1 RETURNDATACOPY RETURNDATASIZE PUSH1 0x0 REVERT JUMPDEST POP SWAP1 POP PUSH1 0x0 DUP2 SWAP1 DUP1 PUSH1 0x1 DUP2 SLOAD ADD DUP1 DUP3 SSTORE DUP1 SWAP2 POP POP PUSH1 0x1 SWAP1 SUB SWAP1 PUSH1 0x0 MSTORE PUSH1 0x20 PUSH1 0x0 KECCAK256 ADD PUSH1 0x0 SWAP1 SWAP2 SWAP1 SWAP2 SWAP1 SWAP2 PUSH2 0x100 EXP DUP2 SLOAD DUP2 PUSH20 0xFFFFFFFFFFFFFFFFFFFFFFFFFFFFFFFFFFFFFFFF MUL NOT AND SWAP1 DUP4 PUSH20 0xFFFFFFFFFFFFFFFFFFFFFFFFFFFFFFFFFFFFFFFF AND MUL OR SWAP1 SSTORE POP DUP1 SWAP2 POP POP SWAP4 SWAP3 POP POP POP JUMP JUMPDEST PUSH2 0x2417 DUP1 PUSH3 0xE2A DUP4 CODECOPY ADD SWAP1 JUMP JUMPDEST PUSH1 0x0 PUSH1 0x40 MLOAD SWAP1 POP SWAP1 JUMP JUMPDEST PUSH1 0x0 DUP1 REVERT JUMPDEST PUSH1 0x0 DUP1 REVERT JUMPDEST PUSH1 0x0 DUP2 SWAP1 POP SWAP2 SWAP1 POP JUMP JUMPDEST PUSH3 0x290 DUP2 PUSH3 0x27B JUMP JUMPDEST DUP2 EQ PUSH3 0x29C JUMPI PUSH1 0x0 DUP1 REVERT JUMPDEST POP JUMP JUMPDEST PUSH1 0x0 DUP2 CALLDATALOAD SWAP1 POP PUSH3 0x2B0 DUP2 PUSH3 0x285 JUMP JUMPDEST SWAP3 SWAP2 POP POP JUMP JUMPDEST PUSH1 0x0 PUSH1 0x20 DUP3 DUP5 SUB SLT ISZERO PUSH3 0x2CF JUMPI PUSH3 0x2CE PUSH3 0x271 JUMP JUMPDEST JUMPDEST PUSH1 0x0 PUSH3 0x2DF DUP5 DUP3 DUP6 ADD PUSH3 0x29F JUMP JUMPDEST SWAP2 POP POP SWAP3 SWAP2 POP POP JUMP JUMPDEST PUSH1 0x0 PUSH20 0xFFFFFFFFFFFFFFFFFFFFFFFFFFFFFFFFFFFFFFFF DUP3 AND SWAP1 POP SWAP2 SWAP1 POP JUMP JUMPDEST PUSH1 0x0 DUP2 SWAP1 POP SWAP2 SWAP1 POP JUMP JUMPDEST PUSH1 0x0 PUSH3 0x333 PUSH3 0x32D PUSH3 0x327 DUP5 PUSH3 0x2E8 JUMP JUMPDEST PUSH3 0x308 JUMP JUMPDEST PUSH3 0x2E8 JUMP JUMPDEST SWAP1 POP SWAP2 SWAP1 POP JUMP JUMPDEST PUSH1 0x0 PUSH3 0x347 DUP3 PUSH3 0x312 JUMP JUMPDEST SWAP1 POP SWAP2 SWAP1 POP JUMP JUMPDEST PUSH1 0x0 PUSH3 0x35B DUP3 PUSH3 0x33A JUMP JUMPDEST SWAP1 POP SWAP2 SWAP1 POP JUMP JUMPDEST PUSH3 0x36D DUP2 PUSH3 0x34E JUMP JUMPDEST DUP3 MSTORE POP POP JUMP JUMPDEST PUSH1 0x0 PUSH1 0x20 DUP3 ADD SWAP1 POP PUSH3 0x38A PUSH1 0x0 DUP4 ADD DUP5 PUSH3 0x362 JUMP JUMPDEST SWAP3 SWAP2 POP POP JUMP JUMPDEST PUSH1 0x0 DUP2 MLOAD SWAP1 POP SWAP2 SWAP1 POP JUMP JUMPDEST PUSH1 0x0 DUP3 DUP3 MSTORE PUSH1 0x20 DUP3 ADD SWAP1 POP SWAP3 SWAP2 POP POP JUMP JUMPDEST PUSH1 0x0 DUP2 SWAP1 POP PUSH1 0x20 DUP3 ADD SWAP1 POP SWAP2 SWAP1 POP JUMP JUMPDEST PUSH3 0x3C7 DUP2 PUSH3 0x34E JUMP JUMPDEST DUP3 MSTORE POP POP JUMP JUMPDEST PUSH1 0x0 PUSH3 0x3DB DUP4 DUP4 PUSH3 0x3BC JUMP JUMPDEST PUSH1 0x20 DUP4 ADD SWAP1 POP SWAP3 SWAP2 POP POP JUMP JUMPDEST PUSH1 0x0 PUSH1 0x20 DUP3 ADD SWAP1 POP SWAP2 SWAP1 POP JUMP JUMPDEST PUSH1 0x0 PUSH3 0x401 DUP3 PUSH3 0x390 JUMP JUMPDEST PUSH3 0x40D DUP2 DUP6 PUSH3 0x39B JUMP JUMPDEST SWAP4 POP PUSH3 0x41A DUP4 PUSH3 0x3AC JUMP JUMPDEST DUP1 PUSH1 0x0 JUMPDEST DUP4 DUP2 LT ISZERO PUSH3 0x451 JUMPI DUP2 MLOAD PUSH3 0x435 DUP9 DUP3 PUSH3 0x3CD JUMP JUMPDEST SWAP8 POP PUSH3 0x442 DUP4 PUSH3 0x3E7 JUMP JUMPDEST SWAP3 POP POP PUSH1 0x1 DUP2 ADD SWAP1 POP PUSH3 0x41E JUMP JUMPDEST POP DUP6 SWAP4 POP POP POP POP SWAP3 SWAP2 POP POP JUMP JUMPDEST PUSH1 0x0 PUSH1 0x20 DUP3 ADD SWAP1 POP DUP2 DUP2 SUB PUSH1 0x0 DUP4 ADD MSTORE PUSH3 0x47A DUP2 DUP5 PUSH3 0x3F4 JUMP JUMPDEST SWAP1 POP SWAP3 SWAP2 POP POP JUMP JUMPDEST PUSH1 0x0 DUP1 REVERT JUMPDEST PUSH1 0x0 PUSH1 0x1F NOT PUSH1 0x1F DUP4 ADD AND SWAP1 POP SWAP2 SWAP1 POP JUMP JUMPDEST PUSH32 0x4E487B7100000000000000000000000000000000000000000000000000000000 PUSH1 0x0 MSTORE PUSH1 0x41 PUSH1 0x4 MSTORE PUSH1 0x24 PUSH1 0x0 REVERT JUMPDEST PUSH3 0x4D2 DUP3 PUSH3 0x487 JUMP JUMPDEST DUP2 ADD DUP2 DUP2 LT PUSH8 0xFFFFFFFFFFFFFFFF DUP3 GT OR ISZERO PUSH3 0x4F4 JUMPI PUSH3 0x4F3 PUSH3 0x498 JUMP JUMPDEST JUMPDEST DUP1 PUSH1 0x40 MSTORE POP POP POP JUMP JUMPDEST PUSH1 0x0 PUSH3 0x509 PUSH3 0x267 JUMP JUMPDEST SWAP1 POP PUSH3 0x517 DUP3 DUP3 PUSH3 0x4C7 JUMP JUMPDEST SWAP2 SWAP1 POP JUMP JUMPDEST PUSH1 0x0 DUP1 REVERT JUMPDEST PUSH1 0x0 DUP1 REVERT JUMPDEST PUSH1 0x0 DUP1 REVERT JUMPDEST PUSH1 0x0 PUSH8 0xFFFFFFFFFFFFFFFF DUP3 GT ISZERO PUSH3 0x549 JUMPI PUSH3 0x548 PUSH3 0x498 JUMP JUMPDEST JUMPDEST PUSH3 0x554 DUP3 PUSH3 0x487 JUMP JUMPDEST SWAP1 POP PUSH1 0x20 DUP2 ADD SWAP1 POP SWAP2 SWAP1 POP JUMP JUMPDEST DUP3 DUP2 DUP4 CALLDATACOPY PUSH1 0x0 DUP4 DUP4 ADD MSTORE POP POP POP JUMP JUMPDEST PUSH1 0x0 PUSH3 0x587 PUSH3 0x581 DUP5 PUSH3 0x52B JUMP JUMPDEST PUSH3 0x4FD JUMP JUMPDEST SWAP1 POP DUP3 DUP2 MSTORE PUSH1 0x20 DUP2 ADD DUP5 DUP5 DUP5 ADD GT ISZERO PUSH3 0x5A6 JUMPI PUSH3 0x5A5 PUSH3 0x526 JUMP JUMPDEST JUMPDEST PUSH3 0x5B3 DUP5 DUP3 DUP6 PUSH3 0x561 JUMP JUMPDEST POP SWAP4 SWAP3 POP POP POP JUMP JUMPDEST PUSH1 0x0 DUP3 PUSH1 0x1F DUP4 ADD SLT PUSH3 0x5D3 JUMPI PUSH3 0x5D2 PUSH3 0x521 JUMP JUMPDEST JUMPDEST DUP2 CALLDATALOAD PUSH3 0x5E5 DUP5 DUP3 PUSH1 0x20 DUP7 ADD PUSH3 0x570 JUMP JUMPDEST SWAP2 POP POP SWAP3 SWAP2 POP POP JUMP JUMPDEST PUSH1 0x0 DUP2 PUSH1 0x1 SIGNEXTEND SWAP1 POP SWAP2 SWAP1 POP JUMP JUMPDEST PUSH3 0x606 DUP2 PUSH3 0x5EE JUMP JUMPDEST DUP2 EQ PUSH3 0x612 JUMPI PUSH1 0x0 DUP1 REVERT JUMPDEST POP JUMP JUMPDEST PUSH1 0x0 DUP2 CALLDATALOAD SWAP1 POP PUSH3 0x626 DUP2 PUSH3 0x5FB JUMP JUMPDEST SWAP3 SWAP2 POP POP JUMP JUMPDEST PUSH1 0x0 DUP2 PUSH1 0x3 SIGNEXTEND SWAP1 POP SWAP2 SWAP1 POP JUMP JUMPDEST PUSH3 0x644 DUP2 PUSH3 0x62C JUMP JUMPDEST DUP2 EQ PUSH3 0x650 JUMPI PUSH1 0x0 DUP1 REVERT JUMPDEST POP JUMP JUMPDEST PUSH1 0x0 DUP2 CALLDATALOAD SWAP1 POP PUSH3 0x664 DUP2 PUSH3 0x639 JUMP JUMPDEST SWAP3 SWAP2 POP POP JUMP JUMPDEST PUSH1 0x0 PUSH2 0x1A0 DUP3 DUP5 SUB SLT ISZERO PUSH3 0x684 JUMPI PUSH3 0x683 PUSH3 0x482 JUMP JUMPDEST JUMPDEST PUSH3 0x691 PUSH2 0x1A0 PUSH3 0x4FD JUMP JUMPDEST SWAP1 POP PUSH1 0x0 DUP3 ADD CALLDATALOAD PUSH8 0xFFFFFFFFFFFFFFFF DUP2 GT ISZERO PUSH3 0x6B4 JUMPI PUSH3 0x6B3 PUSH3 0x51C JUMP JUMPDEST JUMPDEST PUSH3 0x6C2 DUP5 DUP3 DUP6 ADD PUSH3 0x5BB JUMP JUMPDEST PUSH1 0x0 DUP4 ADD MSTORE POP PUSH1 0x20 DUP3 ADD CALLDATALOAD PUSH8 0xFFFFFFFFFFFFFFFF DUP2 GT ISZERO PUSH3 0x6E9 JUMPI PUSH3 0x6E8 PUSH3 0x51C JUMP JUMPDEST JUMPDEST PUSH3 0x6F7 DUP5 DUP3 DUP6 ADD PUSH3 0x5BB JUMP JUMPDEST PUSH1 0x20 DUP4 ADD MSTORE POP PUSH1 0x40 DUP3 ADD CALLDATALOAD PUSH8 0xFFFFFFFFFFFFFFFF DUP2 GT ISZERO PUSH3 0x71E JUMPI PUSH3 0x71D PUSH3 0x51C JUMP JUMPDEST JUMPDEST PUSH3 0x72C DUP5 DUP3 DUP6 ADD PUSH3 0x5BB JUMP JUMPDEST PUSH1 0x40 DUP4 ADD MSTORE POP PUSH1 0x60 DUP3 ADD CALLDATALOAD PUSH8 0xFFFFFFFFFFFFFFFF DUP2 GT ISZERO PUSH3 0x753 JUMPI PUSH3 0x752 PUSH3 0x51C JUMP JUMPDEST JUMPDEST PUSH3 0x761 DUP5 DUP3 DUP6 ADD PUSH3 0x5BB JUMP JUMPDEST PUSH1 0x60 DUP4 ADD MSTORE POP PUSH1 0x80 DUP3 ADD CALLDATALOAD PUSH8 0xFFFFFFFFFFFFFFFF DUP2 GT ISZERO PUSH3 0x788 JUMPI PUSH3 0x787 PUSH3 0x51C JUMP JUMPDEST JUMPDEST PUSH3 0x796 DUP5 DUP3 DUP6 ADD PUSH3 0x5BB JUMP JUMPDEST PUSH1 0x80 DUP4 ADD MSTORE POP PUSH1 0xA0 PUSH3 0x7AC DUP5 DUP3 DUP6 ADD PUSH3 0x615 JUMP JUMPDEST PUSH1 0xA0 DUP4 ADD MSTORE POP PUSH1 0xC0 DUP3 ADD CALLDATALOAD PUSH8 0xFFFFFFFFFFFFFFFF DUP2 GT ISZERO PUSH3 0x7D3 JUMPI PUSH3 0x7D2 PUSH3 0x51C JUMP JUMPDEST JUMPDEST PUSH3 0x7E1 DUP5 DUP3 DUP6 ADD PUSH3 0x5BB JUMP JUMPDEST PUSH1 0xC0 DUP4 ADD MSTORE POP PUSH1 0xE0 DUP3 ADD CALLDATALOAD PUSH8 0xFFFFFFFFFFFFFFFF DUP2 GT ISZERO PUSH3 0x808 JUMPI PUSH3 0x807 PUSH3 0x51C JUMP JUMPDEST JUMPDEST PUSH3 0x816 DUP5 DUP3 DUP6 ADD PUSH3 0x5BB JUMP JUMPDEST PUSH1 0xE0 DUP4 ADD MSTORE POP PUSH2 0x100 DUP3 ADD CALLDATALOAD PUSH8 0xFFFFFFFFFFFFFFFF DUP2 GT ISZERO PUSH3 0x83E JUMPI PUSH3 0x83D PUSH3 0x51C JUMP JUMPDEST JUMPDEST PUSH3 0x84C DUP5 DUP3 DUP6 ADD PUSH3 0x5BB JUMP JUMPDEST PUSH2 0x100 DUP4 ADD MSTORE POP PUSH2 0x120 DUP3 ADD CALLDATALOAD PUSH8 0xFFFFFFFFFFFFFFFF DUP2 GT ISZERO PUSH3 0x875 JUMPI PUSH3 0x874 PUSH3 0x51C JUMP JUMPDEST JUMPDEST PUSH3 0x883 DUP5 DUP3 DUP6 ADD PUSH3 0x5BB JUMP JUMPDEST PUSH2 0x120 DUP4 ADD MSTORE POP PUSH2 0x140 DUP3 ADD CALLDATALOAD PUSH8 0xFFFFFFFFFFFFFFFF DUP2 GT ISZERO PUSH3 0x8AC JUMPI PUSH3 0x8AB PUSH3 0x51C JUMP JUMPDEST JUMPDEST PUSH3 0x8BA DUP5 DUP3 DUP6 ADD PUSH3 0x5BB JUMP JUMPDEST PUSH2 0x140 DUP4 ADD MSTORE POP PUSH2 0x160 PUSH3 0x8D2 DUP5 DUP3 DUP6 ADD PUSH3 0x653 JUMP JUMPDEST PUSH2 0x160 DUP4 ADD MSTORE POP PUSH2 0x180 PUSH3 0x8EA DUP5 DUP3 DUP6 ADD PUSH3 0x29F JUMP JUMPDEST PUSH2 0x180 DUP4 ADD MSTORE POP SWAP3 SWAP2 POP POP JUMP JUMPDEST PUSH1 0x0 PUSH8 0xFFFFFFFFFFFFFFFF DUP3 GT ISZERO PUSH3 0x915 JUMPI PUSH3 0x914 PUSH3 0x498 JUMP JUMPDEST JUMPDEST PUSH1 0x20 DUP3 MUL SWAP1 POP PUSH1 0x20 DUP2 ADD SWAP1 POP SWAP2 SWAP1 POP JUMP JUMPDEST PUSH1 0x0 DUP1 REVERT JUMPDEST PUSH1 0x0 PUSH3 0x942 PUSH3 0x93C DUP5 PUSH3 0x8F7 JUMP JUMPDEST PUSH3 0x4FD JUMP JUMPDEST SWAP1 POP DUP1 DUP4 DUP3 MSTORE PUSH1 0x20 DUP3 ADD SWAP1 POP PUSH1 0x20 DUP5 MUL DUP4 ADD DUP6 DUP2 GT ISZERO PUSH3 0x968 JUMPI PUSH3 0x967 PUSH3 0x926 JUMP JUMPDEST JUMPDEST DUP4 JUMPDEST DUP2 DUP2 LT ISZERO PUSH3 0x9B6 JUMPI DUP1 CALLDATALOAD PUSH8 0xFFFFFFFFFFFFFFFF DUP2 GT ISZERO PUSH3 0x991 JUMPI PUSH3 0x990 PUSH3 0x521 JUMP JUMPDEST JUMPDEST DUP1 DUP7 ADD PUSH3 0x9A0 DUP10 DUP3 PUSH3 0x5BB JUMP JUMPDEST DUP6 MSTORE PUSH1 0x20 DUP6 ADD SWAP5 POP POP POP PUSH1 0x20 DUP2 ADD SWAP1 POP PUSH3 0x96A JUMP JUMPDEST POP POP POP SWAP4 SWAP3 POP POP POP JUMP JUMPDEST PUSH1 0x0 DUP3 PUSH1 0x1F DUP4 ADD SLT PUSH3 0x9D8 JUMPI PUSH3 0x9D7 PUSH3 0x521 JUMP JUMPDEST JUMPDEST DUP2 CALLDATALOAD PUSH3 0x9EA DUP5 DUP3 PUSH1 0x20 DUP7 ADD PUSH3 0x92B JUMP JUMPDEST SWAP2 POP POP SWAP3 SWAP2 POP POP JUMP JUMPDEST PUSH1 0x0 DUP1 PUSH1 0x0 PUSH1 0x60 DUP5 DUP7 SUB SLT ISZERO PUSH3 0xA0F JUMPI PUSH3 0xA0E PUSH3 0x271 JUMP JUMPDEST JUMPDEST PUSH1 0x0 DUP5 ADD CALLDATALOAD PUSH8 0xFFFFFFFFFFFFFFFF DUP2 GT ISZERO PUSH3 0xA30 JUMPI PUSH3 0xA2F PUSH3 0x276 JUMP JUMPDEST JUMPDEST PUSH3 0xA3E DUP7 DUP3 DUP8 ADD PUSH3 0x66A JUMP JUMPDEST SWAP4 POP POP PUSH1 0x20 PUSH3 0xA51 DUP7 DUP3 DUP8 ADD PUSH3 0x653 JUMP JUMPDEST SWAP3 POP POP PUSH1 0x40 DUP5 ADD CALLDATALOAD PUSH8 0xFFFFFFFFFFFFFFFF DUP2 GT ISZERO PUSH3 0xA75 JUMPI PUSH3 0xA74 PUSH3 0x276 JUMP JUMPDEST JUMPDEST PUSH3 0xA83 DUP7 DUP3 DUP8 ADD PUSH3 0x9C0 JUMP JUMPDEST SWAP2 POP POP SWAP3 POP SWAP3 POP SWAP3 JUMP JUMPDEST PUSH1 0x0 PUSH3 0xA9A DUP3 PUSH3 0x2E8 JUMP JUMPDEST SWAP1 POP SWAP2 SWAP1 POP JUMP JUMPDEST PUSH3 0xAAC DUP2 PUSH3 0xA8D JUMP JUMPDEST DUP3 MSTORE POP POP JUMP JUMPDEST PUSH1 0x0 PUSH1 0x20 DUP3 ADD SWAP1 POP PUSH3 0xAC9 PUSH1 0x0 DUP4 ADD DUP5 PUSH3 0xAA1 JUMP JUMPDEST SWAP3 SWAP2 POP POP JUMP JUMPDEST PUSH1 0x0 DUP2 MLOAD SWAP1 POP SWAP2 SWAP1 POP JUMP JUMPDEST PUSH1 0x0 DUP3 DUP3 MSTORE PUSH1 0x20 DUP3 ADD SWAP1 POP SWAP3 SWAP2 POP POP JUMP JUMPDEST PUSH1 0x0 JUMPDEST DUP4 DUP2 LT ISZERO PUSH3 0xB0B JUMPI DUP1 DUP3 ADD MLOAD DUP2 DUP5 ADD MSTORE PUSH1 0x20 DUP2 ADD SWAP1 POP PUSH3 0xAEE JUMP JUMPDEST PUSH1 0x0 DUP5 DUP5 ADD MSTORE POP POP POP POP JUMP JUMPDEST PUSH1 0x0 PUSH3 0xB24 DUP3 PUSH3 0xACF JUMP JUMPDEST PUSH3 0xB30 DUP2 DUP6 PUSH3 0xADA JUMP JUMPDEST SWAP4 POP PUSH3 0xB42 DUP2 DUP6 PUSH1 0x20 DUP7 ADD PUSH3 0xAEB JUMP JUMPDEST PUSH3 0xB4D DUP2 PUSH3 0x487 JUMP JUMPDEST DUP5 ADD SWAP2 POP POP SWAP3 SWAP2 POP POP JUMP JUMPDEST PUSH3 0xB63 DUP2 PUSH3 0x5EE JUMP JUMPDEST DUP3 MSTORE POP POP JUMP JUMPDEST PUSH3 0xB74 DUP2 PUSH3 0x62C JUMP JUMPDEST DUP3 MSTORE POP POP JUMP JUMPDEST PUSH3 0xB85 DUP2 PUSH3 0x27B JUMP JUMPDEST DUP3 MSTORE POP POP JUMP JUMPDEST PUSH1 0x0 PUSH2 0x1A0 DUP4 ADD PUSH1 0x0 DUP4 ADD MLOAD DUP5 DUP3 SUB PUSH1 0x0 DUP7 ADD MSTORE PUSH3 0xBAB DUP3 DUP3 PUSH3 0xB17 JUMP JUMPDEST SWAP2 POP POP PUSH1 0x20 DUP4 ADD MLOAD DUP5 DUP3 SUB PUSH1 0x20 DUP7 ADD MSTORE PUSH3 0xBC7 DUP3 DUP3 PUSH3 0xB17 JUMP JUMPDEST SWAP2 POP POP PUSH1 0x40 DUP4 ADD MLOAD DUP5 DUP3 SUB PUSH1 0x40 DUP7 ADD MSTORE PUSH3 0xBE3 DUP3 DUP3 PUSH3 0xB17 JUMP JUMPDEST SWAP2 POP POP PUSH1 0x60 DUP4 ADD MLOAD DUP5 DUP3 SUB PUSH1 0x60 DUP7 ADD MSTORE PUSH3 0xBFF DUP3 DUP3 PUSH3 0xB17 JUMP JUMPDEST SWAP2 POP POP PUSH1 0x80 DUP4 ADD MLOAD DUP5 DUP3 SUB PUSH1 0x80 DUP7 ADD MSTORE PUSH3 0xC1B DUP3 DUP3 PUSH3 0xB17 JUMP JUMPDEST SWAP2 POP POP PUSH1 0xA0 DUP4 ADD MLOAD PUSH3 0xC32 PUSH1 0xA0 DUP7 ADD DUP3 PUSH3 0xB58 JUMP JUMPDEST POP PUSH1 0xC0 DUP4 ADD MLOAD DUP5 DUP3 SUB PUSH1 0xC0 DUP7 ADD MSTORE PUSH3 0xC4C DUP3 DUP3 PUSH3 0xB17 JUMP JUMPDEST SWAP2 POP POP PUSH1 0xE0 DUP4 ADD MLOAD DUP5 DUP3 SUB PUSH1 0xE0 DUP7 ADD MSTORE PUSH3 0xC68 DUP3 DUP3 PUSH3 0xB17 JUMP JUMPDEST SWAP2 POP POP PUSH2 0x100 DUP4 ADD MLOAD DUP5 DUP3 SUB PUSH2 0x100 DUP7 ADD MSTORE PUSH3 0xC86 DUP3 DUP3 PUSH3 0xB17 JUMP JUMPDEST SWAP2 POP POP PUSH2 0x120 DUP4 ADD MLOAD DUP5 DUP3 SUB PUSH2 0x120 DUP7 ADD MSTORE PUSH3 0xCA4 DUP3 DUP3 PUSH3 0xB17 JUMP JUMPDEST SWAP2 POP POP PUSH2 0x140 DUP4 ADD MLOAD DUP5 DUP3 SUB PUSH2 0x140 DUP7 ADD MSTORE PUSH3 0xCC2 DUP3 DUP3 PUSH3 0xB17 JUMP JUMPDEST SWAP2 POP POP PUSH2 0x160 DUP4 ADD MLOAD PUSH3 0xCDB PUSH2 0x160 DUP7 ADD DUP3 PUSH3 0xB69 JUMP JUMPDEST POP PUSH2 0x180 DUP4 ADD MLOAD PUSH3 0xCF2 PUSH2 0x180 DUP7 ADD DUP3 PUSH3 0xB7A JUMP JUMPDEST POP DUP1 SWAP2 POP POP SWAP3 SWAP2 POP POP JUMP JUMPDEST PUSH3 0xD08 DUP2 PUSH3 0x62C JUMP JUMPDEST DUP3 MSTORE POP POP JUMP JUMPDEST PUSH1 0x0 DUP2 MLOAD SWAP1 POP SWAP2 SWAP1 POP JUMP JUMPDEST PUSH1 0x0 DUP3 DUP3 MSTORE PUSH1 0x20 DUP3 ADD SWAP1 POP SWAP3 SWAP2 POP POP JUMP JUMPDEST PUSH1 0x0 DUP2 SWAP1 POP PUSH1 0x20 DUP3 ADD SWAP1 POP SWAP2 SWAP1 POP JUMP JUMPDEST PUSH1 0x0 PUSH3 0xD48 DUP4 DUP4 PUSH3 0xB17 JUMP JUMPDEST SWAP1 POP SWAP3 SWAP2 POP POP JUMP JUMPDEST PUSH1 0x0 PUSH1 0x20 DUP3 ADD SWAP1 POP SWAP2 SWAP1 POP JUMP JUMPDEST PUSH1 0x0 PUSH3 0xD6A DUP3 PUSH3 0xD0E JUMP JUMPDEST PUSH3 0xD76 DUP2 DUP6 PUSH3 0xD19 JUMP JUMPDEST SWAP4 POP DUP4 PUSH1 0x20 DUP3 MUL DUP6 ADD PUSH3 0xD8A DUP6 PUSH3 0xD2A JUMP JUMPDEST DUP1 PUSH1 0x0 JUMPDEST DUP6 DUP2 LT ISZERO PUSH3 0xDCC JUMPI DUP5 DUP5 SUB DUP10 MSTORE DUP2 MLOAD PUSH3 0xDAA DUP6 DUP3 PUSH3 0xD3A JUMP JUMPDEST SWAP5 POP PUSH3 0xDB7 DUP4 PUSH3 0xD50 JUMP JUMPDEST SWAP3 POP PUSH1 0x20 DUP11 ADD SWAP10 POP POP PUSH1 0x1 DUP2 ADD SWAP1 POP PUSH3 0xD8E JUMP JUMPDEST POP DUP3 SWAP8 POP DUP8 SWAP6 POP POP POP POP POP POP SWAP3 SWAP2 POP POP JUMP JUMPDEST PUSH1 0x0 PUSH1 0x60 DUP3 ADD SWAP1 POP DUP2 DUP2 SUB PUSH1 0x0 DUP4 ADD MSTORE PUSH3 0xDFA DUP2 DUP7 PUSH3 0xB8B JUMP JUMPDEST SWAP1 POP PUSH3 0xE0B PUSH1 0x20 DUP4 ADD DUP6 PUSH3 0xCFD JUMP JUMPDEST DUP2 DUP2 SUB PUSH1 0x40 DUP4 ADD MSTORE PUSH3 0xE1F DUP2 DUP5 PUSH3 0xD5D JUMP JUMPDEST SWAP1 POP SWAP5 SWAP4 POP POP POP POP JUMP INVALID PUSH1 0x80 PUSH1 0x40 MSTORE CALLVALUE DUP1 ISZERO PUSH3 0x11 JUMPI PUSH1 0x0 DUP1 REVERT JUMPDEST POP PUSH1 0x40 MLOAD PUSH3 0x2417 CODESIZE SUB DUP1 PUSH3 0x2417 DUP4 CODECOPY DUP2 DUP2 ADD PUSH1 0x40 MSTORE DUP2 ADD SWAP1 PUSH3 0x37 SWAP2 SWAP1 PUSH3 0xA3A JUMP JUMPDEST CALLER PUSH1 0x0 DUP1 PUSH2 0x100 EXP DUP2 SLOAD DUP2 PUSH20 0xFFFFFFFFFFFFFFFFFFFFFFFFFFFFFFFFFFFFFFFF MUL NOT AND SWAP1 DUP4 PUSH20 0xFFFFFFFFFFFFFFFFFFFFFFFFFFFFFFFFFFFFFFFF AND MUL OR SWAP1 SSTORE POP PUSH3 0xA6 PUSH1 0x40 MLOAD DUP1 PUSH1 0x60 ADD PUSH1 0x40 MSTORE DUP1 PUSH1 0x27 DUP2 MSTORE PUSH1 0x20 ADD PUSH3 0x23F0 PUSH1 0x27 SWAP2 CODECOPY PUSH3 0x263 PUSH1 0x20 SHL PUSH3 0xB64 OR PUSH1 0x20 SHR JUMP JUMPDEST DUP3 PUSH1 0x1 PUSH1 0x0 DUP3 ADD MLOAD DUP2 PUSH1 0x0 ADD SWAP1 DUP2 PUSH3 0xC0 SWAP2 SWAP1 PUSH3 0xD15 JUMP JUMPDEST POP PUSH1 0x20 DUP3 ADD MLOAD DUP2 PUSH1 0x1 ADD SWAP1 DUP2 PUSH3 0xD8 SWAP2 SWAP1 PUSH3 0xD15 JUMP JUMPDEST POP PUSH1 0x40 DUP3 ADD MLOAD DUP2 PUSH1 0x2 ADD SWAP1 DUP2 PUSH3 0xF0 SWAP2 SWAP1 PUSH3 0xD15 JUMP JUMPDEST POP PUSH1 0x60 DUP3 ADD MLOAD DUP2 PUSH1 0x3 ADD SWAP1 DUP2 PUSH3 0x108 SWAP2 SWAP1 PUSH3 0xD15 JUMP JUMPDEST POP PUSH1 0x80 DUP3 ADD MLOAD DUP2 PUSH1 0x4 ADD SWAP1 DUP2 PUSH3 0x120 SWAP2 SWAP1 PUSH3 0xD15 JUMP JUMPDEST POP PUSH1 0xA0 DUP3 ADD MLOAD DUP2 PUSH1 0x5 ADD PUSH1 0x0 PUSH2 0x100 EXP DUP2 SLOAD DUP2 PUSH2 0xFFFF MUL NOT AND SWAP1 DUP4 PUSH1 0x1 SIGNEXTEND PUSH2 0xFFFF AND MUL OR SWAP1 SSTORE POP PUSH1 0xC0 DUP3 ADD MLOAD DUP2 PUSH1 0x6 ADD SWAP1 DUP2 PUSH3 0x15E SWAP2 SWAP1 PUSH3 0xD15 JUMP JUMPDEST POP PUSH1 0xE0 DUP3 ADD MLOAD DUP2 PUSH1 0x7 ADD SWAP1 DUP2 PUSH3 0x176 SWAP2 SWAP1 PUSH3 0xD15 JUMP JUMPDEST POP PUSH2 0x100 DUP3 ADD MLOAD DUP2 PUSH1 0x8 ADD SWAP1 DUP2 PUSH3 0x18F SWAP2 SWAP1 PUSH3 0xD15 JUMP JUMPDEST POP PUSH2 0x120 DUP3 ADD MLOAD DUP2 PUSH1 0x9 ADD SWAP1 DUP2 PUSH3 0x1A8 SWAP2 SWAP1 PUSH3 0xD15 JUMP JUMPDEST POP PUSH2 0x140 DUP3 ADD MLOAD DUP2 PUSH1 0xA ADD SWAP1 DUP2 PUSH3 0x1C1 SWAP2 SWAP1 PUSH3 0xD15 JUMP JUMPDEST POP PUSH2 0x160 DUP3 ADD MLOAD DUP2 PUSH1 0xB ADD PUSH1 0x0 PUSH2 0x100 EXP DUP2 SLOAD DUP2 PUSH4 0xFFFFFFFF MUL NOT AND SWAP1 DUP4 PUSH1 0x3 SIGNEXTEND PUSH4 0xFFFFFFFF AND MUL OR SWAP1 SSTORE POP PUSH2 0x180 DUP3 ADD MLOAD DUP2 PUSH1 0xC ADD SSTORE SWAP1 POP POP DUP2 PUSH1 0xE PUSH1 0x0 PUSH2 0x100 EXP DUP2 SLOAD DUP2 PUSH4 0xFFFFFFFF MUL NOT AND SWAP1 DUP4 PUSH1 0x3 SIGNEXTEND PUSH4 0xFFFFFFFF AND MUL OR SWAP1 SSTORE POP DUP1 PUSH1 0xF SWAP1 DUP1 MLOAD SWAP1 PUSH1 0x20 ADD SWAP1 PUSH3 0x237 SWAP3 SWAP2 SWAP1 PUSH3 0x364 JUMP JUMPDEST POP PUSH1 0x0 PUSH1 0x11 PUSH1 0x0 PUSH2 0x100 EXP DUP2 SLOAD DUP2 PUSH4 0xFFFFFFFF MUL NOT AND SWAP1 DUP4 PUSH4 0xFFFFFFFF AND MUL OR SWAP1 SSTORE POP POP POP POP PUSH3 0xEA1 JUMP JUMPDEST PUSH3 0x303 DUP2 PUSH1 0x40 MLOAD PUSH1 0x24 ADD PUSH3 0x27A SWAP2 SWAP1 PUSH3 0xE4E JUMP JUMPDEST PUSH1 0x40 MLOAD PUSH1 0x20 DUP2 DUP4 SUB SUB DUP2 MSTORE SWAP1 PUSH1 0x40 MSTORE PUSH32 0x41304FAC00000000000000000000000000000000000000000000000000000000 PUSH28 0xFFFFFFFFFFFFFFFFFFFFFFFFFFFFFFFFFFFFFFFFFFFFFFFFFFFFFFFF NOT AND PUSH1 0x20 DUP3 ADD DUP1 MLOAD PUSH28 0xFFFFFFFFFFFFFFFFFFFFFFFFFFFFFFFFFFFFFFFFFFFFFFFFFFFFFFFF DUP4 DUP2 DUP4 AND OR DUP4 MSTORE POP POP POP POP PUSH3 0x306 PUSH1 0x20 SHL PUSH1 0x20 SHR JUMP JUMPDEST POP JUMP JUMPDEST PUSH3 0x32C DUP2 PUSH3 0x327 PUSH3 0x32F PUSH1 0x20 SHL PUSH3 0xBFD OR PUSH3 0x350 PUSH1 0x20 SHL PUSH1 0x20 SHR JUMP JUMPDEST PUSH1 0x20 SHR JUMP JUMPDEST POP JUMP JUMPDEST PUSH1 0x0 PUSH11 0x636F6E736F6C652E6C6F67 SWAP1 POP PUSH1 0x0 DUP1 DUP4 MLOAD PUSH1 0x20 DUP6 ADD DUP5 GAS STATICCALL POP POP POP JUMP JUMPDEST PUSH3 0x3C4 PUSH1 0x20 SHL PUSH3 0xD39 OR DUP2 SWAP1 POP SWAP2 SWAP1 POP JUMP JUMPDEST DUP3 DUP1 SLOAD DUP3 DUP3 SSTORE SWAP1 PUSH1 0x0 MSTORE PUSH1 0x20 PUSH1 0x0 KECCAK256 SWAP1 DUP2 ADD SWAP3 DUP3 ISZERO PUSH3 0x3B1 JUMPI SWAP2 PUSH1 0x20 MUL DUP3 ADD JUMPDEST DUP3 DUP2 GT ISZERO PUSH3 0x3B0 JUMPI DUP3 MLOAD DUP3 SWAP1 DUP2 PUSH3 0x39F SWAP2 SWAP1 PUSH3 0xD15 JUMP JUMPDEST POP SWAP2 PUSH1 0x20 ADD SWAP2 SWAP1 PUSH1 0x1 ADD SWAP1 PUSH3 0x385 JUMP JUMPDEST JUMPDEST POP SWAP1 POP PUSH3 0x3C0 SWAP2 SWAP1 PUSH3 0x3D0 JUMP JUMPDEST POP SWAP1 JUMP JUMPDEST PUSH3 0x3CE PUSH3 0xE72 JUMP JUMPDEST JUMP JUMPDEST JUMPDEST DUP1 DUP3 GT ISZERO PUSH3 0x3F4 JUMPI PUSH1 0x0 DUP2 DUP2 PUSH3 0x3EA SWAP2 SWAP1 PUSH3 0x3F8 JUMP JUMPDEST POP PUSH1 0x1 ADD PUSH3 0x3D1 JUMP JUMPDEST POP SWAP1 JUMP JUMPDEST POP DUP1 SLOAD PUSH3 0x406 SWAP1 PUSH3 0xB0E JUMP JUMPDEST PUSH1 0x0 DUP3 SSTORE DUP1 PUSH1 0x1F LT PUSH3 0x41A JUMPI POP PUSH3 0x43B JUMP JUMPDEST PUSH1 0x1F ADD PUSH1 0x20 SWAP1 DIV SWAP1 PUSH1 0x0 MSTORE PUSH1 0x20 PUSH1 0x0 KECCAK256 SWAP1 DUP2 ADD SWAP1 PUSH3 0x43A SWAP2 SWAP1 PUSH3 0x43E JUMP JUMPDEST JUMPDEST POP JUMP JUMPDEST JUMPDEST DUP1 DUP3 GT ISZERO PUSH3 0x459 JUMPI PUSH1 0x0 DUP2 PUSH1 0x0 SWAP1 SSTORE POP PUSH1 0x1 ADD PUSH3 0x43F JUMP JUMPDEST POP SWAP1 JUMP JUMPDEST PUSH1 0x0 PUSH1 0x40 MLOAD SWAP1 POP SWAP1 JUMP JUMPDEST PUSH1 0x0 DUP1 REVERT JUMPDEST PUSH1 0x0 DUP1 REVERT JUMPDEST PUSH1 0x0 DUP1 REVERT JUMPDEST PUSH1 0x0 PUSH1 0x1F NOT PUSH1 0x1F DUP4 ADD AND SWAP1 POP SWAP2 SWAP1 POP JUMP JUMPDEST PUSH32 0x4E487B7100000000000000000000000000000000000000000000000000000000 PUSH1 0x0 MSTORE PUSH1 0x41 PUSH1 0x4 MSTORE PUSH1 0x24 PUSH1 0x0 REVERT JUMPDEST PUSH3 0x4C1 DUP3 PUSH3 0x476 JUMP JUMPDEST DUP2 ADD DUP2 DUP2 LT PUSH8 0xFFFFFFFFFFFFFFFF DUP3 GT OR ISZERO PUSH3 0x4E3 JUMPI PUSH3 0x4E2 PUSH3 0x487 JUMP JUMPDEST JUMPDEST DUP1 PUSH1 0x40 MSTORE POP POP POP JUMP JUMPDEST PUSH1 0x0 PUSH3 0x4F8 PUSH3 0x45D JUMP JUMPDEST SWAP1 POP PUSH3 0x506 DUP3 DUP3 PUSH3 0x4B6 JUMP JUMPDEST SWAP2 SWAP1 POP JUMP JUMPDEST PUSH1 0x0 DUP1 REVERT JUMPDEST PUSH1 0x0 DUP1 REVERT JUMPDEST PUSH1 0x0 DUP1 REVERT JUMPDEST PUSH1 0x0 PUSH8 0xFFFFFFFFFFFFFFFF DUP3 GT ISZERO PUSH3 0x538 JUMPI PUSH3 0x537 PUSH3 0x487 JUMP JUMPDEST JUMPDEST PUSH3 0x543 DUP3 PUSH3 0x476 JUMP JUMPDEST SWAP1 POP PUSH1 0x20 DUP2 ADD SWAP1 POP SWAP2 SWAP1 POP JUMP JUMPDEST PUSH1 0x0 JUMPDEST DUP4 DUP2 LT ISZERO PUSH3 0x570 JUMPI DUP1 DUP3 ADD MLOAD DUP2 DUP5 ADD MSTORE PUSH1 0x20 DUP2 ADD SWAP1 POP PUSH3 0x553 JUMP JUMPDEST PUSH1 0x0 DUP5 DUP5 ADD MSTORE POP POP POP POP JUMP JUMPDEST PUSH1 0x0 PUSH3 0x593 PUSH3 0x58D DUP5 PUSH3 0x51A JUMP JUMPDEST PUSH3 0x4EC JUMP JUMPDEST SWAP1 POP DUP3 DUP2 MSTORE PUSH1 0x20 DUP2 ADD DUP5 DUP5 DUP5 ADD GT ISZERO PUSH3 0x5B2 JUMPI PUSH3 0x5B1 PUSH3 0x515 JUMP JUMPDEST JUMPDEST PUSH3 0x5BF DUP5 DUP3 DUP6 PUSH3 0x550 JUMP JUMPDEST POP SWAP4 SWAP3 POP POP POP JUMP JUMPDEST PUSH1 0x0 DUP3 PUSH1 0x1F DUP4 ADD SLT PUSH3 0x5DF JUMPI PUSH3 0x5DE PUSH3 0x510 JUMP JUMPDEST JUMPDEST DUP2 MLOAD PUSH3 0x5F1 DUP5 DUP3 PUSH1 0x20 DUP7 ADD PUSH3 0x57C JUMP JUMPDEST SWAP2 POP POP SWAP3 SWAP2 POP POP JUMP JUMPDEST PUSH1 0x0 DUP2 PUSH1 0x1 SIGNEXTEND SWAP1 POP SWAP2 SWAP1 POP JUMP JUMPDEST PUSH3 0x612 DUP2 PUSH3 0x5FA JUMP JUMPDEST DUP2 EQ PUSH3 0x61E JUMPI PUSH1 0x0 DUP1 REVERT JUMPDEST POP JUMP JUMPDEST PUSH1 0x0 DUP2 MLOAD SWAP1 POP PUSH3 0x632 DUP2 PUSH3 0x607 JUMP JUMPDEST SWAP3 SWAP2 POP POP JUMP JUMPDEST PUSH1 0x0 DUP2 PUSH1 0x3 SIGNEXTEND SWAP1 POP SWAP2 SWAP1 POP JUMP JUMPDEST PUSH3 0x650 DUP2 PUSH3 0x638 JUMP JUMPDEST DUP2 EQ PUSH3 0x65C JUMPI PUSH1 0x0 DUP1 REVERT JUMPDEST POP JUMP JUMPDEST PUSH1 0x0 DUP2 MLOAD SWAP1 POP PUSH3 0x670 DUP2 PUSH3 0x645 JUMP JUMPDEST SWAP3 SWAP2 POP POP JUMP JUMPDEST PUSH1 0x0 DUP2 SWAP1 POP SWAP2 SWAP1 POP JUMP JUMPDEST PUSH3 0x68B DUP2 PUSH3 0x676 JUMP JUMPDEST DUP2 EQ PUSH3 0x697 JUMPI PUSH1 0x0 DUP1 REVERT JUMPDEST POP JUMP JUMPDEST PUSH1 0x0 DUP2 MLOAD SWAP1 POP PUSH3 0x6AB DUP2 PUSH3 0x680 JUMP JUMPDEST SWAP3 SWAP2 POP POP JUMP JUMPDEST PUSH1 0x0 PUSH2 0x1A0 DUP3 DUP5 SUB SLT ISZERO PUSH3 0x6CB JUMPI PUSH3 0x6CA PUSH3 0x471 JUMP JUMPDEST JUMPDEST PUSH3 0x6D8 PUSH2 0x1A0 PUSH3 0x4EC JUMP JUMPDEST SWAP1 POP PUSH1 0x0 DUP3 ADD MLOAD PUSH8 0xFFFFFFFFFFFFFFFF DUP2 GT ISZERO PUSH3 0x6FB JUMPI PUSH3 0x6FA PUSH3 0x50B JUMP JUMPDEST JUMPDEST PUSH3 0x709 DUP5 DUP3 DUP6 ADD PUSH3 0x5C7 JUMP JUMPDEST PUSH1 0x0 DUP4 ADD MSTORE POP PUSH1 0x20 DUP3 ADD MLOAD PUSH8 0xFFFFFFFFFFFFFFFF DUP2 GT ISZERO PUSH3 0x730 JUMPI PUSH3 0x72F PUSH3 0x50B JUMP JUMPDEST JUMPDEST PUSH3 0x73E DUP5 DUP3 DUP6 ADD PUSH3 0x5C7 JUMP JUMPDEST PUSH1 0x20 DUP4 ADD MSTORE POP PUSH1 0x40 DUP3 ADD MLOAD PUSH8 0xFFFFFFFFFFFFFFFF DUP2 GT ISZERO PUSH3 0x765 JUMPI PUSH3 0x764 PUSH3 0x50B JUMP JUMPDEST JUMPDEST PUSH3 0x773 DUP5 DUP3 DUP6 ADD PUSH3 0x5C7 JUMP JUMPDEST PUSH1 0x40 DUP4 ADD MSTORE POP PUSH1 0x60 DUP3 ADD MLOAD PUSH8 0xFFFFFFFFFFFFFFFF DUP2 GT ISZERO PUSH3 0x79A JUMPI PUSH3 0x799 PUSH3 0x50B JUMP JUMPDEST JUMPDEST PUSH3 0x7A8 DUP5 DUP3 DUP6 ADD PUSH3 0x5C7 JUMP JUMPDEST PUSH1 0x60 DUP4 ADD MSTORE POP PUSH1 0x80 DUP3 ADD MLOAD PUSH8 0xFFFFFFFFFFFFFFFF DUP2 GT ISZERO PUSH3 0x7CF JUMPI PUSH3 0x7CE PUSH3 0x50B JUMP JUMPDEST JUMPDEST PUSH3 0x7DD DUP5 DUP3 DUP6 ADD PUSH3 0x5C7 JUMP JUMPDEST PUSH1 0x80 DUP4 ADD MSTORE POP PUSH1 0xA0 PUSH3 0x7F3 DUP5 DUP3 DUP6 ADD PUSH3 0x621 JUMP JUMPDEST PUSH1 0xA0 DUP4 ADD MSTORE POP PUSH1 0xC0 DUP3 ADD MLOAD PUSH8 0xFFFFFFFFFFFFFFFF DUP2 GT ISZERO PUSH3 0x81A JUMPI PUSH3 0x819 PUSH3 0x50B JUMP JUMPDEST JUMPDEST PUSH3 0x828 DUP5 DUP3 DUP6 ADD PUSH3 0x5C7 JUMP JUMPDEST PUSH1 0xC0 DUP4 ADD MSTORE POP PUSH1 0xE0 DUP3 ADD MLOAD PUSH8 0xFFFFFFFFFFFFFFFF DUP2 GT ISZERO PUSH3 0x84F JUMPI PUSH3 0x84E PUSH3 0x50B JUMP JUMPDEST JUMPDEST PUSH3 0x85D DUP5 DUP3 DUP6 ADD PUSH3 0x5C7 JUMP JUMPDEST PUSH1 0xE0 DUP4 ADD MSTORE POP PUSH2 0x100 DUP3 ADD MLOAD PUSH8 0xFFFFFFFFFFFFFFFF DUP2 GT ISZERO PUSH3 0x885 JUMPI PUSH3 0x884 PUSH3 0x50B JUMP JUMPDEST JUMPDEST PUSH3 0x893 DUP5 DUP3 DUP6 ADD PUSH3 0x5C7 JUMP JUMPDEST PUSH2 0x100 DUP4 ADD MSTORE POP PUSH2 0x120 DUP3 ADD MLOAD PUSH8 0xFFFFFFFFFFFFFFFF DUP2 GT ISZERO PUSH3 0x8BC JUMPI PUSH3 0x8BB PUSH3 0x50B JUMP JUMPDEST JUMPDEST PUSH3 0x8CA DUP5 DUP3 DUP6 ADD PUSH3 0x5C7 JUMP JUMPDEST PUSH2 0x120 DUP4 ADD MSTORE POP PUSH2 0x140 DUP3 ADD MLOAD PUSH8 0xFFFFFFFFFFFFFFFF DUP2 GT ISZERO PUSH3 0x8F3 JUMPI PUSH3 0x8F2 PUSH3 0x50B JUMP JUMPDEST JUMPDEST PUSH3 0x901 DUP5 DUP3 DUP6 ADD PUSH3 0x5C7 JUMP JUMPDEST PUSH2 0x140 DUP4 ADD MSTORE POP PUSH2 0x160 PUSH3 0x919 DUP5 DUP3 DUP6 ADD PUSH3 0x65F JUMP JUMPDEST PUSH2 0x160 DUP4 ADD MSTORE POP PUSH2 0x180 PUSH3 0x931 DUP5 DUP3 DUP6 ADD PUSH3 0x69A JUMP JUMPDEST PUSH2 0x180 DUP4 ADD MSTORE POP SWAP3 SWAP2 POP POP JUMP JUMPDEST PUSH1 0x0 PUSH8 0xFFFFFFFFFFFFFFFF DUP3 GT ISZERO PUSH3 0x95C JUMPI PUSH3 0x95B PUSH3 0x487 JUMP JUMPDEST JUMPDEST PUSH1 0x20 DUP3 MUL SWAP1 POP PUSH1 0x20 DUP2 ADD SWAP1 POP SWAP2 SWAP1 POP JUMP JUMPDEST PUSH1 0x0 DUP1 REVERT JUMPDEST PUSH1 0x0 PUSH3 0x989 PUSH3 0x983 DUP5 PUSH3 0x93E JUMP JUMPDEST PUSH3 0x4EC JUMP JUMPDEST SWAP1 POP DUP1 DUP4 DUP3 MSTORE PUSH1 0x20 DUP3 ADD SWAP1 POP PUSH1 0x20 DUP5 MUL DUP4 ADD DUP6 DUP2 GT ISZERO PUSH3 0x9AF JUMPI PUSH3 0x9AE PUSH3 0x96D JUMP JUMPDEST JUMPDEST DUP4 JUMPDEST DUP2 DUP2 LT ISZERO PUSH3 0x9FD JUMPI DUP1 MLOAD PUSH8 0xFFFFFFFFFFFFFFFF DUP2 GT ISZERO PUSH3 0x9D8 JUMPI PUSH3 0x9D7 PUSH3 0x510 JUMP JUMPDEST JUMPDEST DUP1 DUP7 ADD PUSH3 0x9E7 DUP10 DUP3 PUSH3 0x5C7 JUMP JUMPDEST DUP6 MSTORE PUSH1 0x20 DUP6 ADD SWAP5 POP POP POP PUSH1 0x20 DUP2 ADD SWAP1 POP PUSH3 0x9B1 JUMP JUMPDEST POP POP POP SWAP4 SWAP3 POP POP POP JUMP JUMPDEST PUSH1 0x0 DUP3 PUSH1 0x1F DUP4 ADD SLT PUSH3 0xA1F JUMPI PUSH3 0xA1E PUSH3 0x510 JUMP JUMPDEST JUMPDEST DUP2 MLOAD PUSH3 0xA31 DUP5 DUP3 PUSH1 0x20 DUP7 ADD PUSH3 0x972 JUMP JUMPDEST SWAP2 POP POP SWAP3 SWAP2 POP POP JUMP JUMPDEST PUSH1 0x0 DUP1 PUSH1 0x0 PUSH1 0x60 DUP5 DUP7 SUB SLT ISZERO PUSH3 0xA56 JUMPI PUSH3 0xA55 PUSH3 0x467 JUMP JUMPDEST JUMPDEST PUSH1 0x0 DUP5 ADD MLOAD PUSH8 0xFFFFFFFFFFFFFFFF DUP2 GT ISZERO PUSH3 0xA77 JUMPI PUSH3 0xA76 PUSH3 0x46C JUMP JUMPDEST JUMPDEST PUSH3 0xA85 DUP7 DUP3 DUP8 ADD PUSH3 0x6B1 JUMP JUMPDEST SWAP4 POP POP PUSH1 0x20 PUSH3 0xA98 DUP7 DUP3 DUP8 ADD PUSH3 0x65F JUMP JUMPDEST SWAP3 POP POP PUSH1 0x40 DUP5 ADD MLOAD PUSH8 0xFFFFFFFFFFFFFFFF DUP2 GT ISZERO PUSH3 0xABC JUMPI PUSH3 0xABB PUSH3 0x46C JUMP JUMPDEST JUMPDEST PUSH3 0xACA DUP7 DUP3 DUP8 ADD PUSH3 0xA07 JUMP JUMPDEST SWAP2 POP POP SWAP3 POP SWAP3 POP SWAP3 JUMP JUMPDEST PUSH1 0x0 DUP2 MLOAD SWAP1 POP SWAP2 SWAP1 POP JUMP JUMPDEST PUSH32 0x4E487B7100000000000000000000000000000000000000000000000000000000 PUSH1 0x0 MSTORE PUSH1 0x22 PUSH1 0x4 MSTORE PUSH1 0x24 PUSH1 0x0 REVERT JUMPDEST PUSH1 0x0 PUSH1 0x2 DUP3 DIV SWAP1 POP PUSH1 0x1 DUP3 AND DUP1 PUSH3 0xB27 JUMPI PUSH1 0x7F DUP3 AND SWAP2 POP JUMPDEST PUSH1 0x20 DUP3 LT DUP2 SUB PUSH3 0xB3D JUMPI PUSH3 0xB3C PUSH3 0xADF JUMP JUMPDEST JUMPDEST POP SWAP2 SWAP1 POP JUMP JUMPDEST PUSH1 0x0 DUP2 SWAP1 POP DUP2 PUSH1 0x0 MSTORE PUSH1 0x20 PUSH1 0x0 KECCAK256 SWAP1 POP SWAP2 SWAP1 POP JUMP JUMPDEST PUSH1 0x0 PUSH1 0x20 PUSH1 0x1F DUP4 ADD DIV SWAP1 POP SWAP2 SWAP1 POP JUMP JUMPDEST PUSH1 0x0 DUP3 DUP3 SHL SWAP1 POP SWAP3 SWAP2 POP POP JUMP JUMPDEST PUSH1 0x0 PUSH1 0x8 DUP4 MUL PUSH3 0xBA7 PUSH32 0xFFFFFFFFFFFFFFFFFFFFFFFFFFFFFFFFFFFFFFFFFFFFFFFFFFFFFFFFFFFFFFFF DUP3 PUSH3 0xB68 JUMP JUMPDEST PUSH3 0xBB3 DUP7 DUP4 PUSH3 0xB68 JUMP JUMPDEST SWAP6 POP DUP1 NOT DUP5 AND SWAP4 POP DUP1 DUP7 AND DUP5 OR SWAP3 POP POP POP SWAP4 SWAP3 POP POP POP JUMP JUMPDEST PUSH1 0x0 DUP2 SWAP1 POP SWAP2 SWAP1 POP JUMP JUMPDEST PUSH1 0x0 PUSH3 0xBF6 PUSH3 0xBF0 PUSH3 0xBEA DUP5 PUSH3 0x676 JUMP JUMPDEST PUSH3 0xBCB JUMP JUMPDEST PUSH3 0x676 JUMP JUMPDEST SWAP1 POP SWAP2 SWAP1 POP JUMP JUMPDEST PUSH1 0x0 DUP2 SWAP1 POP SWAP2 SWAP1 POP JUMP JUMPDEST PUSH3 0xC12 DUP4 PUSH3 0xBD5 JUMP JUMPDEST PUSH3 0xC2A PUSH3 0xC21 DUP3 PUSH3 0xBFD JUMP JUMPDEST DUP5 DUP5 SLOAD PUSH3 0xB75 JUMP JUMPDEST DUP3 SSTORE POP POP POP POP JUMP JUMPDEST PUSH1 0x0 SWAP1 JUMP JUMPDEST PUSH3 0xC41 PUSH3 0xC32 JUMP JUMPDEST PUSH3 0xC4E DUP2 DUP5 DUP5 PUSH3 0xC07 JUMP JUMPDEST POP POP POP JUMP JUMPDEST JUMPDEST DUP2 DUP2 LT ISZERO PUSH3 0xC76 JUMPI PUSH3 0xC6A PUSH1 0x0 DUP3 PUSH3 0xC37 JUMP JUMPDEST PUSH1 0x1 DUP2 ADD SWAP1 POP PUSH3 0xC54 JUMP JUMPDEST POP POP JUMP JUMPDEST PUSH1 0x1F DUP3 GT ISZERO PUSH3 0xCC5 JUMPI PUSH3 0xC8F DUP2 PUSH3 0xB43 JUMP JUMPDEST PUSH3 0xC9A DUP5 PUSH3 0xB58 JUMP JUMPDEST DUP2 ADD PUSH1 0x20 DUP6 LT ISZERO PUSH3 0xCAA JUMPI DUP2 SWAP1 POP JUMPDEST PUSH3 0xCC2 PUSH3 0xCB9 DUP6 PUSH3 0xB58 JUMP JUMPDEST DUP4 ADD DUP3 PUSH3 0xC53 JUMP JUMPDEST POP POP JUMPDEST POP POP POP JUMP JUMPDEST PUSH1 0x0 DUP3 DUP3 SHR SWAP1 POP SWAP3 SWAP2 POP POP JUMP JUMPDEST PUSH1 0x0 PUSH3 0xCEA PUSH1 0x0 NOT DUP5 PUSH1 0x8 MUL PUSH3 0xCCA JUMP JUMPDEST NOT DUP1 DUP4 AND SWAP2 POP POP SWAP3 SWAP2 POP POP JUMP JUMPDEST PUSH1 0x0 PUSH3 0xD05 DUP4 DUP4 PUSH3 0xCD7 JUMP JUMPDEST SWAP2 POP DUP3 PUSH1 0x2 MUL DUP3 OR SWAP1 POP SWAP3 SWAP2 POP POP JUMP JUMPDEST PUSH3 0xD20 DUP3 PUSH3 0xAD4 JUMP JUMPDEST PUSH8 0xFFFFFFFFFFFFFFFF DUP2 GT ISZERO PUSH3 0xD3C JUMPI PUSH3 0xD3B PUSH3 0x487 JUMP JUMPDEST JUMPDEST PUSH3 0xD48 DUP3 SLOAD PUSH3 0xB0E JUMP JUMPDEST PUSH3 0xD55 DUP3 DUP3 DUP6 PUSH3 0xC7A JUMP JUMPDEST PUSH1 0x0 PUSH1 0x20 SWAP1 POP PUSH1 0x1F DUP4 GT PUSH1 0x1 DUP2 EQ PUSH3 0xD8D JUMPI PUSH1 0x0 DUP5 ISZERO PUSH3 0xD78 JUMPI DUP3 DUP8 ADD MLOAD SWAP1 POP JUMPDEST PUSH3 0xD84 DUP6 DUP3 PUSH3 0xCF7 JUMP JUMPDEST DUP7 SSTORE POP PUSH3 0xDF4 JUMP JUMPDEST PUSH1 0x1F NOT DUP5 AND PUSH3 0xD9D DUP7 PUSH3 0xB43 JUMP JUMPDEST PUSH1 0x0 JUMPDEST DUP3 DUP2 LT ISZERO PUSH3 0xDC7 JUMPI DUP5 DUP10 ADD MLOAD DUP3 SSTORE PUSH1 0x1 DUP3 ADD SWAP2 POP PUSH1 0x20 DUP6 ADD SWAP5 POP PUSH1 0x20 DUP2 ADD SWAP1 POP PUSH3 0xDA0 JUMP JUMPDEST DUP7 DUP4 LT ISZERO PUSH3 0xDE7 JUMPI DUP5 DUP10 ADD MLOAD PUSH3 0xDE3 PUSH1 0x1F DUP10 AND DUP3 PUSH3 0xCD7 JUMP JUMPDEST DUP4 SSTORE POP JUMPDEST PUSH1 0x1 PUSH1 0x2 DUP9 MUL ADD DUP9 SSTORE POP POP POP JUMPDEST POP POP POP POP POP POP JUMP JUMPDEST PUSH1 0x0 DUP3 DUP3 MSTORE PUSH1 0x20 DUP3 ADD SWAP1 POP SWAP3 SWAP2 POP POP JUMP JUMPDEST PUSH1 0x0 PUSH3 0xE1A DUP3 PUSH3 0xAD4 JUMP JUMPDEST PUSH3 0xE26 DUP2 DUP6 PUSH3 0xDFC JUMP JUMPDEST SWAP4 POP PUSH3 0xE38 DUP2 DUP6 PUSH1 0x20 DUP7 ADD PUSH3 0x550 JUMP JUMPDEST PUSH3 0xE43 DUP2 PUSH3 0x476 JUMP JUMPDEST DUP5 ADD SWAP2 POP POP SWAP3 SWAP2 POP POP JUMP JUMPDEST PUSH1 0x0 PUSH1 0x20 DUP3 ADD SWAP1 POP DUP2 DUP2 SUB PUSH1 0x0 DUP4 ADD MSTORE PUSH3 0xE6A DUP2 DUP5 PUSH3 0xE0D JUMP JUMPDEST SWAP1 POP SWAP3 SWAP2 POP POP JUMP JUMPDEST PUSH32 0x4E487B7100000000000000000000000000000000000000000000000000000000 PUSH1 0x0 MSTORE PUSH1 0x51 PUSH1 0x4 MSTORE PUSH1 0x24 PUSH1 0x0 REVERT JUMPDEST PUSH2 0x153F DUP1 PUSH3 0xEB1 PUSH1 0x0 CODECOPY PUSH1 0x0 RETURN INVALID PUSH1 0x80 PUSH1 0x40 MSTORE CALLVALUE DUP1 ISZERO PUSH2 0x10 JUMPI PUSH1 0x0 DUP1 REVERT JUMPDEST POP PUSH1 0x4 CALLDATASIZE LT PUSH2 0x7D JUMPI PUSH1 0x0 CALLDATALOAD PUSH1 0xE0 SHR DUP1 PUSH4 0x8DA5CB5B GT PUSH2 0x5B JUMPI DUP1 PUSH4 0x8DA5CB5B EQ PUSH2 0xC8 JUMPI DUP1 PUSH4 0xCEBD31BC EQ PUSH2 0xE6 JUMPI DUP1 PUSH4 0xE7F9ACED EQ PUSH2 0x104 JUMPI DUP1 PUSH4 0xF2FDE38B EQ PUSH2 0x122 JUMPI PUSH2 0x7D JUMP JUMPDEST DUP1 PUSH4 0x4364BAB9 EQ PUSH2 0x82 JUMPI DUP1 PUSH4 0x715018A6 EQ PUSH2 0xA0 JUMPI DUP1 PUSH4 0x86BF221C EQ PUSH2 0xAA JUMPI JUMPDEST PUSH1 0x0 DUP1 REVERT JUMPDEST PUSH2 0x8A PUSH2 0x13E JUMP JUMPDEST PUSH1 0x40 MLOAD PUSH2 0x97 SWAP2 SWAP1 PUSH2 0xF43 JUMP JUMPDEST PUSH1 0x40 MLOAD DUP1 SWAP2 SUB SWAP1 RETURN JUMPDEST PUSH2 0xA8 PUSH2 0x217 JUMP JUMPDEST STOP JUMPDEST PUSH2 0xB2 PUSH2 0x315 JUMP JUMPDEST PUSH1 0x40 MLOAD PUSH2 0xBF SWAP2 SWAP1 PUSH2 0x10D2 JUMP JUMPDEST PUSH1 0x40 MLOAD DUP1 SWAP2 SUB SWAP1 RETURN JUMPDEST PUSH2 0xD0 PUSH2 0x4B2 JUMP JUMPDEST PUSH1 0x40 MLOAD PUSH2 0xDD SWAP2 SWAP1 PUSH2 0x1103 JUMP JUMPDEST PUSH1 0x40 MLOAD DUP1 SWAP2 SUB SWAP1 RETURN JUMPDEST PUSH2 0xEE PUSH2 0x4D6 JUMP JUMPDEST PUSH1 0x40 MLOAD PUSH2 0xFB SWAP2 SWAP1 PUSH2 0x112D JUMP JUMPDEST PUSH1 0x40 MLOAD DUP1 SWAP2 SUB SWAP1 RETURN JUMPDEST PUSH2 0x10C PUSH2 0x4ED JUMP JUMPDEST PUSH1 0x40 MLOAD PUSH2 0x119 SWAP2 SWAP1 PUSH2 0x12D5 JUMP JUMPDEST PUSH1 0x40 MLOAD DUP1 SWAP2 SUB SWAP1 RETURN JUMPDEST PUSH2 0x13C PUSH1 0x4 DUP1 CALLDATASIZE SUB DUP2 ADD SWAP1 PUSH2 0x137 SWAP2 SWAP1 PUSH2 0x1328 JUMP JUMPDEST PUSH2 0xB00 JUMP JUMPDEST STOP JUMPDEST PUSH1 0x60 PUSH1 0xF DUP1 SLOAD DUP1 PUSH1 0x20 MUL PUSH1 0x20 ADD PUSH1 0x40 MLOAD SWAP1 DUP2 ADD PUSH1 0x40 MSTORE DUP1 SWAP3 SWAP2 SWAP1 DUP2 DUP2 MSTORE PUSH1 0x20 ADD PUSH1 0x0 SWAP1 JUMPDEST DUP3 DUP3 LT ISZERO PUSH2 0x20E JUMPI DUP4 DUP3 SWAP1 PUSH1 0x0 MSTORE PUSH1 0x20 PUSH1 0x0 KECCAK256 ADD DUP1 SLOAD PUSH2 0x181 SWAP1 PUSH2 0x1384 JUMP JUMPDEST DUP1 PUSH1 0x1F ADD PUSH1 0x20 DUP1 SWAP2 DIV MUL PUSH1 0x20 ADD PUSH1 0x40 MLOAD SWAP1 DUP2 ADD PUSH1 0x40 MSTORE DUP1 SWAP3 SWAP2 SWAP1 DUP2 DUP2 MSTORE PUSH1 0x20 ADD DUP3 DUP1 SLOAD PUSH2 0x1AD SWAP1 PUSH2 0x1384 JUMP JUMPDEST DUP1 ISZERO PUSH2 0x1FA JUMPI DUP1 PUSH1 0x1F LT PUSH2 0x1CF JUMPI PUSH2 0x100 DUP1 DUP4 SLOAD DIV MUL DUP4 MSTORE SWAP2 PUSH1 0x20 ADD SWAP2 PUSH2 0x1FA JUMP JUMPDEST DUP3 ADD SWAP2 SWAP1 PUSH1 0x0 MSTORE PUSH1 0x20 PUSH1 0x0 KECCAK256 SWAP1 JUMPDEST DUP2 SLOAD DUP2 MSTORE SWAP1 PUSH1 0x1 ADD SWAP1 PUSH1 0x20 ADD DUP1 DUP4 GT PUSH2 0x1DD JUMPI DUP3 SWAP1 SUB PUSH1 0x1F AND DUP3 ADD SWAP2 JUMPDEST POP POP POP POP POP DUP2 MSTORE PUSH1 0x20 ADD SWAP1 PUSH1 0x1 ADD SWAP1 PUSH2 0x162 JUMP JUMPDEST POP POP POP POP SWAP1 POP SWAP1 JUMP JUMPDEST PUSH1 0x0 DUP1 SLOAD SWAP1 PUSH2 0x100 EXP SWAP1 DIV PUSH20 0xFFFFFFFFFFFFFFFFFFFFFFFFFFFFFFFFFFFFFFFF AND PUSH20 0xFFFFFFFFFFFFFFFFFFFFFFFFFFFFFFFFFFFFFFFF AND CALLER PUSH20 0xFFFFFFFFFFFFFFFFFFFFFFFFFFFFFFFFFFFFFFFF AND EQ PUSH2 0x26F JUMPI PUSH1 0x0 DUP1 REVERT JUMPDEST PUSH1 0x0 DUP1 SLOAD SWAP1 PUSH2 0x100 EXP SWAP1 DIV PUSH20 0xFFFFFFFFFFFFFFFFFFFFFFFFFFFFFFFFFFFFFFFF AND PUSH20 0xFFFFFFFFFFFFFFFFFFFFFFFFFFFFFFFFFFFFFFFF AND PUSH32 0xF8DF31144D9C2F0F6B59D69B8B98ABD5459D07F2742C4DF920B25AAE33C64820 PUSH1 0x40 MLOAD PUSH1 0x40 MLOAD DUP1 SWAP2 SUB SWAP1 LOG2 PUSH1 0x0 DUP1 PUSH1 0x0 PUSH2 0x100 EXP DUP2 SLOAD DUP2 PUSH20 0xFFFFFFFFFFFFFFFFFFFFFFFFFFFFFFFFFFFFFFFF MUL NOT AND SWAP1 DUP4 PUSH20 0xFFFFFFFFFFFFFFFFFFFFFFFFFFFFFFFFFFFFFFFF AND MUL OR SWAP1 SSTORE POP JUMP JUMPDEST PUSH1 0x60 PUSH1 0x0 PUSH1 0x11 PUSH1 0x0 SWAP1 SLOAD SWAP1 PUSH2 0x100 EXP SWAP1 DIV PUSH4 0xFFFFFFFF AND PUSH4 0xFFFFFFFF AND PUSH8 0xFFFFFFFFFFFFFFFF DUP2 GT ISZERO PUSH2 0x34B JUMPI PUSH2 0x34A PUSH2 0x13B5 JUMP JUMPDEST JUMPDEST PUSH1 0x40 MLOAD SWAP1 DUP1 DUP3 MSTORE DUP1 PUSH1 0x20 MUL PUSH1 0x20 ADD DUP3 ADD PUSH1 0x40 MSTORE DUP1 ISZERO PUSH2 0x384 JUMPI DUP2 PUSH1 0x20 ADD JUMPDEST PUSH2 0x371 PUSH2 0xD43 JUMP JUMPDEST DUP2 MSTORE PUSH1 0x20 ADD SWAP1 PUSH1 0x1 SWAP1 SUB SWAP1 DUP2 PUSH2 0x369 JUMPI SWAP1 POP JUMPDEST POP SWAP1 POP PUSH1 0x0 JUMPDEST PUSH1 0x11 PUSH1 0x0 SWAP1 SLOAD SWAP1 PUSH2 0x100 EXP SWAP1 DIV PUSH4 0xFFFFFFFF AND PUSH4 0xFFFFFFFF AND DUP2 PUSH4 0xFFFFFFFF AND LT ISZERO PUSH2 0x4AA JUMPI PUSH1 0x10 PUSH1 0x0 DUP3 PUSH4 0xFFFFFFFF AND PUSH4 0xFFFFFFFF AND DUP2 MSTORE PUSH1 0x20 ADD SWAP1 DUP2 MSTORE PUSH1 0x20 ADD PUSH1 0x0 KECCAK256 PUSH1 0x40 MLOAD DUP1 PUSH1 0x60 ADD PUSH1 0x40 MSTORE SWAP1 DUP2 PUSH1 0x0 DUP3 ADD PUSH1 0x0 SWAP1 SLOAD SWAP1 PUSH2 0x100 EXP SWAP1 DIV PUSH20 0xFFFFFFFFFFFFFFFFFFFFFFFFFFFFFFFFFFFFFFFF AND PUSH20 0xFFFFFFFFFFFFFFFFFFFFFFFFFFFFFFFFFFFFFFFF AND PUSH20 0xFFFFFFFFFFFFFFFFFFFFFFFFFFFFFFFFFFFFFFFF AND DUP2 MSTORE PUSH1 0x20 ADD PUSH1 0x0 DUP3 ADD PUSH1 0x14 SWAP1 SLOAD SWAP1 PUSH2 0x100 EXP SWAP1 DIV PUSH1 0x3 SIGNEXTEND PUSH1 0x3 SIGNEXTEND PUSH1 0x3 SIGNEXTEND DUP2 MSTORE PUSH1 0x20 ADD PUSH1 0x0 DUP3 ADD PUSH1 0x18 SWAP1 SLOAD SWAP1 PUSH2 0x100 EXP SWAP1 DIV PUSH4 0xFFFFFFFF AND PUSH4 0xFFFFFFFF AND PUSH4 0xFFFFFFFF AND DUP2 MSTORE POP POP DUP3 DUP3 PUSH4 0xFFFFFFFF AND DUP2 MLOAD DUP2 LT PUSH2 0x48C JUMPI PUSH2 0x48B PUSH2 0x13E4 JUMP JUMPDEST JUMPDEST PUSH1 0x20 MUL PUSH1 0x20 ADD ADD DUP2 SWAP1 MSTORE POP DUP1 DUP1 PUSH2 0x4A2 SWAP1 PUSH2 0x1442 JUMP JUMPDEST SWAP2 POP POP PUSH2 0x38A JUMP JUMPDEST POP DUP1 SWAP2 POP POP SWAP1 JUMP JUMPDEST PUSH1 0x0 DUP1 SLOAD SWAP1 PUSH2 0x100 EXP SWAP1 DIV PUSH20 0xFFFFFFFFFFFFFFFFFFFFFFFFFFFFFFFFFFFFFFFF AND DUP2 JUMP JUMPDEST PUSH1 0x0 PUSH1 0xE PUSH1 0x0 SWAP1 SLOAD SWAP1 PUSH2 0x100 EXP SWAP1 DIV PUSH1 0x3 SIGNEXTEND SWAP1 POP SWAP1 JUMP JUMPDEST PUSH2 0x4F5 PUSH2 0xD83 JUMP JUMPDEST PUSH1 0x1 PUSH1 0x40 MLOAD DUP1 PUSH2 0x1A0 ADD PUSH1 0x40 MSTORE SWAP1 DUP2 PUSH1 0x0 DUP3 ADD DUP1 SLOAD PUSH2 0x513 SWAP1 PUSH2 0x1384 JUMP JUMPDEST DUP1 PUSH1 0x1F ADD PUSH1 0x20 DUP1 SWAP2 DIV MUL PUSH1 0x20 ADD PUSH1 0x40 MLOAD SWAP1 DUP2 ADD PUSH1 0x40 MSTORE DUP1 SWAP3 SWAP2 SWAP1 DUP2 DUP2 MSTORE PUSH1 0x20 ADD DUP3 DUP1 SLOAD PUSH2 0x53F SWAP1 PUSH2 0x1384 JUMP JUMPDEST DUP1 ISZERO PUSH2 0x58C JUMPI DUP1 PUSH1 0x1F LT PUSH2 0x561 JUMPI PUSH2 0x100 DUP1 DUP4 SLOAD DIV MUL DUP4 MSTORE SWAP2 PUSH1 0x20 ADD SWAP2 PUSH2 0x58C JUMP JUMPDEST DUP3 ADD SWAP2 SWAP1 PUSH1 0x0 MSTORE PUSH1 0x20 PUSH1 0x0 KECCAK256 SWAP1 JUMPDEST DUP2 SLOAD DUP2 MSTORE SWAP1 PUSH1 0x1 ADD SWAP1 PUSH1 0x20 ADD DUP1 DUP4 GT PUSH2 0x56F JUMPI DUP3 SWAP1 SUB PUSH1 0x1F AND DUP3 ADD SWAP2 JUMPDEST POP POP POP POP POP DUP2 MSTORE PUSH1 0x20 ADD PUSH1 0x1 DUP3 ADD DUP1 SLOAD PUSH2 0x5A5 SWAP1 PUSH2 0x1384 JUMP JUMPDEST DUP1 PUSH1 0x1F ADD PUSH1 0x20 DUP1 SWAP2 DIV MUL PUSH1 0x20 ADD PUSH1 0x40 MLOAD SWAP1 DUP2 ADD PUSH1 0x40 MSTORE DUP1 SWAP3 SWAP2 SWAP1 DUP2 DUP2 MSTORE PUSH1 0x20 ADD DUP3 DUP1 SLOAD PUSH2 0x5D1 SWAP1 PUSH2 0x1384 JUMP JUMPDEST DUP1 ISZERO PUSH2 0x61E JUMPI DUP1 PUSH1 0x1F LT PUSH2 0x5F3 JUMPI PUSH2 0x100 DUP1 DUP4 SLOAD DIV MUL DUP4 MSTORE SWAP2 PUSH1 0x20 ADD SWAP2 PUSH2 0x61E JUMP JUMPDEST DUP3 ADD SWAP2 SWAP1 PUSH1 0x0 MSTORE PUSH1 0x20 PUSH1 0x0 KECCAK256 SWAP1 JUMPDEST DUP2 SLOAD DUP2 MSTORE SWAP1 PUSH1 0x1 ADD SWAP1 PUSH1 0x20 ADD DUP1 DUP4 GT PUSH2 0x601 JUMPI DUP3 SWAP1 SUB PUSH1 0x1F AND DUP3 ADD SWAP2 JUMPDEST POP POP POP POP POP DUP2 MSTORE PUSH1 0x20 ADD PUSH1 0x2 DUP3 ADD DUP1 SLOAD PUSH2 0x637 SWAP1 PUSH2 0x1384 JUMP JUMPDEST DUP1 PUSH1 0x1F ADD PUSH1 0x20 DUP1 SWAP2 DIV MUL PUSH1 0x20 ADD PUSH1 0x40 MLOAD SWAP1 DUP2 ADD PUSH1 0x40 MSTORE DUP1 SWAP3 SWAP2 SWAP1 DUP2 DUP2 MSTORE PUSH1 0x20 ADD DUP3 DUP1 SLOAD PUSH2 0x663 SWAP1 PUSH2 0x1384 JUMP JUMPDEST DUP1 ISZERO PUSH2 0x6B0 JUMPI DUP1 PUSH1 0x1F LT PUSH2 0x685 JUMPI PUSH2 0x100 DUP1 DUP4 SLOAD DIV MUL DUP4 MSTORE SWAP2 PUSH1 0x20 ADD SWAP2 PUSH2 0x6B0 JUMP JUMPDEST DUP3 ADD SWAP2 SWAP1 PUSH1 0x0 MSTORE PUSH1 0x20 PUSH1 0x0 KECCAK256 SWAP1 JUMPDEST DUP2 SLOAD DUP2 MSTORE SWAP1 PUSH1 0x1 ADD SWAP1 PUSH1 0x20 ADD DUP1 DUP4 GT PUSH2 0x693 JUMPI DUP3 SWAP1 SUB PUSH1 0x1F AND DUP3 ADD SWAP2 JUMPDEST POP POP POP POP POP DUP2 MSTORE PUSH1 0x20 ADD PUSH1 0x3 DUP3 ADD DUP1 SLOAD PUSH2 0x6C9 SWAP1 PUSH2 0x1384 JUMP JUMPDEST DUP1 PUSH1 0x1F ADD PUSH1 0x20 DUP1 SWAP2 DIV MUL PUSH1 0x20 ADD PUSH1 0x40 MLOAD SWAP1 DUP2 ADD PUSH1 0x40 MSTORE DUP1 SWAP3 SWAP2 SWAP1 DUP2 DUP2 MSTORE PUSH1 0x20 ADD DUP3 DUP1 SLOAD PUSH2 0x6F5 SWAP1 PUSH2 0x1384 JUMP JUMPDEST DUP1 ISZERO PUSH2 0x742 JUMPI DUP1 PUSH1 0x1F LT PUSH2 0x717 JUMPI PUSH2 0x100 DUP1 DUP4 SLOAD DIV MUL DUP4 MSTORE SWAP2 PUSH1 0x20 ADD SWAP2 PUSH2 0x742 JUMP JUMPDEST DUP3 ADD SWAP2 SWAP1 PUSH1 0x0 MSTORE PUSH1 0x20 PUSH1 0x0 KECCAK256 SWAP1 JUMPDEST DUP2 SLOAD DUP2 MSTORE SWAP1 PUSH1 0x1 ADD SWAP1 PUSH1 0x20 ADD DUP1 DUP4 GT PUSH2 0x725 JUMPI DUP3 SWAP1 SUB PUSH1 0x1F AND DUP3 ADD SWAP2 JUMPDEST POP POP POP POP POP DUP2 MSTORE PUSH1 0x20 ADD PUSH1 0x4 DUP3 ADD DUP1 SLOAD PUSH2 0x75B SWAP1 PUSH2 0x1384 JUMP JUMPDEST DUP1 PUSH1 0x1F ADD PUSH1 0x20 DUP1 SWAP2 DIV MUL PUSH1 0x20 ADD PUSH1 0x40 MLOAD SWAP1 DUP2 ADD PUSH1 0x40 MSTORE DUP1 SWAP3 SWAP2 SWAP1 DUP2 DUP2 MSTORE PUSH1 0x20 ADD DUP3 DUP1 SLOAD PUSH2 0x787 SWAP1 PUSH2 0x1384 JUMP JUMPDEST DUP1 ISZERO PUSH2 0x7D4 JUMPI DUP1 PUSH1 0x1F LT PUSH2 0x7A9 JUMPI PUSH2 0x100 DUP1 DUP4 SLOAD DIV MUL DUP4 MSTORE SWAP2 PUSH1 0x20 ADD SWAP2 PUSH2 0x7D4 JUMP JUMPDEST DUP3 ADD SWAP2 SWAP1 PUSH1 0x0 MSTORE PUSH1 0x20 PUSH1 0x0 KECCAK256 SWAP1 JUMPDEST DUP2 SLOAD DUP2 MSTORE SWAP1 PUSH1 0x1 ADD SWAP1 PUSH1 0x20 ADD DUP1 DUP4 GT PUSH2 0x7B7 JUMPI DUP3 SWAP1 SUB PUSH1 0x1F AND DUP3 ADD SWAP2 JUMPDEST POP POP POP POP POP DUP2 MSTORE PUSH1 0x20 ADD PUSH1 0x5 DUP3 ADD PUSH1 0x0 SWAP1 SLOAD SWAP1 PUSH2 0x100 EXP SWAP1 DIV PUSH1 0x1 SIGNEXTEND PUSH1 0x1 SIGNEXTEND PUSH1 0x1 SIGNEXTEND DUP2 MSTORE PUSH1 0x20 ADD PUSH1 0x6 DUP3 ADD DUP1 SLOAD PUSH2 0x80A SWAP1 PUSH2 0x1384 JUMP JUMPDEST DUP1 PUSH1 0x1F ADD PUSH1 0x20 DUP1 SWAP2 DIV MUL PUSH1 0x20 ADD PUSH1 0x40 MLOAD SWAP1 DUP2 ADD PUSH1 0x40 MSTORE DUP1 SWAP3 SWAP2 SWAP1 DUP2 DUP2 MSTORE PUSH1 0x20 ADD DUP3 DUP1 SLOAD PUSH2 0x836 SWAP1 PUSH2 0x1384 JUMP JUMPDEST DUP1 ISZERO PUSH2 0x883 JUMPI DUP1 PUSH1 0x1F LT PUSH2 0x858 JUMPI PUSH2 0x100 DUP1 DUP4 SLOAD DIV MUL DUP4 MSTORE SWAP2 PUSH1 0x20 ADD SWAP2 PUSH2 0x883 JUMP JUMPDEST DUP3 ADD SWAP2 SWAP1 PUSH1 0x0 MSTORE PUSH1 0x20 PUSH1 0x0 KECCAK256 SWAP1 JUMPDEST DUP2 SLOAD DUP2 MSTORE SWAP1 PUSH1 0x1 ADD SWAP1 PUSH1 0x20 ADD DUP1 DUP4 GT PUSH2 0x866 JUMPI DUP3 SWAP1 SUB PUSH1 0x1F AND DUP3 ADD SWAP2 JUMPDEST POP POP POP POP POP DUP2 MSTORE PUSH1 0x20 ADD PUSH1 0x7 DUP3 ADD DUP1 SLOAD PUSH2 0x89C SWAP1 PUSH2 0x1384 JUMP JUMPDEST DUP1 PUSH1 0x1F ADD PUSH1 0x20 DUP1 SWAP2 DIV MUL PUSH1 0x20 ADD PUSH1 0x40 MLOAD SWAP1 DUP2 ADD PUSH1 0x40 MSTORE DUP1 SWAP3 SWAP2 SWAP1 DUP2 DUP2 MSTORE PUSH1 0x20 ADD DUP3 DUP1 SLOAD PUSH2 0x8C8 SWAP1 PUSH2 0x1384 JUMP JUMPDEST DUP1 ISZERO PUSH2 0x915 JUMPI DUP1 PUSH1 0x1F LT PUSH2 0x8EA JUMPI PUSH2 0x100 DUP1 DUP4 SLOAD DIV MUL DUP4 MSTORE SWAP2 PUSH1 0x20 ADD SWAP2 PUSH2 0x915 JUMP JUMPDEST DUP3 ADD SWAP2 SWAP1 PUSH1 0x0 MSTORE PUSH1 0x20 PUSH1 0x0 KECCAK256 SWAP1 JUMPDEST DUP2 SLOAD DUP2 MSTORE SWAP1 PUSH1 0x1 ADD SWAP1 PUSH1 0x20 ADD DUP1 DUP4 GT PUSH2 0x8F8 JUMPI DUP3 SWAP1 SUB PUSH1 0x1F AND DUP3 ADD SWAP2 JUMPDEST POP POP POP POP POP DUP2 MSTORE PUSH1 0x20 ADD PUSH1 0x8 DUP3 ADD DUP1 SLOAD PUSH2 0x92E SWAP1 PUSH2 0x1384 JUMP JUMPDEST DUP1 PUSH1 0x1F ADD PUSH1 0x20 DUP1 SWAP2 DIV MUL PUSH1 0x20 ADD PUSH1 0x40 MLOAD SWAP1 DUP2 ADD PUSH1 0x40 MSTORE DUP1 SWAP3 SWAP2 SWAP1 DUP2 DUP2 MSTORE PUSH1 0x20 ADD DUP3 DUP1 SLOAD PUSH2 0x95A SWAP1 PUSH2 0x1384 JUMP JUMPDEST DUP1 ISZERO PUSH2 0x9A7 JUMPI DUP1 PUSH1 0x1F LT PUSH2 0x97C JUMPI PUSH2 0x100 DUP1 DUP4 SLOAD DIV MUL DUP4 MSTORE SWAP2 PUSH1 0x20 ADD SWAP2 PUSH2 0x9A7 JUMP JUMPDEST DUP3 ADD SWAP2 SWAP1 PUSH1 0x0 MSTORE PUSH1 0x20 PUSH1 0x0 KECCAK256 SWAP1 JUMPDEST DUP2 SLOAD DUP2 MSTORE SWAP1 PUSH1 0x1 ADD SWAP1 PUSH1 0x20 ADD DUP1 DUP4 GT PUSH2 0x98A JUMPI DUP3 SWAP1 SUB PUSH1 0x1F AND DUP3 ADD SWAP2 JUMPDEST POP POP POP POP POP DUP2 MSTORE PUSH1 0x20 ADD PUSH1 0x9 DUP3 ADD DUP1 SLOAD PUSH2 0x9C0 SWAP1 PUSH2 0x1384 JUMP JUMPDEST DUP1 PUSH1 0x1F ADD PUSH1 0x20 DUP1 SWAP2 DIV MUL PUSH1 0x20 ADD PUSH1 0x40 MLOAD SWAP1 DUP2 ADD PUSH1 0x40 MSTORE DUP1 SWAP3 SWAP2 SWAP1 DUP2 DUP2 MSTORE PUSH1 0x20 ADD DUP3 DUP1 SLOAD PUSH2 0x9EC SWAP1 PUSH2 0x1384 JUMP JUMPDEST DUP1 ISZERO PUSH2 0xA39 JUMPI DUP1 PUSH1 0x1F LT PUSH2 0xA0E JUMPI PUSH2 0x100 DUP1 DUP4 SLOAD DIV MUL DUP4 MSTORE SWAP2 PUSH1 0x20 ADD SWAP2 PUSH2 0xA39 JUMP JUMPDEST DUP3 ADD SWAP2 SWAP1 PUSH1 0x0 MSTORE PUSH1 0x20 PUSH1 0x0 KECCAK256 SWAP1 JUMPDEST DUP2 SLOAD DUP2 MSTORE SWAP1 PUSH1 0x1 ADD SWAP1 PUSH1 0x20 ADD DUP1 DUP4 GT PUSH2 0xA1C JUMPI DUP3 SWAP1 SUB PUSH1 0x1F AND DUP3 ADD SWAP2 JUMPDEST POP POP POP POP POP DUP2 MSTORE PUSH1 0x20 ADD PUSH1 0xA DUP3 ADD DUP1 SLOAD PUSH2 0xA52 SWAP1 PUSH2 0x1384 JUMP JUMPDEST DUP1 PUSH1 0x1F ADD PUSH1 0x20 DUP1 SWAP2 DIV MUL PUSH1 0x20 ADD PUSH1 0x40 MLOAD SWAP1 DUP2 ADD PUSH1 0x40 MSTORE DUP1 SWAP3 SWAP2 SWAP1 DUP2 DUP2 MSTORE PUSH1 0x20 ADD DUP3 DUP1 SLOAD PUSH2 0xA7E SWAP1 PUSH2 0x1384 JUMP JUMPDEST DUP1 ISZERO PUSH2 0xACB JUMPI DUP1 PUSH1 0x1F LT PUSH2 0xAA0 JUMPI PUSH2 0x100 DUP1 DUP4 SLOAD DIV MUL DUP4 MSTORE SWAP2 PUSH1 0x20 ADD SWAP2 PUSH2 0xACB JUMP JUMPDEST DUP3 ADD SWAP2 SWAP1 PUSH1 0x0 MSTORE PUSH1 0x20 PUSH1 0x0 KECCAK256 SWAP1 JUMPDEST DUP2 SLOAD DUP2 MSTORE SWAP1 PUSH1 0x1 ADD SWAP1 PUSH1 0x20 ADD DUP1 DUP4 GT PUSH2 0xAAE JUMPI DUP3 SWAP1 SUB PUSH1 0x1F AND DUP3 ADD SWAP2 JUMPDEST POP POP POP POP POP DUP2 MSTORE PUSH1 0x20 ADD PUSH1 0xB DUP3 ADD PUSH1 0x0 SWAP1 SLOAD SWAP1 PUSH2 0x100 EXP SWAP1 DIV PUSH1 0x3 SIGNEXTEND PUSH1 0x3 SIGNEXTEND PUSH1 0x3 SIGNEXTEND DUP2 MSTORE PUSH1 0x20 ADD PUSH1 0xC DUP3 ADD SLOAD DUP2 MSTORE POP POP SWAP1 POP SWAP1 JUMP JUMPDEST PUSH1 0x0 DUP1 SLOAD SWAP1 PUSH2 0x100 EXP SWAP1 DIV PUSH20 0xFFFFFFFFFFFFFFFFFFFFFFFFFFFFFFFFFFFFFFFF AND PUSH20 0xFFFFFFFFFFFFFFFFFFFFFFFFFFFFFFFFFFFFFFFF AND CALLER PUSH20 0xFFFFFFFFFFFFFFFFFFFFFFFFFFFFFFFFFFFFFFFF AND EQ PUSH2 0xB58 JUMPI PUSH1 0x0 DUP1 REVERT JUMPDEST PUSH2 0xB61 DUP2 PUSH2 0xC1E JUMP JUMPDEST POP JUMP JUMPDEST PUSH2 0xBFA DUP2 PUSH1 0x40 MLOAD PUSH1 0x24 ADD PUSH2 0xB78 SWAP2 SWAP1 PUSH2 0x14B8 JUMP JUMPDEST PUSH1 0x40 MLOAD PUSH1 0x20 DUP2 DUP4 SUB SUB DUP2 MSTORE SWAP1 PUSH1 0x40 MSTORE PUSH32 0x41304FAC00000000000000000000000000000000000000000000000000000000 PUSH28 0xFFFFFFFFFFFFFFFFFFFFFFFFFFFFFFFFFFFFFFFFFFFFFFFFFFFFFFFF NOT AND PUSH1 0x20 DUP3 ADD DUP1 MLOAD PUSH28 0xFFFFFFFFFFFFFFFFFFFFFFFFFFFFFFFFFFFFFFFFFFFFFFFFFFFFFFFF DUP4 DUP2 DUP4 AND OR DUP4 MSTORE POP POP POP POP PUSH2 0xD14 JUMP JUMPDEST POP JUMP JUMPDEST PUSH1 0x0 PUSH11 0x636F6E736F6C652E6C6F67 SWAP1 POP PUSH1 0x0 DUP1 DUP4 MLOAD PUSH1 0x20 DUP6 ADD DUP5 GAS STATICCALL POP POP POP JUMP JUMPDEST PUSH1 0x0 PUSH20 0xFFFFFFFFFFFFFFFFFFFFFFFFFFFFFFFFFFFFFFFF AND DUP2 PUSH20 0xFFFFFFFFFFFFFFFFFFFFFFFFFFFFFFFFFFFFFFFF AND SUB PUSH2 0xC57 JUMPI PUSH1 0x0 DUP1 REVERT JUMPDEST DUP1 PUSH20 0xFFFFFFFFFFFFFFFFFFFFFFFFFFFFFFFFFFFFFFFF AND PUSH1 0x0 DUP1 SLOAD SWAP1 PUSH2 0x100 EXP SWAP1 DIV PUSH20 0xFFFFFFFFFFFFFFFFFFFFFFFFFFFFFFFFFFFFFFFF AND PUSH20 0xFFFFFFFFFFFFFFFFFFFFFFFFFFFFFFFFFFFFFFFF AND PUSH32 0x8BE0079C531659141344CD1FD0A4F28419497F9722A3DAAFE3B4186F6B6457E0 PUSH1 0x40 MLOAD PUSH1 0x40 MLOAD DUP1 SWAP2 SUB SWAP1 LOG3 DUP1 PUSH1 0x0 DUP1 PUSH2 0x100 EXP DUP2 SLOAD DUP2 PUSH20 0xFFFFFFFFFFFFFFFFFFFFFFFFFFFFFFFFFFFFFFFF MUL NOT AND SWAP1 DUP4 PUSH20 0xFFFFFFFFFFFFFFFFFFFFFFFFFFFFFFFFFFFFFFFF AND MUL OR SWAP1 SSTORE POP POP JUMP JUMPDEST PUSH2 0xD2B DUP2 PUSH2 0xD23 PUSH2 0xBFD PUSH2 0xD2E JUMP JUMPDEST PUSH4 0xFFFFFFFF AND JUMP JUMPDEST POP JUMP JUMPDEST PUSH2 0xD39 DUP2 SWAP1 POP SWAP2 SWAP1 POP JUMP JUMPDEST PUSH2 0xD41 PUSH2 0x14DA JUMP JUMPDEST JUMP JUMPDEST PUSH1 0x40 MLOAD DUP1 PUSH1 0x60 ADD PUSH1 0x40 MSTORE DUP1 PUSH1 0x0 PUSH20 0xFFFFFFFFFFFFFFFFFFFFFFFFFFFFFFFFFFFFFFFF AND DUP2 MSTORE PUSH1 0x20 ADD PUSH1 0x0 PUSH1 0x3 SIGNEXTEND DUP2 MSTORE PUSH1 0x20 ADD PUSH1 0x0 PUSH4 0xFFFFFFFF AND DUP2 MSTORE POP SWAP1 JUMP JUMPDEST PUSH1 0x40 MLOAD DUP1 PUSH2 0x1A0 ADD PUSH1 0x40 MSTORE DUP1 PUSH1 0x60 DUP2 MSTORE PUSH1 0x20 ADD PUSH1 0x60 DUP2 MSTORE PUSH1 0x20 ADD PUSH1 0x60 DUP2 MSTORE PUSH1 0x20 ADD PUSH1 0x60 DUP2 MSTORE PUSH1 0x20 ADD PUSH1 0x60 DUP2 MSTORE PUSH1 0x20 ADD PUSH1 0x0 PUSH1 0x1 SIGNEXTEND DUP2 MSTORE PUSH1 0x20 ADD PUSH1 0x60 DUP2 MSTORE PUSH1 0x20 ADD PUSH1 0x60 DUP2 MSTORE PUSH1 0x20 ADD PUSH1 0x60 DUP2 MSTORE PUSH1 0x20 ADD PUSH1 0x60 DUP2 MSTORE PUSH1 0x20 ADD PUSH1 0x60 DUP2 MSTORE PUSH1 0x20 ADD PUSH1 0x0 PUSH1 0x3 SIGNEXTEND DUP2 MSTORE PUSH1 0x20 ADD PUSH1 0x0 DUP2 MSTORE POP SWAP1 JUMP JUMPDEST PUSH1 0x0 DUP2 MLOAD SWAP1 POP SWAP2 SWAP1 POP JUMP JUMPDEST PUSH1 0x0 DUP3 DUP3 MSTORE PUSH1 0x20 DUP3 ADD SWAP1 POP SWAP3 SWAP2 POP POP JUMP JUMPDEST PUSH1 0x0 DUP2 SWAP1 POP PUSH1 0x20 DUP3 ADD SWAP1 POP SWAP2 SWAP1 POP JUMP JUMPDEST PUSH1 0x0 DUP2 MLOAD SWAP1 POP SWAP2 SWAP1 POP JUMP JUMPDEST PUSH1 0x0 DUP3 DUP3 MSTORE PUSH1 0x20 DUP3 ADD SWAP1 POP SWAP3 SWAP2 POP POP JUMP JUMPDEST PUSH1 0x0 JUMPDEST DUP4 DUP2 LT ISZERO PUSH2 0xE57 JUMPI DUP1 DUP3 ADD MLOAD DUP2 DUP5 ADD MSTORE PUSH1 0x20 DUP2 ADD SWAP1 POP PUSH2 0xE3C JUMP JUMPDEST PUSH1 0x0 DUP5 DUP5 ADD MSTORE POP POP POP POP JUMP JUMPDEST PUSH1 0x0 PUSH1 0x1F NOT PUSH1 0x1F DUP4 ADD AND SWAP1 POP SWAP2 SWAP1 POP JUMP JUMPDEST PUSH1 0x0 PUSH2 0xE7F DUP3 PUSH2 0xE1D JUMP JUMPDEST PUSH2 0xE89 DUP2 DUP6 PUSH2 0xE28 JUMP JUMPDEST SWAP4 POP PUSH2 0xE99 DUP2 DUP6 PUSH1 0x20 DUP7 ADD PUSH2 0xE39 JUMP JUMPDEST PUSH2 0xEA2 DUP2 PUSH2 0xE63 JUMP JUMPDEST DUP5 ADD SWAP2 POP POP SWAP3 SWAP2 POP POP JUMP JUMPDEST PUSH1 0x0 PUSH2 0xEB9 DUP4 DUP4 PUSH2 0xE74 JUMP JUMPDEST SWAP1 POP SWAP3 SWAP2 POP POP JUMP JUMPDEST PUSH1 0x0 PUSH1 0x20 DUP3 ADD SWAP1 POP SWAP2 SWAP1 POP JUMP JUMPDEST PUSH1 0x0 PUSH2 0xED9 DUP3 PUSH2 0xDF1 JUMP JUMPDEST PUSH2 0xEE3 DUP2 DUP6 PUSH2 0xDFC JUMP JUMPDEST SWAP4 POP DUP4 PUSH1 0x20 DUP3 MUL DUP6 ADD PUSH2 0xEF5 DUP6 PUSH2 0xE0D JUMP JUMPDEST DUP1 PUSH1 0x0 JUMPDEST DUP6 DUP2 LT ISZERO PUSH2 0xF31 JUMPI DUP5 DUP5 SUB DUP10 MSTORE DUP2 MLOAD PUSH2 0xF12 DUP6 DUP3 PUSH2 0xEAD JUMP JUMPDEST SWAP5 POP PUSH2 0xF1D DUP4 PUSH2 0xEC1 JUMP JUMPDEST SWAP3 POP PUSH1 0x20 DUP11 ADD SWAP10 POP POP PUSH1 0x1 DUP2 ADD SWAP1 POP PUSH2 0xEF9 JUMP JUMPDEST POP DUP3 SWAP8 POP DUP8 SWAP6 POP POP POP POP POP POP SWAP3 SWAP2 POP POP JUMP JUMPDEST PUSH1 0x0 PUSH1 0x20 DUP3 ADD SWAP1 POP DUP2 DUP2 SUB PUSH1 0x0 DUP4 ADD MSTORE PUSH2 0xF5D DUP2 DUP5 PUSH2 0xECE JUMP JUMPDEST SWAP1 POP SWAP3 SWAP2 POP POP JUMP JUMPDEST PUSH1 0x0 DUP2 MLOAD SWAP1 POP SWAP2 SWAP1 POP JUMP JUMPDEST PUSH1 0x0 DUP3 DUP3 MSTORE PUSH1 0x20 DUP3 ADD SWAP1 POP SWAP3 SWAP2 POP POP JUMP JUMPDEST PUSH1 0x0 DUP2 SWAP1 POP PUSH1 0x20 DUP3 ADD SWAP1 POP SWAP2 SWAP1 POP JUMP JUMPDEST PUSH1 0x0 PUSH20 0xFFFFFFFFFFFFFFFFFFFFFFFFFFFFFFFFFFFFFFFF DUP3 AND SWAP1 POP SWAP2 SWAP1 POP JUMP JUMPDEST PUSH1 0x0 PUSH2 0xFBC DUP3 PUSH2 0xF91 JUMP JUMPDEST SWAP1 POP SWAP2 SWAP1 POP JUMP JUMPDEST PUSH2 0xFCC DUP2 PUSH2 0xFB1 JUMP JUMPDEST DUP3 MSTORE POP POP JUMP JUMPDEST PUSH1 0x0 DUP2 PUSH1 0x3 SIGNEXTEND SWAP1 POP SWAP2 SWAP1 POP JUMP JUMPDEST PUSH2 0xFE8 DUP2 PUSH2 0xFD2 JUMP JUMPDEST DUP3 MSTORE POP POP JUMP JUMPDEST PUSH1 0x0 PUSH4 0xFFFFFFFF DUP3 AND SWAP1 POP SWAP2 SWAP1 POP JUMP JUMPDEST PUSH2 0x1007 DUP2 PUSH2 0xFEE JUMP JUMPDEST DUP3 MSTORE POP POP JUMP JUMPDEST PUSH1 0x60 DUP3 ADD PUSH1 0x0 DUP3 ADD MLOAD PUSH2 0x1023 PUSH1 0x0 DUP6 ADD DUP3 PUSH2 0xFC3 JUMP JUMPDEST POP PUSH1 0x20 DUP3 ADD MLOAD PUSH2 0x1036 PUSH1 0x20 DUP6 ADD DUP3 PUSH2 0xFDF JUMP JUMPDEST POP PUSH1 0x40 DUP3 ADD MLOAD PUSH2 0x1049 PUSH1 0x40 DUP6 ADD DUP3 PUSH2 0xFFE JUMP JUMPDEST POP POP POP POP JUMP JUMPDEST PUSH1 0x0 PUSH2 0x105B DUP4 DUP4 PUSH2 0x100D JUMP JUMPDEST PUSH1 0x60 DUP4 ADD SWAP1 POP SWAP3 SWAP2 POP POP JUMP JUMPDEST PUSH1 0x0 PUSH1 0x20 DUP3 ADD SWAP1 POP SWAP2 SWAP1 POP JUMP JUMPDEST PUSH1 0x0 PUSH2 0x107F DUP3 PUSH2 0xF65 JUMP JUMPDEST PUSH2 0x1089 DUP2 DUP6 PUSH2 0xF70 JUMP JUMPDEST SWAP4 POP PUSH2 0x1094 DUP4 PUSH2 0xF81 JUMP JUMPDEST DUP1 PUSH1 0x0 JUMPDEST DUP4 DUP2 LT ISZERO PUSH2 0x10C5 JUMPI DUP2 MLOAD PUSH2 0x10AC DUP9 DUP3 PUSH2 0x104F JUMP JUMPDEST SWAP8 POP PUSH2 0x10B7 DUP4 PUSH2 0x1067 JUMP JUMPDEST SWAP3 POP POP PUSH1 0x1 DUP2 ADD SWAP1 POP PUSH2 0x1098 JUMP JUMPDEST POP DUP6 SWAP4 POP POP POP POP SWAP3 SWAP2 POP POP JUMP JUMPDEST PUSH1 0x0 PUSH1 0x20 DUP3 ADD SWAP1 POP DUP2 DUP2 SUB PUSH1 0x0 DUP4 ADD MSTORE PUSH2 0x10EC DUP2 DUP5 PUSH2 0x1074 JUMP JUMPDEST SWAP1 POP SWAP3 SWAP2 POP POP JUMP JUMPDEST PUSH2 0x10FD DUP2 PUSH2 0xFB1 JUMP JUMPDEST DUP3 MSTORE POP POP JUMP JUMPDEST PUSH1 0x0 PUSH1 0x20 DUP3 ADD SWAP1 POP PUSH2 0x1118 PUSH1 0x0 DUP4 ADD DUP5 PUSH2 0x10F4 JUMP JUMPDEST SWAP3 SWAP2 POP POP JUMP JUMPDEST PUSH2 0x1127 DUP2 PUSH2 0xFD2 JUMP JUMPDEST DUP3 MSTORE POP POP JUMP JUMPDEST PUSH1 0x0 PUSH1 0x20 DUP3 ADD SWAP1 POP PUSH2 0x1142 PUSH1 0x0 DUP4 ADD DUP5 PUSH2 0x111E JUMP JUMPDEST SWAP3 SWAP2 POP POP JUMP JUMPDEST PUSH1 0x0 DUP2 PUSH1 0x1 SIGNEXTEND SWAP1 POP SWAP2 SWAP1 POP JUMP JUMPDEST PUSH2 0x115E DUP2 PUSH2 0x1148 JUMP JUMPDEST DUP3 MSTORE POP POP JUMP JUMPDEST PUSH1 0x0 DUP2 SWAP1 POP SWAP2 SWAP1 POP JUMP JUMPDEST PUSH2 0x1177 DUP2 PUSH2 0x1164 JUMP JUMPDEST DUP3 MSTORE POP POP JUMP JUMPDEST PUSH1 0x0 PUSH2 0x1A0 DUP4 ADD PUSH1 0x0 DUP4 ADD MLOAD DUP5 DUP3 SUB PUSH1 0x0 DUP7 ADD MSTORE PUSH2 0x119B DUP3 DUP3 PUSH2 0xE74 JUMP JUMPDEST SWAP2 POP POP PUSH1 0x20 DUP4 ADD MLOAD DUP5 DUP3 SUB PUSH1 0x20 DUP7 ADD MSTORE PUSH2 0x11B5 DUP3 DUP3 PUSH2 0xE74 JUMP JUMPDEST SWAP2 POP POP PUSH1 0x40 DUP4 ADD MLOAD DUP5 DUP3 SUB PUSH1 0x40 DUP7 ADD MSTORE PUSH2 0x11CF DUP3 DUP3 PUSH2 0xE74 JUMP JUMPDEST SWAP2 POP POP PUSH1 0x60 DUP4 ADD MLOAD DUP5 DUP3 SUB PUSH1 0x60 DUP7 ADD MSTORE PUSH2 0x11E9 DUP3 DUP3 PUSH2 0xE74 JUMP JUMPDEST SWAP2 POP POP PUSH1 0x80 DUP4 ADD MLOAD DUP5 DUP3 SUB PUSH1 0x80 DUP7 ADD MSTORE PUSH2 0x1203 DUP3 DUP3 PUSH2 0xE74 JUMP JUMPDEST SWAP2 POP POP PUSH1 0xA0 DUP4 ADD MLOAD PUSH2 0x1218 PUSH1 0xA0 DUP7 ADD DUP3 PUSH2 0x1155 JUMP JUMPDEST POP PUSH1 0xC0 DUP4 ADD MLOAD DUP5 DUP3 SUB PUSH1 0xC0 DUP7 ADD MSTORE PUSH2 0x1230 DUP3 DUP3 PUSH2 0xE74 JUMP JUMPDEST SWAP2 POP POP PUSH1 0xE0 DUP4 ADD MLOAD DUP5 DUP3 SUB PUSH1 0xE0 DUP7 ADD MSTORE PUSH2 0x124A DUP3 DUP3 PUSH2 0xE74 JUMP JUMPDEST SWAP2 POP POP PUSH2 0x100 DUP4 ADD MLOAD DUP5 DUP3 SUB PUSH2 0x100 DUP7 ADD MSTORE PUSH2 0x1266 DUP3 DUP3 PUSH2 0xE74 JUMP JUMPDEST SWAP2 POP POP PUSH2 0x120 DUP4 ADD MLOAD DUP5 DUP3 SUB PUSH2 0x120 DUP7 ADD MSTORE PUSH2 0x1282 DUP3 DUP3 PUSH2 0xE74 JUMP JUMPDEST SWAP2 POP POP PUSH2 0x140 DUP4 ADD MLOAD DUP5 DUP3 SUB PUSH2 0x140 DUP7 ADD MSTORE PUSH2 0x129E DUP3 DUP3 PUSH2 0xE74 JUMP JUMPDEST SWAP2 POP POP PUSH2 0x160 DUP4 ADD MLOAD PUSH2 0x12B5 PUSH2 0x160 DUP7 ADD DUP3 PUSH2 0xFDF JUMP JUMPDEST POP PUSH2 0x180 DUP4 ADD MLOAD PUSH2 0x12CA PUSH2 0x180 DUP7 ADD DUP3 PUSH2 0x116E JUMP JUMPDEST POP DUP1 SWAP2 POP POP SWAP3 SWAP2 POP POP JUMP JUMPDEST PUSH1 0x0 PUSH1 0x20 DUP3 ADD SWAP1 POP DUP2 DUP2 SUB PUSH1 0x0 DUP4 ADD MSTORE PUSH2 0x12EF DUP2 DUP5 PUSH2 0x117D JUMP JUMPDEST SWAP1 POP SWAP3 SWAP2 POP POP JUMP JUMPDEST PUSH1 0x0 DUP1 REVERT JUMPDEST PUSH2 0x1305 DUP2 PUSH2 0xFB1 JUMP JUMPDEST DUP2 EQ PUSH2 0x1310 JUMPI PUSH1 0x0 DUP1 REVERT JUMPDEST POP JUMP JUMPDEST PUSH1 0x0 DUP2 CALLDATALOAD SWAP1 POP PUSH2 0x1322 DUP2 PUSH2 0x12FC JUMP JUMPDEST SWAP3 SWAP2 POP POP JUMP JUMPDEST PUSH1 0x0 PUSH1 0x20 DUP3 DUP5 SUB SLT ISZERO PUSH2 0x133E JUMPI PUSH2 0x133D PUSH2 0x12F7 JUMP JUMPDEST JUMPDEST PUSH1 0x0 PUSH2 0x134C DUP5 DUP3 DUP6 ADD PUSH2 0x1313 JUMP JUMPDEST SWAP2 POP POP SWAP3 SWAP2 POP POP JUMP JUMPDEST PUSH32 0x4E487B7100000000000000000000000000000000000000000000000000000000 PUSH1 0x0 MSTORE PUSH1 0x22 PUSH1 0x4 MSTORE PUSH1 0x24 PUSH1 0x0 REVERT JUMPDEST PUSH1 0x0 PUSH1 0x2 DUP3 DIV SWAP1 POP PUSH1 0x1 DUP3 AND DUP1 PUSH2 0x139C JUMPI PUSH1 0x7F DUP3 AND SWAP2 POP JUMPDEST PUSH1 0x20 DUP3 LT DUP2 SUB PUSH2 0x13AF JUMPI PUSH2 0x13AE PUSH2 0x1355 JUMP JUMPDEST JUMPDEST POP SWAP2 SWAP1 POP JUMP JUMPDEST PUSH32 0x4E487B7100000000000000000000000000000000000000000000000000000000 PUSH1 0x0 MSTORE PUSH1 0x41 PUSH1 0x4 MSTORE PUSH1 0x24 PUSH1 0x0 REVERT JUMPDEST PUSH32 0x4E487B7100000000000000000000000000000000000000000000000000000000 PUSH1 0x0 MSTORE PUSH1 0x32 PUSH1 0x4 MSTORE PUSH1 0x24 PUSH1 0x0 REVERT JUMPDEST PUSH32 0x4E487B7100000000000000000000000000000000000000000000000000000000 PUSH1 0x0 MSTORE PUSH1 0x11 PUSH1 0x4 MSTORE PUSH1 0x24 PUSH1 0x0 REVERT JUMPDEST PUSH1 0x0 PUSH2 0x144D DUP3 PUSH2 0xFEE JUMP JUMPDEST SWAP2 POP PUSH4 0xFFFFFFFF DUP3 SUB PUSH2 0x1463 JUMPI PUSH2 0x1462 PUSH2 0x1413 JUMP JUMPDEST JUMPDEST PUSH1 0x1 DUP3 ADD SWAP1 POP SWAP2 SWAP1 POP JUMP JUMPDEST PUSH1 0x0 DUP3 DUP3 MSTORE PUSH1 0x20 DUP3 ADD SWAP1 POP SWAP3 SWAP2 POP POP JUMP JUMPDEST PUSH1 0x0 PUSH2 0x148A DUP3 PUSH2 0xE1D JUMP JUMPDEST PUSH2 0x1494 DUP2 DUP6 PUSH2 0x146E JUMP JUMPDEST SWAP4 POP PUSH2 0x14A4 DUP2 DUP6 PUSH1 0x20 DUP7 ADD PUSH2 0xE39 JUMP JUMPDEST PUSH2 0x14AD DUP2 PUSH2 0xE63 JUMP JUMPDEST DUP5 ADD SWAP2 POP POP SWAP3 SWAP2 POP POP JUMP JUMPDEST PUSH1 0x0 PUSH1 0x20 DUP3 ADD SWAP1 POP DUP2 DUP2 SUB PUSH1 0x0 DUP4 ADD MSTORE PUSH2 0x14D2 DUP2 DUP5 PUSH2 0x147F JUMP JUMPDEST SWAP1 POP SWAP3 SWAP2 POP POP JUMP JUMPDEST PUSH32 0x4E487B7100000000000000000000000000000000000000000000000000000000 PUSH1 0x0 MSTORE PUSH1 0x51 PUSH1 0x4 MSTORE PUSH1 0x24 PUSH1 0x0 REVERT INVALID LOG2 PUSH5 0x6970667358 0x22 SLT KECCAK256 0x49 CALLCODE SLOAD 0x4E 0x5D PUSH3 0x262D23 INVALID 0xD6 0xE7 0xE3 PUSH26 0x19DAC3B7A3E8D38C8787DC22AA37D1FE3C8F64736F6C63430008 SLT STOP CALLER 0x4E PUSH6 0x772056656869 PUSH4 0x6C652043 PUSH16 0x6E747261637420686173206265656E20 PUSH5 0x65706C6F79 PUSH6 0x642EA2646970 PUSH7 0x73582212209C35 PREVRANDAO 0xBB OR 0x4D 0xAE 0x2B PUSH22 0xB713604B245E3C7790C9D87AA0CB5C62E227202E8B95 CHAINID PUSH5 0x736F6C6343 STOP ADDMOD SLT STOP CALLER "
		},
		"gasEstimates": {
			"creation": {
				"codeDepositCost": "2583600",
				"executionCost": "2793",
				"totalCost": "2586393"
			},
			"external": {
				"createVehicle((string,string,string,string,string,int16,string,string,string,string,string,int32,uint256),int32,string[])": "infinite",
				"deployedVehicles(uint256)": "infinite",
				"getDeployedVehicles()": "infinite"
			}
		},
		"methodIdentifiers": {
			"createVehicle((string,string,string,string,string,int16,string,string,string,string,string,int32,uint256),int32,string[])": "5b5fb3fb",
			"deployedVehicles(uint256)": "45d34fef",
			"getDeployedVehicles()": "4d2f3279"
		}
	},
	"abi": [
		{
			"inputs": [
				{
					"components": [
						{
							"internalType": "string",
							"name": "ownerFullName",
							"type": "string"
						},
						{
							"internalType": "string",
							"name": "ownerAddress",
							"type": "string"
						},
						{
							"internalType": "string",
							"name": "brand",
							"type": "string"
						},
						{
							"internalType": "string",
							"name": "vehicleType",
							"type": "string"
						},
						{
							"internalType": "string",
							"name": "color",
							"type": "string"
						},
						{
							"internalType": "int16",
							"name": "seatCapacity",
							"type": "int16"
						},
						{
							"internalType": "string",
							"name": "origin",
							"type": "string"
						},
						{
							"internalType": "string",
							"name": "licensePlate",
							"type": "string"
						},
						{
							"internalType": "string",
							"name": "engineNumber",
							"type": "string"
						},
						{
							"internalType": "string",
							"name": "chassisNumber",
							"type": "string"
						},
						{
							"internalType": "string",
							"name": "modelCode",
							"type": "string"
						},
						{
							"internalType": "int32",
							"name": "capacity",
							"type": "int32"
						},
						{
							"internalType": "uint256",
							"name": "firstRegistrationDate",
							"type": "uint256"
						}
					],
					"internalType": "struct VehicleProperties",
					"name": "_props",
					"type": "tuple"
				},
				{
					"internalType": "int32",
					"name": "_startingPrice",
					"type": "int32"
				},
				{
					"internalType": "string[]",
					"name": "_vehicleImages",
					"type": "string[]"
				}
			],
			"name": "createVehicle",
			"outputs": [
				{
					"internalType": "address",
					"name": "",
					"type": "address"
				}
			],
			"stateMutability": "nonpayable",
			"type": "function"
		},
		{
			"inputs": [
				{
					"internalType": "uint256",
					"name": "",
					"type": "uint256"
				}
			],
			"name": "deployedVehicles",
			"outputs": [
				{
					"internalType": "contract Vehicle",
					"name": "",
					"type": "address"
				}
			],
			"stateMutability": "view",
			"type": "function"
		},
		{
			"inputs": [],
			"name": "getDeployedVehicles",
			"outputs": [
				{
					"internalType": "contract Vehicle[]",
					"name": "",
					"type": "address[]"
				}
			],
			"stateMutability": "view",
			"type": "function"
		}
	]
}