{
	"data": {
		"bytecode": {
			"linkReferences": {},
			"object": "608060405234801561000f575f80fd5b505f80546001600160a01b031916331790556149748061002e5f395ff3fe608060405260043610620000b6575f3560e01c80638da5cb5b116200006a5780638da5cb5b14620001f0578063b21e00091462000210578063e423aeb91462000234578063f2fde38b1462000258578063f5fdcd5a146200027c578063f985e8521462000293575f80fd5b806324d7806c14620000f557806345d34fef146200011b5780634d2f3279146200015c578063715018a6146200018257806372938f0e14620001995780638d96317014620001bd575f80fd5b36620000f1576040513481527f0dfaf7b3ed67d555d65df6729365ea7ab2ac8d2128fb556359e11039b374976f9060200160405180910390a1005b5f80fd5b34801562000101575f80fd5b50620001196200011336600462000ca1565b620002b7565b005b34801562000127575f80fd5b506200013f6200013936600462000cc6565b6200031c565b6040516001600160a01b0390911681526020015b60405180910390f35b34801562000168575f80fd5b506200017362000345565b60405162000153919062000cde565b3480156200018e575f80fd5b5062000119620003a7565b348015620001a5575f80fd5b5062000173620001b736600462000ca1565b62000403565b348015620001c9575f80fd5b50620001e1620001db36600462000ca1565b620005a5565b60405162000153919062000f36565b348015620001fc575f80fd5b505f546200013f906001600160a01b031681565b3480156200021c575f80fd5b50620001196200022e36600462001012565b620006dd565b34801562000240575f80fd5b50620001196200025236600462001067565b620007eb565b34801562000264575f80fd5b50620001196200027636600462000ca1565b62000902565b34801562000288575f80fd5b50620001e162000923565b3480156200029f575f80fd5b5062000119620002b136600462001297565b62000a57565b5f546001600160a01b03828116911614620003195760405162461bcd60e51b815260206004820152601d60248201527f546869732061646472657373206973206e6f7420746865206f776e657200000060448201526064015b60405180910390fd5b50565b600181815481106200032c575f80fd5b5f918252602090912001546001600160a01b0316905081565b606060018054806020026020016040519081016040528092919081815260200182805480156200039d57602002820191905f5260205f20905b81546001600160a01b031681526001909101906020018083116200037e575b5050505050905090565b5f546001600160a01b03163314620003bd575f80fd5b5f80546040516001600160a01b03909116917ff8df31144d9c2f0f6b59d69b8b98abd5459d07f2742c4df920b25aae33c6482091a25f80546001600160a01b0319169055565b6001546060905f906001600160401b03811115620004255762000425620010ac565b6040519080825280602002602001820160405280156200044f578160200160208202803683370190505b5090505f805b60015463ffffffff821610156200059c57846001600160a01b031660018263ffffffff16815481106200048c576200048c620014c7565b5f918252602091829020015460408051638da5cb5b60e01b815290516001600160a01b0390921692638da5cb5b926004808401938290030181865afa158015620004d8573d5f803e3d5ffd5b505050506040513d601f19601f82011682018060405250810190620004fe9190620014e8565b6001600160a01b031603620005875760018163ffffffff1681548110620005295762000529620014c7565b905f5260205f20015f9054906101000a90046001600160a01b0316838363ffffffff16815181106200055f576200055f620014c7565b6001600160a01b03909216602092830291909101909101528162000583816200151a565b9250505b8062000593816200151a565b91505062000455565b50815292915050565b60605f620005b38362000403565b90505f81516001600160401b03811115620005d257620005d2620010ac565b6040519080825280602002602001820160405280156200060f57816020015b620005fb62000bd6565b815260200190600190039081620005f15790505b5090505f5b8251811015620006d557828181518110620006335762000633620014c7565b60200260200101516001600160a01b0316633bc5de306040518163ffffffff1660e01b81526004015f60405180830381865afa15801562000676573d5f803e3d5ffd5b505050506040513d5f823e601f3d908101601f191682016040526200069f919081019062001815565b828281518110620006b457620006b4620014c7565b60200260200101819052508080620006cc90620018df565b91505062000614565b509392505050565b5f805b6001548110156200073f57336001600160a01b0316600182815481106200070b576200070b620014c7565b5f918252602090912001546001600160a01b0316036200072a57600191505b806200073681620018df565b915050620006e0565b5080620007605760405162461bcd60e51b81526004016200031090620018fa565b6040516001600160a01b0386169083156108fc029084905f818181858888f1935050505015801562000794573d5f803e3d5ffd5b506040805163ffffffff85168152602081018490526001600160a01b0380871692908816917f4fddb5c71e569ddc5147dc85d41b4881bd368077e8d62c583f99ac74d7c397df910160405180910390a35050505050565b5f805b6001548110156200084d57336001600160a01b031660018281548110620008195762000819620014c7565b5f918252602090912001546001600160a01b0316036200083857600191505b806200084481620018df565b915050620007ee565b50806200086e5760405162461bcd60e51b81526004016200031090620018fa565b6040516001600160a01b0386169083156108fc029084905f818181858888f19350505050158015620008a2573d5f803e3d5ffd5b50826001600160a01b0316846001600160a01b0316866001600160a01b03167fe9f78d6edda988cab0914349536c43126df5331a11f815353b4d9cedee67515c85604051620008f391815260200190565b60405180910390a45050505050565b5f546001600160a01b0316331462000918575f80fd5b620003198162000b6a565b6001546060905f906001600160401b03811115620009455762000945620010ac565b6040519080825280602002602001820160405280156200098257816020015b6200096e62000bd6565b815260200190600190039081620009645790505b5090505f5b60015481101562000a515760018181548110620009a857620009a8620014c7565b5f918252602082200154604080516303bc5de360e41b815290516001600160a01b0390921692633bc5de30926004808401938290030181865afa158015620009f2573d5f803e3d5ffd5b505050506040513d5f823e601f3d908101601f1916820160405262000a1b919081019062001815565b82828151811062000a305762000a30620014c7565b6020026020010181905250808062000a4890620018df565b91505062000987565b50919050565b5f3084848460405162000a6a9062000c7e565b62000a79949392919062001957565b604051809103905ff08015801562000a93573d5f803e3d5ffd5b506001805480820182555f919091527fb10e2d527612073b26eecdfd717e6a320cf44b4afac2b0732d9fcbe2b7fa0cf60180546001600160a01b0319166001600160a01b03831690811790915560405163f2fde38b60e01b81523360048201529192509063f2fde38b906024015f604051808303815f87803b15801562000b18575f80fd5b505af115801562000b2b573d5f803e3d5ffd5b50506040516001600160a01b03841692503391507f96cfbfbbcea12d6a0623aa4eff9d6747ab8d2a451b3fd868190ab811a200027c905f90a350505050565b6001600160a01b03811662000b7d575f80fd5b5f80546040516001600160a01b03808516939216917f8be0079c531659141344cd1fd0a4f28419497f9722a3daafe3b4186f6b6457e091a35f80546001600160a01b0319166001600160a01b0392909216919091179055565b6040518060a001604052805f151581526020015f6001600160a01b0316815260200162000c6b604051806101a0016040528060608152602001606081526020016060815260200160608152602001606081526020015f61ffff16815260200160608152602001606081526020016060815260200160608152602001606081526020015f63ffffffff1681526020015f81525090565b81526020015f8152602001606081525090565b612f9d80620019a283390190565b6001600160a01b038116811462000319575f80fd5b5f6020828403121562000cb2575f80fd5b813562000cbf8162000c8c565b9392505050565b5f6020828403121562000cd7575f80fd5b5035919050565b602080825282518282018190525f9190848201906040850190845b8181101562000d205783516001600160a01b03168352928401929184019160010162000cf9565b50909695505050505050565b5f5b8381101562000d4857818101518382015260200162000d2e565b50505f910152565b5f815180845262000d6981602086016020860162000d2c565b601f01601f19169290920160200192915050565b5f6101a0825181855262000d948286018262000d50565b9150506020830151848203602086015262000db0828262000d50565b9150506040830151848203604086015262000dcc828262000d50565b9150506060830151848203606086015262000de8828262000d50565b9150506080830151848203608086015262000e04828262000d50565b91505060a083015162000e1d60a086018261ffff169052565b5060c083015184820360c086015262000e37828262000d50565b91505060e083015184820360e086015262000e53828262000d50565b915050610100808401518583038287015262000e70838262000d50565b92505050610120808401518583038287015262000e8e838262000d50565b92505050610140808401518583038287015262000eac838262000d50565b925050506101608084015162000ec98287018263ffffffff169052565b5050610180928301519390920192909252919050565b5f81518084526020808501808196508360051b810191508286015f5b8581101562000f2957828403895262000f1684835162000d50565b9885019893509084019060010162000efb565b5091979650505050505050565b5f6020808301818452808551808352604092508286019150828160051b8701018488015f5b8381101562000fe057888303603f190185528151805115158452878101516001600160a01b0316888501528681015160a08886018190529062000fa18287018262000d7d565b91505060608083015181870152506080808301519250858203818701525062000fcb818362000edf565b96890196945050509086019060010162000f5b565b509098975050505050505050565b63ffffffff8116811462000319575f80fd5b80356200100d8162000fee565b919050565b5f805f806080858703121562001026575f80fd5b8435620010338162000c8c565b93506020850135620010458162000c8c565b92506040850135620010578162000fee565b9396929550929360600135925050565b5f805f80608085870312156200107b575f80fd5b8435620010888162000c8c565b935060208501356200109a8162000c8c565b92506040850135620010578162000c8c565b634e487b7160e01b5f52604160045260245ffd5b6040516101a081016001600160401b0381118282101715620010e657620010e6620010ac565b60405290565b60405160a081016001600160401b0381118282101715620010e657620010e6620010ac565b604051601f8201601f191681016001600160401b03811182821017156200113c576200113c620010ac565b604052919050565b5f6001600160401b038211156200115f576200115f620010ac565b50601f01601f191660200190565b5f82601f8301126200117d575f80fd5b8135620011946200118e8262001144565b62001111565b818152846020838601011115620011a9575f80fd5b816020850160208301375f918101602001919091529392505050565b61ffff8116811462000319575f80fd5b80356200100d81620011c5565b5f6001600160401b03821115620011fd57620011fd620010ac565b5060051b60200190565b5f82601f83011262001217575f80fd5b813560206200122a6200118e83620011e2565b82815260059290921b8401810191818101908684111562001249575f80fd5b8286015b848110156200128c5780356001600160401b038111156200126d575f8081fd5b6200127d8986838b01016200116d565b8452509183019183016200124d565b509695505050505050565b5f805f60608486031215620012aa575f80fd5b83356001600160401b0380821115620012c1575f80fd5b908501906101a08288031215620012d6575f80fd5b620012e0620010c0565b823582811115620012ef575f80fd5b620012fd898286016200116d565b82525060208301358281111562001312575f80fd5b62001320898286016200116d565b60208301525060408301358281111562001338575f80fd5b62001346898286016200116d565b6040830152506060830135828111156200135e575f80fd5b6200136c898286016200116d565b60608301525060808301358281111562001384575f80fd5b62001392898286016200116d565b608083015250620013a660a08401620011d5565b60a082015260c083013582811115620013bd575f80fd5b620013cb898286016200116d565b60c08301525060e083013582811115620013e3575f80fd5b620013f1898286016200116d565b60e08301525061010080840135838111156200140b575f80fd5b620014198a8287016200116d565b828401525050610120808401358381111562001433575f80fd5b620014418a8287016200116d565b82840152505061014080840135838111156200145b575f80fd5b620014698a8287016200116d565b8284015250506101606200147f81850162001000565b9082015261018092830135928101929092529093506020850135925060408501359080821115620014ae575f80fd5b50620014bd8682870162001207565b9150509250925092565b634e487b7160e01b5f52603260045260245ffd5b80516200100d8162000c8c565b5f60208284031215620014f9575f80fd5b815162000cbf8162000c8c565b634e487b7160e01b5f52601160045260245ffd5b5f63ffffffff80831681810362001535576200153562001506565b6001019392505050565b5f82601f8301126200154f575f80fd5b8151620015606200118e8262001144565b81815284602083860101111562001575575f80fd5b6200158882602083016020870162000d2c565b949350505050565b80516200100d81620011c5565b80516200100d8162000fee565b5f6101a08284031215620015bc575f80fd5b620015c6620010c0565b905081516001600160401b0380821115620015df575f80fd5b620015ed858386016200153f565b8352602084015191508082111562001603575f80fd5b62001611858386016200153f565b602084015260408401519150808211156200162a575f80fd5b62001638858386016200153f565b6040840152606084015191508082111562001651575f80fd5b6200165f858386016200153f565b6060840152608084015191508082111562001678575f80fd5b62001686858386016200153f565b60808401526200169960a0850162001590565b60a084015260c0840151915080821115620016b2575f80fd5b620016c0858386016200153f565b60c084015260e0840151915080821115620016d9575f80fd5b620016e7858386016200153f565b60e08401526101009150818401518181111562001702575f80fd5b62001710868287016200153f565b8385015250610120915081840151818111156200172b575f80fd5b62001739868287016200153f565b83850152506101409150818401518181111562001754575f80fd5b62001762868287016200153f565b83850152505050610160620017798184016200159d565b818301525061018080830151818301525092915050565b5f82601f830112620017a0575f80fd5b81516020620017b36200118e83620011e2565b82815260059290921b84018101918181019086841115620017d2575f80fd5b8286015b848110156200128c5780516001600160401b03811115620017f6575f8081fd5b620018068986838b01016200153f565b845250918301918301620017d6565b5f6020828403121562001826575f80fd5b81516001600160401b03808211156200183d575f80fd5b9083019060a0828603121562001851575f80fd5b6200185b620010ec565b825180151581146200186b575f80fd5b81526200187b60208401620014db565b602082015260408301518281111562001892575f80fd5b620018a087828601620015aa565b60408301525060608301516060820152608083015182811115620018c2575f80fd5b620018d08782860162001790565b60808301525095945050505050565b5f60018201620018f357620018f362001506565b5060010190565b6020808252603b908201527f5468652076656869636c6520636f6e747261637420686173206e6f742062656560408201527f6e206465706c6f796564206279207468697320666163746f72792e0000000000606082015260800190565b6001600160a01b03851681526080602082018190525f906200197c9083018662000d7d565b846040840152828103606084015262001996818562000edf565b97965050505050505056fe608060405234801562000010575f80fd5b5060405162002f9d38038062002f9d833981016040819052620000339162000519565b5f80546001600160a01b031916331790556040805160608101909152602780825262000069919062002f766020830139620001f6565b600180546001600160a01b0319166001600160a01b038616179055825183906002908190620000999082620007f4565b5060208201516001820190620000b09082620007f4565b5060408201516002820190620000c79082620007f4565b5060608201516003820190620000de9082620007f4565b5060808201516004820190620000f59082620007f4565b5060a082015160058201805461ffff191661ffff90921691909117905560c08201516006820190620001289082620007f4565b5060e082015160078201906200013f9082620007f4565b506101008201516008820190620001579082620007f4565b5061012082015160098201906200016f9082620007f4565b50610140820151600a820190620001879082620007f4565b50610160820151600b8201805463ffffffff191663ffffffff90921691909117905561018090910151600c90910155600f8290558051620001d090601090602084019062000279565b50506012805463ffffffff1916905550506001805461ffff60a01b1916905550620008f0565b62000241816040516024016200020d9190620008bc565b60408051601f198184030181529190526020810180516001600160e01b0390811663104c13eb60e21b179091526200024416565b50565b62000241816200025a60201b62001d5b1760201c565b5f6a636f6e736f6c652e6c6f6790505f80835160208501845afa505050565b828054828255905f5260205f20908101928215620002c2579160200282015b82811115620002c25782518290620002b19082620007f4565b509160200191906001019062000298565b50620002d0929150620002d4565b5090565b80821115620002d0575f620002ea8282620002f4565b50600101620002d4565b508054620003029062000768565b5f825580601f1062000312575050565b601f0160209004905f5260205f20908101906200024191905b80821115620002d0575f81556001016200032b565b634e487b7160e01b5f52604160045260245ffd5b6040516101a081016001600160401b03811182821017156200037a576200037a62000340565b60405290565b604051601f8201601f191681016001600160401b0381118282101715620003ab57620003ab62000340565b604052919050565b5f5b83811015620003cf578181015183820152602001620003b5565b50505f910152565b5f82601f830112620003e7575f80fd5b81516001600160401b0381111562000403576200040362000340565b62000418601f8201601f191660200162000380565b8181528460208386010111156200042d575f80fd5b62000440826020830160208701620003b3565b949350505050565b805161ffff811681146200045a575f80fd5b919050565b805163ffffffff811681146200045a575f80fd5b5f82601f83011262000483575f80fd5b815160206001600160401b0380831115620004a257620004a262000340565b8260051b620004b383820162000380565b9384528581018301938381019088861115620004cd575f80fd5b84880192505b858310156200050d57825184811115620004ec575f8081fd5b620004fc8a87838c0101620003d7565b8352509184019190840190620004d3565b98975050505050505050565b5f805f80608085870312156200052d575f80fd5b84516001600160a01b038116811462000544575f80fd5b60208601519094506001600160401b038082111562000561575f80fd5b908601906101a0828903121562000576575f80fd5b6200058062000354565b8251828111156200058f575f80fd5b6200059d8a828601620003d7565b825250602083015182811115620005b2575f80fd5b620005c08a828601620003d7565b602083015250604083015182811115620005d8575f80fd5b620005e68a828601620003d7565b604083015250606083015182811115620005fe575f80fd5b6200060c8a828601620003d7565b60608301525060808301518281111562000624575f80fd5b620006328a828601620003d7565b6080830152506200064660a0840162000448565b60a082015260c0830151828111156200065d575f80fd5b6200066b8a828601620003d7565b60c08301525060e08301518281111562000683575f80fd5b620006918a828601620003d7565b60e0830152506101008084015183811115620006ab575f80fd5b620006b98b828701620003d7565b8284015250506101208084015183811115620006d3575f80fd5b620006e18b828701620003d7565b8284015250506101408084015183811115620006fb575f80fd5b620007098b828701620003d7565b8284015250506101606200071f8185016200045f565b908201526101809283015192810192909252604087015160608801519295509350808211156200074d575f80fd5b506200075c8782880162000473565b91505092959194509250565b600181811c908216806200077d57607f821691505b6020821081036200079c57634e487b7160e01b5f52602260045260245ffd5b50919050565b601f821115620007ef575f81815260208120601f850160051c81016020861015620007ca5750805b601f850160051c820191505b81811015620007eb57828155600101620007d6565b5050505b505050565b81516001600160401b0381111562000810576200081062000340565b620008288162000821845462000768565b84620007a2565b602080601f8311600181146200085e575f8415620008465750858301515b5f19600386901b1c1916600185901b178555620007eb565b5f85815260208120601f198616915b828110156200088e578886015182559484019460019091019084016200086d565b5085821015620008ac57878501515f19600388901b60f8161c191681555b5050505050600190811b01905550565b602081525f8251806020840152620008dc816040850160208701620003b3565b601f01601f19169190910160400192915050565b61267880620008fe5f395ff3fe608060405260043610610110575f3560e01c8063b68bfd081161009d578063c66531cf11610062578063c66531cf146102dd578063cebd31bc14610301578063e7065dff1461031e578063e7f9aced14610332578063f2fde38b14610353575f80fd5b8063b68bfd0814610256578063b7751c7114610277578063b81c78ec1461028a578063c4c09a3a146102ab578063c5292c67146102bf575f80fd5b80634364bab9116100e35780634364bab9146101ad57806368e24327146101ce578063715018a6146101ed5780638da5cb5b14610201578063966dae0e14610237575f80fd5b806328f371aa146101145780632f54bf6e1461014957806337271cc7146101765780633bc5de301461018c575b5f80fd5b34801561011f575f80fd5b5060015461013490600160a81b900460ff1681565b60405190151581526020015b60405180910390f35b348015610154575f80fd5b506101346101633660046120ff565b5f546001600160a01b0391821691161490565b348015610181575f80fd5b5061018a610372565b005b348015610197575f80fd5b506101a061061f565b604051610140919061231b565b3480156101b8575f80fd5b506101c1610d04565b6040516101409190612384565b3480156101d9575f80fd5b5061018a6101e8366004612396565b610dd8565b3480156101f8575f80fd5b5061018a610e0b565b34801561020c575f80fd5b505f5461021f906001600160a01b031681565b6040516001600160a01b039091168152602001610140565b348015610242575f80fd5b5060015461021f906001600160a01b031681565b348015610261575f80fd5b5061026a610e66565b60405161014091906123f3565b61018a610285366004612401565b610f5b565b348015610295575f80fd5b5061029e6113fb565b6040516101409190612421565b3480156102b6575f80fd5b5061018a6114ed565b3480156102ca575f80fd5b50600154600160a01b900460ff16610134565b3480156102e8575f80fd5b5060125460405163ffffffff9091168152602001610140565b34801561030c575f80fd5b50600f54604051908152602001610140565b348015610329575f80fd5b5061018a6116e4565b34801561033d575f80fd5b50610346611753565b604051610140919061246e565b34801561035e575f80fd5b5061018a61036d3660046120ff565b611d3a565b600154600160a01b900460ff166103a45760405162461bcd60e51b815260040161039b90612480565b60405180910390fd5b6103ac611d7a565b50505f546001600160a01b031633036103c3575f80fd5b6012545f9060119082906103df9060019063ffffffff166124e5565b63ffffffff908116825260208083019390935260409182015f20825160a081018452815492831681526401000000009092046001600160a01b0316938201939093526001830154918101919091526002820154606082015260039091015460ff1615801560808301529091506104a15760405162461bcd60e51b815260206004820152602160248201527f546865206c6173742062696420686173206265656e20776974686472617765646044820152601760f91b606482015260840161039b565b80602001516001600160a01b0316336001600160a01b0316146105185760405162461bcd60e51b815260206004820152602960248201527f53656e646572206973206e6f742074686520626964646572206f6620746865206044820152683630b9ba103134b21760b91b606482015260840161039b565b60015460208201518251604080850151905163b21e000960e01b81526001600160a01b03938416600482015230602482015263ffffffff90921660448301526064820152911690819063b21e0009906084015f604051808303815f87803b158015610581575f80fd5b505af1158015610593573d5f803e3d5ffd5b505060125460405163ffffffff90911681523092503391507f47bf46fad2760ee84d62606d8af5800c9752761579fd146d2b8f9d4fa55512f89060200160405180910390a36012546001906011905f906105f490849063ffffffff166124e5565b63ffffffff16815260208101919091526040015f20600301805460ff19169115159190911790555050565b61062761205f565b6040805160a081018252600154600160a01b900460ff161515815230602082015281516101a0810183526002805492938401928290829061066790612509565b80601f016020809104026020016040519081016040528092919081815260200182805461069390612509565b80156106de5780601f106106b5576101008083540402835291602001916106de565b820191905f5260205f20905b8154815290600101906020018083116106c157829003601f168201915b505050505081526020016001820180546106f790612509565b80601f016020809104026020016040519081016040528092919081815260200182805461072390612509565b801561076e5780601f106107455761010080835404028352916020019161076e565b820191905f5260205f20905b81548152906001019060200180831161075157829003601f168201915b5050505050815260200160028201805461078790612509565b80601f01602080910402602001604051908101604052809291908181526020018280546107b390612509565b80156107fe5780601f106107d5576101008083540402835291602001916107fe565b820191905f5260205f20905b8154815290600101906020018083116107e157829003601f168201915b5050505050815260200160038201805461081790612509565b80601f016020809104026020016040519081016040528092919081815260200182805461084390612509565b801561088e5780601f106108655761010080835404028352916020019161088e565b820191905f5260205f20905b81548152906001019060200180831161087157829003601f168201915b505050505081526020016004820180546108a790612509565b80601f01602080910402602001604051908101604052809291908181526020018280546108d390612509565b801561091e5780601f106108f55761010080835404028352916020019161091e565b820191905f5260205f20905b81548152906001019060200180831161090157829003601f168201915b5050509183525050600582015461ffff16602082015260068201805460409092019161094990612509565b80601f016020809104026020016040519081016040528092919081815260200182805461097590612509565b80156109c05780601f10610997576101008083540402835291602001916109c0565b820191905f5260205f20905b8154815290600101906020018083116109a357829003601f168201915b505050505081526020016007820180546109d990612509565b80601f0160208091040260200160405190810160405280929190818152602001828054610a0590612509565b8015610a505780601f10610a2757610100808354040283529160200191610a50565b820191905f5260205f20905b815481529060010190602001808311610a3357829003601f168201915b50505050508152602001600882018054610a6990612509565b80601f0160208091040260200160405190810160405280929190818152602001828054610a9590612509565b8015610ae05780601f10610ab757610100808354040283529160200191610ae0565b820191905f5260205f20905b815481529060010190602001808311610ac357829003601f168201915b50505050508152602001600982018054610af990612509565b80601f0160208091040260200160405190810160405280929190818152602001828054610b2590612509565b8015610b705780601f10610b4757610100808354040283529160200191610b70565b820191905f5260205f20905b815481529060010190602001808311610b5357829003601f168201915b50505050508152602001600a82018054610b8990612509565b80601f0160208091040260200160405190810160405280929190818152602001828054610bb590612509565b8015610c005780601f10610bd757610100808354040283529160200191610c00565b820191905f5260205f20905b815481529060010190602001808311610be357829003601f168201915b5050509183525050600b82015463ffffffff16602080830191909152600c90920154604091820152918352600f548382015260108054835181840281018401855281815294909301939290915f9084015b82821015610cf9578382905f5260205f20018054610c6e90612509565b80601f0160208091040260200160405190810160405280929190818152602001828054610c9a90612509565b8015610ce55780601f10610cbc57610100808354040283529160200191610ce5565b820191905f5260205f20905b815481529060010190602001808311610cc857829003601f168201915b505050505081526020019060010190610c51565b505050915250919050565b60606010805480602002602001604051908101604052809291908181526020015f905b82821015610dcf578382905f5260205f20018054610d4490612509565b80601f0160208091040260200160405190810160405280929190818152602001828054610d7090612509565b8015610dbb5780601f10610d9257610100808354040283529160200191610dbb565b820191905f5260205f20905b815481529060010190602001808311610d9e57829003601f168201915b505050505081526020019060010190610d27565b50505050905090565b5f546001600160a01b03163314610ded575f80fd5b60018054911515600160a01b0260ff60a01b19909216919091179055565b5f546001600160a01b03163314610e20575f80fd5b5f80546040516001600160a01b03909116917ff8df31144d9c2f0f6b59d69b8b98abd5459d07f2742c4df920b25aae33c6482091a25f80546001600160a01b0319169055565b6040805160a0810182525f8082526020820181905291810182905260608101829052608081019190915260125463ffffffff165b63ffffffff811615610f2c5780610eb08161253b565b63ffffffff8181165f90815260116020908152604091829020825160a081018452815494851681526401000000009094046001600160a01b031691840191909152600181015491830191909152600281015460608301526003015460ff161515608082018190529193509150610f265792915050565b50610e9a565b50506040805160a0810182525f8082526020820181905291810182905260608101919091526001608082015290565b81803414610fab5760405162461bcd60e51b815260206004820152601960248201527f56616c7565206d75737420657175616c207175616e7469747900000000000000604482015260640161039b565b600154600160a01b900460ff16610fd45760405162461bcd60e51b815260040161039b90612480565b5f546001600160a01b03163303610fe9575f80fd5b6040805160a081019091526012545f9190819061100d9063ffffffff166001612559565b63ffffffff908116825233602080840191909152604080840189905260608085018990525f6080958601819052601254851681526011845282812087518154958901516001600160a01b0316640100000000026001600160c01b03199096169616959095179390931784559085015160018401558401516002830155918301516003909101805491151560ff199092169190911790559091506110ae610e66565b9050670de0b6b3a764000033311015611128576110cb3331611e82565b6110d486611e82565b6040516020016110e49190612576565b60408051601f19818403018152908290526111029291602001612591565b60408051601f198184030181529082905262461bcd60e51b825261039b916004016125bf565b8060800151801561113a5750600f5485105b156111a55760405162461bcd60e51b815260206004820152603560248201527f546865207175616e74697479206d75737420657175616c206f7220657863656560448201527432103a34329039ba30b93a34b73390383934b1b29760591b606482015260840161039b565b80608001511580156111fa57506012546011905f906111cc9060019063ffffffff166124e5565b63ffffffff16815260208101919091526040015f20600101546111f79067016345785d8a00006125d1565b85105b156112775760405162461bcd60e51b815260206004820152604160248201527f4e6577207175616e74697479206d75737420626520677265617465722074686160448201527f6e207468652070726576696f7573206174206c6561737420302e31204b4c41596064820152601760f91b608482015260a40161039b565b6001546040516001600160a01b03909116903480156108fc02915f818181858888f193505050501580156112ad573d5f803e3d5ffd5b506012546040805163ffffffff909216825260208201879052348282015251309133917fd935fb49a37280d0444c7535fea4a6f35f0e741795075668648bfdd008c7be039181900360600190a380608001516113c05760015460208201518251604080850151905163b21e000960e01b81526001600160a01b03938416600482015230602482015263ffffffff90921660448301526064820152911690819063b21e0009906084015f604051808303815f87803b15801561136c575f80fd5b505af115801561137e573d5f803e3d5ffd5b50505050600160115f6001855f015161139791906124e5565b63ffffffff16815260208101919091526040015f20600301805460ff1916911515919091179055505b6012805463ffffffff16905f6113d5836125e4565b91906101000a81548163ffffffff021916908363ffffffff160217905550505050505050565b6012546060905f9063ffffffff1667ffffffffffffffff81111561142157611421612606565b60405190808252806020026020018201604052801561147857816020015b6040805160a0810182525f808252602080830182905292820181905260608201819052608082015282525f1990920191018161143f5790505b5090505f5b60125463ffffffff90811690821610156114e757818163ffffffff16815181106114a9576114a961261a565b6020026020010151828263ffffffff16815181106114c9576114c961261a565b602002602001018190525080806114df906125e4565b91505061147d565b50919050565b5f546001600160a01b03163314611502575f80fd5b5f61150b610e66565b90508060800151156115545760405162461bcd60e51b81526020600482015260126024820152712737903134b239903a379039bab136b4ba1760711b604482015260640161039b565b6001545f546020830151604080850151905163e423aeb960e01b81526001600160a01b03938416600482015291831660248301523060448301526064820152911690819063e423aeb9906084015f604051808303815f87803b1580156115b8575f80fd5b505af11580156115ca573d5f803e3d5ffd5b50506001805460ff60a01b19169055505060208201516115e981611d3a565b6012547f467f63626ee88ac9096115f006478e3abe180bb37fb42a95178ad4b1bc7f237290309083906011905f906116299060019063ffffffff166124e5565b63ffffffff16815260208082019290925260409081015f206001015481516001600160a01b039586168152949093169184019190915282015260600160405180910390a15f5b60125463ffffffff90811690821610156116d15763ffffffff81165f90815260116020526040812080546001600160c01b0319168155600181018290556002810191909155600301805460ff19169055806116c9816125e4565b91505061166f565b50506012805463ffffffff191690555050565b600154604051630935e01b60e21b81523360048201526001600160a01b039091169081906324d7806c906024015f6040518083038186803b158015611727575f80fd5b505afa158015611739573d5f803e3d5ffd5b50506001805460ff60a81b1916600160a81b179055505050565b61175b612090565b6002604051806101a00160405290815f8201805461177890612509565b80601f01602080910402602001604051908101604052809291908181526020018280546117a490612509565b80156117ef5780601f106117c6576101008083540402835291602001916117ef565b820191905f5260205f20905b8154815290600101906020018083116117d257829003601f168201915b5050505050815260200160018201805461180890612509565b80601f016020809104026020016040519081016040528092919081815260200182805461183490612509565b801561187f5780601f106118565761010080835404028352916020019161187f565b820191905f5260205f20905b81548152906001019060200180831161186257829003601f168201915b5050505050815260200160028201805461189890612509565b80601f01602080910402602001604051908101604052809291908181526020018280546118c490612509565b801561190f5780601f106118e65761010080835404028352916020019161190f565b820191905f5260205f20905b8154815290600101906020018083116118f257829003601f168201915b5050505050815260200160038201805461192890612509565b80601f016020809104026020016040519081016040528092919081815260200182805461195490612509565b801561199f5780601f106119765761010080835404028352916020019161199f565b820191905f5260205f20905b81548152906001019060200180831161198257829003601f168201915b505050505081526020016004820180546119b890612509565b80601f01602080910402602001604051908101604052809291908181526020018280546119e490612509565b8015611a2f5780601f10611a0657610100808354040283529160200191611a2f565b820191905f5260205f20905b815481529060010190602001808311611a1257829003601f168201915b5050509183525050600582015461ffff166020820152600682018054604090920191611a5a90612509565b80601f0160208091040260200160405190810160405280929190818152602001828054611a8690612509565b8015611ad15780601f10611aa857610100808354040283529160200191611ad1565b820191905f5260205f20905b815481529060010190602001808311611ab457829003601f168201915b50505050508152602001600782018054611aea90612509565b80601f0160208091040260200160405190810160405280929190818152602001828054611b1690612509565b8015611b615780601f10611b3857610100808354040283529160200191611b61565b820191905f5260205f20905b815481529060010190602001808311611b4457829003601f168201915b50505050508152602001600882018054611b7a90612509565b80601f0160208091040260200160405190810160405280929190818152602001828054611ba690612509565b8015611bf15780601f10611bc857610100808354040283529160200191611bf1565b820191905f5260205f20905b815481529060010190602001808311611bd457829003601f168201915b50505050508152602001600982018054611c0a90612509565b80601f0160208091040260200160405190810160405280929190818152602001828054611c3690612509565b8015611c815780601f10611c5857610100808354040283529160200191611c81565b820191905f5260205f20905b815481529060010190602001808311611c6457829003601f168201915b50505050508152602001600a82018054611c9a90612509565b80601f0160208091040260200160405190810160405280929190818152602001828054611cc690612509565b8015611d115780601f10611ce857610100808354040283529160200191611d11565b820191905f5260205f20905b815481529060010190602001808311611cf457829003601f168201915b5050509183525050600b82015463ffffffff166020820152600c90910154604090910152919050565b5f546001600160a01b03163314611d4f575f80fd5b611d5881611f12565b50565b5f6a636f6e736f6c652e6c6f6790505f80835160208501845afa505050565b6040805160a0810182525f8082526020820181905291810182905260608101829052608081018290525f5b60125463ffffffff9081169082161015611e665763ffffffff81165f90815260116020526040902054336401000000009091046001600160a01b031603611e545763ffffffff8181165f90815260116020908152604091829020825160a081018452815494851681526401000000009094046001600160a01b031691840191909152600181015491830191909152600281015460608301526003015460ff161515608082015290939092509050565b80611e5e816125e4565b915050611da5565b50604051637a42b47960e01b815233600482015260240161039b565b60605f611e8e83611f7d565b60010190505f8167ffffffffffffffff811115611ead57611ead612606565b6040519080825280601f01601f191660200182016040528015611ed7576020820181803683370190505b5090508181016020015b5f19016f181899199a1a9b1b9c1cb0b131b232b360811b600a86061a8153600a8504945084611ee157509392505050565b6001600160a01b038116611f24575f80fd5b5f80546040516001600160a01b03808516939216917f8be0079c531659141344cd1fd0a4f28419497f9722a3daafe3b4186f6b6457e091a35f80546001600160a01b0319166001600160a01b0392909216919091179055565b5f8072184f03e93ff9f4daa797ed6e38ed64bf6a1f0160401b8310611fbb5772184f03e93ff9f4daa797ed6e38ed64bf6a1f0160401b830492506040015b6d04ee2d6d415b85acef81000000008310611fe7576d04ee2d6d415b85acef8100000000830492506020015b662386f26fc10000831061200557662386f26fc10000830492506010015b6305f5e100831061201d576305f5e100830492506008015b612710831061203157612710830492506004015b60648310612043576064830492506002015b600a831061204f576001015b92915050565b61205d61262e565b565b6040805160a0810182525f808252602082015290810161207d612090565b81526020015f8152602001606081525090565b604051806101a0016040528060608152602001606081526020016060815260200160608152602001606081526020015f61ffff16815260200160608152602001606081526020016060815260200160608152602001606081526020015f63ffffffff1681526020015f81525090565b5f6020828403121561210f575f80fd5b81356001600160a01b0381168114612125575f80fd5b9392505050565b5f5b8381101561214657818101518382015260200161212e565b50505f910152565b5f815180845261216581602086016020860161212c565b601f01601f19169290920160200192915050565b5f6101a0825181855261218e8286018261214e565b915050602083015184820360208601526121a8828261214e565b915050604083015184820360408601526121c2828261214e565b915050606083015184820360608601526121dc828261214e565b915050608083015184820360808601526121f6828261214e565b91505060a083015161220e60a086018261ffff169052565b5060c083015184820360c0860152612226828261214e565b91505060e083015184820360e0860152612240828261214e565b915050610100808401518583038287015261225b838261214e565b925050506101208084015185830382870152612277838261214e565b925050506101408084015185830382870152612293838261214e565b92505050610160808401516122af8287018263ffffffff169052565b5050610180928301519390920192909252919050565b5f82825180855260208086019550808260051b8401018186015f5b8481101561230e57601f198684030189526122fc83835161214e565b988401989250908301906001016122e0565b5090979650505050505050565b6020815281511515602082015260018060a01b0360208301511660408201525f604083015160a0606084015261235460c0840182612179565b9050606084015160808401526080840151601f198483030160a085015261237b82826122c5565b95945050505050565b602081525f61212560208301846122c5565b5f602082840312156123a6575f80fd5b81358015158114612125575f80fd5b805163ffffffff1682526020808201516001600160a01b03169083015260408082015190830152606080820151908301526080908101511515910152565b60a0810161204f82846123b5565b5f8060408385031215612412575f80fd5b50508035926020909101359150565b602080825282518282018190525f9190848201906040850190845b818110156124625761244f8385516123b5565b9284019260a0929092019160010161243c565b50909695505050505050565b602081525f6121256020830184612179565b60208082526031908201527f546869732076656869636c6520636f6e747261637420686173206e6f7420737460408201527030b93a32b2103a34329030bab1ba34b7b760791b606082015260800190565b634e487b7160e01b5f52601160045260245ffd5b63ffffffff828116828216039080821115612502576125026124d1565b5092915050565b600181811c9082168061251d57607f821691505b6020821081036114e757634e487b7160e01b5f52602260045260245ffd5b5f63ffffffff821680612550576125506124d1565b5f190192915050565b63ffffffff818116838216019080821115612502576125026124d1565b5f825161258781846020870161212c565b9190910192915050565b5f83516125a281846020880161212c565b8351908301906125b681836020880161212c565b01949350505050565b602081525f612125602083018461214e565b8082018082111561204f5761204f6124d1565b5f63ffffffff8083168181036125fc576125fc6124d1565b6001019392505050565b634e487b7160e01b5f52604160045260245ffd5b634e487b7160e01b5f52603260045260245ffd5b634e487b7160e01b5f52605160045260245ffdfea26469706673582212206676c3c6a72ea999ae0577c502785047a4eff376046531db5904f5e165068f9164736f6c634300081400334e65772056656869636c6520436f6e747261637420686173206265656e206465706c6f7965642ea26469706673582212207324bf79e248f2693d5d61dc8ed723f22a2ece9889b9105ba611ac77841cc6ae64736f6c63430008140033",
			"opcodes": "PUSH1 0x80 PUSH1 0x40 MSTORE CALLVALUE DUP1 ISZERO PUSH2 0xF JUMPI PUSH0 DUP1 REVERT JUMPDEST POP PUSH0 DUP1 SLOAD PUSH1 0x1 PUSH1 0x1 PUSH1 0xA0 SHL SUB NOT AND CALLER OR SWAP1 SSTORE PUSH2 0x4974 DUP1 PUSH2 0x2E PUSH0 CODECOPY PUSH0 RETURN INVALID PUSH1 0x80 PUSH1 0x40 MSTORE PUSH1 0x4 CALLDATASIZE LT PUSH3 0xB6 JUMPI PUSH0 CALLDATALOAD PUSH1 0xE0 SHR DUP1 PUSH4 0x8DA5CB5B GT PUSH3 0x6A JUMPI DUP1 PUSH4 0x8DA5CB5B EQ PUSH3 0x1F0 JUMPI DUP1 PUSH4 0xB21E0009 EQ PUSH3 0x210 JUMPI DUP1 PUSH4 0xE423AEB9 EQ PUSH3 0x234 JUMPI DUP1 PUSH4 0xF2FDE38B EQ PUSH3 0x258 JUMPI DUP1 PUSH4 0xF5FDCD5A EQ PUSH3 0x27C JUMPI DUP1 PUSH4 0xF985E852 EQ PUSH3 0x293 JUMPI PUSH0 DUP1 REVERT JUMPDEST DUP1 PUSH4 0x24D7806C EQ PUSH3 0xF5 JUMPI DUP1 PUSH4 0x45D34FEF EQ PUSH3 0x11B JUMPI DUP1 PUSH4 0x4D2F3279 EQ PUSH3 0x15C JUMPI DUP1 PUSH4 0x715018A6 EQ PUSH3 0x182 JUMPI DUP1 PUSH4 0x72938F0E EQ PUSH3 0x199 JUMPI DUP1 PUSH4 0x8D963170 EQ PUSH3 0x1BD JUMPI PUSH0 DUP1 REVERT JUMPDEST CALLDATASIZE PUSH3 0xF1 JUMPI PUSH1 0x40 MLOAD CALLVALUE DUP2 MSTORE PUSH32 0xDFAF7B3ED67D555D65DF6729365EA7AB2AC8D2128FB556359E11039B374976F SWAP1 PUSH1 0x20 ADD PUSH1 0x40 MLOAD DUP1 SWAP2 SUB SWAP1 LOG1 STOP JUMPDEST PUSH0 DUP1 REVERT JUMPDEST CALLVALUE DUP1 ISZERO PUSH3 0x101 JUMPI PUSH0 DUP1 REVERT JUMPDEST POP PUSH3 0x119 PUSH3 0x113 CALLDATASIZE PUSH1 0x4 PUSH3 0xCA1 JUMP JUMPDEST PUSH3 0x2B7 JUMP JUMPDEST STOP JUMPDEST CALLVALUE DUP1 ISZERO PUSH3 0x127 JUMPI PUSH0 DUP1 REVERT JUMPDEST POP PUSH3 0x13F PUSH3 0x139 CALLDATASIZE PUSH1 0x4 PUSH3 0xCC6 JUMP JUMPDEST PUSH3 0x31C JUMP JUMPDEST PUSH1 0x40 MLOAD PUSH1 0x1 PUSH1 0x1 PUSH1 0xA0 SHL SUB SWAP1 SWAP2 AND DUP2 MSTORE PUSH1 0x20 ADD JUMPDEST PUSH1 0x40 MLOAD DUP1 SWAP2 SUB SWAP1 RETURN JUMPDEST CALLVALUE DUP1 ISZERO PUSH3 0x168 JUMPI PUSH0 DUP1 REVERT JUMPDEST POP PUSH3 0x173 PUSH3 0x345 JUMP JUMPDEST PUSH1 0x40 MLOAD PUSH3 0x153 SWAP2 SWAP1 PUSH3 0xCDE JUMP JUMPDEST CALLVALUE DUP1 ISZERO PUSH3 0x18E JUMPI PUSH0 DUP1 REVERT JUMPDEST POP PUSH3 0x119 PUSH3 0x3A7 JUMP JUMPDEST CALLVALUE DUP1 ISZERO PUSH3 0x1A5 JUMPI PUSH0 DUP1 REVERT JUMPDEST POP PUSH3 0x173 PUSH3 0x1B7 CALLDATASIZE PUSH1 0x4 PUSH3 0xCA1 JUMP JUMPDEST PUSH3 0x403 JUMP JUMPDEST CALLVALUE DUP1 ISZERO PUSH3 0x1C9 JUMPI PUSH0 DUP1 REVERT JUMPDEST POP PUSH3 0x1E1 PUSH3 0x1DB CALLDATASIZE PUSH1 0x4 PUSH3 0xCA1 JUMP JUMPDEST PUSH3 0x5A5 JUMP JUMPDEST PUSH1 0x40 MLOAD PUSH3 0x153 SWAP2 SWAP1 PUSH3 0xF36 JUMP JUMPDEST CALLVALUE DUP1 ISZERO PUSH3 0x1FC JUMPI PUSH0 DUP1 REVERT JUMPDEST POP PUSH0 SLOAD PUSH3 0x13F SWAP1 PUSH1 0x1 PUSH1 0x1 PUSH1 0xA0 SHL SUB AND DUP2 JUMP JUMPDEST CALLVALUE DUP1 ISZERO PUSH3 0x21C JUMPI PUSH0 DUP1 REVERT JUMPDEST POP PUSH3 0x119 PUSH3 0x22E CALLDATASIZE PUSH1 0x4 PUSH3 0x1012 JUMP JUMPDEST PUSH3 0x6DD JUMP JUMPDEST CALLVALUE DUP1 ISZERO PUSH3 0x240 JUMPI PUSH0 DUP1 REVERT JUMPDEST POP PUSH3 0x119 PUSH3 0x252 CALLDATASIZE PUSH1 0x4 PUSH3 0x1067 JUMP JUMPDEST PUSH3 0x7EB JUMP JUMPDEST CALLVALUE DUP1 ISZERO PUSH3 0x264 JUMPI PUSH0 DUP1 REVERT JUMPDEST POP PUSH3 0x119 PUSH3 0x276 CALLDATASIZE PUSH1 0x4 PUSH3 0xCA1 JUMP JUMPDEST PUSH3 0x902 JUMP JUMPDEST CALLVALUE DUP1 ISZERO PUSH3 0x288 JUMPI PUSH0 DUP1 REVERT JUMPDEST POP PUSH3 0x1E1 PUSH3 0x923 JUMP JUMPDEST CALLVALUE DUP1 ISZERO PUSH3 0x29F JUMPI PUSH0 DUP1 REVERT JUMPDEST POP PUSH3 0x119 PUSH3 0x2B1 CALLDATASIZE PUSH1 0x4 PUSH3 0x1297 JUMP JUMPDEST PUSH3 0xA57 JUMP JUMPDEST PUSH0 SLOAD PUSH1 0x1 PUSH1 0x1 PUSH1 0xA0 SHL SUB DUP3 DUP2 AND SWAP2 AND EQ PUSH3 0x319 JUMPI PUSH1 0x40 MLOAD PUSH3 0x461BCD PUSH1 0xE5 SHL DUP2 MSTORE PUSH1 0x20 PUSH1 0x4 DUP3 ADD MSTORE PUSH1 0x1D PUSH1 0x24 DUP3 ADD MSTORE PUSH32 0x546869732061646472657373206973206E6F7420746865206F776E6572000000 PUSH1 0x44 DUP3 ADD MSTORE PUSH1 0x64 ADD JUMPDEST PUSH1 0x40 MLOAD DUP1 SWAP2 SUB SWAP1 REVERT JUMPDEST POP JUMP JUMPDEST PUSH1 0x1 DUP2 DUP2 SLOAD DUP2 LT PUSH3 0x32C JUMPI PUSH0 DUP1 REVERT JUMPDEST PUSH0 SWAP2 DUP3 MSTORE PUSH1 0x20 SWAP1 SWAP2 KECCAK256 ADD SLOAD PUSH1 0x1 PUSH1 0x1 PUSH1 0xA0 SHL SUB AND SWAP1 POP DUP2 JUMP JUMPDEST PUSH1 0x60 PUSH1 0x1 DUP1 SLOAD DUP1 PUSH1 0x20 MUL PUSH1 0x20 ADD PUSH1 0x40 MLOAD SWAP1 DUP2 ADD PUSH1 0x40 MSTORE DUP1 SWAP3 SWAP2 SWAP1 DUP2 DUP2 MSTORE PUSH1 0x20 ADD DUP3 DUP1 SLOAD DUP1 ISZERO PUSH3 0x39D JUMPI PUSH1 0x20 MUL DUP3 ADD SWAP2 SWAP1 PUSH0 MSTORE PUSH1 0x20 PUSH0 KECCAK256 SWAP1 JUMPDEST DUP2 SLOAD PUSH1 0x1 PUSH1 0x1 PUSH1 0xA0 SHL SUB AND DUP2 MSTORE PUSH1 0x1 SWAP1 SWAP2 ADD SWAP1 PUSH1 0x20 ADD DUP1 DUP4 GT PUSH3 0x37E JUMPI JUMPDEST POP POP POP POP POP SWAP1 POP SWAP1 JUMP JUMPDEST PUSH0 SLOAD PUSH1 0x1 PUSH1 0x1 PUSH1 0xA0 SHL SUB AND CALLER EQ PUSH3 0x3BD JUMPI PUSH0 DUP1 REVERT JUMPDEST PUSH0 DUP1 SLOAD PUSH1 0x40 MLOAD PUSH1 0x1 PUSH1 0x1 PUSH1 0xA0 SHL SUB SWAP1 SWAP2 AND SWAP2 PUSH32 0xF8DF31144D9C2F0F6B59D69B8B98ABD5459D07F2742C4DF920B25AAE33C64820 SWAP2 LOG2 PUSH0 DUP1 SLOAD PUSH1 0x1 PUSH1 0x1 PUSH1 0xA0 SHL SUB NOT AND SWAP1 SSTORE JUMP JUMPDEST PUSH1 0x1 SLOAD PUSH1 0x60 SWAP1 PUSH0 SWAP1 PUSH1 0x1 PUSH1 0x1 PUSH1 0x40 SHL SUB DUP2 GT ISZERO PUSH3 0x425 JUMPI PUSH3 0x425 PUSH3 0x10AC JUMP JUMPDEST PUSH1 0x40 MLOAD SWAP1 DUP1 DUP3 MSTORE DUP1 PUSH1 0x20 MUL PUSH1 0x20 ADD DUP3 ADD PUSH1 0x40 MSTORE DUP1 ISZERO PUSH3 0x44F JUMPI DUP2 PUSH1 0x20 ADD PUSH1 0x20 DUP3 MUL DUP1 CALLDATASIZE DUP4 CALLDATACOPY ADD SWAP1 POP JUMPDEST POP SWAP1 POP PUSH0 DUP1 JUMPDEST PUSH1 0x1 SLOAD PUSH4 0xFFFFFFFF DUP3 AND LT ISZERO PUSH3 0x59C JUMPI DUP5 PUSH1 0x1 PUSH1 0x1 PUSH1 0xA0 SHL SUB AND PUSH1 0x1 DUP3 PUSH4 0xFFFFFFFF AND DUP2 SLOAD DUP2 LT PUSH3 0x48C JUMPI PUSH3 0x48C PUSH3 0x14C7 JUMP JUMPDEST PUSH0 SWAP2 DUP3 MSTORE PUSH1 0x20 SWAP2 DUP3 SWAP1 KECCAK256 ADD SLOAD PUSH1 0x40 DUP1 MLOAD PUSH4 0x8DA5CB5B PUSH1 0xE0 SHL DUP2 MSTORE SWAP1 MLOAD PUSH1 0x1 PUSH1 0x1 PUSH1 0xA0 SHL SUB SWAP1 SWAP3 AND SWAP3 PUSH4 0x8DA5CB5B SWAP3 PUSH1 0x4 DUP1 DUP5 ADD SWAP4 DUP3 SWAP1 SUB ADD DUP2 DUP7 GAS STATICCALL ISZERO DUP1 ISZERO PUSH3 0x4D8 JUMPI RETURNDATASIZE PUSH0 DUP1 RETURNDATACOPY RETURNDATASIZE PUSH0 REVERT JUMPDEST POP POP POP POP PUSH1 0x40 MLOAD RETURNDATASIZE PUSH1 0x1F NOT PUSH1 0x1F DUP3 ADD AND DUP3 ADD DUP1 PUSH1 0x40 MSTORE POP DUP2 ADD SWAP1 PUSH3 0x4FE SWAP2 SWAP1 PUSH3 0x14E8 JUMP JUMPDEST PUSH1 0x1 PUSH1 0x1 PUSH1 0xA0 SHL SUB AND SUB PUSH3 0x587 JUMPI PUSH1 0x1 DUP2 PUSH4 0xFFFFFFFF AND DUP2 SLOAD DUP2 LT PUSH3 0x529 JUMPI PUSH3 0x529 PUSH3 0x14C7 JUMP JUMPDEST SWAP1 PUSH0 MSTORE PUSH1 0x20 PUSH0 KECCAK256 ADD PUSH0 SWAP1 SLOAD SWAP1 PUSH2 0x100 EXP SWAP1 DIV PUSH1 0x1 PUSH1 0x1 PUSH1 0xA0 SHL SUB AND DUP4 DUP4 PUSH4 0xFFFFFFFF AND DUP2 MLOAD DUP2 LT PUSH3 0x55F JUMPI PUSH3 0x55F PUSH3 0x14C7 JUMP JUMPDEST PUSH1 0x1 PUSH1 0x1 PUSH1 0xA0 SHL SUB SWAP1 SWAP3 AND PUSH1 0x20 SWAP3 DUP4 MUL SWAP2 SWAP1 SWAP2 ADD SWAP1 SWAP2 ADD MSTORE DUP2 PUSH3 0x583 DUP2 PUSH3 0x151A JUMP JUMPDEST SWAP3 POP POP JUMPDEST DUP1 PUSH3 0x593 DUP2 PUSH3 0x151A JUMP JUMPDEST SWAP2 POP POP PUSH3 0x455 JUMP JUMPDEST POP DUP2 MSTORE SWAP3 SWAP2 POP POP JUMP JUMPDEST PUSH1 0x60 PUSH0 PUSH3 0x5B3 DUP4 PUSH3 0x403 JUMP JUMPDEST SWAP1 POP PUSH0 DUP2 MLOAD PUSH1 0x1 PUSH1 0x1 PUSH1 0x40 SHL SUB DUP2 GT ISZERO PUSH3 0x5D2 JUMPI PUSH3 0x5D2 PUSH3 0x10AC JUMP JUMPDEST PUSH1 0x40 MLOAD SWAP1 DUP1 DUP3 MSTORE DUP1 PUSH1 0x20 MUL PUSH1 0x20 ADD DUP3 ADD PUSH1 0x40 MSTORE DUP1 ISZERO PUSH3 0x60F JUMPI DUP2 PUSH1 0x20 ADD JUMPDEST PUSH3 0x5FB PUSH3 0xBD6 JUMP JUMPDEST DUP2 MSTORE PUSH1 0x20 ADD SWAP1 PUSH1 0x1 SWAP1 SUB SWAP1 DUP2 PUSH3 0x5F1 JUMPI SWAP1 POP JUMPDEST POP SWAP1 POP PUSH0 JUMPDEST DUP3 MLOAD DUP2 LT ISZERO PUSH3 0x6D5 JUMPI DUP3 DUP2 DUP2 MLOAD DUP2 LT PUSH3 0x633 JUMPI PUSH3 0x633 PUSH3 0x14C7 JUMP JUMPDEST PUSH1 0x20 MUL PUSH1 0x20 ADD ADD MLOAD PUSH1 0x1 PUSH1 0x1 PUSH1 0xA0 SHL SUB AND PUSH4 0x3BC5DE30 PUSH1 0x40 MLOAD DUP2 PUSH4 0xFFFFFFFF AND PUSH1 0xE0 SHL DUP2 MSTORE PUSH1 0x4 ADD PUSH0 PUSH1 0x40 MLOAD DUP1 DUP4 SUB DUP2 DUP7 GAS STATICCALL ISZERO DUP1 ISZERO PUSH3 0x676 JUMPI RETURNDATASIZE PUSH0 DUP1 RETURNDATACOPY RETURNDATASIZE PUSH0 REVERT JUMPDEST POP POP POP POP PUSH1 0x40 MLOAD RETURNDATASIZE PUSH0 DUP3 RETURNDATACOPY PUSH1 0x1F RETURNDATASIZE SWAP1 DUP2 ADD PUSH1 0x1F NOT AND DUP3 ADD PUSH1 0x40 MSTORE PUSH3 0x69F SWAP2 SWAP1 DUP2 ADD SWAP1 PUSH3 0x1815 JUMP JUMPDEST DUP3 DUP3 DUP2 MLOAD DUP2 LT PUSH3 0x6B4 JUMPI PUSH3 0x6B4 PUSH3 0x14C7 JUMP JUMPDEST PUSH1 0x20 MUL PUSH1 0x20 ADD ADD DUP2 SWAP1 MSTORE POP DUP1 DUP1 PUSH3 0x6CC SWAP1 PUSH3 0x18DF JUMP JUMPDEST SWAP2 POP POP PUSH3 0x614 JUMP JUMPDEST POP SWAP4 SWAP3 POP POP POP JUMP JUMPDEST PUSH0 DUP1 JUMPDEST PUSH1 0x1 SLOAD DUP2 LT ISZERO PUSH3 0x73F JUMPI CALLER PUSH1 0x1 PUSH1 0x1 PUSH1 0xA0 SHL SUB AND PUSH1 0x1 DUP3 DUP2 SLOAD DUP2 LT PUSH3 0x70B JUMPI PUSH3 0x70B PUSH3 0x14C7 JUMP JUMPDEST PUSH0 SWAP2 DUP3 MSTORE PUSH1 0x20 SWAP1 SWAP2 KECCAK256 ADD SLOAD PUSH1 0x1 PUSH1 0x1 PUSH1 0xA0 SHL SUB AND SUB PUSH3 0x72A JUMPI PUSH1 0x1 SWAP2 POP JUMPDEST DUP1 PUSH3 0x736 DUP2 PUSH3 0x18DF JUMP JUMPDEST SWAP2 POP POP PUSH3 0x6E0 JUMP JUMPDEST POP DUP1 PUSH3 0x760 JUMPI PUSH1 0x40 MLOAD PUSH3 0x461BCD PUSH1 0xE5 SHL DUP2 MSTORE PUSH1 0x4 ADD PUSH3 0x310 SWAP1 PUSH3 0x18FA JUMP JUMPDEST PUSH1 0x40 MLOAD PUSH1 0x1 PUSH1 0x1 PUSH1 0xA0 SHL SUB DUP7 AND SWAP1 DUP4 ISZERO PUSH2 0x8FC MUL SWAP1 DUP5 SWAP1 PUSH0 DUP2 DUP2 DUP2 DUP6 DUP9 DUP9 CALL SWAP4 POP POP POP POP ISZERO DUP1 ISZERO PUSH3 0x794 JUMPI RETURNDATASIZE PUSH0 DUP1 RETURNDATACOPY RETURNDATASIZE PUSH0 REVERT JUMPDEST POP PUSH1 0x40 DUP1 MLOAD PUSH4 0xFFFFFFFF DUP6 AND DUP2 MSTORE PUSH1 0x20 DUP2 ADD DUP5 SWAP1 MSTORE PUSH1 0x1 PUSH1 0x1 PUSH1 0xA0 SHL SUB DUP1 DUP8 AND SWAP3 SWAP1 DUP9 AND SWAP2 PUSH32 0x4FDDB5C71E569DDC5147DC85D41B4881BD368077E8D62C583F99AC74D7C397DF SWAP2 ADD PUSH1 0x40 MLOAD DUP1 SWAP2 SUB SWAP1 LOG3 POP POP POP POP POP JUMP JUMPDEST PUSH0 DUP1 JUMPDEST PUSH1 0x1 SLOAD DUP2 LT ISZERO PUSH3 0x84D JUMPI CALLER PUSH1 0x1 PUSH1 0x1 PUSH1 0xA0 SHL SUB AND PUSH1 0x1 DUP3 DUP2 SLOAD DUP2 LT PUSH3 0x819 JUMPI PUSH3 0x819 PUSH3 0x14C7 JUMP JUMPDEST PUSH0 SWAP2 DUP3 MSTORE PUSH1 0x20 SWAP1 SWAP2 KECCAK256 ADD SLOAD PUSH1 0x1 PUSH1 0x1 PUSH1 0xA0 SHL SUB AND SUB PUSH3 0x838 JUMPI PUSH1 0x1 SWAP2 POP JUMPDEST DUP1 PUSH3 0x844 DUP2 PUSH3 0x18DF JUMP JUMPDEST SWAP2 POP POP PUSH3 0x7EE JUMP JUMPDEST POP DUP1 PUSH3 0x86E JUMPI PUSH1 0x40 MLOAD PUSH3 0x461BCD PUSH1 0xE5 SHL DUP2 MSTORE PUSH1 0x4 ADD PUSH3 0x310 SWAP1 PUSH3 0x18FA JUMP JUMPDEST PUSH1 0x40 MLOAD PUSH1 0x1 PUSH1 0x1 PUSH1 0xA0 SHL SUB DUP7 AND SWAP1 DUP4 ISZERO PUSH2 0x8FC MUL SWAP1 DUP5 SWAP1 PUSH0 DUP2 DUP2 DUP2 DUP6 DUP9 DUP9 CALL SWAP4 POP POP POP POP ISZERO DUP1 ISZERO PUSH3 0x8A2 JUMPI RETURNDATASIZE PUSH0 DUP1 RETURNDATACOPY RETURNDATASIZE PUSH0 REVERT JUMPDEST POP DUP3 PUSH1 0x1 PUSH1 0x1 PUSH1 0xA0 SHL SUB AND DUP5 PUSH1 0x1 PUSH1 0x1 PUSH1 0xA0 SHL SUB AND DUP7 PUSH1 0x1 PUSH1 0x1 PUSH1 0xA0 SHL SUB AND PUSH32 0xE9F78D6EDDA988CAB0914349536C43126DF5331A11F815353B4D9CEDEE67515C DUP6 PUSH1 0x40 MLOAD PUSH3 0x8F3 SWAP2 DUP2 MSTORE PUSH1 0x20 ADD SWAP1 JUMP JUMPDEST PUSH1 0x40 MLOAD DUP1 SWAP2 SUB SWAP1 LOG4 POP POP POP POP POP JUMP JUMPDEST PUSH0 SLOAD PUSH1 0x1 PUSH1 0x1 PUSH1 0xA0 SHL SUB AND CALLER EQ PUSH3 0x918 JUMPI PUSH0 DUP1 REVERT JUMPDEST PUSH3 0x319 DUP2 PUSH3 0xB6A JUMP JUMPDEST PUSH1 0x1 SLOAD PUSH1 0x60 SWAP1 PUSH0 SWAP1 PUSH1 0x1 PUSH1 0x1 PUSH1 0x40 SHL SUB DUP2 GT ISZERO PUSH3 0x945 JUMPI PUSH3 0x945 PUSH3 0x10AC JUMP JUMPDEST PUSH1 0x40 MLOAD SWAP1 DUP1 DUP3 MSTORE DUP1 PUSH1 0x20 MUL PUSH1 0x20 ADD DUP3 ADD PUSH1 0x40 MSTORE DUP1 ISZERO PUSH3 0x982 JUMPI DUP2 PUSH1 0x20 ADD JUMPDEST PUSH3 0x96E PUSH3 0xBD6 JUMP JUMPDEST DUP2 MSTORE PUSH1 0x20 ADD SWAP1 PUSH1 0x1 SWAP1 SUB SWAP1 DUP2 PUSH3 0x964 JUMPI SWAP1 POP JUMPDEST POP SWAP1 POP PUSH0 JUMPDEST PUSH1 0x1 SLOAD DUP2 LT ISZERO PUSH3 0xA51 JUMPI PUSH1 0x1 DUP2 DUP2 SLOAD DUP2 LT PUSH3 0x9A8 JUMPI PUSH3 0x9A8 PUSH3 0x14C7 JUMP JUMPDEST PUSH0 SWAP2 DUP3 MSTORE PUSH1 0x20 DUP3 KECCAK256 ADD SLOAD PUSH1 0x40 DUP1 MLOAD PUSH4 0x3BC5DE3 PUSH1 0xE4 SHL DUP2 MSTORE SWAP1 MLOAD PUSH1 0x1 PUSH1 0x1 PUSH1 0xA0 SHL SUB SWAP1 SWAP3 AND SWAP3 PUSH4 0x3BC5DE30 SWAP3 PUSH1 0x4 DUP1 DUP5 ADD SWAP4 DUP3 SWAP1 SUB ADD DUP2 DUP7 GAS STATICCALL ISZERO DUP1 ISZERO PUSH3 0x9F2 JUMPI RETURNDATASIZE PUSH0 DUP1 RETURNDATACOPY RETURNDATASIZE PUSH0 REVERT JUMPDEST POP POP POP POP PUSH1 0x40 MLOAD RETURNDATASIZE PUSH0 DUP3 RETURNDATACOPY PUSH1 0x1F RETURNDATASIZE SWAP1 DUP2 ADD PUSH1 0x1F NOT AND DUP3 ADD PUSH1 0x40 MSTORE PUSH3 0xA1B SWAP2 SWAP1 DUP2 ADD SWAP1 PUSH3 0x1815 JUMP JUMPDEST DUP3 DUP3 DUP2 MLOAD DUP2 LT PUSH3 0xA30 JUMPI PUSH3 0xA30 PUSH3 0x14C7 JUMP JUMPDEST PUSH1 0x20 MUL PUSH1 0x20 ADD ADD DUP2 SWAP1 MSTORE POP DUP1 DUP1 PUSH3 0xA48 SWAP1 PUSH3 0x18DF JUMP JUMPDEST SWAP2 POP POP PUSH3 0x987 JUMP JUMPDEST POP SWAP2 SWAP1 POP JUMP JUMPDEST PUSH0 ADDRESS DUP5 DUP5 DUP5 PUSH1 0x40 MLOAD PUSH3 0xA6A SWAP1 PUSH3 0xC7E JUMP JUMPDEST PUSH3 0xA79 SWAP5 SWAP4 SWAP3 SWAP2 SWAP1 PUSH3 0x1957 JUMP JUMPDEST PUSH1 0x40 MLOAD DUP1 SWAP2 SUB SWAP1 PUSH0 CREATE DUP1 ISZERO DUP1 ISZERO PUSH3 0xA93 JUMPI RETURNDATASIZE PUSH0 DUP1 RETURNDATACOPY RETURNDATASIZE PUSH0 REVERT JUMPDEST POP PUSH1 0x1 DUP1 SLOAD DUP1 DUP3 ADD DUP3 SSTORE PUSH0 SWAP2 SWAP1 SWAP2 MSTORE PUSH32 0xB10E2D527612073B26EECDFD717E6A320CF44B4AFAC2B0732D9FCBE2B7FA0CF6 ADD DUP1 SLOAD PUSH1 0x1 PUSH1 0x1 PUSH1 0xA0 SHL SUB NOT AND PUSH1 0x1 PUSH1 0x1 PUSH1 0xA0 SHL SUB DUP4 AND SWAP1 DUP2 OR SWAP1 SWAP2 SSTORE PUSH1 0x40 MLOAD PUSH4 0xF2FDE38B PUSH1 0xE0 SHL DUP2 MSTORE CALLER PUSH1 0x4 DUP3 ADD MSTORE SWAP2 SWAP3 POP SWAP1 PUSH4 0xF2FDE38B SWAP1 PUSH1 0x24 ADD PUSH0 PUSH1 0x40 MLOAD DUP1 DUP4 SUB DUP2 PUSH0 DUP8 DUP1 EXTCODESIZE ISZERO DUP1 ISZERO PUSH3 0xB18 JUMPI PUSH0 DUP1 REVERT JUMPDEST POP GAS CALL ISZERO DUP1 ISZERO PUSH3 0xB2B JUMPI RETURNDATASIZE PUSH0 DUP1 RETURNDATACOPY RETURNDATASIZE PUSH0 REVERT JUMPDEST POP POP PUSH1 0x40 MLOAD PUSH1 0x1 PUSH1 0x1 PUSH1 0xA0 SHL SUB DUP5 AND SWAP3 POP CALLER SWAP2 POP PUSH32 0x96CFBFBBCEA12D6A0623AA4EFF9D6747AB8D2A451B3FD868190AB811A200027C SWAP1 PUSH0 SWAP1 LOG3 POP POP POP POP JUMP JUMPDEST PUSH1 0x1 PUSH1 0x1 PUSH1 0xA0 SHL SUB DUP2 AND PUSH3 0xB7D JUMPI PUSH0 DUP1 REVERT JUMPDEST PUSH0 DUP1 SLOAD PUSH1 0x40 MLOAD PUSH1 0x1 PUSH1 0x1 PUSH1 0xA0 SHL SUB DUP1 DUP6 AND SWAP4 SWAP3 AND SWAP2 PUSH32 0x8BE0079C531659141344CD1FD0A4F28419497F9722A3DAAFE3B4186F6B6457E0 SWAP2 LOG3 PUSH0 DUP1 SLOAD PUSH1 0x1 PUSH1 0x1 PUSH1 0xA0 SHL SUB NOT AND PUSH1 0x1 PUSH1 0x1 PUSH1 0xA0 SHL SUB SWAP3 SWAP1 SWAP3 AND SWAP2 SWAP1 SWAP2 OR SWAP1 SSTORE JUMP JUMPDEST PUSH1 0x40 MLOAD DUP1 PUSH1 0xA0 ADD PUSH1 0x40 MSTORE DUP1 PUSH0 ISZERO ISZERO DUP2 MSTORE PUSH1 0x20 ADD PUSH0 PUSH1 0x1 PUSH1 0x1 PUSH1 0xA0 SHL SUB AND DUP2 MSTORE PUSH1 0x20 ADD PUSH3 0xC6B PUSH1 0x40 MLOAD DUP1 PUSH2 0x1A0 ADD PUSH1 0x40 MSTORE DUP1 PUSH1 0x60 DUP2 MSTORE PUSH1 0x20 ADD PUSH1 0x60 DUP2 MSTORE PUSH1 0x20 ADD PUSH1 0x60 DUP2 MSTORE PUSH1 0x20 ADD PUSH1 0x60 DUP2 MSTORE PUSH1 0x20 ADD PUSH1 0x60 DUP2 MSTORE PUSH1 0x20 ADD PUSH0 PUSH2 0xFFFF AND DUP2 MSTORE PUSH1 0x20 ADD PUSH1 0x60 DUP2 MSTORE PUSH1 0x20 ADD PUSH1 0x60 DUP2 MSTORE PUSH1 0x20 ADD PUSH1 0x60 DUP2 MSTORE PUSH1 0x20 ADD PUSH1 0x60 DUP2 MSTORE PUSH1 0x20 ADD PUSH1 0x60 DUP2 MSTORE PUSH1 0x20 ADD PUSH0 PUSH4 0xFFFFFFFF AND DUP2 MSTORE PUSH1 0x20 ADD PUSH0 DUP2 MSTORE POP SWAP1 JUMP JUMPDEST DUP2 MSTORE PUSH1 0x20 ADD PUSH0 DUP2 MSTORE PUSH1 0x20 ADD PUSH1 0x60 DUP2 MSTORE POP SWAP1 JUMP JUMPDEST PUSH2 0x2F9D DUP1 PUSH3 0x19A2 DUP4 CODECOPY ADD SWAP1 JUMP JUMPDEST PUSH1 0x1 PUSH1 0x1 PUSH1 0xA0 SHL SUB DUP2 AND DUP2 EQ PUSH3 0x319 JUMPI PUSH0 DUP1 REVERT JUMPDEST PUSH0 PUSH1 0x20 DUP3 DUP5 SUB SLT ISZERO PUSH3 0xCB2 JUMPI PUSH0 DUP1 REVERT JUMPDEST DUP2 CALLDATALOAD PUSH3 0xCBF DUP2 PUSH3 0xC8C JUMP JUMPDEST SWAP4 SWAP3 POP POP POP JUMP JUMPDEST PUSH0 PUSH1 0x20 DUP3 DUP5 SUB SLT ISZERO PUSH3 0xCD7 JUMPI PUSH0 DUP1 REVERT JUMPDEST POP CALLDATALOAD SWAP2 SWAP1 POP JUMP JUMPDEST PUSH1 0x20 DUP1 DUP3 MSTORE DUP3 MLOAD DUP3 DUP3 ADD DUP2 SWAP1 MSTORE PUSH0 SWAP2 SWAP1 DUP5 DUP3 ADD SWAP1 PUSH1 0x40 DUP6 ADD SWAP1 DUP5 JUMPDEST DUP2 DUP2 LT ISZERO PUSH3 0xD20 JUMPI DUP4 MLOAD PUSH1 0x1 PUSH1 0x1 PUSH1 0xA0 SHL SUB AND DUP4 MSTORE SWAP3 DUP5 ADD SWAP3 SWAP2 DUP5 ADD SWAP2 PUSH1 0x1 ADD PUSH3 0xCF9 JUMP JUMPDEST POP SWAP1 SWAP7 SWAP6 POP POP POP POP POP POP JUMP JUMPDEST PUSH0 JUMPDEST DUP4 DUP2 LT ISZERO PUSH3 0xD48 JUMPI DUP2 DUP2 ADD MLOAD DUP4 DUP3 ADD MSTORE PUSH1 0x20 ADD PUSH3 0xD2E JUMP JUMPDEST POP POP PUSH0 SWAP2 ADD MSTORE JUMP JUMPDEST PUSH0 DUP2 MLOAD DUP1 DUP5 MSTORE PUSH3 0xD69 DUP2 PUSH1 0x20 DUP7 ADD PUSH1 0x20 DUP7 ADD PUSH3 0xD2C JUMP JUMPDEST PUSH1 0x1F ADD PUSH1 0x1F NOT AND SWAP3 SWAP1 SWAP3 ADD PUSH1 0x20 ADD SWAP3 SWAP2 POP POP JUMP JUMPDEST PUSH0 PUSH2 0x1A0 DUP3 MLOAD DUP2 DUP6 MSTORE PUSH3 0xD94 DUP3 DUP7 ADD DUP3 PUSH3 0xD50 JUMP JUMPDEST SWAP2 POP POP PUSH1 0x20 DUP4 ADD MLOAD DUP5 DUP3 SUB PUSH1 0x20 DUP7 ADD MSTORE PUSH3 0xDB0 DUP3 DUP3 PUSH3 0xD50 JUMP JUMPDEST SWAP2 POP POP PUSH1 0x40 DUP4 ADD MLOAD DUP5 DUP3 SUB PUSH1 0x40 DUP7 ADD MSTORE PUSH3 0xDCC DUP3 DUP3 PUSH3 0xD50 JUMP JUMPDEST SWAP2 POP POP PUSH1 0x60 DUP4 ADD MLOAD DUP5 DUP3 SUB PUSH1 0x60 DUP7 ADD MSTORE PUSH3 0xDE8 DUP3 DUP3 PUSH3 0xD50 JUMP JUMPDEST SWAP2 POP POP PUSH1 0x80 DUP4 ADD MLOAD DUP5 DUP3 SUB PUSH1 0x80 DUP7 ADD MSTORE PUSH3 0xE04 DUP3 DUP3 PUSH3 0xD50 JUMP JUMPDEST SWAP2 POP POP PUSH1 0xA0 DUP4 ADD MLOAD PUSH3 0xE1D PUSH1 0xA0 DUP7 ADD DUP3 PUSH2 0xFFFF AND SWAP1 MSTORE JUMP JUMPDEST POP PUSH1 0xC0 DUP4 ADD MLOAD DUP5 DUP3 SUB PUSH1 0xC0 DUP7 ADD MSTORE PUSH3 0xE37 DUP3 DUP3 PUSH3 0xD50 JUMP JUMPDEST SWAP2 POP POP PUSH1 0xE0 DUP4 ADD MLOAD DUP5 DUP3 SUB PUSH1 0xE0 DUP7 ADD MSTORE PUSH3 0xE53 DUP3 DUP3 PUSH3 0xD50 JUMP JUMPDEST SWAP2 POP POP PUSH2 0x100 DUP1 DUP5 ADD MLOAD DUP6 DUP4 SUB DUP3 DUP8 ADD MSTORE PUSH3 0xE70 DUP4 DUP3 PUSH3 0xD50 JUMP JUMPDEST SWAP3 POP POP POP PUSH2 0x120 DUP1 DUP5 ADD MLOAD DUP6 DUP4 SUB DUP3 DUP8 ADD MSTORE PUSH3 0xE8E DUP4 DUP3 PUSH3 0xD50 JUMP JUMPDEST SWAP3 POP POP POP PUSH2 0x140 DUP1 DUP5 ADD MLOAD DUP6 DUP4 SUB DUP3 DUP8 ADD MSTORE PUSH3 0xEAC DUP4 DUP3 PUSH3 0xD50 JUMP JUMPDEST SWAP3 POP POP POP PUSH2 0x160 DUP1 DUP5 ADD MLOAD PUSH3 0xEC9 DUP3 DUP8 ADD DUP3 PUSH4 0xFFFFFFFF AND SWAP1 MSTORE JUMP JUMPDEST POP POP PUSH2 0x180 SWAP3 DUP4 ADD MLOAD SWAP4 SWAP1 SWAP3 ADD SWAP3 SWAP1 SWAP3 MSTORE SWAP2 SWAP1 POP JUMP JUMPDEST PUSH0 DUP2 MLOAD DUP1 DUP5 MSTORE PUSH1 0x20 DUP1 DUP6 ADD DUP1 DUP2 SWAP7 POP DUP4 PUSH1 0x5 SHL DUP2 ADD SWAP2 POP DUP3 DUP7 ADD PUSH0 JUMPDEST DUP6 DUP2 LT ISZERO PUSH3 0xF29 JUMPI DUP3 DUP5 SUB DUP10 MSTORE PUSH3 0xF16 DUP5 DUP4 MLOAD PUSH3 0xD50 JUMP JUMPDEST SWAP9 DUP6 ADD SWAP9 SWAP4 POP SWAP1 DUP5 ADD SWAP1 PUSH1 0x1 ADD PUSH3 0xEFB JUMP JUMPDEST POP SWAP2 SWAP8 SWAP7 POP POP POP POP POP POP POP JUMP JUMPDEST PUSH0 PUSH1 0x20 DUP1 DUP4 ADD DUP2 DUP5 MSTORE DUP1 DUP6 MLOAD DUP1 DUP4 MSTORE PUSH1 0x40 SWAP3 POP DUP3 DUP7 ADD SWAP2 POP DUP3 DUP2 PUSH1 0x5 SHL DUP8 ADD ADD DUP5 DUP9 ADD PUSH0 JUMPDEST DUP4 DUP2 LT ISZERO PUSH3 0xFE0 JUMPI DUP9 DUP4 SUB PUSH1 0x3F NOT ADD DUP6 MSTORE DUP2 MLOAD DUP1 MLOAD ISZERO ISZERO DUP5 MSTORE DUP8 DUP2 ADD MLOAD PUSH1 0x1 PUSH1 0x1 PUSH1 0xA0 SHL SUB AND DUP9 DUP6 ADD MSTORE DUP7 DUP2 ADD MLOAD PUSH1 0xA0 DUP9 DUP7 ADD DUP2 SWAP1 MSTORE SWAP1 PUSH3 0xFA1 DUP3 DUP8 ADD DUP3 PUSH3 0xD7D JUMP JUMPDEST SWAP2 POP POP PUSH1 0x60 DUP1 DUP4 ADD MLOAD DUP2 DUP8 ADD MSTORE POP PUSH1 0x80 DUP1 DUP4 ADD MLOAD SWAP3 POP DUP6 DUP3 SUB DUP2 DUP8 ADD MSTORE POP PUSH3 0xFCB DUP2 DUP4 PUSH3 0xEDF JUMP JUMPDEST SWAP7 DUP10 ADD SWAP7 SWAP5 POP POP POP SWAP1 DUP7 ADD SWAP1 PUSH1 0x1 ADD PUSH3 0xF5B JUMP JUMPDEST POP SWAP1 SWAP9 SWAP8 POP POP POP POP POP POP POP POP JUMP JUMPDEST PUSH4 0xFFFFFFFF DUP2 AND DUP2 EQ PUSH3 0x319 JUMPI PUSH0 DUP1 REVERT JUMPDEST DUP1 CALLDATALOAD PUSH3 0x100D DUP2 PUSH3 0xFEE JUMP JUMPDEST SWAP2 SWAP1 POP JUMP JUMPDEST PUSH0 DUP1 PUSH0 DUP1 PUSH1 0x80 DUP6 DUP8 SUB SLT ISZERO PUSH3 0x1026 JUMPI PUSH0 DUP1 REVERT JUMPDEST DUP5 CALLDATALOAD PUSH3 0x1033 DUP2 PUSH3 0xC8C JUMP JUMPDEST SWAP4 POP PUSH1 0x20 DUP6 ADD CALLDATALOAD PUSH3 0x1045 DUP2 PUSH3 0xC8C JUMP JUMPDEST SWAP3 POP PUSH1 0x40 DUP6 ADD CALLDATALOAD PUSH3 0x1057 DUP2 PUSH3 0xFEE JUMP JUMPDEST SWAP4 SWAP7 SWAP3 SWAP6 POP SWAP3 SWAP4 PUSH1 0x60 ADD CALLDATALOAD SWAP3 POP POP JUMP JUMPDEST PUSH0 DUP1 PUSH0 DUP1 PUSH1 0x80 DUP6 DUP8 SUB SLT ISZERO PUSH3 0x107B JUMPI PUSH0 DUP1 REVERT JUMPDEST DUP5 CALLDATALOAD PUSH3 0x1088 DUP2 PUSH3 0xC8C JUMP JUMPDEST SWAP4 POP PUSH1 0x20 DUP6 ADD CALLDATALOAD PUSH3 0x109A DUP2 PUSH3 0xC8C JUMP JUMPDEST SWAP3 POP PUSH1 0x40 DUP6 ADD CALLDATALOAD PUSH3 0x1057 DUP2 PUSH3 0xC8C JUMP JUMPDEST PUSH4 0x4E487B71 PUSH1 0xE0 SHL PUSH0 MSTORE PUSH1 0x41 PUSH1 0x4 MSTORE PUSH1 0x24 PUSH0 REVERT JUMPDEST PUSH1 0x40 MLOAD PUSH2 0x1A0 DUP2 ADD PUSH1 0x1 PUSH1 0x1 PUSH1 0x40 SHL SUB DUP2 GT DUP3 DUP3 LT OR ISZERO PUSH3 0x10E6 JUMPI PUSH3 0x10E6 PUSH3 0x10AC JUMP JUMPDEST PUSH1 0x40 MSTORE SWAP1 JUMP JUMPDEST PUSH1 0x40 MLOAD PUSH1 0xA0 DUP2 ADD PUSH1 0x1 PUSH1 0x1 PUSH1 0x40 SHL SUB DUP2 GT DUP3 DUP3 LT OR ISZERO PUSH3 0x10E6 JUMPI PUSH3 0x10E6 PUSH3 0x10AC JUMP JUMPDEST PUSH1 0x40 MLOAD PUSH1 0x1F DUP3 ADD PUSH1 0x1F NOT AND DUP2 ADD PUSH1 0x1 PUSH1 0x1 PUSH1 0x40 SHL SUB DUP2 GT DUP3 DUP3 LT OR ISZERO PUSH3 0x113C JUMPI PUSH3 0x113C PUSH3 0x10AC JUMP JUMPDEST PUSH1 0x40 MSTORE SWAP2 SWAP1 POP JUMP JUMPDEST PUSH0 PUSH1 0x1 PUSH1 0x1 PUSH1 0x40 SHL SUB DUP3 GT ISZERO PUSH3 0x115F JUMPI PUSH3 0x115F PUSH3 0x10AC JUMP JUMPDEST POP PUSH1 0x1F ADD PUSH1 0x1F NOT AND PUSH1 0x20 ADD SWAP1 JUMP JUMPDEST PUSH0 DUP3 PUSH1 0x1F DUP4 ADD SLT PUSH3 0x117D JUMPI PUSH0 DUP1 REVERT JUMPDEST DUP2 CALLDATALOAD PUSH3 0x1194 PUSH3 0x118E DUP3 PUSH3 0x1144 JUMP JUMPDEST PUSH3 0x1111 JUMP JUMPDEST DUP2 DUP2 MSTORE DUP5 PUSH1 0x20 DUP4 DUP7 ADD ADD GT ISZERO PUSH3 0x11A9 JUMPI PUSH0 DUP1 REVERT JUMPDEST DUP2 PUSH1 0x20 DUP6 ADD PUSH1 0x20 DUP4 ADD CALLDATACOPY PUSH0 SWAP2 DUP2 ADD PUSH1 0x20 ADD SWAP2 SWAP1 SWAP2 MSTORE SWAP4 SWAP3 POP POP POP JUMP JUMPDEST PUSH2 0xFFFF DUP2 AND DUP2 EQ PUSH3 0x319 JUMPI PUSH0 DUP1 REVERT JUMPDEST DUP1 CALLDATALOAD PUSH3 0x100D DUP2 PUSH3 0x11C5 JUMP JUMPDEST PUSH0 PUSH1 0x1 PUSH1 0x1 PUSH1 0x40 SHL SUB DUP3 GT ISZERO PUSH3 0x11FD JUMPI PUSH3 0x11FD PUSH3 0x10AC JUMP JUMPDEST POP PUSH1 0x5 SHL PUSH1 0x20 ADD SWAP1 JUMP JUMPDEST PUSH0 DUP3 PUSH1 0x1F DUP4 ADD SLT PUSH3 0x1217 JUMPI PUSH0 DUP1 REVERT JUMPDEST DUP2 CALLDATALOAD PUSH1 0x20 PUSH3 0x122A PUSH3 0x118E DUP4 PUSH3 0x11E2 JUMP JUMPDEST DUP3 DUP2 MSTORE PUSH1 0x5 SWAP3 SWAP1 SWAP3 SHL DUP5 ADD DUP2 ADD SWAP2 DUP2 DUP2 ADD SWAP1 DUP7 DUP5 GT ISZERO PUSH3 0x1249 JUMPI PUSH0 DUP1 REVERT JUMPDEST DUP3 DUP7 ADD JUMPDEST DUP5 DUP2 LT ISZERO PUSH3 0x128C JUMPI DUP1 CALLDATALOAD PUSH1 0x1 PUSH1 0x1 PUSH1 0x40 SHL SUB DUP2 GT ISZERO PUSH3 0x126D JUMPI PUSH0 DUP1 DUP2 REVERT JUMPDEST PUSH3 0x127D DUP10 DUP7 DUP4 DUP12 ADD ADD PUSH3 0x116D JUMP JUMPDEST DUP5 MSTORE POP SWAP2 DUP4 ADD SWAP2 DUP4 ADD PUSH3 0x124D JUMP JUMPDEST POP SWAP7 SWAP6 POP POP POP POP POP POP JUMP JUMPDEST PUSH0 DUP1 PUSH0 PUSH1 0x60 DUP5 DUP7 SUB SLT ISZERO PUSH3 0x12AA JUMPI PUSH0 DUP1 REVERT JUMPDEST DUP4 CALLDATALOAD PUSH1 0x1 PUSH1 0x1 PUSH1 0x40 SHL SUB DUP1 DUP3 GT ISZERO PUSH3 0x12C1 JUMPI PUSH0 DUP1 REVERT JUMPDEST SWAP1 DUP6 ADD SWAP1 PUSH2 0x1A0 DUP3 DUP9 SUB SLT ISZERO PUSH3 0x12D6 JUMPI PUSH0 DUP1 REVERT JUMPDEST PUSH3 0x12E0 PUSH3 0x10C0 JUMP JUMPDEST DUP3 CALLDATALOAD DUP3 DUP2 GT ISZERO PUSH3 0x12EF JUMPI PUSH0 DUP1 REVERT JUMPDEST PUSH3 0x12FD DUP10 DUP3 DUP7 ADD PUSH3 0x116D JUMP JUMPDEST DUP3 MSTORE POP PUSH1 0x20 DUP4 ADD CALLDATALOAD DUP3 DUP2 GT ISZERO PUSH3 0x1312 JUMPI PUSH0 DUP1 REVERT JUMPDEST PUSH3 0x1320 DUP10 DUP3 DUP7 ADD PUSH3 0x116D JUMP JUMPDEST PUSH1 0x20 DUP4 ADD MSTORE POP PUSH1 0x40 DUP4 ADD CALLDATALOAD DUP3 DUP2 GT ISZERO PUSH3 0x1338 JUMPI PUSH0 DUP1 REVERT JUMPDEST PUSH3 0x1346 DUP10 DUP3 DUP7 ADD PUSH3 0x116D JUMP JUMPDEST PUSH1 0x40 DUP4 ADD MSTORE POP PUSH1 0x60 DUP4 ADD CALLDATALOAD DUP3 DUP2 GT ISZERO PUSH3 0x135E JUMPI PUSH0 DUP1 REVERT JUMPDEST PUSH3 0x136C DUP10 DUP3 DUP7 ADD PUSH3 0x116D JUMP JUMPDEST PUSH1 0x60 DUP4 ADD MSTORE POP PUSH1 0x80 DUP4 ADD CALLDATALOAD DUP3 DUP2 GT ISZERO PUSH3 0x1384 JUMPI PUSH0 DUP1 REVERT JUMPDEST PUSH3 0x1392 DUP10 DUP3 DUP7 ADD PUSH3 0x116D JUMP JUMPDEST PUSH1 0x80 DUP4 ADD MSTORE POP PUSH3 0x13A6 PUSH1 0xA0 DUP5 ADD PUSH3 0x11D5 JUMP JUMPDEST PUSH1 0xA0 DUP3 ADD MSTORE PUSH1 0xC0 DUP4 ADD CALLDATALOAD DUP3 DUP2 GT ISZERO PUSH3 0x13BD JUMPI PUSH0 DUP1 REVERT JUMPDEST PUSH3 0x13CB DUP10 DUP3 DUP7 ADD PUSH3 0x116D JUMP JUMPDEST PUSH1 0xC0 DUP4 ADD MSTORE POP PUSH1 0xE0 DUP4 ADD CALLDATALOAD DUP3 DUP2 GT ISZERO PUSH3 0x13E3 JUMPI PUSH0 DUP1 REVERT JUMPDEST PUSH3 0x13F1 DUP10 DUP3 DUP7 ADD PUSH3 0x116D JUMP JUMPDEST PUSH1 0xE0 DUP4 ADD MSTORE POP PUSH2 0x100 DUP1 DUP5 ADD CALLDATALOAD DUP4 DUP2 GT ISZERO PUSH3 0x140B JUMPI PUSH0 DUP1 REVERT JUMPDEST PUSH3 0x1419 DUP11 DUP3 DUP8 ADD PUSH3 0x116D JUMP JUMPDEST DUP3 DUP5 ADD MSTORE POP POP PUSH2 0x120 DUP1 DUP5 ADD CALLDATALOAD DUP4 DUP2 GT ISZERO PUSH3 0x1433 JUMPI PUSH0 DUP1 REVERT JUMPDEST PUSH3 0x1441 DUP11 DUP3 DUP8 ADD PUSH3 0x116D JUMP JUMPDEST DUP3 DUP5 ADD MSTORE POP POP PUSH2 0x140 DUP1 DUP5 ADD CALLDATALOAD DUP4 DUP2 GT ISZERO PUSH3 0x145B JUMPI PUSH0 DUP1 REVERT JUMPDEST PUSH3 0x1469 DUP11 DUP3 DUP8 ADD PUSH3 0x116D JUMP JUMPDEST DUP3 DUP5 ADD MSTORE POP POP PUSH2 0x160 PUSH3 0x147F DUP2 DUP6 ADD PUSH3 0x1000 JUMP JUMPDEST SWAP1 DUP3 ADD MSTORE PUSH2 0x180 SWAP3 DUP4 ADD CALLDATALOAD SWAP3 DUP2 ADD SWAP3 SWAP1 SWAP3 MSTORE SWAP1 SWAP4 POP PUSH1 0x20 DUP6 ADD CALLDATALOAD SWAP3 POP PUSH1 0x40 DUP6 ADD CALLDATALOAD SWAP1 DUP1 DUP3 GT ISZERO PUSH3 0x14AE JUMPI PUSH0 DUP1 REVERT JUMPDEST POP PUSH3 0x14BD DUP7 DUP3 DUP8 ADD PUSH3 0x1207 JUMP JUMPDEST SWAP2 POP POP SWAP3 POP SWAP3 POP SWAP3 JUMP JUMPDEST PUSH4 0x4E487B71 PUSH1 0xE0 SHL PUSH0 MSTORE PUSH1 0x32 PUSH1 0x4 MSTORE PUSH1 0x24 PUSH0 REVERT JUMPDEST DUP1 MLOAD PUSH3 0x100D DUP2 PUSH3 0xC8C JUMP JUMPDEST PUSH0 PUSH1 0x20 DUP3 DUP5 SUB SLT ISZERO PUSH3 0x14F9 JUMPI PUSH0 DUP1 REVERT JUMPDEST DUP2 MLOAD PUSH3 0xCBF DUP2 PUSH3 0xC8C JUMP JUMPDEST PUSH4 0x4E487B71 PUSH1 0xE0 SHL PUSH0 MSTORE PUSH1 0x11 PUSH1 0x4 MSTORE PUSH1 0x24 PUSH0 REVERT JUMPDEST PUSH0 PUSH4 0xFFFFFFFF DUP1 DUP4 AND DUP2 DUP2 SUB PUSH3 0x1535 JUMPI PUSH3 0x1535 PUSH3 0x1506 JUMP JUMPDEST PUSH1 0x1 ADD SWAP4 SWAP3 POP POP POP JUMP JUMPDEST PUSH0 DUP3 PUSH1 0x1F DUP4 ADD SLT PUSH3 0x154F JUMPI PUSH0 DUP1 REVERT JUMPDEST DUP2 MLOAD PUSH3 0x1560 PUSH3 0x118E DUP3 PUSH3 0x1144 JUMP JUMPDEST DUP2 DUP2 MSTORE DUP5 PUSH1 0x20 DUP4 DUP7 ADD ADD GT ISZERO PUSH3 0x1575 JUMPI PUSH0 DUP1 REVERT JUMPDEST PUSH3 0x1588 DUP3 PUSH1 0x20 DUP4 ADD PUSH1 0x20 DUP8 ADD PUSH3 0xD2C JUMP JUMPDEST SWAP5 SWAP4 POP POP POP POP JUMP JUMPDEST DUP1 MLOAD PUSH3 0x100D DUP2 PUSH3 0x11C5 JUMP JUMPDEST DUP1 MLOAD PUSH3 0x100D DUP2 PUSH3 0xFEE JUMP JUMPDEST PUSH0 PUSH2 0x1A0 DUP3 DUP5 SUB SLT ISZERO PUSH3 0x15BC JUMPI PUSH0 DUP1 REVERT JUMPDEST PUSH3 0x15C6 PUSH3 0x10C0 JUMP JUMPDEST SWAP1 POP DUP2 MLOAD PUSH1 0x1 PUSH1 0x1 PUSH1 0x40 SHL SUB DUP1 DUP3 GT ISZERO PUSH3 0x15DF JUMPI PUSH0 DUP1 REVERT JUMPDEST PUSH3 0x15ED DUP6 DUP4 DUP7 ADD PUSH3 0x153F JUMP JUMPDEST DUP4 MSTORE PUSH1 0x20 DUP5 ADD MLOAD SWAP2 POP DUP1 DUP3 GT ISZERO PUSH3 0x1603 JUMPI PUSH0 DUP1 REVERT JUMPDEST PUSH3 0x1611 DUP6 DUP4 DUP7 ADD PUSH3 0x153F JUMP JUMPDEST PUSH1 0x20 DUP5 ADD MSTORE PUSH1 0x40 DUP5 ADD MLOAD SWAP2 POP DUP1 DUP3 GT ISZERO PUSH3 0x162A JUMPI PUSH0 DUP1 REVERT JUMPDEST PUSH3 0x1638 DUP6 DUP4 DUP7 ADD PUSH3 0x153F JUMP JUMPDEST PUSH1 0x40 DUP5 ADD MSTORE PUSH1 0x60 DUP5 ADD MLOAD SWAP2 POP DUP1 DUP3 GT ISZERO PUSH3 0x1651 JUMPI PUSH0 DUP1 REVERT JUMPDEST PUSH3 0x165F DUP6 DUP4 DUP7 ADD PUSH3 0x153F JUMP JUMPDEST PUSH1 0x60 DUP5 ADD MSTORE PUSH1 0x80 DUP5 ADD MLOAD SWAP2 POP DUP1 DUP3 GT ISZERO PUSH3 0x1678 JUMPI PUSH0 DUP1 REVERT JUMPDEST PUSH3 0x1686 DUP6 DUP4 DUP7 ADD PUSH3 0x153F JUMP JUMPDEST PUSH1 0x80 DUP5 ADD MSTORE PUSH3 0x1699 PUSH1 0xA0 DUP6 ADD PUSH3 0x1590 JUMP JUMPDEST PUSH1 0xA0 DUP5 ADD MSTORE PUSH1 0xC0 DUP5 ADD MLOAD SWAP2 POP DUP1 DUP3 GT ISZERO PUSH3 0x16B2 JUMPI PUSH0 DUP1 REVERT JUMPDEST PUSH3 0x16C0 DUP6 DUP4 DUP7 ADD PUSH3 0x153F JUMP JUMPDEST PUSH1 0xC0 DUP5 ADD MSTORE PUSH1 0xE0 DUP5 ADD MLOAD SWAP2 POP DUP1 DUP3 GT ISZERO PUSH3 0x16D9 JUMPI PUSH0 DUP1 REVERT JUMPDEST PUSH3 0x16E7 DUP6 DUP4 DUP7 ADD PUSH3 0x153F JUMP JUMPDEST PUSH1 0xE0 DUP5 ADD MSTORE PUSH2 0x100 SWAP2 POP DUP2 DUP5 ADD MLOAD DUP2 DUP2 GT ISZERO PUSH3 0x1702 JUMPI PUSH0 DUP1 REVERT JUMPDEST PUSH3 0x1710 DUP7 DUP3 DUP8 ADD PUSH3 0x153F JUMP JUMPDEST DUP4 DUP6 ADD MSTORE POP PUSH2 0x120 SWAP2 POP DUP2 DUP5 ADD MLOAD DUP2 DUP2 GT ISZERO PUSH3 0x172B JUMPI PUSH0 DUP1 REVERT JUMPDEST PUSH3 0x1739 DUP7 DUP3 DUP8 ADD PUSH3 0x153F JUMP JUMPDEST DUP4 DUP6 ADD MSTORE POP PUSH2 0x140 SWAP2 POP DUP2 DUP5 ADD MLOAD DUP2 DUP2 GT ISZERO PUSH3 0x1754 JUMPI PUSH0 DUP1 REVERT JUMPDEST PUSH3 0x1762 DUP7 DUP3 DUP8 ADD PUSH3 0x153F JUMP JUMPDEST DUP4 DUP6 ADD MSTORE POP POP POP PUSH2 0x160 PUSH3 0x1779 DUP2 DUP5 ADD PUSH3 0x159D JUMP JUMPDEST DUP2 DUP4 ADD MSTORE POP PUSH2 0x180 DUP1 DUP4 ADD MLOAD DUP2 DUP4 ADD MSTORE POP SWAP3 SWAP2 POP POP JUMP JUMPDEST PUSH0 DUP3 PUSH1 0x1F DUP4 ADD SLT PUSH3 0x17A0 JUMPI PUSH0 DUP1 REVERT JUMPDEST DUP2 MLOAD PUSH1 0x20 PUSH3 0x17B3 PUSH3 0x118E DUP4 PUSH3 0x11E2 JUMP JUMPDEST DUP3 DUP2 MSTORE PUSH1 0x5 SWAP3 SWAP1 SWAP3 SHL DUP5 ADD DUP2 ADD SWAP2 DUP2 DUP2 ADD SWAP1 DUP7 DUP5 GT ISZERO PUSH3 0x17D2 JUMPI PUSH0 DUP1 REVERT JUMPDEST DUP3 DUP7 ADD JUMPDEST DUP5 DUP2 LT ISZERO PUSH3 0x128C JUMPI DUP1 MLOAD PUSH1 0x1 PUSH1 0x1 PUSH1 0x40 SHL SUB DUP2 GT ISZERO PUSH3 0x17F6 JUMPI PUSH0 DUP1 DUP2 REVERT JUMPDEST PUSH3 0x1806 DUP10 DUP7 DUP4 DUP12 ADD ADD PUSH3 0x153F JUMP JUMPDEST DUP5 MSTORE POP SWAP2 DUP4 ADD SWAP2 DUP4 ADD PUSH3 0x17D6 JUMP JUMPDEST PUSH0 PUSH1 0x20 DUP3 DUP5 SUB SLT ISZERO PUSH3 0x1826 JUMPI PUSH0 DUP1 REVERT JUMPDEST DUP2 MLOAD PUSH1 0x1 PUSH1 0x1 PUSH1 0x40 SHL SUB DUP1 DUP3 GT ISZERO PUSH3 0x183D JUMPI PUSH0 DUP1 REVERT JUMPDEST SWAP1 DUP4 ADD SWAP1 PUSH1 0xA0 DUP3 DUP7 SUB SLT ISZERO PUSH3 0x1851 JUMPI PUSH0 DUP1 REVERT JUMPDEST PUSH3 0x185B PUSH3 0x10EC JUMP JUMPDEST DUP3 MLOAD DUP1 ISZERO ISZERO DUP2 EQ PUSH3 0x186B JUMPI PUSH0 DUP1 REVERT JUMPDEST DUP2 MSTORE PUSH3 0x187B PUSH1 0x20 DUP5 ADD PUSH3 0x14DB JUMP JUMPDEST PUSH1 0x20 DUP3 ADD MSTORE PUSH1 0x40 DUP4 ADD MLOAD DUP3 DUP2 GT ISZERO PUSH3 0x1892 JUMPI PUSH0 DUP1 REVERT JUMPDEST PUSH3 0x18A0 DUP8 DUP3 DUP7 ADD PUSH3 0x15AA JUMP JUMPDEST PUSH1 0x40 DUP4 ADD MSTORE POP PUSH1 0x60 DUP4 ADD MLOAD PUSH1 0x60 DUP3 ADD MSTORE PUSH1 0x80 DUP4 ADD MLOAD DUP3 DUP2 GT ISZERO PUSH3 0x18C2 JUMPI PUSH0 DUP1 REVERT JUMPDEST PUSH3 0x18D0 DUP8 DUP3 DUP7 ADD PUSH3 0x1790 JUMP JUMPDEST PUSH1 0x80 DUP4 ADD MSTORE POP SWAP6 SWAP5 POP POP POP POP POP JUMP JUMPDEST PUSH0 PUSH1 0x1 DUP3 ADD PUSH3 0x18F3 JUMPI PUSH3 0x18F3 PUSH3 0x1506 JUMP JUMPDEST POP PUSH1 0x1 ADD SWAP1 JUMP JUMPDEST PUSH1 0x20 DUP1 DUP3 MSTORE PUSH1 0x3B SWAP1 DUP3 ADD MSTORE PUSH32 0x5468652076656869636C6520636F6E747261637420686173206E6F7420626565 PUSH1 0x40 DUP3 ADD MSTORE PUSH32 0x6E206465706C6F796564206279207468697320666163746F72792E0000000000 PUSH1 0x60 DUP3 ADD MSTORE PUSH1 0x80 ADD SWAP1 JUMP JUMPDEST PUSH1 0x1 PUSH1 0x1 PUSH1 0xA0 SHL SUB DUP6 AND DUP2 MSTORE PUSH1 0x80 PUSH1 0x20 DUP3 ADD DUP2 SWAP1 MSTORE PUSH0 SWAP1 PUSH3 0x197C SWAP1 DUP4 ADD DUP7 PUSH3 0xD7D JUMP JUMPDEST DUP5 PUSH1 0x40 DUP5 ADD MSTORE DUP3 DUP2 SUB PUSH1 0x60 DUP5 ADD MSTORE PUSH3 0x1996 DUP2 DUP6 PUSH3 0xEDF JUMP JUMPDEST SWAP8 SWAP7 POP POP POP POP POP POP POP JUMP INVALID PUSH1 0x80 PUSH1 0x40 MSTORE CALLVALUE DUP1 ISZERO PUSH3 0x10 JUMPI PUSH0 DUP1 REVERT JUMPDEST POP PUSH1 0x40 MLOAD PUSH3 0x2F9D CODESIZE SUB DUP1 PUSH3 0x2F9D DUP4 CODECOPY DUP2 ADD PUSH1 0x40 DUP2 SWAP1 MSTORE PUSH3 0x33 SWAP2 PUSH3 0x519 JUMP JUMPDEST PUSH0 DUP1 SLOAD PUSH1 0x1 PUSH1 0x1 PUSH1 0xA0 SHL SUB NOT AND CALLER OR SWAP1 SSTORE PUSH1 0x40 DUP1 MLOAD PUSH1 0x60 DUP2 ADD SWAP1 SWAP2 MSTORE PUSH1 0x27 DUP1 DUP3 MSTORE PUSH3 0x69 SWAP2 SWAP1 PUSH3 0x2F76 PUSH1 0x20 DUP4 ADD CODECOPY PUSH3 0x1F6 JUMP JUMPDEST PUSH1 0x1 DUP1 SLOAD PUSH1 0x1 PUSH1 0x1 PUSH1 0xA0 SHL SUB NOT AND PUSH1 0x1 PUSH1 0x1 PUSH1 0xA0 SHL SUB DUP7 AND OR SWAP1 SSTORE DUP3 MLOAD DUP4 SWAP1 PUSH1 0x2 SWAP1 DUP2 SWAP1 PUSH3 0x99 SWAP1 DUP3 PUSH3 0x7F4 JUMP JUMPDEST POP PUSH1 0x20 DUP3 ADD MLOAD PUSH1 0x1 DUP3 ADD SWAP1 PUSH3 0xB0 SWAP1 DUP3 PUSH3 0x7F4 JUMP JUMPDEST POP PUSH1 0x40 DUP3 ADD MLOAD PUSH1 0x2 DUP3 ADD SWAP1 PUSH3 0xC7 SWAP1 DUP3 PUSH3 0x7F4 JUMP JUMPDEST POP PUSH1 0x60 DUP3 ADD MLOAD PUSH1 0x3 DUP3 ADD SWAP1 PUSH3 0xDE SWAP1 DUP3 PUSH3 0x7F4 JUMP JUMPDEST POP PUSH1 0x80 DUP3 ADD MLOAD PUSH1 0x4 DUP3 ADD SWAP1 PUSH3 0xF5 SWAP1 DUP3 PUSH3 0x7F4 JUMP JUMPDEST POP PUSH1 0xA0 DUP3 ADD MLOAD PUSH1 0x5 DUP3 ADD DUP1 SLOAD PUSH2 0xFFFF NOT AND PUSH2 0xFFFF SWAP1 SWAP3 AND SWAP2 SWAP1 SWAP2 OR SWAP1 SSTORE PUSH1 0xC0 DUP3 ADD MLOAD PUSH1 0x6 DUP3 ADD SWAP1 PUSH3 0x128 SWAP1 DUP3 PUSH3 0x7F4 JUMP JUMPDEST POP PUSH1 0xE0 DUP3 ADD MLOAD PUSH1 0x7 DUP3 ADD SWAP1 PUSH3 0x13F SWAP1 DUP3 PUSH3 0x7F4 JUMP JUMPDEST POP PUSH2 0x100 DUP3 ADD MLOAD PUSH1 0x8 DUP3 ADD SWAP1 PUSH3 0x157 SWAP1 DUP3 PUSH3 0x7F4 JUMP JUMPDEST POP PUSH2 0x120 DUP3 ADD MLOAD PUSH1 0x9 DUP3 ADD SWAP1 PUSH3 0x16F SWAP1 DUP3 PUSH3 0x7F4 JUMP JUMPDEST POP PUSH2 0x140 DUP3 ADD MLOAD PUSH1 0xA DUP3 ADD SWAP1 PUSH3 0x187 SWAP1 DUP3 PUSH3 0x7F4 JUMP JUMPDEST POP PUSH2 0x160 DUP3 ADD MLOAD PUSH1 0xB DUP3 ADD DUP1 SLOAD PUSH4 0xFFFFFFFF NOT AND PUSH4 0xFFFFFFFF SWAP1 SWAP3 AND SWAP2 SWAP1 SWAP2 OR SWAP1 SSTORE PUSH2 0x180 SWAP1 SWAP2 ADD MLOAD PUSH1 0xC SWAP1 SWAP2 ADD SSTORE PUSH1 0xF DUP3 SWAP1 SSTORE DUP1 MLOAD PUSH3 0x1D0 SWAP1 PUSH1 0x10 SWAP1 PUSH1 0x20 DUP5 ADD SWAP1 PUSH3 0x279 JUMP JUMPDEST POP POP PUSH1 0x12 DUP1 SLOAD PUSH4 0xFFFFFFFF NOT AND SWAP1 SSTORE POP POP PUSH1 0x1 DUP1 SLOAD PUSH2 0xFFFF PUSH1 0xA0 SHL NOT AND SWAP1 SSTORE POP PUSH3 0x8F0 JUMP JUMPDEST PUSH3 0x241 DUP2 PUSH1 0x40 MLOAD PUSH1 0x24 ADD PUSH3 0x20D SWAP2 SWAP1 PUSH3 0x8BC JUMP JUMPDEST PUSH1 0x40 DUP1 MLOAD PUSH1 0x1F NOT DUP2 DUP5 SUB ADD DUP2 MSTORE SWAP2 SWAP1 MSTORE PUSH1 0x20 DUP2 ADD DUP1 MLOAD PUSH1 0x1 PUSH1 0x1 PUSH1 0xE0 SHL SUB SWAP1 DUP2 AND PUSH4 0x104C13EB PUSH1 0xE2 SHL OR SWAP1 SWAP2 MSTORE PUSH3 0x244 AND JUMP JUMPDEST POP JUMP JUMPDEST PUSH3 0x241 DUP2 PUSH3 0x25A PUSH1 0x20 SHL PUSH3 0x1D5B OR PUSH1 0x20 SHR JUMP JUMPDEST PUSH0 PUSH11 0x636F6E736F6C652E6C6F67 SWAP1 POP PUSH0 DUP1 DUP4 MLOAD PUSH1 0x20 DUP6 ADD DUP5 GAS STATICCALL POP POP POP JUMP JUMPDEST DUP3 DUP1 SLOAD DUP3 DUP3 SSTORE SWAP1 PUSH0 MSTORE PUSH1 0x20 PUSH0 KECCAK256 SWAP1 DUP2 ADD SWAP3 DUP3 ISZERO PUSH3 0x2C2 JUMPI SWAP2 PUSH1 0x20 MUL DUP3 ADD JUMPDEST DUP3 DUP2 GT ISZERO PUSH3 0x2C2 JUMPI DUP3 MLOAD DUP3 SWAP1 PUSH3 0x2B1 SWAP1 DUP3 PUSH3 0x7F4 JUMP JUMPDEST POP SWAP2 PUSH1 0x20 ADD SWAP2 SWAP1 PUSH1 0x1 ADD SWAP1 PUSH3 0x298 JUMP JUMPDEST POP PUSH3 0x2D0 SWAP3 SWAP2 POP PUSH3 0x2D4 JUMP JUMPDEST POP SWAP1 JUMP JUMPDEST DUP1 DUP3 GT ISZERO PUSH3 0x2D0 JUMPI PUSH0 PUSH3 0x2EA DUP3 DUP3 PUSH3 0x2F4 JUMP JUMPDEST POP PUSH1 0x1 ADD PUSH3 0x2D4 JUMP JUMPDEST POP DUP1 SLOAD PUSH3 0x302 SWAP1 PUSH3 0x768 JUMP JUMPDEST PUSH0 DUP3 SSTORE DUP1 PUSH1 0x1F LT PUSH3 0x312 JUMPI POP POP JUMP JUMPDEST PUSH1 0x1F ADD PUSH1 0x20 SWAP1 DIV SWAP1 PUSH0 MSTORE PUSH1 0x20 PUSH0 KECCAK256 SWAP1 DUP2 ADD SWAP1 PUSH3 0x241 SWAP2 SWAP1 JUMPDEST DUP1 DUP3 GT ISZERO PUSH3 0x2D0 JUMPI PUSH0 DUP2 SSTORE PUSH1 0x1 ADD PUSH3 0x32B JUMP JUMPDEST PUSH4 0x4E487B71 PUSH1 0xE0 SHL PUSH0 MSTORE PUSH1 0x41 PUSH1 0x4 MSTORE PUSH1 0x24 PUSH0 REVERT JUMPDEST PUSH1 0x40 MLOAD PUSH2 0x1A0 DUP2 ADD PUSH1 0x1 PUSH1 0x1 PUSH1 0x40 SHL SUB DUP2 GT DUP3 DUP3 LT OR ISZERO PUSH3 0x37A JUMPI PUSH3 0x37A PUSH3 0x340 JUMP JUMPDEST PUSH1 0x40 MSTORE SWAP1 JUMP JUMPDEST PUSH1 0x40 MLOAD PUSH1 0x1F DUP3 ADD PUSH1 0x1F NOT AND DUP2 ADD PUSH1 0x1 PUSH1 0x1 PUSH1 0x40 SHL SUB DUP2 GT DUP3 DUP3 LT OR ISZERO PUSH3 0x3AB JUMPI PUSH3 0x3AB PUSH3 0x340 JUMP JUMPDEST PUSH1 0x40 MSTORE SWAP2 SWAP1 POP JUMP JUMPDEST PUSH0 JUMPDEST DUP4 DUP2 LT ISZERO PUSH3 0x3CF JUMPI DUP2 DUP2 ADD MLOAD DUP4 DUP3 ADD MSTORE PUSH1 0x20 ADD PUSH3 0x3B5 JUMP JUMPDEST POP POP PUSH0 SWAP2 ADD MSTORE JUMP JUMPDEST PUSH0 DUP3 PUSH1 0x1F DUP4 ADD SLT PUSH3 0x3E7 JUMPI PUSH0 DUP1 REVERT JUMPDEST DUP2 MLOAD PUSH1 0x1 PUSH1 0x1 PUSH1 0x40 SHL SUB DUP2 GT ISZERO PUSH3 0x403 JUMPI PUSH3 0x403 PUSH3 0x340 JUMP JUMPDEST PUSH3 0x418 PUSH1 0x1F DUP3 ADD PUSH1 0x1F NOT AND PUSH1 0x20 ADD PUSH3 0x380 JUMP JUMPDEST DUP2 DUP2 MSTORE DUP5 PUSH1 0x20 DUP4 DUP7 ADD ADD GT ISZERO PUSH3 0x42D JUMPI PUSH0 DUP1 REVERT JUMPDEST PUSH3 0x440 DUP3 PUSH1 0x20 DUP4 ADD PUSH1 0x20 DUP8 ADD PUSH3 0x3B3 JUMP JUMPDEST SWAP5 SWAP4 POP POP POP POP JUMP JUMPDEST DUP1 MLOAD PUSH2 0xFFFF DUP2 AND DUP2 EQ PUSH3 0x45A JUMPI PUSH0 DUP1 REVERT JUMPDEST SWAP2 SWAP1 POP JUMP JUMPDEST DUP1 MLOAD PUSH4 0xFFFFFFFF DUP2 AND DUP2 EQ PUSH3 0x45A JUMPI PUSH0 DUP1 REVERT JUMPDEST PUSH0 DUP3 PUSH1 0x1F DUP4 ADD SLT PUSH3 0x483 JUMPI PUSH0 DUP1 REVERT JUMPDEST DUP2 MLOAD PUSH1 0x20 PUSH1 0x1 PUSH1 0x1 PUSH1 0x40 SHL SUB DUP1 DUP4 GT ISZERO PUSH3 0x4A2 JUMPI PUSH3 0x4A2 PUSH3 0x340 JUMP JUMPDEST DUP3 PUSH1 0x5 SHL PUSH3 0x4B3 DUP4 DUP3 ADD PUSH3 0x380 JUMP JUMPDEST SWAP4 DUP5 MSTORE DUP6 DUP2 ADD DUP4 ADD SWAP4 DUP4 DUP2 ADD SWAP1 DUP9 DUP7 GT ISZERO PUSH3 0x4CD JUMPI PUSH0 DUP1 REVERT JUMPDEST DUP5 DUP9 ADD SWAP3 POP JUMPDEST DUP6 DUP4 LT ISZERO PUSH3 0x50D JUMPI DUP3 MLOAD DUP5 DUP2 GT ISZERO PUSH3 0x4EC JUMPI PUSH0 DUP1 DUP2 REVERT JUMPDEST PUSH3 0x4FC DUP11 DUP8 DUP4 DUP13 ADD ADD PUSH3 0x3D7 JUMP JUMPDEST DUP4 MSTORE POP SWAP2 DUP5 ADD SWAP2 SWAP1 DUP5 ADD SWAP1 PUSH3 0x4D3 JUMP JUMPDEST SWAP9 SWAP8 POP POP POP POP POP POP POP POP JUMP JUMPDEST PUSH0 DUP1 PUSH0 DUP1 PUSH1 0x80 DUP6 DUP8 SUB SLT ISZERO PUSH3 0x52D JUMPI PUSH0 DUP1 REVERT JUMPDEST DUP5 MLOAD PUSH1 0x1 PUSH1 0x1 PUSH1 0xA0 SHL SUB DUP2 AND DUP2 EQ PUSH3 0x544 JUMPI PUSH0 DUP1 REVERT JUMPDEST PUSH1 0x20 DUP7 ADD MLOAD SWAP1 SWAP5 POP PUSH1 0x1 PUSH1 0x1 PUSH1 0x40 SHL SUB DUP1 DUP3 GT ISZERO PUSH3 0x561 JUMPI PUSH0 DUP1 REVERT JUMPDEST SWAP1 DUP7 ADD SWAP1 PUSH2 0x1A0 DUP3 DUP10 SUB SLT ISZERO PUSH3 0x576 JUMPI PUSH0 DUP1 REVERT JUMPDEST PUSH3 0x580 PUSH3 0x354 JUMP JUMPDEST DUP3 MLOAD DUP3 DUP2 GT ISZERO PUSH3 0x58F JUMPI PUSH0 DUP1 REVERT JUMPDEST PUSH3 0x59D DUP11 DUP3 DUP7 ADD PUSH3 0x3D7 JUMP JUMPDEST DUP3 MSTORE POP PUSH1 0x20 DUP4 ADD MLOAD DUP3 DUP2 GT ISZERO PUSH3 0x5B2 JUMPI PUSH0 DUP1 REVERT JUMPDEST PUSH3 0x5C0 DUP11 DUP3 DUP7 ADD PUSH3 0x3D7 JUMP JUMPDEST PUSH1 0x20 DUP4 ADD MSTORE POP PUSH1 0x40 DUP4 ADD MLOAD DUP3 DUP2 GT ISZERO PUSH3 0x5D8 JUMPI PUSH0 DUP1 REVERT JUMPDEST PUSH3 0x5E6 DUP11 DUP3 DUP7 ADD PUSH3 0x3D7 JUMP JUMPDEST PUSH1 0x40 DUP4 ADD MSTORE POP PUSH1 0x60 DUP4 ADD MLOAD DUP3 DUP2 GT ISZERO PUSH3 0x5FE JUMPI PUSH0 DUP1 REVERT JUMPDEST PUSH3 0x60C DUP11 DUP3 DUP7 ADD PUSH3 0x3D7 JUMP JUMPDEST PUSH1 0x60 DUP4 ADD MSTORE POP PUSH1 0x80 DUP4 ADD MLOAD DUP3 DUP2 GT ISZERO PUSH3 0x624 JUMPI PUSH0 DUP1 REVERT JUMPDEST PUSH3 0x632 DUP11 DUP3 DUP7 ADD PUSH3 0x3D7 JUMP JUMPDEST PUSH1 0x80 DUP4 ADD MSTORE POP PUSH3 0x646 PUSH1 0xA0 DUP5 ADD PUSH3 0x448 JUMP JUMPDEST PUSH1 0xA0 DUP3 ADD MSTORE PUSH1 0xC0 DUP4 ADD MLOAD DUP3 DUP2 GT ISZERO PUSH3 0x65D JUMPI PUSH0 DUP1 REVERT JUMPDEST PUSH3 0x66B DUP11 DUP3 DUP7 ADD PUSH3 0x3D7 JUMP JUMPDEST PUSH1 0xC0 DUP4 ADD MSTORE POP PUSH1 0xE0 DUP4 ADD MLOAD DUP3 DUP2 GT ISZERO PUSH3 0x683 JUMPI PUSH0 DUP1 REVERT JUMPDEST PUSH3 0x691 DUP11 DUP3 DUP7 ADD PUSH3 0x3D7 JUMP JUMPDEST PUSH1 0xE0 DUP4 ADD MSTORE POP PUSH2 0x100 DUP1 DUP5 ADD MLOAD DUP4 DUP2 GT ISZERO PUSH3 0x6AB JUMPI PUSH0 DUP1 REVERT JUMPDEST PUSH3 0x6B9 DUP12 DUP3 DUP8 ADD PUSH3 0x3D7 JUMP JUMPDEST DUP3 DUP5 ADD MSTORE POP POP PUSH2 0x120 DUP1 DUP5 ADD MLOAD DUP4 DUP2 GT ISZERO PUSH3 0x6D3 JUMPI PUSH0 DUP1 REVERT JUMPDEST PUSH3 0x6E1 DUP12 DUP3 DUP8 ADD PUSH3 0x3D7 JUMP JUMPDEST DUP3 DUP5 ADD MSTORE POP POP PUSH2 0x140 DUP1 DUP5 ADD MLOAD DUP4 DUP2 GT ISZERO PUSH3 0x6FB JUMPI PUSH0 DUP1 REVERT JUMPDEST PUSH3 0x709 DUP12 DUP3 DUP8 ADD PUSH3 0x3D7 JUMP JUMPDEST DUP3 DUP5 ADD MSTORE POP POP PUSH2 0x160 PUSH3 0x71F DUP2 DUP6 ADD PUSH3 0x45F JUMP JUMPDEST SWAP1 DUP3 ADD MSTORE PUSH2 0x180 SWAP3 DUP4 ADD MLOAD SWAP3 DUP2 ADD SWAP3 SWAP1 SWAP3 MSTORE PUSH1 0x40 DUP8 ADD MLOAD PUSH1 0x60 DUP9 ADD MLOAD SWAP3 SWAP6 POP SWAP4 POP DUP1 DUP3 GT ISZERO PUSH3 0x74D JUMPI PUSH0 DUP1 REVERT JUMPDEST POP PUSH3 0x75C DUP8 DUP3 DUP9 ADD PUSH3 0x473 JUMP JUMPDEST SWAP2 POP POP SWAP3 SWAP6 SWAP2 SWAP5 POP SWAP3 POP JUMP JUMPDEST PUSH1 0x1 DUP2 DUP2 SHR SWAP1 DUP3 AND DUP1 PUSH3 0x77D JUMPI PUSH1 0x7F DUP3 AND SWAP2 POP JUMPDEST PUSH1 0x20 DUP3 LT DUP2 SUB PUSH3 0x79C JUMPI PUSH4 0x4E487B71 PUSH1 0xE0 SHL PUSH0 MSTORE PUSH1 0x22 PUSH1 0x4 MSTORE PUSH1 0x24 PUSH0 REVERT JUMPDEST POP SWAP2 SWAP1 POP JUMP JUMPDEST PUSH1 0x1F DUP3 GT ISZERO PUSH3 0x7EF JUMPI PUSH0 DUP2 DUP2 MSTORE PUSH1 0x20 DUP2 KECCAK256 PUSH1 0x1F DUP6 ADD PUSH1 0x5 SHR DUP2 ADD PUSH1 0x20 DUP7 LT ISZERO PUSH3 0x7CA JUMPI POP DUP1 JUMPDEST PUSH1 0x1F DUP6 ADD PUSH1 0x5 SHR DUP3 ADD SWAP2 POP JUMPDEST DUP2 DUP2 LT ISZERO PUSH3 0x7EB JUMPI DUP3 DUP2 SSTORE PUSH1 0x1 ADD PUSH3 0x7D6 JUMP JUMPDEST POP POP POP JUMPDEST POP POP POP JUMP JUMPDEST DUP2 MLOAD PUSH1 0x1 PUSH1 0x1 PUSH1 0x40 SHL SUB DUP2 GT ISZERO PUSH3 0x810 JUMPI PUSH3 0x810 PUSH3 0x340 JUMP JUMPDEST PUSH3 0x828 DUP2 PUSH3 0x821 DUP5 SLOAD PUSH3 0x768 JUMP JUMPDEST DUP5 PUSH3 0x7A2 JUMP JUMPDEST PUSH1 0x20 DUP1 PUSH1 0x1F DUP4 GT PUSH1 0x1 DUP2 EQ PUSH3 0x85E JUMPI PUSH0 DUP5 ISZERO PUSH3 0x846 JUMPI POP DUP6 DUP4 ADD MLOAD JUMPDEST PUSH0 NOT PUSH1 0x3 DUP7 SWAP1 SHL SHR NOT AND PUSH1 0x1 DUP6 SWAP1 SHL OR DUP6 SSTORE PUSH3 0x7EB JUMP JUMPDEST PUSH0 DUP6 DUP2 MSTORE PUSH1 0x20 DUP2 KECCAK256 PUSH1 0x1F NOT DUP7 AND SWAP2 JUMPDEST DUP3 DUP2 LT ISZERO PUSH3 0x88E JUMPI DUP9 DUP7 ADD MLOAD DUP3 SSTORE SWAP5 DUP5 ADD SWAP5 PUSH1 0x1 SWAP1 SWAP2 ADD SWAP1 DUP5 ADD PUSH3 0x86D JUMP JUMPDEST POP DUP6 DUP3 LT ISZERO PUSH3 0x8AC JUMPI DUP8 DUP6 ADD MLOAD PUSH0 NOT PUSH1 0x3 DUP9 SWAP1 SHL PUSH1 0xF8 AND SHR NOT AND DUP2 SSTORE JUMPDEST POP POP POP POP POP PUSH1 0x1 SWAP1 DUP2 SHL ADD SWAP1 SSTORE POP JUMP JUMPDEST PUSH1 0x20 DUP2 MSTORE PUSH0 DUP3 MLOAD DUP1 PUSH1 0x20 DUP5 ADD MSTORE PUSH3 0x8DC DUP2 PUSH1 0x40 DUP6 ADD PUSH1 0x20 DUP8 ADD PUSH3 0x3B3 JUMP JUMPDEST PUSH1 0x1F ADD PUSH1 0x1F NOT AND SWAP2 SWAP1 SWAP2 ADD PUSH1 0x40 ADD SWAP3 SWAP2 POP POP JUMP JUMPDEST PUSH2 0x2678 DUP1 PUSH3 0x8FE PUSH0 CODECOPY PUSH0 RETURN INVALID PUSH1 0x80 PUSH1 0x40 MSTORE PUSH1 0x4 CALLDATASIZE LT PUSH2 0x110 JUMPI PUSH0 CALLDATALOAD PUSH1 0xE0 SHR DUP1 PUSH4 0xB68BFD08 GT PUSH2 0x9D JUMPI DUP1 PUSH4 0xC66531CF GT PUSH2 0x62 JUMPI DUP1 PUSH4 0xC66531CF EQ PUSH2 0x2DD JUMPI DUP1 PUSH4 0xCEBD31BC EQ PUSH2 0x301 JUMPI DUP1 PUSH4 0xE7065DFF EQ PUSH2 0x31E JUMPI DUP1 PUSH4 0xE7F9ACED EQ PUSH2 0x332 JUMPI DUP1 PUSH4 0xF2FDE38B EQ PUSH2 0x353 JUMPI PUSH0 DUP1 REVERT JUMPDEST DUP1 PUSH4 0xB68BFD08 EQ PUSH2 0x256 JUMPI DUP1 PUSH4 0xB7751C71 EQ PUSH2 0x277 JUMPI DUP1 PUSH4 0xB81C78EC EQ PUSH2 0x28A JUMPI DUP1 PUSH4 0xC4C09A3A EQ PUSH2 0x2AB JUMPI DUP1 PUSH4 0xC5292C67 EQ PUSH2 0x2BF JUMPI PUSH0 DUP1 REVERT JUMPDEST DUP1 PUSH4 0x4364BAB9 GT PUSH2 0xE3 JUMPI DUP1 PUSH4 0x4364BAB9 EQ PUSH2 0x1AD JUMPI DUP1 PUSH4 0x68E24327 EQ PUSH2 0x1CE JUMPI DUP1 PUSH4 0x715018A6 EQ PUSH2 0x1ED JUMPI DUP1 PUSH4 0x8DA5CB5B EQ PUSH2 0x201 JUMPI DUP1 PUSH4 0x966DAE0E EQ PUSH2 0x237 JUMPI PUSH0 DUP1 REVERT JUMPDEST DUP1 PUSH4 0x28F371AA EQ PUSH2 0x114 JUMPI DUP1 PUSH4 0x2F54BF6E EQ PUSH2 0x149 JUMPI DUP1 PUSH4 0x37271CC7 EQ PUSH2 0x176 JUMPI DUP1 PUSH4 0x3BC5DE30 EQ PUSH2 0x18C JUMPI JUMPDEST PUSH0 DUP1 REVERT JUMPDEST CALLVALUE DUP1 ISZERO PUSH2 0x11F JUMPI PUSH0 DUP1 REVERT JUMPDEST POP PUSH1 0x1 SLOAD PUSH2 0x134 SWAP1 PUSH1 0x1 PUSH1 0xA8 SHL SWAP1 DIV PUSH1 0xFF AND DUP2 JUMP JUMPDEST PUSH1 0x40 MLOAD SWAP1 ISZERO ISZERO DUP2 MSTORE PUSH1 0x20 ADD JUMPDEST PUSH1 0x40 MLOAD DUP1 SWAP2 SUB SWAP1 RETURN JUMPDEST CALLVALUE DUP1 ISZERO PUSH2 0x154 JUMPI PUSH0 DUP1 REVERT JUMPDEST POP PUSH2 0x134 PUSH2 0x163 CALLDATASIZE PUSH1 0x4 PUSH2 0x20FF JUMP JUMPDEST PUSH0 SLOAD PUSH1 0x1 PUSH1 0x1 PUSH1 0xA0 SHL SUB SWAP2 DUP3 AND SWAP2 AND EQ SWAP1 JUMP JUMPDEST CALLVALUE DUP1 ISZERO PUSH2 0x181 JUMPI PUSH0 DUP1 REVERT JUMPDEST POP PUSH2 0x18A PUSH2 0x372 JUMP JUMPDEST STOP JUMPDEST CALLVALUE DUP1 ISZERO PUSH2 0x197 JUMPI PUSH0 DUP1 REVERT JUMPDEST POP PUSH2 0x1A0 PUSH2 0x61F JUMP JUMPDEST PUSH1 0x40 MLOAD PUSH2 0x140 SWAP2 SWAP1 PUSH2 0x231B JUMP JUMPDEST CALLVALUE DUP1 ISZERO PUSH2 0x1B8 JUMPI PUSH0 DUP1 REVERT JUMPDEST POP PUSH2 0x1C1 PUSH2 0xD04 JUMP JUMPDEST PUSH1 0x40 MLOAD PUSH2 0x140 SWAP2 SWAP1 PUSH2 0x2384 JUMP JUMPDEST CALLVALUE DUP1 ISZERO PUSH2 0x1D9 JUMPI PUSH0 DUP1 REVERT JUMPDEST POP PUSH2 0x18A PUSH2 0x1E8 CALLDATASIZE PUSH1 0x4 PUSH2 0x2396 JUMP JUMPDEST PUSH2 0xDD8 JUMP JUMPDEST CALLVALUE DUP1 ISZERO PUSH2 0x1F8 JUMPI PUSH0 DUP1 REVERT JUMPDEST POP PUSH2 0x18A PUSH2 0xE0B JUMP JUMPDEST CALLVALUE DUP1 ISZERO PUSH2 0x20C JUMPI PUSH0 DUP1 REVERT JUMPDEST POP PUSH0 SLOAD PUSH2 0x21F SWAP1 PUSH1 0x1 PUSH1 0x1 PUSH1 0xA0 SHL SUB AND DUP2 JUMP JUMPDEST PUSH1 0x40 MLOAD PUSH1 0x1 PUSH1 0x1 PUSH1 0xA0 SHL SUB SWAP1 SWAP2 AND DUP2 MSTORE PUSH1 0x20 ADD PUSH2 0x140 JUMP JUMPDEST CALLVALUE DUP1 ISZERO PUSH2 0x242 JUMPI PUSH0 DUP1 REVERT JUMPDEST POP PUSH1 0x1 SLOAD PUSH2 0x21F SWAP1 PUSH1 0x1 PUSH1 0x1 PUSH1 0xA0 SHL SUB AND DUP2 JUMP JUMPDEST CALLVALUE DUP1 ISZERO PUSH2 0x261 JUMPI PUSH0 DUP1 REVERT JUMPDEST POP PUSH2 0x26A PUSH2 0xE66 JUMP JUMPDEST PUSH1 0x40 MLOAD PUSH2 0x140 SWAP2 SWAP1 PUSH2 0x23F3 JUMP JUMPDEST PUSH2 0x18A PUSH2 0x285 CALLDATASIZE PUSH1 0x4 PUSH2 0x2401 JUMP JUMPDEST PUSH2 0xF5B JUMP JUMPDEST CALLVALUE DUP1 ISZERO PUSH2 0x295 JUMPI PUSH0 DUP1 REVERT JUMPDEST POP PUSH2 0x29E PUSH2 0x13FB JUMP JUMPDEST PUSH1 0x40 MLOAD PUSH2 0x140 SWAP2 SWAP1 PUSH2 0x2421 JUMP JUMPDEST CALLVALUE DUP1 ISZERO PUSH2 0x2B6 JUMPI PUSH0 DUP1 REVERT JUMPDEST POP PUSH2 0x18A PUSH2 0x14ED JUMP JUMPDEST CALLVALUE DUP1 ISZERO PUSH2 0x2CA JUMPI PUSH0 DUP1 REVERT JUMPDEST POP PUSH1 0x1 SLOAD PUSH1 0x1 PUSH1 0xA0 SHL SWAP1 DIV PUSH1 0xFF AND PUSH2 0x134 JUMP JUMPDEST CALLVALUE DUP1 ISZERO PUSH2 0x2E8 JUMPI PUSH0 DUP1 REVERT JUMPDEST POP PUSH1 0x12 SLOAD PUSH1 0x40 MLOAD PUSH4 0xFFFFFFFF SWAP1 SWAP2 AND DUP2 MSTORE PUSH1 0x20 ADD PUSH2 0x140 JUMP JUMPDEST CALLVALUE DUP1 ISZERO PUSH2 0x30C JUMPI PUSH0 DUP1 REVERT JUMPDEST POP PUSH1 0xF SLOAD PUSH1 0x40 MLOAD SWAP1 DUP2 MSTORE PUSH1 0x20 ADD PUSH2 0x140 JUMP JUMPDEST CALLVALUE DUP1 ISZERO PUSH2 0x329 JUMPI PUSH0 DUP1 REVERT JUMPDEST POP PUSH2 0x18A PUSH2 0x16E4 JUMP JUMPDEST CALLVALUE DUP1 ISZERO PUSH2 0x33D JUMPI PUSH0 DUP1 REVERT JUMPDEST POP PUSH2 0x346 PUSH2 0x1753 JUMP JUMPDEST PUSH1 0x40 MLOAD PUSH2 0x140 SWAP2 SWAP1 PUSH2 0x246E JUMP JUMPDEST CALLVALUE DUP1 ISZERO PUSH2 0x35E JUMPI PUSH0 DUP1 REVERT JUMPDEST POP PUSH2 0x18A PUSH2 0x36D CALLDATASIZE PUSH1 0x4 PUSH2 0x20FF JUMP JUMPDEST PUSH2 0x1D3A JUMP JUMPDEST PUSH1 0x1 SLOAD PUSH1 0x1 PUSH1 0xA0 SHL SWAP1 DIV PUSH1 0xFF AND PUSH2 0x3A4 JUMPI PUSH1 0x40 MLOAD PUSH3 0x461BCD PUSH1 0xE5 SHL DUP2 MSTORE PUSH1 0x4 ADD PUSH2 0x39B SWAP1 PUSH2 0x2480 JUMP JUMPDEST PUSH1 0x40 MLOAD DUP1 SWAP2 SUB SWAP1 REVERT JUMPDEST PUSH2 0x3AC PUSH2 0x1D7A JUMP JUMPDEST POP POP PUSH0 SLOAD PUSH1 0x1 PUSH1 0x1 PUSH1 0xA0 SHL SUB AND CALLER SUB PUSH2 0x3C3 JUMPI PUSH0 DUP1 REVERT JUMPDEST PUSH1 0x12 SLOAD PUSH0 SWAP1 PUSH1 0x11 SWAP1 DUP3 SWAP1 PUSH2 0x3DF SWAP1 PUSH1 0x1 SWAP1 PUSH4 0xFFFFFFFF AND PUSH2 0x24E5 JUMP JUMPDEST PUSH4 0xFFFFFFFF SWAP1 DUP2 AND DUP3 MSTORE PUSH1 0x20 DUP1 DUP4 ADD SWAP4 SWAP1 SWAP4 MSTORE PUSH1 0x40 SWAP2 DUP3 ADD PUSH0 KECCAK256 DUP3 MLOAD PUSH1 0xA0 DUP2 ADD DUP5 MSTORE DUP2 SLOAD SWAP3 DUP4 AND DUP2 MSTORE PUSH5 0x100000000 SWAP1 SWAP3 DIV PUSH1 0x1 PUSH1 0x1 PUSH1 0xA0 SHL SUB AND SWAP4 DUP3 ADD SWAP4 SWAP1 SWAP4 MSTORE PUSH1 0x1 DUP4 ADD SLOAD SWAP2 DUP2 ADD SWAP2 SWAP1 SWAP2 MSTORE PUSH1 0x2 DUP3 ADD SLOAD PUSH1 0x60 DUP3 ADD MSTORE PUSH1 0x3 SWAP1 SWAP2 ADD SLOAD PUSH1 0xFF AND ISZERO DUP1 ISZERO PUSH1 0x80 DUP4 ADD MSTORE SWAP1 SWAP2 POP PUSH2 0x4A1 JUMPI PUSH1 0x40 MLOAD PUSH3 0x461BCD PUSH1 0xE5 SHL DUP2 MSTORE PUSH1 0x20 PUSH1 0x4 DUP3 ADD MSTORE PUSH1 0x21 PUSH1 0x24 DUP3 ADD MSTORE PUSH32 0x546865206C6173742062696420686173206265656E2077697468647261776564 PUSH1 0x44 DUP3 ADD MSTORE PUSH1 0x17 PUSH1 0xF9 SHL PUSH1 0x64 DUP3 ADD MSTORE PUSH1 0x84 ADD PUSH2 0x39B JUMP JUMPDEST DUP1 PUSH1 0x20 ADD MLOAD PUSH1 0x1 PUSH1 0x1 PUSH1 0xA0 SHL SUB AND CALLER PUSH1 0x1 PUSH1 0x1 PUSH1 0xA0 SHL SUB AND EQ PUSH2 0x518 JUMPI PUSH1 0x40 MLOAD PUSH3 0x461BCD PUSH1 0xE5 SHL DUP2 MSTORE PUSH1 0x20 PUSH1 0x4 DUP3 ADD MSTORE PUSH1 0x29 PUSH1 0x24 DUP3 ADD MSTORE PUSH32 0x53656E646572206973206E6F742074686520626964646572206F662074686520 PUSH1 0x44 DUP3 ADD MSTORE PUSH9 0x3630B9BA103134B217 PUSH1 0xB9 SHL PUSH1 0x64 DUP3 ADD MSTORE PUSH1 0x84 ADD PUSH2 0x39B JUMP JUMPDEST PUSH1 0x1 SLOAD PUSH1 0x20 DUP3 ADD MLOAD DUP3 MLOAD PUSH1 0x40 DUP1 DUP6 ADD MLOAD SWAP1 MLOAD PUSH4 0xB21E0009 PUSH1 0xE0 SHL DUP2 MSTORE PUSH1 0x1 PUSH1 0x1 PUSH1 0xA0 SHL SUB SWAP4 DUP5 AND PUSH1 0x4 DUP3 ADD MSTORE ADDRESS PUSH1 0x24 DUP3 ADD MSTORE PUSH4 0xFFFFFFFF SWAP1 SWAP3 AND PUSH1 0x44 DUP4 ADD MSTORE PUSH1 0x64 DUP3 ADD MSTORE SWAP2 AND SWAP1 DUP2 SWAP1 PUSH4 0xB21E0009 SWAP1 PUSH1 0x84 ADD PUSH0 PUSH1 0x40 MLOAD DUP1 DUP4 SUB DUP2 PUSH0 DUP8 DUP1 EXTCODESIZE ISZERO DUP1 ISZERO PUSH2 0x581 JUMPI PUSH0 DUP1 REVERT JUMPDEST POP GAS CALL ISZERO DUP1 ISZERO PUSH2 0x593 JUMPI RETURNDATASIZE PUSH0 DUP1 RETURNDATACOPY RETURNDATASIZE PUSH0 REVERT JUMPDEST POP POP PUSH1 0x12 SLOAD PUSH1 0x40 MLOAD PUSH4 0xFFFFFFFF SWAP1 SWAP2 AND DUP2 MSTORE ADDRESS SWAP3 POP CALLER SWAP2 POP PUSH32 0x47BF46FAD2760EE84D62606D8AF5800C9752761579FD146D2B8F9D4FA55512F8 SWAP1 PUSH1 0x20 ADD PUSH1 0x40 MLOAD DUP1 SWAP2 SUB SWAP1 LOG3 PUSH1 0x12 SLOAD PUSH1 0x1 SWAP1 PUSH1 0x11 SWAP1 PUSH0 SWAP1 PUSH2 0x5F4 SWAP1 DUP5 SWAP1 PUSH4 0xFFFFFFFF AND PUSH2 0x24E5 JUMP JUMPDEST PUSH4 0xFFFFFFFF AND DUP2 MSTORE PUSH1 0x20 DUP2 ADD SWAP2 SWAP1 SWAP2 MSTORE PUSH1 0x40 ADD PUSH0 KECCAK256 PUSH1 0x3 ADD DUP1 SLOAD PUSH1 0xFF NOT AND SWAP2 ISZERO ISZERO SWAP2 SWAP1 SWAP2 OR SWAP1 SSTORE POP POP JUMP JUMPDEST PUSH2 0x627 PUSH2 0x205F JUMP JUMPDEST PUSH1 0x40 DUP1 MLOAD PUSH1 0xA0 DUP2 ADD DUP3 MSTORE PUSH1 0x1 SLOAD PUSH1 0x1 PUSH1 0xA0 SHL SWAP1 DIV PUSH1 0xFF AND ISZERO ISZERO DUP2 MSTORE ADDRESS PUSH1 0x20 DUP3 ADD MSTORE DUP2 MLOAD PUSH2 0x1A0 DUP2 ADD DUP4 MSTORE PUSH1 0x2 DUP1 SLOAD SWAP3 SWAP4 DUP5 ADD SWAP3 DUP3 SWAP1 DUP3 SWAP1 PUSH2 0x667 SWAP1 PUSH2 0x2509 JUMP JUMPDEST DUP1 PUSH1 0x1F ADD PUSH1 0x20 DUP1 SWAP2 DIV MUL PUSH1 0x20 ADD PUSH1 0x40 MLOAD SWAP1 DUP2 ADD PUSH1 0x40 MSTORE DUP1 SWAP3 SWAP2 SWAP1 DUP2 DUP2 MSTORE PUSH1 0x20 ADD DUP3 DUP1 SLOAD PUSH2 0x693 SWAP1 PUSH2 0x2509 JUMP JUMPDEST DUP1 ISZERO PUSH2 0x6DE JUMPI DUP1 PUSH1 0x1F LT PUSH2 0x6B5 JUMPI PUSH2 0x100 DUP1 DUP4 SLOAD DIV MUL DUP4 MSTORE SWAP2 PUSH1 0x20 ADD SWAP2 PUSH2 0x6DE JUMP JUMPDEST DUP3 ADD SWAP2 SWAP1 PUSH0 MSTORE PUSH1 0x20 PUSH0 KECCAK256 SWAP1 JUMPDEST DUP2 SLOAD DUP2 MSTORE SWAP1 PUSH1 0x1 ADD SWAP1 PUSH1 0x20 ADD DUP1 DUP4 GT PUSH2 0x6C1 JUMPI DUP3 SWAP1 SUB PUSH1 0x1F AND DUP3 ADD SWAP2 JUMPDEST POP POP POP POP POP DUP2 MSTORE PUSH1 0x20 ADD PUSH1 0x1 DUP3 ADD DUP1 SLOAD PUSH2 0x6F7 SWAP1 PUSH2 0x2509 JUMP JUMPDEST DUP1 PUSH1 0x1F ADD PUSH1 0x20 DUP1 SWAP2 DIV MUL PUSH1 0x20 ADD PUSH1 0x40 MLOAD SWAP1 DUP2 ADD PUSH1 0x40 MSTORE DUP1 SWAP3 SWAP2 SWAP1 DUP2 DUP2 MSTORE PUSH1 0x20 ADD DUP3 DUP1 SLOAD PUSH2 0x723 SWAP1 PUSH2 0x2509 JUMP JUMPDEST DUP1 ISZERO PUSH2 0x76E JUMPI DUP1 PUSH1 0x1F LT PUSH2 0x745 JUMPI PUSH2 0x100 DUP1 DUP4 SLOAD DIV MUL DUP4 MSTORE SWAP2 PUSH1 0x20 ADD SWAP2 PUSH2 0x76E JUMP JUMPDEST DUP3 ADD SWAP2 SWAP1 PUSH0 MSTORE PUSH1 0x20 PUSH0 KECCAK256 SWAP1 JUMPDEST DUP2 SLOAD DUP2 MSTORE SWAP1 PUSH1 0x1 ADD SWAP1 PUSH1 0x20 ADD DUP1 DUP4 GT PUSH2 0x751 JUMPI DUP3 SWAP1 SUB PUSH1 0x1F AND DUP3 ADD SWAP2 JUMPDEST POP POP POP POP POP DUP2 MSTORE PUSH1 0x20 ADD PUSH1 0x2 DUP3 ADD DUP1 SLOAD PUSH2 0x787 SWAP1 PUSH2 0x2509 JUMP JUMPDEST DUP1 PUSH1 0x1F ADD PUSH1 0x20 DUP1 SWAP2 DIV MUL PUSH1 0x20 ADD PUSH1 0x40 MLOAD SWAP1 DUP2 ADD PUSH1 0x40 MSTORE DUP1 SWAP3 SWAP2 SWAP1 DUP2 DUP2 MSTORE PUSH1 0x20 ADD DUP3 DUP1 SLOAD PUSH2 0x7B3 SWAP1 PUSH2 0x2509 JUMP JUMPDEST DUP1 ISZERO PUSH2 0x7FE JUMPI DUP1 PUSH1 0x1F LT PUSH2 0x7D5 JUMPI PUSH2 0x100 DUP1 DUP4 SLOAD DIV MUL DUP4 MSTORE SWAP2 PUSH1 0x20 ADD SWAP2 PUSH2 0x7FE JUMP JUMPDEST DUP3 ADD SWAP2 SWAP1 PUSH0 MSTORE PUSH1 0x20 PUSH0 KECCAK256 SWAP1 JUMPDEST DUP2 SLOAD DUP2 MSTORE SWAP1 PUSH1 0x1 ADD SWAP1 PUSH1 0x20 ADD DUP1 DUP4 GT PUSH2 0x7E1 JUMPI DUP3 SWAP1 SUB PUSH1 0x1F AND DUP3 ADD SWAP2 JUMPDEST POP POP POP POP POP DUP2 MSTORE PUSH1 0x20 ADD PUSH1 0x3 DUP3 ADD DUP1 SLOAD PUSH2 0x817 SWAP1 PUSH2 0x2509 JUMP JUMPDEST DUP1 PUSH1 0x1F ADD PUSH1 0x20 DUP1 SWAP2 DIV MUL PUSH1 0x20 ADD PUSH1 0x40 MLOAD SWAP1 DUP2 ADD PUSH1 0x40 MSTORE DUP1 SWAP3 SWAP2 SWAP1 DUP2 DUP2 MSTORE PUSH1 0x20 ADD DUP3 DUP1 SLOAD PUSH2 0x843 SWAP1 PUSH2 0x2509 JUMP JUMPDEST DUP1 ISZERO PUSH2 0x88E JUMPI DUP1 PUSH1 0x1F LT PUSH2 0x865 JUMPI PUSH2 0x100 DUP1 DUP4 SLOAD DIV MUL DUP4 MSTORE SWAP2 PUSH1 0x20 ADD SWAP2 PUSH2 0x88E JUMP JUMPDEST DUP3 ADD SWAP2 SWAP1 PUSH0 MSTORE PUSH1 0x20 PUSH0 KECCAK256 SWAP1 JUMPDEST DUP2 SLOAD DUP2 MSTORE SWAP1 PUSH1 0x1 ADD SWAP1 PUSH1 0x20 ADD DUP1 DUP4 GT PUSH2 0x871 JUMPI DUP3 SWAP1 SUB PUSH1 0x1F AND DUP3 ADD SWAP2 JUMPDEST POP POP POP POP POP DUP2 MSTORE PUSH1 0x20 ADD PUSH1 0x4 DUP3 ADD DUP1 SLOAD PUSH2 0x8A7 SWAP1 PUSH2 0x2509 JUMP JUMPDEST DUP1 PUSH1 0x1F ADD PUSH1 0x20 DUP1 SWAP2 DIV MUL PUSH1 0x20 ADD PUSH1 0x40 MLOAD SWAP1 DUP2 ADD PUSH1 0x40 MSTORE DUP1 SWAP3 SWAP2 SWAP1 DUP2 DUP2 MSTORE PUSH1 0x20 ADD DUP3 DUP1 SLOAD PUSH2 0x8D3 SWAP1 PUSH2 0x2509 JUMP JUMPDEST DUP1 ISZERO PUSH2 0x91E JUMPI DUP1 PUSH1 0x1F LT PUSH2 0x8F5 JUMPI PUSH2 0x100 DUP1 DUP4 SLOAD DIV MUL DUP4 MSTORE SWAP2 PUSH1 0x20 ADD SWAP2 PUSH2 0x91E JUMP JUMPDEST DUP3 ADD SWAP2 SWAP1 PUSH0 MSTORE PUSH1 0x20 PUSH0 KECCAK256 SWAP1 JUMPDEST DUP2 SLOAD DUP2 MSTORE SWAP1 PUSH1 0x1 ADD SWAP1 PUSH1 0x20 ADD DUP1 DUP4 GT PUSH2 0x901 JUMPI DUP3 SWAP1 SUB PUSH1 0x1F AND DUP3 ADD SWAP2 JUMPDEST POP POP POP SWAP2 DUP4 MSTORE POP POP PUSH1 0x5 DUP3 ADD SLOAD PUSH2 0xFFFF AND PUSH1 0x20 DUP3 ADD MSTORE PUSH1 0x6 DUP3 ADD DUP1 SLOAD PUSH1 0x40 SWAP1 SWAP3 ADD SWAP2 PUSH2 0x949 SWAP1 PUSH2 0x2509 JUMP JUMPDEST DUP1 PUSH1 0x1F ADD PUSH1 0x20 DUP1 SWAP2 DIV MUL PUSH1 0x20 ADD PUSH1 0x40 MLOAD SWAP1 DUP2 ADD PUSH1 0x40 MSTORE DUP1 SWAP3 SWAP2 SWAP1 DUP2 DUP2 MSTORE PUSH1 0x20 ADD DUP3 DUP1 SLOAD PUSH2 0x975 SWAP1 PUSH2 0x2509 JUMP JUMPDEST DUP1 ISZERO PUSH2 0x9C0 JUMPI DUP1 PUSH1 0x1F LT PUSH2 0x997 JUMPI PUSH2 0x100 DUP1 DUP4 SLOAD DIV MUL DUP4 MSTORE SWAP2 PUSH1 0x20 ADD SWAP2 PUSH2 0x9C0 JUMP JUMPDEST DUP3 ADD SWAP2 SWAP1 PUSH0 MSTORE PUSH1 0x20 PUSH0 KECCAK256 SWAP1 JUMPDEST DUP2 SLOAD DUP2 MSTORE SWAP1 PUSH1 0x1 ADD SWAP1 PUSH1 0x20 ADD DUP1 DUP4 GT PUSH2 0x9A3 JUMPI DUP3 SWAP1 SUB PUSH1 0x1F AND DUP3 ADD SWAP2 JUMPDEST POP POP POP POP POP DUP2 MSTORE PUSH1 0x20 ADD PUSH1 0x7 DUP3 ADD DUP1 SLOAD PUSH2 0x9D9 SWAP1 PUSH2 0x2509 JUMP JUMPDEST DUP1 PUSH1 0x1F ADD PUSH1 0x20 DUP1 SWAP2 DIV MUL PUSH1 0x20 ADD PUSH1 0x40 MLOAD SWAP1 DUP2 ADD PUSH1 0x40 MSTORE DUP1 SWAP3 SWAP2 SWAP1 DUP2 DUP2 MSTORE PUSH1 0x20 ADD DUP3 DUP1 SLOAD PUSH2 0xA05 SWAP1 PUSH2 0x2509 JUMP JUMPDEST DUP1 ISZERO PUSH2 0xA50 JUMPI DUP1 PUSH1 0x1F LT PUSH2 0xA27 JUMPI PUSH2 0x100 DUP1 DUP4 SLOAD DIV MUL DUP4 MSTORE SWAP2 PUSH1 0x20 ADD SWAP2 PUSH2 0xA50 JUMP JUMPDEST DUP3 ADD SWAP2 SWAP1 PUSH0 MSTORE PUSH1 0x20 PUSH0 KECCAK256 SWAP1 JUMPDEST DUP2 SLOAD DUP2 MSTORE SWAP1 PUSH1 0x1 ADD SWAP1 PUSH1 0x20 ADD DUP1 DUP4 GT PUSH2 0xA33 JUMPI DUP3 SWAP1 SUB PUSH1 0x1F AND DUP3 ADD SWAP2 JUMPDEST POP POP POP POP POP DUP2 MSTORE PUSH1 0x20 ADD PUSH1 0x8 DUP3 ADD DUP1 SLOAD PUSH2 0xA69 SWAP1 PUSH2 0x2509 JUMP JUMPDEST DUP1 PUSH1 0x1F ADD PUSH1 0x20 DUP1 SWAP2 DIV MUL PUSH1 0x20 ADD PUSH1 0x40 MLOAD SWAP1 DUP2 ADD PUSH1 0x40 MSTORE DUP1 SWAP3 SWAP2 SWAP1 DUP2 DUP2 MSTORE PUSH1 0x20 ADD DUP3 DUP1 SLOAD PUSH2 0xA95 SWAP1 PUSH2 0x2509 JUMP JUMPDEST DUP1 ISZERO PUSH2 0xAE0 JUMPI DUP1 PUSH1 0x1F LT PUSH2 0xAB7 JUMPI PUSH2 0x100 DUP1 DUP4 SLOAD DIV MUL DUP4 MSTORE SWAP2 PUSH1 0x20 ADD SWAP2 PUSH2 0xAE0 JUMP JUMPDEST DUP3 ADD SWAP2 SWAP1 PUSH0 MSTORE PUSH1 0x20 PUSH0 KECCAK256 SWAP1 JUMPDEST DUP2 SLOAD DUP2 MSTORE SWAP1 PUSH1 0x1 ADD SWAP1 PUSH1 0x20 ADD DUP1 DUP4 GT PUSH2 0xAC3 JUMPI DUP3 SWAP1 SUB PUSH1 0x1F AND DUP3 ADD SWAP2 JUMPDEST POP POP POP POP POP DUP2 MSTORE PUSH1 0x20 ADD PUSH1 0x9 DUP3 ADD DUP1 SLOAD PUSH2 0xAF9 SWAP1 PUSH2 0x2509 JUMP JUMPDEST DUP1 PUSH1 0x1F ADD PUSH1 0x20 DUP1 SWAP2 DIV MUL PUSH1 0x20 ADD PUSH1 0x40 MLOAD SWAP1 DUP2 ADD PUSH1 0x40 MSTORE DUP1 SWAP3 SWAP2 SWAP1 DUP2 DUP2 MSTORE PUSH1 0x20 ADD DUP3 DUP1 SLOAD PUSH2 0xB25 SWAP1 PUSH2 0x2509 JUMP JUMPDEST DUP1 ISZERO PUSH2 0xB70 JUMPI DUP1 PUSH1 0x1F LT PUSH2 0xB47 JUMPI PUSH2 0x100 DUP1 DUP4 SLOAD DIV MUL DUP4 MSTORE SWAP2 PUSH1 0x20 ADD SWAP2 PUSH2 0xB70 JUMP JUMPDEST DUP3 ADD SWAP2 SWAP1 PUSH0 MSTORE PUSH1 0x20 PUSH0 KECCAK256 SWAP1 JUMPDEST DUP2 SLOAD DUP2 MSTORE SWAP1 PUSH1 0x1 ADD SWAP1 PUSH1 0x20 ADD DUP1 DUP4 GT PUSH2 0xB53 JUMPI DUP3 SWAP1 SUB PUSH1 0x1F AND DUP3 ADD SWAP2 JUMPDEST POP POP POP POP POP DUP2 MSTORE PUSH1 0x20 ADD PUSH1 0xA DUP3 ADD DUP1 SLOAD PUSH2 0xB89 SWAP1 PUSH2 0x2509 JUMP JUMPDEST DUP1 PUSH1 0x1F ADD PUSH1 0x20 DUP1 SWAP2 DIV MUL PUSH1 0x20 ADD PUSH1 0x40 MLOAD SWAP1 DUP2 ADD PUSH1 0x40 MSTORE DUP1 SWAP3 SWAP2 SWAP1 DUP2 DUP2 MSTORE PUSH1 0x20 ADD DUP3 DUP1 SLOAD PUSH2 0xBB5 SWAP1 PUSH2 0x2509 JUMP JUMPDEST DUP1 ISZERO PUSH2 0xC00 JUMPI DUP1 PUSH1 0x1F LT PUSH2 0xBD7 JUMPI PUSH2 0x100 DUP1 DUP4 SLOAD DIV MUL DUP4 MSTORE SWAP2 PUSH1 0x20 ADD SWAP2 PUSH2 0xC00 JUMP JUMPDEST DUP3 ADD SWAP2 SWAP1 PUSH0 MSTORE PUSH1 0x20 PUSH0 KECCAK256 SWAP1 JUMPDEST DUP2 SLOAD DUP2 MSTORE SWAP1 PUSH1 0x1 ADD SWAP1 PUSH1 0x20 ADD DUP1 DUP4 GT PUSH2 0xBE3 JUMPI DUP3 SWAP1 SUB PUSH1 0x1F AND DUP3 ADD SWAP2 JUMPDEST POP POP POP SWAP2 DUP4 MSTORE POP POP PUSH1 0xB DUP3 ADD SLOAD PUSH4 0xFFFFFFFF AND PUSH1 0x20 DUP1 DUP4 ADD SWAP2 SWAP1 SWAP2 MSTORE PUSH1 0xC SWAP1 SWAP3 ADD SLOAD PUSH1 0x40 SWAP2 DUP3 ADD MSTORE SWAP2 DUP4 MSTORE PUSH1 0xF SLOAD DUP4 DUP3 ADD MSTORE PUSH1 0x10 DUP1 SLOAD DUP4 MLOAD DUP2 DUP5 MUL DUP2 ADD DUP5 ADD DUP6 MSTORE DUP2 DUP2 MSTORE SWAP5 SWAP1 SWAP4 ADD SWAP4 SWAP3 SWAP1 SWAP2 PUSH0 SWAP1 DUP5 ADD JUMPDEST DUP3 DUP3 LT ISZERO PUSH2 0xCF9 JUMPI DUP4 DUP3 SWAP1 PUSH0 MSTORE PUSH1 0x20 PUSH0 KECCAK256 ADD DUP1 SLOAD PUSH2 0xC6E SWAP1 PUSH2 0x2509 JUMP JUMPDEST DUP1 PUSH1 0x1F ADD PUSH1 0x20 DUP1 SWAP2 DIV MUL PUSH1 0x20 ADD PUSH1 0x40 MLOAD SWAP1 DUP2 ADD PUSH1 0x40 MSTORE DUP1 SWAP3 SWAP2 SWAP1 DUP2 DUP2 MSTORE PUSH1 0x20 ADD DUP3 DUP1 SLOAD PUSH2 0xC9A SWAP1 PUSH2 0x2509 JUMP JUMPDEST DUP1 ISZERO PUSH2 0xCE5 JUMPI DUP1 PUSH1 0x1F LT PUSH2 0xCBC JUMPI PUSH2 0x100 DUP1 DUP4 SLOAD DIV MUL DUP4 MSTORE SWAP2 PUSH1 0x20 ADD SWAP2 PUSH2 0xCE5 JUMP JUMPDEST DUP3 ADD SWAP2 SWAP1 PUSH0 MSTORE PUSH1 0x20 PUSH0 KECCAK256 SWAP1 JUMPDEST DUP2 SLOAD DUP2 MSTORE SWAP1 PUSH1 0x1 ADD SWAP1 PUSH1 0x20 ADD DUP1 DUP4 GT PUSH2 0xCC8 JUMPI DUP3 SWAP1 SUB PUSH1 0x1F AND DUP3 ADD SWAP2 JUMPDEST POP POP POP POP POP DUP2 MSTORE PUSH1 0x20 ADD SWAP1 PUSH1 0x1 ADD SWAP1 PUSH2 0xC51 JUMP JUMPDEST POP POP POP SWAP2 MSTORE POP SWAP2 SWAP1 POP JUMP JUMPDEST PUSH1 0x60 PUSH1 0x10 DUP1 SLOAD DUP1 PUSH1 0x20 MUL PUSH1 0x20 ADD PUSH1 0x40 MLOAD SWAP1 DUP2 ADD PUSH1 0x40 MSTORE DUP1 SWAP3 SWAP2 SWAP1 DUP2 DUP2 MSTORE PUSH1 0x20 ADD PUSH0 SWAP1 JUMPDEST DUP3 DUP3 LT ISZERO PUSH2 0xDCF JUMPI DUP4 DUP3 SWAP1 PUSH0 MSTORE PUSH1 0x20 PUSH0 KECCAK256 ADD DUP1 SLOAD PUSH2 0xD44 SWAP1 PUSH2 0x2509 JUMP JUMPDEST DUP1 PUSH1 0x1F ADD PUSH1 0x20 DUP1 SWAP2 DIV MUL PUSH1 0x20 ADD PUSH1 0x40 MLOAD SWAP1 DUP2 ADD PUSH1 0x40 MSTORE DUP1 SWAP3 SWAP2 SWAP1 DUP2 DUP2 MSTORE PUSH1 0x20 ADD DUP3 DUP1 SLOAD PUSH2 0xD70 SWAP1 PUSH2 0x2509 JUMP JUMPDEST DUP1 ISZERO PUSH2 0xDBB JUMPI DUP1 PUSH1 0x1F LT PUSH2 0xD92 JUMPI PUSH2 0x100 DUP1 DUP4 SLOAD DIV MUL DUP4 MSTORE SWAP2 PUSH1 0x20 ADD SWAP2 PUSH2 0xDBB JUMP JUMPDEST DUP3 ADD SWAP2 SWAP1 PUSH0 MSTORE PUSH1 0x20 PUSH0 KECCAK256 SWAP1 JUMPDEST DUP2 SLOAD DUP2 MSTORE SWAP1 PUSH1 0x1 ADD SWAP1 PUSH1 0x20 ADD DUP1 DUP4 GT PUSH2 0xD9E JUMPI DUP3 SWAP1 SUB PUSH1 0x1F AND DUP3 ADD SWAP2 JUMPDEST POP POP POP POP POP DUP2 MSTORE PUSH1 0x20 ADD SWAP1 PUSH1 0x1 ADD SWAP1 PUSH2 0xD27 JUMP JUMPDEST POP POP POP POP SWAP1 POP SWAP1 JUMP JUMPDEST PUSH0 SLOAD PUSH1 0x1 PUSH1 0x1 PUSH1 0xA0 SHL SUB AND CALLER EQ PUSH2 0xDED JUMPI PUSH0 DUP1 REVERT JUMPDEST PUSH1 0x1 DUP1 SLOAD SWAP2 ISZERO ISZERO PUSH1 0x1 PUSH1 0xA0 SHL MUL PUSH1 0xFF PUSH1 0xA0 SHL NOT SWAP1 SWAP3 AND SWAP2 SWAP1 SWAP2 OR SWAP1 SSTORE JUMP JUMPDEST PUSH0 SLOAD PUSH1 0x1 PUSH1 0x1 PUSH1 0xA0 SHL SUB AND CALLER EQ PUSH2 0xE20 JUMPI PUSH0 DUP1 REVERT JUMPDEST PUSH0 DUP1 SLOAD PUSH1 0x40 MLOAD PUSH1 0x1 PUSH1 0x1 PUSH1 0xA0 SHL SUB SWAP1 SWAP2 AND SWAP2 PUSH32 0xF8DF31144D9C2F0F6B59D69B8B98ABD5459D07F2742C4DF920B25AAE33C64820 SWAP2 LOG2 PUSH0 DUP1 SLOAD PUSH1 0x1 PUSH1 0x1 PUSH1 0xA0 SHL SUB NOT AND SWAP1 SSTORE JUMP JUMPDEST PUSH1 0x40 DUP1 MLOAD PUSH1 0xA0 DUP2 ADD DUP3 MSTORE PUSH0 DUP1 DUP3 MSTORE PUSH1 0x20 DUP3 ADD DUP2 SWAP1 MSTORE SWAP2 DUP2 ADD DUP3 SWAP1 MSTORE PUSH1 0x60 DUP2 ADD DUP3 SWAP1 MSTORE PUSH1 0x80 DUP2 ADD SWAP2 SWAP1 SWAP2 MSTORE PUSH1 0x12 SLOAD PUSH4 0xFFFFFFFF AND JUMPDEST PUSH4 0xFFFFFFFF DUP2 AND ISZERO PUSH2 0xF2C JUMPI DUP1 PUSH2 0xEB0 DUP2 PUSH2 0x253B JUMP JUMPDEST PUSH4 0xFFFFFFFF DUP2 DUP2 AND PUSH0 SWAP1 DUP2 MSTORE PUSH1 0x11 PUSH1 0x20 SWAP1 DUP2 MSTORE PUSH1 0x40 SWAP2 DUP3 SWAP1 KECCAK256 DUP3 MLOAD PUSH1 0xA0 DUP2 ADD DUP5 MSTORE DUP2 SLOAD SWAP5 DUP6 AND DUP2 MSTORE PUSH5 0x100000000 SWAP1 SWAP5 DIV PUSH1 0x1 PUSH1 0x1 PUSH1 0xA0 SHL SUB AND SWAP2 DUP5 ADD SWAP2 SWAP1 SWAP2 MSTORE PUSH1 0x1 DUP2 ADD SLOAD SWAP2 DUP4 ADD SWAP2 SWAP1 SWAP2 MSTORE PUSH1 0x2 DUP2 ADD SLOAD PUSH1 0x60 DUP4 ADD MSTORE PUSH1 0x3 ADD SLOAD PUSH1 0xFF AND ISZERO ISZERO PUSH1 0x80 DUP3 ADD DUP2 SWAP1 MSTORE SWAP2 SWAP4 POP SWAP2 POP PUSH2 0xF26 JUMPI SWAP3 SWAP2 POP POP JUMP JUMPDEST POP PUSH2 0xE9A JUMP JUMPDEST POP POP PUSH1 0x40 DUP1 MLOAD PUSH1 0xA0 DUP2 ADD DUP3 MSTORE PUSH0 DUP1 DUP3 MSTORE PUSH1 0x20 DUP3 ADD DUP2 SWAP1 MSTORE SWAP2 DUP2 ADD DUP3 SWAP1 MSTORE PUSH1 0x60 DUP2 ADD SWAP2 SWAP1 SWAP2 MSTORE PUSH1 0x1 PUSH1 0x80 DUP3 ADD MSTORE SWAP1 JUMP JUMPDEST DUP2 DUP1 CALLVALUE EQ PUSH2 0xFAB JUMPI PUSH1 0x40 MLOAD PUSH3 0x461BCD PUSH1 0xE5 SHL DUP2 MSTORE PUSH1 0x20 PUSH1 0x4 DUP3 ADD MSTORE PUSH1 0x19 PUSH1 0x24 DUP3 ADD MSTORE PUSH32 0x56616C7565206D75737420657175616C207175616E7469747900000000000000 PUSH1 0x44 DUP3 ADD MSTORE PUSH1 0x64 ADD PUSH2 0x39B JUMP JUMPDEST PUSH1 0x1 SLOAD PUSH1 0x1 PUSH1 0xA0 SHL SWAP1 DIV PUSH1 0xFF AND PUSH2 0xFD4 JUMPI PUSH1 0x40 MLOAD PUSH3 0x461BCD PUSH1 0xE5 SHL DUP2 MSTORE PUSH1 0x4 ADD PUSH2 0x39B SWAP1 PUSH2 0x2480 JUMP JUMPDEST PUSH0 SLOAD PUSH1 0x1 PUSH1 0x1 PUSH1 0xA0 SHL SUB AND CALLER SUB PUSH2 0xFE9 JUMPI PUSH0 DUP1 REVERT JUMPDEST PUSH1 0x40 DUP1 MLOAD PUSH1 0xA0 DUP2 ADD SWAP1 SWAP2 MSTORE PUSH1 0x12 SLOAD PUSH0 SWAP2 SWAP1 DUP2 SWAP1 PUSH2 0x100D SWAP1 PUSH4 0xFFFFFFFF AND PUSH1 0x1 PUSH2 0x2559 JUMP JUMPDEST PUSH4 0xFFFFFFFF SWAP1 DUP2 AND DUP3 MSTORE CALLER PUSH1 0x20 DUP1 DUP5 ADD SWAP2 SWAP1 SWAP2 MSTORE PUSH1 0x40 DUP1 DUP5 ADD DUP10 SWAP1 MSTORE PUSH1 0x60 DUP1 DUP6 ADD DUP10 SWAP1 MSTORE PUSH0 PUSH1 0x80 SWAP6 DUP7 ADD DUP2 SWAP1 MSTORE PUSH1 0x12 SLOAD DUP6 AND DUP2 MSTORE PUSH1 0x11 DUP5 MSTORE DUP3 DUP2 KECCAK256 DUP8 MLOAD DUP2 SLOAD SWAP6 DUP10 ADD MLOAD PUSH1 0x1 PUSH1 0x1 PUSH1 0xA0 SHL SUB AND PUSH5 0x100000000 MUL PUSH1 0x1 PUSH1 0x1 PUSH1 0xC0 SHL SUB NOT SWAP1 SWAP7 AND SWAP7 AND SWAP6 SWAP1 SWAP6 OR SWAP4 SWAP1 SWAP4 OR DUP5 SSTORE SWAP1 DUP6 ADD MLOAD PUSH1 0x1 DUP5 ADD SSTORE DUP5 ADD MLOAD PUSH1 0x2 DUP4 ADD SSTORE SWAP2 DUP4 ADD MLOAD PUSH1 0x3 SWAP1 SWAP2 ADD DUP1 SLOAD SWAP2 ISZERO ISZERO PUSH1 0xFF NOT SWAP1 SWAP3 AND SWAP2 SWAP1 SWAP2 OR SWAP1 SSTORE SWAP1 SWAP2 POP PUSH2 0x10AE PUSH2 0xE66 JUMP JUMPDEST SWAP1 POP PUSH8 0xDE0B6B3A7640000 CALLER BALANCE LT ISZERO PUSH2 0x1128 JUMPI PUSH2 0x10CB CALLER BALANCE PUSH2 0x1E82 JUMP JUMPDEST PUSH2 0x10D4 DUP7 PUSH2 0x1E82 JUMP JUMPDEST PUSH1 0x40 MLOAD PUSH1 0x20 ADD PUSH2 0x10E4 SWAP2 SWAP1 PUSH2 0x2576 JUMP JUMPDEST PUSH1 0x40 DUP1 MLOAD PUSH1 0x1F NOT DUP2 DUP5 SUB ADD DUP2 MSTORE SWAP1 DUP3 SWAP1 MSTORE PUSH2 0x1102 SWAP3 SWAP2 PUSH1 0x20 ADD PUSH2 0x2591 JUMP JUMPDEST PUSH1 0x40 DUP1 MLOAD PUSH1 0x1F NOT DUP2 DUP5 SUB ADD DUP2 MSTORE SWAP1 DUP3 SWAP1 MSTORE PUSH3 0x461BCD PUSH1 0xE5 SHL DUP3 MSTORE PUSH2 0x39B SWAP2 PUSH1 0x4 ADD PUSH2 0x25BF JUMP JUMPDEST DUP1 PUSH1 0x80 ADD MLOAD DUP1 ISZERO PUSH2 0x113A JUMPI POP PUSH1 0xF SLOAD DUP6 LT JUMPDEST ISZERO PUSH2 0x11A5 JUMPI PUSH1 0x40 MLOAD PUSH3 0x461BCD PUSH1 0xE5 SHL DUP2 MSTORE PUSH1 0x20 PUSH1 0x4 DUP3 ADD MSTORE PUSH1 0x35 PUSH1 0x24 DUP3 ADD MSTORE PUSH32 0x546865207175616E74697479206D75737420657175616C206F72206578636565 PUSH1 0x44 DUP3 ADD MSTORE PUSH21 0x32103A34329039BA30B93A34B73390383934B1B297 PUSH1 0x59 SHL PUSH1 0x64 DUP3 ADD MSTORE PUSH1 0x84 ADD PUSH2 0x39B JUMP JUMPDEST DUP1 PUSH1 0x80 ADD MLOAD ISZERO DUP1 ISZERO PUSH2 0x11FA JUMPI POP PUSH1 0x12 SLOAD PUSH1 0x11 SWAP1 PUSH0 SWAP1 PUSH2 0x11CC SWAP1 PUSH1 0x1 SWAP1 PUSH4 0xFFFFFFFF AND PUSH2 0x24E5 JUMP JUMPDEST PUSH4 0xFFFFFFFF AND DUP2 MSTORE PUSH1 0x20 DUP2 ADD SWAP2 SWAP1 SWAP2 MSTORE PUSH1 0x40 ADD PUSH0 KECCAK256 PUSH1 0x1 ADD SLOAD PUSH2 0x11F7 SWAP1 PUSH8 0x16345785D8A0000 PUSH2 0x25D1 JUMP JUMPDEST DUP6 LT JUMPDEST ISZERO PUSH2 0x1277 JUMPI PUSH1 0x40 MLOAD PUSH3 0x461BCD PUSH1 0xE5 SHL DUP2 MSTORE PUSH1 0x20 PUSH1 0x4 DUP3 ADD MSTORE PUSH1 0x41 PUSH1 0x24 DUP3 ADD MSTORE PUSH32 0x4E6577207175616E74697479206D757374206265206772656174657220746861 PUSH1 0x44 DUP3 ADD MSTORE PUSH32 0x6E207468652070726576696F7573206174206C6561737420302E31204B4C4159 PUSH1 0x64 DUP3 ADD MSTORE PUSH1 0x17 PUSH1 0xF9 SHL PUSH1 0x84 DUP3 ADD MSTORE PUSH1 0xA4 ADD PUSH2 0x39B JUMP JUMPDEST PUSH1 0x1 SLOAD PUSH1 0x40 MLOAD PUSH1 0x1 PUSH1 0x1 PUSH1 0xA0 SHL SUB SWAP1 SWAP2 AND SWAP1 CALLVALUE DUP1 ISZERO PUSH2 0x8FC MUL SWAP2 PUSH0 DUP2 DUP2 DUP2 DUP6 DUP9 DUP9 CALL SWAP4 POP POP POP POP ISZERO DUP1 ISZERO PUSH2 0x12AD JUMPI RETURNDATASIZE PUSH0 DUP1 RETURNDATACOPY RETURNDATASIZE PUSH0 REVERT JUMPDEST POP PUSH1 0x12 SLOAD PUSH1 0x40 DUP1 MLOAD PUSH4 0xFFFFFFFF SWAP1 SWAP3 AND DUP3 MSTORE PUSH1 0x20 DUP3 ADD DUP8 SWAP1 MSTORE CALLVALUE DUP3 DUP3 ADD MSTORE MLOAD ADDRESS SWAP2 CALLER SWAP2 PUSH32 0xD935FB49A37280D0444C7535FEA4A6F35F0E741795075668648BFDD008C7BE03 SWAP2 DUP2 SWAP1 SUB PUSH1 0x60 ADD SWAP1 LOG3 DUP1 PUSH1 0x80 ADD MLOAD PUSH2 0x13C0 JUMPI PUSH1 0x1 SLOAD PUSH1 0x20 DUP3 ADD MLOAD DUP3 MLOAD PUSH1 0x40 DUP1 DUP6 ADD MLOAD SWAP1 MLOAD PUSH4 0xB21E0009 PUSH1 0xE0 SHL DUP2 MSTORE PUSH1 0x1 PUSH1 0x1 PUSH1 0xA0 SHL SUB SWAP4 DUP5 AND PUSH1 0x4 DUP3 ADD MSTORE ADDRESS PUSH1 0x24 DUP3 ADD MSTORE PUSH4 0xFFFFFFFF SWAP1 SWAP3 AND PUSH1 0x44 DUP4 ADD MSTORE PUSH1 0x64 DUP3 ADD MSTORE SWAP2 AND SWAP1 DUP2 SWAP1 PUSH4 0xB21E0009 SWAP1 PUSH1 0x84 ADD PUSH0 PUSH1 0x40 MLOAD DUP1 DUP4 SUB DUP2 PUSH0 DUP8 DUP1 EXTCODESIZE ISZERO DUP1 ISZERO PUSH2 0x136C JUMPI PUSH0 DUP1 REVERT JUMPDEST POP GAS CALL ISZERO DUP1 ISZERO PUSH2 0x137E JUMPI RETURNDATASIZE PUSH0 DUP1 RETURNDATACOPY RETURNDATASIZE PUSH0 REVERT JUMPDEST POP POP POP POP PUSH1 0x1 PUSH1 0x11 PUSH0 PUSH1 0x1 DUP6 PUSH0 ADD MLOAD PUSH2 0x1397 SWAP2 SWAP1 PUSH2 0x24E5 JUMP JUMPDEST PUSH4 0xFFFFFFFF AND DUP2 MSTORE PUSH1 0x20 DUP2 ADD SWAP2 SWAP1 SWAP2 MSTORE PUSH1 0x40 ADD PUSH0 KECCAK256 PUSH1 0x3 ADD DUP1 SLOAD PUSH1 0xFF NOT AND SWAP2 ISZERO ISZERO SWAP2 SWAP1 SWAP2 OR SWAP1 SSTORE POP JUMPDEST PUSH1 0x12 DUP1 SLOAD PUSH4 0xFFFFFFFF AND SWAP1 PUSH0 PUSH2 0x13D5 DUP4 PUSH2 0x25E4 JUMP JUMPDEST SWAP2 SWAP1 PUSH2 0x100 EXP DUP2 SLOAD DUP2 PUSH4 0xFFFFFFFF MUL NOT AND SWAP1 DUP4 PUSH4 0xFFFFFFFF AND MUL OR SWAP1 SSTORE POP POP POP POP POP POP POP JUMP JUMPDEST PUSH1 0x12 SLOAD PUSH1 0x60 SWAP1 PUSH0 SWAP1 PUSH4 0xFFFFFFFF AND PUSH8 0xFFFFFFFFFFFFFFFF DUP2 GT ISZERO PUSH2 0x1421 JUMPI PUSH2 0x1421 PUSH2 0x2606 JUMP JUMPDEST PUSH1 0x40 MLOAD SWAP1 DUP1 DUP3 MSTORE DUP1 PUSH1 0x20 MUL PUSH1 0x20 ADD DUP3 ADD PUSH1 0x40 MSTORE DUP1 ISZERO PUSH2 0x1478 JUMPI DUP2 PUSH1 0x20 ADD JUMPDEST PUSH1 0x40 DUP1 MLOAD PUSH1 0xA0 DUP2 ADD DUP3 MSTORE PUSH0 DUP1 DUP3 MSTORE PUSH1 0x20 DUP1 DUP4 ADD DUP3 SWAP1 MSTORE SWAP3 DUP3 ADD DUP2 SWAP1 MSTORE PUSH1 0x60 DUP3 ADD DUP2 SWAP1 MSTORE PUSH1 0x80 DUP3 ADD MSTORE DUP3 MSTORE PUSH0 NOT SWAP1 SWAP3 ADD SWAP2 ADD DUP2 PUSH2 0x143F JUMPI SWAP1 POP JUMPDEST POP SWAP1 POP PUSH0 JUMPDEST PUSH1 0x12 SLOAD PUSH4 0xFFFFFFFF SWAP1 DUP2 AND SWAP1 DUP3 AND LT ISZERO PUSH2 0x14E7 JUMPI DUP2 DUP2 PUSH4 0xFFFFFFFF AND DUP2 MLOAD DUP2 LT PUSH2 0x14A9 JUMPI PUSH2 0x14A9 PUSH2 0x261A JUMP JUMPDEST PUSH1 0x20 MUL PUSH1 0x20 ADD ADD MLOAD DUP3 DUP3 PUSH4 0xFFFFFFFF AND DUP2 MLOAD DUP2 LT PUSH2 0x14C9 JUMPI PUSH2 0x14C9 PUSH2 0x261A JUMP JUMPDEST PUSH1 0x20 MUL PUSH1 0x20 ADD ADD DUP2 SWAP1 MSTORE POP DUP1 DUP1 PUSH2 0x14DF SWAP1 PUSH2 0x25E4 JUMP JUMPDEST SWAP2 POP POP PUSH2 0x147D JUMP JUMPDEST POP SWAP2 SWAP1 POP JUMP JUMPDEST PUSH0 SLOAD PUSH1 0x1 PUSH1 0x1 PUSH1 0xA0 SHL SUB AND CALLER EQ PUSH2 0x1502 JUMPI PUSH0 DUP1 REVERT JUMPDEST PUSH0 PUSH2 0x150B PUSH2 0xE66 JUMP JUMPDEST SWAP1 POP DUP1 PUSH1 0x80 ADD MLOAD ISZERO PUSH2 0x1554 JUMPI PUSH1 0x40 MLOAD PUSH3 0x461BCD PUSH1 0xE5 SHL DUP2 MSTORE PUSH1 0x20 PUSH1 0x4 DUP3 ADD MSTORE PUSH1 0x12 PUSH1 0x24 DUP3 ADD MSTORE PUSH18 0x2737903134B239903A379039BAB136B4BA17 PUSH1 0x71 SHL PUSH1 0x44 DUP3 ADD MSTORE PUSH1 0x64 ADD PUSH2 0x39B JUMP JUMPDEST PUSH1 0x1 SLOAD PUSH0 SLOAD PUSH1 0x20 DUP4 ADD MLOAD PUSH1 0x40 DUP1 DUP6 ADD MLOAD SWAP1 MLOAD PUSH4 0xE423AEB9 PUSH1 0xE0 SHL DUP2 MSTORE PUSH1 0x1 PUSH1 0x1 PUSH1 0xA0 SHL SUB SWAP4 DUP5 AND PUSH1 0x4 DUP3 ADD MSTORE SWAP2 DUP4 AND PUSH1 0x24 DUP4 ADD MSTORE ADDRESS PUSH1 0x44 DUP4 ADD MSTORE PUSH1 0x64 DUP3 ADD MSTORE SWAP2 AND SWAP1 DUP2 SWAP1 PUSH4 0xE423AEB9 SWAP1 PUSH1 0x84 ADD PUSH0 PUSH1 0x40 MLOAD DUP1 DUP4 SUB DUP2 PUSH0 DUP8 DUP1 EXTCODESIZE ISZERO DUP1 ISZERO PUSH2 0x15B8 JUMPI PUSH0 DUP1 REVERT JUMPDEST POP GAS CALL ISZERO DUP1 ISZERO PUSH2 0x15CA JUMPI RETURNDATASIZE PUSH0 DUP1 RETURNDATACOPY RETURNDATASIZE PUSH0 REVERT JUMPDEST POP POP PUSH1 0x1 DUP1 SLOAD PUSH1 0xFF PUSH1 0xA0 SHL NOT AND SWAP1 SSTORE POP POP PUSH1 0x20 DUP3 ADD MLOAD PUSH2 0x15E9 DUP2 PUSH2 0x1D3A JUMP JUMPDEST PUSH1 0x12 SLOAD PUSH32 0x467F63626EE88AC9096115F006478E3ABE180BB37FB42A95178AD4B1BC7F2372 SWAP1 ADDRESS SWAP1 DUP4 SWAP1 PUSH1 0x11 SWAP1 PUSH0 SWAP1 PUSH2 0x1629 SWAP1 PUSH1 0x1 SWAP1 PUSH4 0xFFFFFFFF AND PUSH2 0x24E5 JUMP JUMPDEST PUSH4 0xFFFFFFFF AND DUP2 MSTORE PUSH1 0x20 DUP1 DUP3 ADD SWAP3 SWAP1 SWAP3 MSTORE PUSH1 0x40 SWAP1 DUP2 ADD PUSH0 KECCAK256 PUSH1 0x1 ADD SLOAD DUP2 MLOAD PUSH1 0x1 PUSH1 0x1 PUSH1 0xA0 SHL SUB SWAP6 DUP7 AND DUP2 MSTORE SWAP5 SWAP1 SWAP4 AND SWAP2 DUP5 ADD SWAP2 SWAP1 SWAP2 MSTORE DUP3 ADD MSTORE PUSH1 0x60 ADD PUSH1 0x40 MLOAD DUP1 SWAP2 SUB SWAP1 LOG1 PUSH0 JUMPDEST PUSH1 0x12 SLOAD PUSH4 0xFFFFFFFF SWAP1 DUP2 AND SWAP1 DUP3 AND LT ISZERO PUSH2 0x16D1 JUMPI PUSH4 0xFFFFFFFF DUP2 AND PUSH0 SWAP1 DUP2 MSTORE PUSH1 0x11 PUSH1 0x20 MSTORE PUSH1 0x40 DUP2 KECCAK256 DUP1 SLOAD PUSH1 0x1 PUSH1 0x1 PUSH1 0xC0 SHL SUB NOT AND DUP2 SSTORE PUSH1 0x1 DUP2 ADD DUP3 SWAP1 SSTORE PUSH1 0x2 DUP2 ADD SWAP2 SWAP1 SWAP2 SSTORE PUSH1 0x3 ADD DUP1 SLOAD PUSH1 0xFF NOT AND SWAP1 SSTORE DUP1 PUSH2 0x16C9 DUP2 PUSH2 0x25E4 JUMP JUMPDEST SWAP2 POP POP PUSH2 0x166F JUMP JUMPDEST POP POP PUSH1 0x12 DUP1 SLOAD PUSH4 0xFFFFFFFF NOT AND SWAP1 SSTORE POP POP JUMP JUMPDEST PUSH1 0x1 SLOAD PUSH1 0x40 MLOAD PUSH4 0x935E01B PUSH1 0xE2 SHL DUP2 MSTORE CALLER PUSH1 0x4 DUP3 ADD MSTORE PUSH1 0x1 PUSH1 0x1 PUSH1 0xA0 SHL SUB SWAP1 SWAP2 AND SWAP1 DUP2 SWAP1 PUSH4 0x24D7806C SWAP1 PUSH1 0x24 ADD PUSH0 PUSH1 0x40 MLOAD DUP1 DUP4 SUB DUP2 DUP7 DUP1 EXTCODESIZE ISZERO DUP1 ISZERO PUSH2 0x1727 JUMPI PUSH0 DUP1 REVERT JUMPDEST POP GAS STATICCALL ISZERO DUP1 ISZERO PUSH2 0x1739 JUMPI RETURNDATASIZE PUSH0 DUP1 RETURNDATACOPY RETURNDATASIZE PUSH0 REVERT JUMPDEST POP POP PUSH1 0x1 DUP1 SLOAD PUSH1 0xFF PUSH1 0xA8 SHL NOT AND PUSH1 0x1 PUSH1 0xA8 SHL OR SWAP1 SSTORE POP POP POP JUMP JUMPDEST PUSH2 0x175B PUSH2 0x2090 JUMP JUMPDEST PUSH1 0x2 PUSH1 0x40 MLOAD DUP1 PUSH2 0x1A0 ADD PUSH1 0x40 MSTORE SWAP1 DUP2 PUSH0 DUP3 ADD DUP1 SLOAD PUSH2 0x1778 SWAP1 PUSH2 0x2509 JUMP JUMPDEST DUP1 PUSH1 0x1F ADD PUSH1 0x20 DUP1 SWAP2 DIV MUL PUSH1 0x20 ADD PUSH1 0x40 MLOAD SWAP1 DUP2 ADD PUSH1 0x40 MSTORE DUP1 SWAP3 SWAP2 SWAP1 DUP2 DUP2 MSTORE PUSH1 0x20 ADD DUP3 DUP1 SLOAD PUSH2 0x17A4 SWAP1 PUSH2 0x2509 JUMP JUMPDEST DUP1 ISZERO PUSH2 0x17EF JUMPI DUP1 PUSH1 0x1F LT PUSH2 0x17C6 JUMPI PUSH2 0x100 DUP1 DUP4 SLOAD DIV MUL DUP4 MSTORE SWAP2 PUSH1 0x20 ADD SWAP2 PUSH2 0x17EF JUMP JUMPDEST DUP3 ADD SWAP2 SWAP1 PUSH0 MSTORE PUSH1 0x20 PUSH0 KECCAK256 SWAP1 JUMPDEST DUP2 SLOAD DUP2 MSTORE SWAP1 PUSH1 0x1 ADD SWAP1 PUSH1 0x20 ADD DUP1 DUP4 GT PUSH2 0x17D2 JUMPI DUP3 SWAP1 SUB PUSH1 0x1F AND DUP3 ADD SWAP2 JUMPDEST POP POP POP POP POP DUP2 MSTORE PUSH1 0x20 ADD PUSH1 0x1 DUP3 ADD DUP1 SLOAD PUSH2 0x1808 SWAP1 PUSH2 0x2509 JUMP JUMPDEST DUP1 PUSH1 0x1F ADD PUSH1 0x20 DUP1 SWAP2 DIV MUL PUSH1 0x20 ADD PUSH1 0x40 MLOAD SWAP1 DUP2 ADD PUSH1 0x40 MSTORE DUP1 SWAP3 SWAP2 SWAP1 DUP2 DUP2 MSTORE PUSH1 0x20 ADD DUP3 DUP1 SLOAD PUSH2 0x1834 SWAP1 PUSH2 0x2509 JUMP JUMPDEST DUP1 ISZERO PUSH2 0x187F JUMPI DUP1 PUSH1 0x1F LT PUSH2 0x1856 JUMPI PUSH2 0x100 DUP1 DUP4 SLOAD DIV MUL DUP4 MSTORE SWAP2 PUSH1 0x20 ADD SWAP2 PUSH2 0x187F JUMP JUMPDEST DUP3 ADD SWAP2 SWAP1 PUSH0 MSTORE PUSH1 0x20 PUSH0 KECCAK256 SWAP1 JUMPDEST DUP2 SLOAD DUP2 MSTORE SWAP1 PUSH1 0x1 ADD SWAP1 PUSH1 0x20 ADD DUP1 DUP4 GT PUSH2 0x1862 JUMPI DUP3 SWAP1 SUB PUSH1 0x1F AND DUP3 ADD SWAP2 JUMPDEST POP POP POP POP POP DUP2 MSTORE PUSH1 0x20 ADD PUSH1 0x2 DUP3 ADD DUP1 SLOAD PUSH2 0x1898 SWAP1 PUSH2 0x2509 JUMP JUMPDEST DUP1 PUSH1 0x1F ADD PUSH1 0x20 DUP1 SWAP2 DIV MUL PUSH1 0x20 ADD PUSH1 0x40 MLOAD SWAP1 DUP2 ADD PUSH1 0x40 MSTORE DUP1 SWAP3 SWAP2 SWAP1 DUP2 DUP2 MSTORE PUSH1 0x20 ADD DUP3 DUP1 SLOAD PUSH2 0x18C4 SWAP1 PUSH2 0x2509 JUMP JUMPDEST DUP1 ISZERO PUSH2 0x190F JUMPI DUP1 PUSH1 0x1F LT PUSH2 0x18E6 JUMPI PUSH2 0x100 DUP1 DUP4 SLOAD DIV MUL DUP4 MSTORE SWAP2 PUSH1 0x20 ADD SWAP2 PUSH2 0x190F JUMP JUMPDEST DUP3 ADD SWAP2 SWAP1 PUSH0 MSTORE PUSH1 0x20 PUSH0 KECCAK256 SWAP1 JUMPDEST DUP2 SLOAD DUP2 MSTORE SWAP1 PUSH1 0x1 ADD SWAP1 PUSH1 0x20 ADD DUP1 DUP4 GT PUSH2 0x18F2 JUMPI DUP3 SWAP1 SUB PUSH1 0x1F AND DUP3 ADD SWAP2 JUMPDEST POP POP POP POP POP DUP2 MSTORE PUSH1 0x20 ADD PUSH1 0x3 DUP3 ADD DUP1 SLOAD PUSH2 0x1928 SWAP1 PUSH2 0x2509 JUMP JUMPDEST DUP1 PUSH1 0x1F ADD PUSH1 0x20 DUP1 SWAP2 DIV MUL PUSH1 0x20 ADD PUSH1 0x40 MLOAD SWAP1 DUP2 ADD PUSH1 0x40 MSTORE DUP1 SWAP3 SWAP2 SWAP1 DUP2 DUP2 MSTORE PUSH1 0x20 ADD DUP3 DUP1 SLOAD PUSH2 0x1954 SWAP1 PUSH2 0x2509 JUMP JUMPDEST DUP1 ISZERO PUSH2 0x199F JUMPI DUP1 PUSH1 0x1F LT PUSH2 0x1976 JUMPI PUSH2 0x100 DUP1 DUP4 SLOAD DIV MUL DUP4 MSTORE SWAP2 PUSH1 0x20 ADD SWAP2 PUSH2 0x199F JUMP JUMPDEST DUP3 ADD SWAP2 SWAP1 PUSH0 MSTORE PUSH1 0x20 PUSH0 KECCAK256 SWAP1 JUMPDEST DUP2 SLOAD DUP2 MSTORE SWAP1 PUSH1 0x1 ADD SWAP1 PUSH1 0x20 ADD DUP1 DUP4 GT PUSH2 0x1982 JUMPI DUP3 SWAP1 SUB PUSH1 0x1F AND DUP3 ADD SWAP2 JUMPDEST POP POP POP POP POP DUP2 MSTORE PUSH1 0x20 ADD PUSH1 0x4 DUP3 ADD DUP1 SLOAD PUSH2 0x19B8 SWAP1 PUSH2 0x2509 JUMP JUMPDEST DUP1 PUSH1 0x1F ADD PUSH1 0x20 DUP1 SWAP2 DIV MUL PUSH1 0x20 ADD PUSH1 0x40 MLOAD SWAP1 DUP2 ADD PUSH1 0x40 MSTORE DUP1 SWAP3 SWAP2 SWAP1 DUP2 DUP2 MSTORE PUSH1 0x20 ADD DUP3 DUP1 SLOAD PUSH2 0x19E4 SWAP1 PUSH2 0x2509 JUMP JUMPDEST DUP1 ISZERO PUSH2 0x1A2F JUMPI DUP1 PUSH1 0x1F LT PUSH2 0x1A06 JUMPI PUSH2 0x100 DUP1 DUP4 SLOAD DIV MUL DUP4 MSTORE SWAP2 PUSH1 0x20 ADD SWAP2 PUSH2 0x1A2F JUMP JUMPDEST DUP3 ADD SWAP2 SWAP1 PUSH0 MSTORE PUSH1 0x20 PUSH0 KECCAK256 SWAP1 JUMPDEST DUP2 SLOAD DUP2 MSTORE SWAP1 PUSH1 0x1 ADD SWAP1 PUSH1 0x20 ADD DUP1 DUP4 GT PUSH2 0x1A12 JUMPI DUP3 SWAP1 SUB PUSH1 0x1F AND DUP3 ADD SWAP2 JUMPDEST POP POP POP SWAP2 DUP4 MSTORE POP POP PUSH1 0x5 DUP3 ADD SLOAD PUSH2 0xFFFF AND PUSH1 0x20 DUP3 ADD MSTORE PUSH1 0x6 DUP3 ADD DUP1 SLOAD PUSH1 0x40 SWAP1 SWAP3 ADD SWAP2 PUSH2 0x1A5A SWAP1 PUSH2 0x2509 JUMP JUMPDEST DUP1 PUSH1 0x1F ADD PUSH1 0x20 DUP1 SWAP2 DIV MUL PUSH1 0x20 ADD PUSH1 0x40 MLOAD SWAP1 DUP2 ADD PUSH1 0x40 MSTORE DUP1 SWAP3 SWAP2 SWAP1 DUP2 DUP2 MSTORE PUSH1 0x20 ADD DUP3 DUP1 SLOAD PUSH2 0x1A86 SWAP1 PUSH2 0x2509 JUMP JUMPDEST DUP1 ISZERO PUSH2 0x1AD1 JUMPI DUP1 PUSH1 0x1F LT PUSH2 0x1AA8 JUMPI PUSH2 0x100 DUP1 DUP4 SLOAD DIV MUL DUP4 MSTORE SWAP2 PUSH1 0x20 ADD SWAP2 PUSH2 0x1AD1 JUMP JUMPDEST DUP3 ADD SWAP2 SWAP1 PUSH0 MSTORE PUSH1 0x20 PUSH0 KECCAK256 SWAP1 JUMPDEST DUP2 SLOAD DUP2 MSTORE SWAP1 PUSH1 0x1 ADD SWAP1 PUSH1 0x20 ADD DUP1 DUP4 GT PUSH2 0x1AB4 JUMPI DUP3 SWAP1 SUB PUSH1 0x1F AND DUP3 ADD SWAP2 JUMPDEST POP POP POP POP POP DUP2 MSTORE PUSH1 0x20 ADD PUSH1 0x7 DUP3 ADD DUP1 SLOAD PUSH2 0x1AEA SWAP1 PUSH2 0x2509 JUMP JUMPDEST DUP1 PUSH1 0x1F ADD PUSH1 0x20 DUP1 SWAP2 DIV MUL PUSH1 0x20 ADD PUSH1 0x40 MLOAD SWAP1 DUP2 ADD PUSH1 0x40 MSTORE DUP1 SWAP3 SWAP2 SWAP1 DUP2 DUP2 MSTORE PUSH1 0x20 ADD DUP3 DUP1 SLOAD PUSH2 0x1B16 SWAP1 PUSH2 0x2509 JUMP JUMPDEST DUP1 ISZERO PUSH2 0x1B61 JUMPI DUP1 PUSH1 0x1F LT PUSH2 0x1B38 JUMPI PUSH2 0x100 DUP1 DUP4 SLOAD DIV MUL DUP4 MSTORE SWAP2 PUSH1 0x20 ADD SWAP2 PUSH2 0x1B61 JUMP JUMPDEST DUP3 ADD SWAP2 SWAP1 PUSH0 MSTORE PUSH1 0x20 PUSH0 KECCAK256 SWAP1 JUMPDEST DUP2 SLOAD DUP2 MSTORE SWAP1 PUSH1 0x1 ADD SWAP1 PUSH1 0x20 ADD DUP1 DUP4 GT PUSH2 0x1B44 JUMPI DUP3 SWAP1 SUB PUSH1 0x1F AND DUP3 ADD SWAP2 JUMPDEST POP POP POP POP POP DUP2 MSTORE PUSH1 0x20 ADD PUSH1 0x8 DUP3 ADD DUP1 SLOAD PUSH2 0x1B7A SWAP1 PUSH2 0x2509 JUMP JUMPDEST DUP1 PUSH1 0x1F ADD PUSH1 0x20 DUP1 SWAP2 DIV MUL PUSH1 0x20 ADD PUSH1 0x40 MLOAD SWAP1 DUP2 ADD PUSH1 0x40 MSTORE DUP1 SWAP3 SWAP2 SWAP1 DUP2 DUP2 MSTORE PUSH1 0x20 ADD DUP3 DUP1 SLOAD PUSH2 0x1BA6 SWAP1 PUSH2 0x2509 JUMP JUMPDEST DUP1 ISZERO PUSH2 0x1BF1 JUMPI DUP1 PUSH1 0x1F LT PUSH2 0x1BC8 JUMPI PUSH2 0x100 DUP1 DUP4 SLOAD DIV MUL DUP4 MSTORE SWAP2 PUSH1 0x20 ADD SWAP2 PUSH2 0x1BF1 JUMP JUMPDEST DUP3 ADD SWAP2 SWAP1 PUSH0 MSTORE PUSH1 0x20 PUSH0 KECCAK256 SWAP1 JUMPDEST DUP2 SLOAD DUP2 MSTORE SWAP1 PUSH1 0x1 ADD SWAP1 PUSH1 0x20 ADD DUP1 DUP4 GT PUSH2 0x1BD4 JUMPI DUP3 SWAP1 SUB PUSH1 0x1F AND DUP3 ADD SWAP2 JUMPDEST POP POP POP POP POP DUP2 MSTORE PUSH1 0x20 ADD PUSH1 0x9 DUP3 ADD DUP1 SLOAD PUSH2 0x1C0A SWAP1 PUSH2 0x2509 JUMP JUMPDEST DUP1 PUSH1 0x1F ADD PUSH1 0x20 DUP1 SWAP2 DIV MUL PUSH1 0x20 ADD PUSH1 0x40 MLOAD SWAP1 DUP2 ADD PUSH1 0x40 MSTORE DUP1 SWAP3 SWAP2 SWAP1 DUP2 DUP2 MSTORE PUSH1 0x20 ADD DUP3 DUP1 SLOAD PUSH2 0x1C36 SWAP1 PUSH2 0x2509 JUMP JUMPDEST DUP1 ISZERO PUSH2 0x1C81 JUMPI DUP1 PUSH1 0x1F LT PUSH2 0x1C58 JUMPI PUSH2 0x100 DUP1 DUP4 SLOAD DIV MUL DUP4 MSTORE SWAP2 PUSH1 0x20 ADD SWAP2 PUSH2 0x1C81 JUMP JUMPDEST DUP3 ADD SWAP2 SWAP1 PUSH0 MSTORE PUSH1 0x20 PUSH0 KECCAK256 SWAP1 JUMPDEST DUP2 SLOAD DUP2 MSTORE SWAP1 PUSH1 0x1 ADD SWAP1 PUSH1 0x20 ADD DUP1 DUP4 GT PUSH2 0x1C64 JUMPI DUP3 SWAP1 SUB PUSH1 0x1F AND DUP3 ADD SWAP2 JUMPDEST POP POP POP POP POP DUP2 MSTORE PUSH1 0x20 ADD PUSH1 0xA DUP3 ADD DUP1 SLOAD PUSH2 0x1C9A SWAP1 PUSH2 0x2509 JUMP JUMPDEST DUP1 PUSH1 0x1F ADD PUSH1 0x20 DUP1 SWAP2 DIV MUL PUSH1 0x20 ADD PUSH1 0x40 MLOAD SWAP1 DUP2 ADD PUSH1 0x40 MSTORE DUP1 SWAP3 SWAP2 SWAP1 DUP2 DUP2 MSTORE PUSH1 0x20 ADD DUP3 DUP1 SLOAD PUSH2 0x1CC6 SWAP1 PUSH2 0x2509 JUMP JUMPDEST DUP1 ISZERO PUSH2 0x1D11 JUMPI DUP1 PUSH1 0x1F LT PUSH2 0x1CE8 JUMPI PUSH2 0x100 DUP1 DUP4 SLOAD DIV MUL DUP4 MSTORE SWAP2 PUSH1 0x20 ADD SWAP2 PUSH2 0x1D11 JUMP JUMPDEST DUP3 ADD SWAP2 SWAP1 PUSH0 MSTORE PUSH1 0x20 PUSH0 KECCAK256 SWAP1 JUMPDEST DUP2 SLOAD DUP2 MSTORE SWAP1 PUSH1 0x1 ADD SWAP1 PUSH1 0x20 ADD DUP1 DUP4 GT PUSH2 0x1CF4 JUMPI DUP3 SWAP1 SUB PUSH1 0x1F AND DUP3 ADD SWAP2 JUMPDEST POP POP POP SWAP2 DUP4 MSTORE POP POP PUSH1 0xB DUP3 ADD SLOAD PUSH4 0xFFFFFFFF AND PUSH1 0x20 DUP3 ADD MSTORE PUSH1 0xC SWAP1 SWAP2 ADD SLOAD PUSH1 0x40 SWAP1 SWAP2 ADD MSTORE SWAP2 SWAP1 POP JUMP JUMPDEST PUSH0 SLOAD PUSH1 0x1 PUSH1 0x1 PUSH1 0xA0 SHL SUB AND CALLER EQ PUSH2 0x1D4F JUMPI PUSH0 DUP1 REVERT JUMPDEST PUSH2 0x1D58 DUP2 PUSH2 0x1F12 JUMP JUMPDEST POP JUMP JUMPDEST PUSH0 PUSH11 0x636F6E736F6C652E6C6F67 SWAP1 POP PUSH0 DUP1 DUP4 MLOAD PUSH1 0x20 DUP6 ADD DUP5 GAS STATICCALL POP POP POP JUMP JUMPDEST PUSH1 0x40 DUP1 MLOAD PUSH1 0xA0 DUP2 ADD DUP3 MSTORE PUSH0 DUP1 DUP3 MSTORE PUSH1 0x20 DUP3 ADD DUP2 SWAP1 MSTORE SWAP2 DUP2 ADD DUP3 SWAP1 MSTORE PUSH1 0x60 DUP2 ADD DUP3 SWAP1 MSTORE PUSH1 0x80 DUP2 ADD DUP3 SWAP1 MSTORE PUSH0 JUMPDEST PUSH1 0x12 SLOAD PUSH4 0xFFFFFFFF SWAP1 DUP2 AND SWAP1 DUP3 AND LT ISZERO PUSH2 0x1E66 JUMPI PUSH4 0xFFFFFFFF DUP2 AND PUSH0 SWAP1 DUP2 MSTORE PUSH1 0x11 PUSH1 0x20 MSTORE PUSH1 0x40 SWAP1 KECCAK256 SLOAD CALLER PUSH5 0x100000000 SWAP1 SWAP2 DIV PUSH1 0x1 PUSH1 0x1 PUSH1 0xA0 SHL SUB AND SUB PUSH2 0x1E54 JUMPI PUSH4 0xFFFFFFFF DUP2 DUP2 AND PUSH0 SWAP1 DUP2 MSTORE PUSH1 0x11 PUSH1 0x20 SWAP1 DUP2 MSTORE PUSH1 0x40 SWAP2 DUP3 SWAP1 KECCAK256 DUP3 MLOAD PUSH1 0xA0 DUP2 ADD DUP5 MSTORE DUP2 SLOAD SWAP5 DUP6 AND DUP2 MSTORE PUSH5 0x100000000 SWAP1 SWAP5 DIV PUSH1 0x1 PUSH1 0x1 PUSH1 0xA0 SHL SUB AND SWAP2 DUP5 ADD SWAP2 SWAP1 SWAP2 MSTORE PUSH1 0x1 DUP2 ADD SLOAD SWAP2 DUP4 ADD SWAP2 SWAP1 SWAP2 MSTORE PUSH1 0x2 DUP2 ADD SLOAD PUSH1 0x60 DUP4 ADD MSTORE PUSH1 0x3 ADD SLOAD PUSH1 0xFF AND ISZERO ISZERO PUSH1 0x80 DUP3 ADD MSTORE SWAP1 SWAP4 SWAP1 SWAP3 POP SWAP1 POP JUMP JUMPDEST DUP1 PUSH2 0x1E5E DUP2 PUSH2 0x25E4 JUMP JUMPDEST SWAP2 POP POP PUSH2 0x1DA5 JUMP JUMPDEST POP PUSH1 0x40 MLOAD PUSH4 0x7A42B479 PUSH1 0xE0 SHL DUP2 MSTORE CALLER PUSH1 0x4 DUP3 ADD MSTORE PUSH1 0x24 ADD PUSH2 0x39B JUMP JUMPDEST PUSH1 0x60 PUSH0 PUSH2 0x1E8E DUP4 PUSH2 0x1F7D JUMP JUMPDEST PUSH1 0x1 ADD SWAP1 POP PUSH0 DUP2 PUSH8 0xFFFFFFFFFFFFFFFF DUP2 GT ISZERO PUSH2 0x1EAD JUMPI PUSH2 0x1EAD PUSH2 0x2606 JUMP JUMPDEST PUSH1 0x40 MLOAD SWAP1 DUP1 DUP3 MSTORE DUP1 PUSH1 0x1F ADD PUSH1 0x1F NOT AND PUSH1 0x20 ADD DUP3 ADD PUSH1 0x40 MSTORE DUP1 ISZERO PUSH2 0x1ED7 JUMPI PUSH1 0x20 DUP3 ADD DUP2 DUP1 CALLDATASIZE DUP4 CALLDATACOPY ADD SWAP1 POP JUMPDEST POP SWAP1 POP DUP2 DUP2 ADD PUSH1 0x20 ADD JUMPDEST PUSH0 NOT ADD PUSH16 0x181899199A1A9B1B9C1CB0B131B232B3 PUSH1 0x81 SHL PUSH1 0xA DUP7 MOD BYTE DUP2 MSTORE8 PUSH1 0xA DUP6 DIV SWAP5 POP DUP5 PUSH2 0x1EE1 JUMPI POP SWAP4 SWAP3 POP POP POP JUMP JUMPDEST PUSH1 0x1 PUSH1 0x1 PUSH1 0xA0 SHL SUB DUP2 AND PUSH2 0x1F24 JUMPI PUSH0 DUP1 REVERT JUMPDEST PUSH0 DUP1 SLOAD PUSH1 0x40 MLOAD PUSH1 0x1 PUSH1 0x1 PUSH1 0xA0 SHL SUB DUP1 DUP6 AND SWAP4 SWAP3 AND SWAP2 PUSH32 0x8BE0079C531659141344CD1FD0A4F28419497F9722A3DAAFE3B4186F6B6457E0 SWAP2 LOG3 PUSH0 DUP1 SLOAD PUSH1 0x1 PUSH1 0x1 PUSH1 0xA0 SHL SUB NOT AND PUSH1 0x1 PUSH1 0x1 PUSH1 0xA0 SHL SUB SWAP3 SWAP1 SWAP3 AND SWAP2 SWAP1 SWAP2 OR SWAP1 SSTORE JUMP JUMPDEST PUSH0 DUP1 PUSH19 0x184F03E93FF9F4DAA797ED6E38ED64BF6A1F01 PUSH1 0x40 SHL DUP4 LT PUSH2 0x1FBB JUMPI PUSH19 0x184F03E93FF9F4DAA797ED6E38ED64BF6A1F01 PUSH1 0x40 SHL DUP4 DIV SWAP3 POP PUSH1 0x40 ADD JUMPDEST PUSH14 0x4EE2D6D415B85ACEF8100000000 DUP4 LT PUSH2 0x1FE7 JUMPI PUSH14 0x4EE2D6D415B85ACEF8100000000 DUP4 DIV SWAP3 POP PUSH1 0x20 ADD JUMPDEST PUSH7 0x2386F26FC10000 DUP4 LT PUSH2 0x2005 JUMPI PUSH7 0x2386F26FC10000 DUP4 DIV SWAP3 POP PUSH1 0x10 ADD JUMPDEST PUSH4 0x5F5E100 DUP4 LT PUSH2 0x201D JUMPI PUSH4 0x5F5E100 DUP4 DIV SWAP3 POP PUSH1 0x8 ADD JUMPDEST PUSH2 0x2710 DUP4 LT PUSH2 0x2031 JUMPI PUSH2 0x2710 DUP4 DIV SWAP3 POP PUSH1 0x4 ADD JUMPDEST PUSH1 0x64 DUP4 LT PUSH2 0x2043 JUMPI PUSH1 0x64 DUP4 DIV SWAP3 POP PUSH1 0x2 ADD JUMPDEST PUSH1 0xA DUP4 LT PUSH2 0x204F JUMPI PUSH1 0x1 ADD JUMPDEST SWAP3 SWAP2 POP POP JUMP JUMPDEST PUSH2 0x205D PUSH2 0x262E JUMP JUMPDEST JUMP JUMPDEST PUSH1 0x40 DUP1 MLOAD PUSH1 0xA0 DUP2 ADD DUP3 MSTORE PUSH0 DUP1 DUP3 MSTORE PUSH1 0x20 DUP3 ADD MSTORE SWAP1 DUP2 ADD PUSH2 0x207D PUSH2 0x2090 JUMP JUMPDEST DUP2 MSTORE PUSH1 0x20 ADD PUSH0 DUP2 MSTORE PUSH1 0x20 ADD PUSH1 0x60 DUP2 MSTORE POP SWAP1 JUMP JUMPDEST PUSH1 0x40 MLOAD DUP1 PUSH2 0x1A0 ADD PUSH1 0x40 MSTORE DUP1 PUSH1 0x60 DUP2 MSTORE PUSH1 0x20 ADD PUSH1 0x60 DUP2 MSTORE PUSH1 0x20 ADD PUSH1 0x60 DUP2 MSTORE PUSH1 0x20 ADD PUSH1 0x60 DUP2 MSTORE PUSH1 0x20 ADD PUSH1 0x60 DUP2 MSTORE PUSH1 0x20 ADD PUSH0 PUSH2 0xFFFF AND DUP2 MSTORE PUSH1 0x20 ADD PUSH1 0x60 DUP2 MSTORE PUSH1 0x20 ADD PUSH1 0x60 DUP2 MSTORE PUSH1 0x20 ADD PUSH1 0x60 DUP2 MSTORE PUSH1 0x20 ADD PUSH1 0x60 DUP2 MSTORE PUSH1 0x20 ADD PUSH1 0x60 DUP2 MSTORE PUSH1 0x20 ADD PUSH0 PUSH4 0xFFFFFFFF AND DUP2 MSTORE PUSH1 0x20 ADD PUSH0 DUP2 MSTORE POP SWAP1 JUMP JUMPDEST PUSH0 PUSH1 0x20 DUP3 DUP5 SUB SLT ISZERO PUSH2 0x210F JUMPI PUSH0 DUP1 REVERT JUMPDEST DUP2 CALLDATALOAD PUSH1 0x1 PUSH1 0x1 PUSH1 0xA0 SHL SUB DUP2 AND DUP2 EQ PUSH2 0x2125 JUMPI PUSH0 DUP1 REVERT JUMPDEST SWAP4 SWAP3 POP POP POP JUMP JUMPDEST PUSH0 JUMPDEST DUP4 DUP2 LT ISZERO PUSH2 0x2146 JUMPI DUP2 DUP2 ADD MLOAD DUP4 DUP3 ADD MSTORE PUSH1 0x20 ADD PUSH2 0x212E JUMP JUMPDEST POP POP PUSH0 SWAP2 ADD MSTORE JUMP JUMPDEST PUSH0 DUP2 MLOAD DUP1 DUP5 MSTORE PUSH2 0x2165 DUP2 PUSH1 0x20 DUP7 ADD PUSH1 0x20 DUP7 ADD PUSH2 0x212C JUMP JUMPDEST PUSH1 0x1F ADD PUSH1 0x1F NOT AND SWAP3 SWAP1 SWAP3 ADD PUSH1 0x20 ADD SWAP3 SWAP2 POP POP JUMP JUMPDEST PUSH0 PUSH2 0x1A0 DUP3 MLOAD DUP2 DUP6 MSTORE PUSH2 0x218E DUP3 DUP7 ADD DUP3 PUSH2 0x214E JUMP JUMPDEST SWAP2 POP POP PUSH1 0x20 DUP4 ADD MLOAD DUP5 DUP3 SUB PUSH1 0x20 DUP7 ADD MSTORE PUSH2 0x21A8 DUP3 DUP3 PUSH2 0x214E JUMP JUMPDEST SWAP2 POP POP PUSH1 0x40 DUP4 ADD MLOAD DUP5 DUP3 SUB PUSH1 0x40 DUP7 ADD MSTORE PUSH2 0x21C2 DUP3 DUP3 PUSH2 0x214E JUMP JUMPDEST SWAP2 POP POP PUSH1 0x60 DUP4 ADD MLOAD DUP5 DUP3 SUB PUSH1 0x60 DUP7 ADD MSTORE PUSH2 0x21DC DUP3 DUP3 PUSH2 0x214E JUMP JUMPDEST SWAP2 POP POP PUSH1 0x80 DUP4 ADD MLOAD DUP5 DUP3 SUB PUSH1 0x80 DUP7 ADD MSTORE PUSH2 0x21F6 DUP3 DUP3 PUSH2 0x214E JUMP JUMPDEST SWAP2 POP POP PUSH1 0xA0 DUP4 ADD MLOAD PUSH2 0x220E PUSH1 0xA0 DUP7 ADD DUP3 PUSH2 0xFFFF AND SWAP1 MSTORE JUMP JUMPDEST POP PUSH1 0xC0 DUP4 ADD MLOAD DUP5 DUP3 SUB PUSH1 0xC0 DUP7 ADD MSTORE PUSH2 0x2226 DUP3 DUP3 PUSH2 0x214E JUMP JUMPDEST SWAP2 POP POP PUSH1 0xE0 DUP4 ADD MLOAD DUP5 DUP3 SUB PUSH1 0xE0 DUP7 ADD MSTORE PUSH2 0x2240 DUP3 DUP3 PUSH2 0x214E JUMP JUMPDEST SWAP2 POP POP PUSH2 0x100 DUP1 DUP5 ADD MLOAD DUP6 DUP4 SUB DUP3 DUP8 ADD MSTORE PUSH2 0x225B DUP4 DUP3 PUSH2 0x214E JUMP JUMPDEST SWAP3 POP POP POP PUSH2 0x120 DUP1 DUP5 ADD MLOAD DUP6 DUP4 SUB DUP3 DUP8 ADD MSTORE PUSH2 0x2277 DUP4 DUP3 PUSH2 0x214E JUMP JUMPDEST SWAP3 POP POP POP PUSH2 0x140 DUP1 DUP5 ADD MLOAD DUP6 DUP4 SUB DUP3 DUP8 ADD MSTORE PUSH2 0x2293 DUP4 DUP3 PUSH2 0x214E JUMP JUMPDEST SWAP3 POP POP POP PUSH2 0x160 DUP1 DUP5 ADD MLOAD PUSH2 0x22AF DUP3 DUP8 ADD DUP3 PUSH4 0xFFFFFFFF AND SWAP1 MSTORE JUMP JUMPDEST POP POP PUSH2 0x180 SWAP3 DUP4 ADD MLOAD SWAP4 SWAP1 SWAP3 ADD SWAP3 SWAP1 SWAP3 MSTORE SWAP2 SWAP1 POP JUMP JUMPDEST PUSH0 DUP3 DUP3 MLOAD DUP1 DUP6 MSTORE PUSH1 0x20 DUP1 DUP7 ADD SWAP6 POP DUP1 DUP3 PUSH1 0x5 SHL DUP5 ADD ADD DUP2 DUP7 ADD PUSH0 JUMPDEST DUP5 DUP2 LT ISZERO PUSH2 0x230E JUMPI PUSH1 0x1F NOT DUP7 DUP5 SUB ADD DUP10 MSTORE PUSH2 0x22FC DUP4 DUP4 MLOAD PUSH2 0x214E JUMP JUMPDEST SWAP9 DUP5 ADD SWAP9 SWAP3 POP SWAP1 DUP4 ADD SWAP1 PUSH1 0x1 ADD PUSH2 0x22E0 JUMP JUMPDEST POP SWAP1 SWAP8 SWAP7 POP POP POP POP POP POP POP JUMP JUMPDEST PUSH1 0x20 DUP2 MSTORE DUP2 MLOAD ISZERO ISZERO PUSH1 0x20 DUP3 ADD MSTORE PUSH1 0x1 DUP1 PUSH1 0xA0 SHL SUB PUSH1 0x20 DUP4 ADD MLOAD AND PUSH1 0x40 DUP3 ADD MSTORE PUSH0 PUSH1 0x40 DUP4 ADD MLOAD PUSH1 0xA0 PUSH1 0x60 DUP5 ADD MSTORE PUSH2 0x2354 PUSH1 0xC0 DUP5 ADD DUP3 PUSH2 0x2179 JUMP JUMPDEST SWAP1 POP PUSH1 0x60 DUP5 ADD MLOAD PUSH1 0x80 DUP5 ADD MSTORE PUSH1 0x80 DUP5 ADD MLOAD PUSH1 0x1F NOT DUP5 DUP4 SUB ADD PUSH1 0xA0 DUP6 ADD MSTORE PUSH2 0x237B DUP3 DUP3 PUSH2 0x22C5 JUMP JUMPDEST SWAP6 SWAP5 POP POP POP POP POP JUMP JUMPDEST PUSH1 0x20 DUP2 MSTORE PUSH0 PUSH2 0x2125 PUSH1 0x20 DUP4 ADD DUP5 PUSH2 0x22C5 JUMP JUMPDEST PUSH0 PUSH1 0x20 DUP3 DUP5 SUB SLT ISZERO PUSH2 0x23A6 JUMPI PUSH0 DUP1 REVERT JUMPDEST DUP2 CALLDATALOAD DUP1 ISZERO ISZERO DUP2 EQ PUSH2 0x2125 JUMPI PUSH0 DUP1 REVERT JUMPDEST DUP1 MLOAD PUSH4 0xFFFFFFFF AND DUP3 MSTORE PUSH1 0x20 DUP1 DUP3 ADD MLOAD PUSH1 0x1 PUSH1 0x1 PUSH1 0xA0 SHL SUB AND SWAP1 DUP4 ADD MSTORE PUSH1 0x40 DUP1 DUP3 ADD MLOAD SWAP1 DUP4 ADD MSTORE PUSH1 0x60 DUP1 DUP3 ADD MLOAD SWAP1 DUP4 ADD MSTORE PUSH1 0x80 SWAP1 DUP2 ADD MLOAD ISZERO ISZERO SWAP2 ADD MSTORE JUMP JUMPDEST PUSH1 0xA0 DUP2 ADD PUSH2 0x204F DUP3 DUP5 PUSH2 0x23B5 JUMP JUMPDEST PUSH0 DUP1 PUSH1 0x40 DUP4 DUP6 SUB SLT ISZERO PUSH2 0x2412 JUMPI PUSH0 DUP1 REVERT JUMPDEST POP POP DUP1 CALLDATALOAD SWAP3 PUSH1 0x20 SWAP1 SWAP2 ADD CALLDATALOAD SWAP2 POP JUMP JUMPDEST PUSH1 0x20 DUP1 DUP3 MSTORE DUP3 MLOAD DUP3 DUP3 ADD DUP2 SWAP1 MSTORE PUSH0 SWAP2 SWAP1 DUP5 DUP3 ADD SWAP1 PUSH1 0x40 DUP6 ADD SWAP1 DUP5 JUMPDEST DUP2 DUP2 LT ISZERO PUSH2 0x2462 JUMPI PUSH2 0x244F DUP4 DUP6 MLOAD PUSH2 0x23B5 JUMP JUMPDEST SWAP3 DUP5 ADD SWAP3 PUSH1 0xA0 SWAP3 SWAP1 SWAP3 ADD SWAP2 PUSH1 0x1 ADD PUSH2 0x243C JUMP JUMPDEST POP SWAP1 SWAP7 SWAP6 POP POP POP POP POP POP JUMP JUMPDEST PUSH1 0x20 DUP2 MSTORE PUSH0 PUSH2 0x2125 PUSH1 0x20 DUP4 ADD DUP5 PUSH2 0x2179 JUMP JUMPDEST PUSH1 0x20 DUP1 DUP3 MSTORE PUSH1 0x31 SWAP1 DUP3 ADD MSTORE PUSH32 0x546869732076656869636C6520636F6E747261637420686173206E6F74207374 PUSH1 0x40 DUP3 ADD MSTORE PUSH17 0x30B93A32B2103A34329030BAB1BA34B7B7 PUSH1 0x79 SHL PUSH1 0x60 DUP3 ADD MSTORE PUSH1 0x80 ADD SWAP1 JUMP JUMPDEST PUSH4 0x4E487B71 PUSH1 0xE0 SHL PUSH0 MSTORE PUSH1 0x11 PUSH1 0x4 MSTORE PUSH1 0x24 PUSH0 REVERT JUMPDEST PUSH4 0xFFFFFFFF DUP3 DUP2 AND DUP3 DUP3 AND SUB SWAP1 DUP1 DUP3 GT ISZERO PUSH2 0x2502 JUMPI PUSH2 0x2502 PUSH2 0x24D1 JUMP JUMPDEST POP SWAP3 SWAP2 POP POP JUMP JUMPDEST PUSH1 0x1 DUP2 DUP2 SHR SWAP1 DUP3 AND DUP1 PUSH2 0x251D JUMPI PUSH1 0x7F DUP3 AND SWAP2 POP JUMPDEST PUSH1 0x20 DUP3 LT DUP2 SUB PUSH2 0x14E7 JUMPI PUSH4 0x4E487B71 PUSH1 0xE0 SHL PUSH0 MSTORE PUSH1 0x22 PUSH1 0x4 MSTORE PUSH1 0x24 PUSH0 REVERT JUMPDEST PUSH0 PUSH4 0xFFFFFFFF DUP3 AND DUP1 PUSH2 0x2550 JUMPI PUSH2 0x2550 PUSH2 0x24D1 JUMP JUMPDEST PUSH0 NOT ADD SWAP3 SWAP2 POP POP JUMP JUMPDEST PUSH4 0xFFFFFFFF DUP2 DUP2 AND DUP4 DUP3 AND ADD SWAP1 DUP1 DUP3 GT ISZERO PUSH2 0x2502 JUMPI PUSH2 0x2502 PUSH2 0x24D1 JUMP JUMPDEST PUSH0 DUP3 MLOAD PUSH2 0x2587 DUP2 DUP5 PUSH1 0x20 DUP8 ADD PUSH2 0x212C JUMP JUMPDEST SWAP2 SWAP1 SWAP2 ADD SWAP3 SWAP2 POP POP JUMP JUMPDEST PUSH0 DUP4 MLOAD PUSH2 0x25A2 DUP2 DUP5 PUSH1 0x20 DUP9 ADD PUSH2 0x212C JUMP JUMPDEST DUP4 MLOAD SWAP1 DUP4 ADD SWAP1 PUSH2 0x25B6 DUP2 DUP4 PUSH1 0x20 DUP9 ADD PUSH2 0x212C JUMP JUMPDEST ADD SWAP5 SWAP4 POP POP POP POP JUMP JUMPDEST PUSH1 0x20 DUP2 MSTORE PUSH0 PUSH2 0x2125 PUSH1 0x20 DUP4 ADD DUP5 PUSH2 0x214E JUMP JUMPDEST DUP1 DUP3 ADD DUP1 DUP3 GT ISZERO PUSH2 0x204F JUMPI PUSH2 0x204F PUSH2 0x24D1 JUMP JUMPDEST PUSH0 PUSH4 0xFFFFFFFF DUP1 DUP4 AND DUP2 DUP2 SUB PUSH2 0x25FC JUMPI PUSH2 0x25FC PUSH2 0x24D1 JUMP JUMPDEST PUSH1 0x1 ADD SWAP4 SWAP3 POP POP POP JUMP JUMPDEST PUSH4 0x4E487B71 PUSH1 0xE0 SHL PUSH0 MSTORE PUSH1 0x41 PUSH1 0x4 MSTORE PUSH1 0x24 PUSH0 REVERT JUMPDEST PUSH4 0x4E487B71 PUSH1 0xE0 SHL PUSH0 MSTORE PUSH1 0x32 PUSH1 0x4 MSTORE PUSH1 0x24 PUSH0 REVERT JUMPDEST PUSH4 0x4E487B71 PUSH1 0xE0 SHL PUSH0 MSTORE PUSH1 0x51 PUSH1 0x4 MSTORE PUSH1 0x24 PUSH0 REVERT INVALID LOG2 PUSH5 0x6970667358 0x22 SLT KECCAK256 PUSH7 0x76C3C6A72EA999 0xAE SDIV PUSH24 0xC502785047A4EFF376046531DB5904F5E165068F9164736F PUSH13 0x634300081400334E6577205665 PUSH9 0x69636C6520436F6E74 PUSH19 0x61637420686173206265656E206465706C6F79 PUSH6 0x642EA2646970 PUSH7 0x73582212207324 0xBF PUSH26 0xE248F2693D5D61DC8ED723F22A2ECE9889B9105BA611AC77841C 0xC6 0xAE PUSH5 0x736F6C6343 STOP ADDMOD EQ STOP CALLER "
		},
		"gasEstimates": {
			"creation": {
				"codeDepositCost": "3760800",
				"executionCost": "28486",
				"totalCost": "3789286"
			},
			"external": {
				"createVehicle((string,string,string,string,string,uint16,string,string,string,string,string,uint32,uint256),uint256,string[])": "infinite",
				"deployedVehicles(uint256)": "4623",
				"getDeployedVehicleDatas()": "infinite",
				"getDeployedVehicles()": "infinite",
				"getOwnedDeployedVehicleDatas(address)": "infinite",
				"getOwnedDeployedVehicles(address)": "infinite",
				"isAdmin(address)": "infinite",
				"owner()": "2324",
				"payForOwner(address,address,address,uint256)": "infinite",
				"refundToAuctioneer(address,address,uint32,uint256)": "infinite",
				"renounceOwnership()": "29847",
				"transferOwnership(address)": "infinite"
			}
		},
		"methodIdentifiers": {
			"createVehicle((string,string,string,string,string,uint16,string,string,string,string,string,uint32,uint256),uint256,string[])": "f985e852",
			"deployedVehicles(uint256)": "45d34fef",
			"getDeployedVehicleDatas()": "f5fdcd5a",
			"getDeployedVehicles()": "4d2f3279",
			"getOwnedDeployedVehicleDatas(address)": "8d963170",
			"getOwnedDeployedVehicles(address)": "72938f0e",
			"isAdmin(address)": "24d7806c",
			"owner()": "8da5cb5b",
			"payForOwner(address,address,address,uint256)": "e423aeb9",
			"refundToAuctioneer(address,address,uint32,uint256)": "b21e0009",
			"renounceOwnership()": "715018a6",
			"transferOwnership(address)": "f2fde38b"
		}
	},
	"abi": [
		{
			"anonymous": false,
			"inputs": [
				{
					"indexed": true,
					"internalType": "address",
					"name": "ownerAddress",
					"type": "address"
				},
				{
					"indexed": true,
					"internalType": "address",
					"name": "contractAddress",
					"type": "address"
				}
			],
			"name": "CreateVehicle",
			"type": "event"
		},
		{
			"anonymous": false,
			"inputs": [
				{
					"indexed": true,
					"internalType": "address",
					"name": "previousOwner",
					"type": "address"
				}
			],
			"name": "OwnershipRenounced",
			"type": "event"
		},
		{
			"anonymous": false,
			"inputs": [
				{
					"indexed": true,
					"internalType": "address",
					"name": "previousOwner",
					"type": "address"
				},
				{
					"indexed": true,
					"internalType": "address",
					"name": "newOwner",
					"type": "address"
				}
			],
			"name": "OwnershipTransferred",
			"type": "event"
		},
		{
			"anonymous": false,
			"inputs": [
				{
					"indexed": true,
					"internalType": "address",
					"name": "oldOwnerAddress",
					"type": "address"
				},
				{
					"indexed": true,
					"internalType": "address",
					"name": "newOwnerAddress",
					"type": "address"
				},
				{
					"indexed": true,
					"internalType": "address",
					"name": "vehicleContractAddress",
					"type": "address"
				},
				{
					"indexed": false,
					"internalType": "uint256",
					"name": "quantity",
					"type": "uint256"
				}
			],
			"name": "PayForOwner",
			"type": "event"
		},
		{
			"anonymous": false,
			"inputs": [
				{
					"indexed": false,
					"internalType": "uint256",
					"name": "amount",
					"type": "uint256"
				}
			],
			"name": "ReceiveCalled",
			"type": "event"
		},
		{
			"anonymous": false,
			"inputs": [
				{
					"indexed": true,
					"internalType": "address",
					"name": "bidderAddress",
					"type": "address"
				},
				{
					"indexed": true,
					"internalType": "address",
					"name": "vehicleContractAddress",
					"type": "address"
				},
				{
					"indexed": false,
					"internalType": "uint32",
					"name": "index",
					"type": "uint32"
				},
				{
					"indexed": false,
					"internalType": "uint256",
					"name": "quantity",
					"type": "uint256"
				}
			],
			"name": "RefundToAuctioneer",
			"type": "event"
		},
		{
			"inputs": [
				{
					"components": [
						{
							"internalType": "string",
							"name": "ownerFullName",
							"type": "string"
						},
						{
							"internalType": "string",
							"name": "ownerAddress",
							"type": "string"
						},
						{
							"internalType": "string",
							"name": "brand",
							"type": "string"
						},
						{
							"internalType": "string",
							"name": "vehicleType",
							"type": "string"
						},
						{
							"internalType": "string",
							"name": "color",
							"type": "string"
						},
						{
							"internalType": "uint16",
							"name": "seatCapacity",
							"type": "uint16"
						},
						{
							"internalType": "string",
							"name": "origin",
							"type": "string"
						},
						{
							"internalType": "string",
							"name": "licensePlate",
							"type": "string"
						},
						{
							"internalType": "string",
							"name": "engineNumber",
							"type": "string"
						},
						{
							"internalType": "string",
							"name": "chassisNumber",
							"type": "string"
						},
						{
							"internalType": "string",
							"name": "modelCode",
							"type": "string"
						},
						{
							"internalType": "uint32",
							"name": "capacity",
							"type": "uint32"
						},
						{
							"internalType": "uint256",
							"name": "firstRegistrationDate",
							"type": "uint256"
						}
					],
					"internalType": "struct VehicleProperties",
					"name": "_props",
					"type": "tuple"
				},
				{
					"internalType": "uint256",
					"name": "_startingPrice",
					"type": "uint256"
				},
				{
					"internalType": "string[]",
					"name": "_vehicleImages",
					"type": "string[]"
				}
			],
			"name": "createVehicle",
			"outputs": [],
			"stateMutability": "nonpayable",
			"type": "function"
		},
		{
			"inputs": [
				{
					"internalType": "uint256",
					"name": "",
					"type": "uint256"
				}
			],
			"name": "deployedVehicles",
			"outputs": [
				{
					"internalType": "contract Vehicle",
					"name": "",
					"type": "address"
				}
			],
			"stateMutability": "view",
			"type": "function"
		},
		{
			"inputs": [],
			"name": "getDeployedVehicleDatas",
			"outputs": [
				{
					"components": [
						{
							"internalType": "bool",
							"name": "isStart",
							"type": "bool"
						},
						{
							"internalType": "address",
							"name": "vehicleAddress",
							"type": "address"
						},
						{
							"components": [
								{
									"internalType": "string",
									"name": "ownerFullName",
									"type": "string"
								},
								{
									"internalType": "string",
									"name": "ownerAddress",
									"type": "string"
								},
								{
									"internalType": "string",
									"name": "brand",
									"type": "string"
								},
								{
									"internalType": "string",
									"name": "vehicleType",
									"type": "string"
								},
								{
									"internalType": "string",
									"name": "color",
									"type": "string"
								},
								{
									"internalType": "uint16",
									"name": "seatCapacity",
									"type": "uint16"
								},
								{
									"internalType": "string",
									"name": "origin",
									"type": "string"
								},
								{
									"internalType": "string",
									"name": "licensePlate",
									"type": "string"
								},
								{
									"internalType": "string",
									"name": "engineNumber",
									"type": "string"
								},
								{
									"internalType": "string",
									"name": "chassisNumber",
									"type": "string"
								},
								{
									"internalType": "string",
									"name": "modelCode",
									"type": "string"
								},
								{
									"internalType": "uint32",
									"name": "capacity",
									"type": "uint32"
								},
								{
									"internalType": "uint256",
									"name": "firstRegistrationDate",
									"type": "uint256"
								}
							],
							"internalType": "struct VehicleProperties",
							"name": "props",
							"type": "tuple"
						},
						{
							"internalType": "uint256",
							"name": "startingPrice",
							"type": "uint256"
						},
						{
							"internalType": "string[]",
							"name": "vehicleImages",
							"type": "string[]"
						}
					],
					"internalType": "struct VehicleData[]",
					"name": "",
					"type": "tuple[]"
				}
			],
			"stateMutability": "view",
			"type": "function"
		},
		{
			"inputs": [],
			"name": "getDeployedVehicles",
			"outputs": [
				{
					"internalType": "contract Vehicle[]",
					"name": "",
					"type": "address[]"
				}
			],
			"stateMutability": "view",
			"type": "function"
		},
		{
			"inputs": [
				{
					"internalType": "address",
					"name": "ownerAddress",
					"type": "address"
				}
			],
			"name": "getOwnedDeployedVehicleDatas",
			"outputs": [
				{
					"components": [
						{
							"internalType": "bool",
							"name": "isStart",
							"type": "bool"
						},
						{
							"internalType": "address",
							"name": "vehicleAddress",
							"type": "address"
						},
						{
							"components": [
								{
									"internalType": "string",
									"name": "ownerFullName",
									"type": "string"
								},
								{
									"internalType": "string",
									"name": "ownerAddress",
									"type": "string"
								},
								{
									"internalType": "string",
									"name": "brand",
									"type": "string"
								},
								{
									"internalType": "string",
									"name": "vehicleType",
									"type": "string"
								},
								{
									"internalType": "string",
									"name": "color",
									"type": "string"
								},
								{
									"internalType": "uint16",
									"name": "seatCapacity",
									"type": "uint16"
								},
								{
									"internalType": "string",
									"name": "origin",
									"type": "string"
								},
								{
									"internalType": "string",
									"name": "licensePlate",
									"type": "string"
								},
								{
									"internalType": "string",
									"name": "engineNumber",
									"type": "string"
								},
								{
									"internalType": "string",
									"name": "chassisNumber",
									"type": "string"
								},
								{
									"internalType": "string",
									"name": "modelCode",
									"type": "string"
								},
								{
									"internalType": "uint32",
									"name": "capacity",
									"type": "uint32"
								},
								{
									"internalType": "uint256",
									"name": "firstRegistrationDate",
									"type": "uint256"
								}
							],
							"internalType": "struct VehicleProperties",
							"name": "props",
							"type": "tuple"
						},
						{
							"internalType": "uint256",
							"name": "startingPrice",
							"type": "uint256"
						},
						{
							"internalType": "string[]",
							"name": "vehicleImages",
							"type": "string[]"
						}
					],
					"internalType": "struct VehicleData[]",
					"name": "",
					"type": "tuple[]"
				}
			],
			"stateMutability": "view",
			"type": "function"
		},
		{
			"inputs": [
				{
					"internalType": "address",
					"name": "ownerAddress",
					"type": "address"
				}
			],
			"name": "getOwnedDeployedVehicles",
			"outputs": [
				{
					"internalType": "contract Vehicle[]",
					"name": "",
					"type": "address[]"
				}
			],
			"stateMutability": "view",
			"type": "function"
		},
		{
			"inputs": [
				{
					"internalType": "address",
					"name": "checkAddress",
					"type": "address"
				}
			],
			"name": "isAdmin",
			"outputs": [],
			"stateMutability": "view",
			"type": "function"
		},
		{
			"inputs": [],
			"name": "owner",
			"outputs": [
				{
					"internalType": "address",
					"name": "",
					"type": "address"
				}
			],
			"stateMutability": "view",
			"type": "function"
		},
		{
			"inputs": [
				{
					"internalType": "address",
					"name": "oldOwnerAddress",
					"type": "address"
				},
				{
					"internalType": "address",
					"name": "newOwnerAddress",
					"type": "address"
				},
				{
					"internalType": "address",
					"name": "vehicleContractAddress",
					"type": "address"
				},
				{
					"internalType": "uint256",
					"name": "quantity",
					"type": "uint256"
				}
			],
			"name": "payForOwner",
			"outputs": [],
			"stateMutability": "nonpayable",
			"type": "function"
		},
		{
			"inputs": [
				{
					"internalType": "address",
					"name": "previousAuctioneer",
					"type": "address"
				},
				{
					"internalType": "address",
					"name": "vehicleContractAddress",
					"type": "address"
				},
				{
					"internalType": "uint32",
					"name": "index",
					"type": "uint32"
				},
				{
					"internalType": "uint256",
					"name": "quantity",
					"type": "uint256"
				}
			],
			"name": "refundToAuctioneer",
			"outputs": [],
			"stateMutability": "nonpayable",
			"type": "function"
		},
		{
			"inputs": [],
			"name": "renounceOwnership",
			"outputs": [],
			"stateMutability": "nonpayable",
			"type": "function"
		},
		{
			"inputs": [
				{
					"internalType": "address",
					"name": "_newOwner",
					"type": "address"
				}
			],
			"name": "transferOwnership",
			"outputs": [],
			"stateMutability": "nonpayable",
			"type": "function"
		},
		{
			"stateMutability": "payable",
			"type": "receive"
		}
	]
}