{
	"data": {
		"bytecode": {
			"linkReferences": {},
			"object": "608060405234801562000010575f80fd5b5060405162002fdd38038062002fdd833981016040819052620000339162000519565b5f80546001600160a01b031916331790556040805160608101909152602780825262000069919062002fb66020830139620001f6565b600180546001600160a01b0319166001600160a01b038616179055825183906002908190620000999082620007f4565b5060208201516001820190620000b09082620007f4565b5060408201516002820190620000c79082620007f4565b5060608201516003820190620000de9082620007f4565b5060808201516004820190620000f59082620007f4565b5060a082015160058201805461ffff191661ffff90921691909117905560c08201516006820190620001289082620007f4565b5060e082015160078201906200013f9082620007f4565b506101008201516008820190620001579082620007f4565b5061012082015160098201906200016f9082620007f4565b50610140820151600a820190620001879082620007f4565b50610160820151600b8201805463ffffffff191663ffffffff90921691909117905561018090910151600c90910155600f8290558051620001d090601090602084019062000279565b50506012805463ffffffff1916905550506001805461ffff60a01b1916905550620008f0565b62000241816040516024016200020d9190620008bc565b60408051601f198184030181529190526020810180516001600160e01b0390811663104c13eb60e21b179091526200024416565b50565b62000241816200025a60201b62001d9b1760201c565b5f6a636f6e736f6c652e6c6f6790505f80835160208501845afa505050565b828054828255905f5260205f20908101928215620002c2579160200282015b82811115620002c25782518290620002b19082620007f4565b509160200191906001019062000298565b50620002d0929150620002d4565b5090565b80821115620002d0575f620002ea8282620002f4565b50600101620002d4565b508054620003029062000768565b5f825580601f1062000312575050565b601f0160209004905f5260205f20908101906200024191905b80821115620002d0575f81556001016200032b565b634e487b7160e01b5f52604160045260245ffd5b6040516101a081016001600160401b03811182821017156200037a576200037a62000340565b60405290565b604051601f8201601f191681016001600160401b0381118282101715620003ab57620003ab62000340565b604052919050565b5f5b83811015620003cf578181015183820152602001620003b5565b50505f910152565b5f82601f830112620003e7575f80fd5b81516001600160401b0381111562000403576200040362000340565b62000418601f8201601f191660200162000380565b8181528460208386010111156200042d575f80fd5b62000440826020830160208701620003b3565b949350505050565b805161ffff811681146200045a575f80fd5b919050565b805163ffffffff811681146200045a575f80fd5b5f82601f83011262000483575f80fd5b815160206001600160401b0380831115620004a257620004a262000340565b8260051b620004b383820162000380565b9384528581018301938381019088861115620004cd575f80fd5b84880192505b858310156200050d57825184811115620004ec575f8081fd5b620004fc8a87838c0101620003d7565b8352509184019190840190620004d3565b98975050505050505050565b5f805f80608085870312156200052d575f80fd5b84516001600160a01b038116811462000544575f80fd5b60208601519094506001600160401b038082111562000561575f80fd5b908601906101a0828903121562000576575f80fd5b6200058062000354565b8251828111156200058f575f80fd5b6200059d8a828601620003d7565b825250602083015182811115620005b2575f80fd5b620005c08a828601620003d7565b602083015250604083015182811115620005d8575f80fd5b620005e68a828601620003d7565b604083015250606083015182811115620005fe575f80fd5b6200060c8a828601620003d7565b60608301525060808301518281111562000624575f80fd5b620006328a828601620003d7565b6080830152506200064660a0840162000448565b60a082015260c0830151828111156200065d575f80fd5b6200066b8a828601620003d7565b60c08301525060e08301518281111562000683575f80fd5b620006918a828601620003d7565b60e0830152506101008084015183811115620006ab575f80fd5b620006b98b828701620003d7565b8284015250506101208084015183811115620006d3575f80fd5b620006e18b828701620003d7565b8284015250506101408084015183811115620006fb575f80fd5b620007098b828701620003d7565b8284015250506101606200071f8185016200045f565b908201526101809283015192810192909252604087015160608801519295509350808211156200074d575f80fd5b506200075c8782880162000473565b91505092959194509250565b600181811c908216806200077d57607f821691505b6020821081036200079c57634e487b7160e01b5f52602260045260245ffd5b50919050565b601f821115620007ef575f81815260208120601f850160051c81016020861015620007ca5750805b601f850160051c820191505b81811015620007eb57828155600101620007d6565b5050505b505050565b81516001600160401b0381111562000810576200081062000340565b620008288162000821845462000768565b84620007a2565b602080601f8311600181146200085e575f8415620008465750858301515b5f19600386901b1c1916600185901b178555620007eb565b5f85815260208120601f198616915b828110156200088e578886015182559484019460019091019084016200086d565b5085821015620008ac57878501515f19600388901b60f8161c191681555b5050505050600190811b01905550565b602081525f8251806020840152620008dc816040850160208701620003b3565b601f01601f19169190910160400192915050565b6126b880620008fe5f395ff3fe608060405260043610610110575f3560e01c8063b68bfd081161009d578063c66531cf11610062578063c66531cf146102dd578063cebd31bc14610301578063e7065dff1461031e578063e7f9aced14610332578063f2fde38b14610353575f80fd5b8063b68bfd0814610256578063b7751c7114610277578063b81c78ec1461028a578063c4c09a3a146102ab578063c5292c67146102bf575f80fd5b80634364bab9116100e35780634364bab9146101ad57806368e24327146101ce578063715018a6146101ed5780638da5cb5b14610201578063966dae0e14610237575f80fd5b806328f371aa146101145780632f54bf6e1461014957806337271cc7146101765780633bc5de301461018c575b5f80fd5b34801561011f575f80fd5b5060015461013490600160a81b900460ff1681565b60405190151581526020015b60405180910390f35b348015610154575f80fd5b5061013461016336600461213f565b5f546001600160a01b0391821691161490565b348015610181575f80fd5b5061018a610372565b005b348015610197575f80fd5b506101a061061f565b604051610140919061235b565b3480156101b8575f80fd5b506101c1610d04565b60405161014091906123c4565b3480156101d9575f80fd5b5061018a6101e83660046123d6565b610dd8565b3480156101f8575f80fd5b5061018a610e0b565b34801561020c575f80fd5b505f5461021f906001600160a01b031681565b6040516001600160a01b039091168152602001610140565b348015610242575f80fd5b5060015461021f906001600160a01b031681565b348015610261575f80fd5b5061026a610e66565b6040516101409190612433565b61018a610285366004612441565b610f5b565b348015610295575f80fd5b5061029e6113fb565b6040516101409190612461565b3480156102b6575f80fd5b5061018a61152d565b3480156102ca575f80fd5b50600154600160a01b900460ff16610134565b3480156102e8575f80fd5b5060125460405163ffffffff9091168152602001610140565b34801561030c575f80fd5b50600f54604051908152602001610140565b348015610329575f80fd5b5061018a611724565b34801561033d575f80fd5b50610346611793565b60405161014091906124ae565b34801561035e575f80fd5b5061018a61036d36600461213f565b611d7a565b600154600160a01b900460ff166103a45760405162461bcd60e51b815260040161039b906124c0565b60405180910390fd5b6103ac611dba565b50505f546001600160a01b031633036103c3575f80fd5b6012545f9060119082906103df9060019063ffffffff16612525565b63ffffffff908116825260208083019390935260409182015f20825160a081018452815492831681526401000000009092046001600160a01b0316938201939093526001830154918101919091526002820154606082015260039091015460ff1615801560808301529091506104a15760405162461bcd60e51b815260206004820152602160248201527f546865206c6173742062696420686173206265656e20776974686472617765646044820152601760f91b606482015260840161039b565b80602001516001600160a01b0316336001600160a01b0316146105185760405162461bcd60e51b815260206004820152602960248201527f53656e646572206973206e6f742074686520626964646572206f6620746865206044820152683630b9ba103134b21760b91b606482015260840161039b565b60015460208201518251604080850151905163b21e000960e01b81526001600160a01b03938416600482015230602482015263ffffffff90921660448301526064820152911690819063b21e0009906084015f604051808303815f87803b158015610581575f80fd5b505af1158015610593573d5f803e3d5ffd5b505060125460405163ffffffff90911681523092503391507f47bf46fad2760ee84d62606d8af5800c9752761579fd146d2b8f9d4fa55512f89060200160405180910390a36012546001906011905f906105f490849063ffffffff16612525565b63ffffffff16815260208101919091526040015f20600301805460ff19169115159190911790555050565b61062761209f565b6040805160a081018252600154600160a01b900460ff161515815230602082015281516101a0810183526002805492938401928290829061066790612549565b80601f016020809104026020016040519081016040528092919081815260200182805461069390612549565b80156106de5780601f106106b5576101008083540402835291602001916106de565b820191905f5260205f20905b8154815290600101906020018083116106c157829003601f168201915b505050505081526020016001820180546106f790612549565b80601f016020809104026020016040519081016040528092919081815260200182805461072390612549565b801561076e5780601f106107455761010080835404028352916020019161076e565b820191905f5260205f20905b81548152906001019060200180831161075157829003601f168201915b5050505050815260200160028201805461078790612549565b80601f01602080910402602001604051908101604052809291908181526020018280546107b390612549565b80156107fe5780601f106107d5576101008083540402835291602001916107fe565b820191905f5260205f20905b8154815290600101906020018083116107e157829003601f168201915b5050505050815260200160038201805461081790612549565b80601f016020809104026020016040519081016040528092919081815260200182805461084390612549565b801561088e5780601f106108655761010080835404028352916020019161088e565b820191905f5260205f20905b81548152906001019060200180831161087157829003601f168201915b505050505081526020016004820180546108a790612549565b80601f01602080910402602001604051908101604052809291908181526020018280546108d390612549565b801561091e5780601f106108f55761010080835404028352916020019161091e565b820191905f5260205f20905b81548152906001019060200180831161090157829003601f168201915b5050509183525050600582015461ffff16602082015260068201805460409092019161094990612549565b80601f016020809104026020016040519081016040528092919081815260200182805461097590612549565b80156109c05780601f10610997576101008083540402835291602001916109c0565b820191905f5260205f20905b8154815290600101906020018083116109a357829003601f168201915b505050505081526020016007820180546109d990612549565b80601f0160208091040260200160405190810160405280929190818152602001828054610a0590612549565b8015610a505780601f10610a2757610100808354040283529160200191610a50565b820191905f5260205f20905b815481529060010190602001808311610a3357829003601f168201915b50505050508152602001600882018054610a6990612549565b80601f0160208091040260200160405190810160405280929190818152602001828054610a9590612549565b8015610ae05780601f10610ab757610100808354040283529160200191610ae0565b820191905f5260205f20905b815481529060010190602001808311610ac357829003601f168201915b50505050508152602001600982018054610af990612549565b80601f0160208091040260200160405190810160405280929190818152602001828054610b2590612549565b8015610b705780601f10610b4757610100808354040283529160200191610b70565b820191905f5260205f20905b815481529060010190602001808311610b5357829003601f168201915b50505050508152602001600a82018054610b8990612549565b80601f0160208091040260200160405190810160405280929190818152602001828054610bb590612549565b8015610c005780601f10610bd757610100808354040283529160200191610c00565b820191905f5260205f20905b815481529060010190602001808311610be357829003601f168201915b5050509183525050600b82015463ffffffff16602080830191909152600c90920154604091820152918352600f548382015260108054835181840281018401855281815294909301939290915f9084015b82821015610cf9578382905f5260205f20018054610c6e90612549565b80601f0160208091040260200160405190810160405280929190818152602001828054610c9a90612549565b8015610ce55780601f10610cbc57610100808354040283529160200191610ce5565b820191905f5260205f20905b815481529060010190602001808311610cc857829003601f168201915b505050505081526020019060010190610c51565b505050915250919050565b60606010805480602002602001604051908101604052809291908181526020015f905b82821015610dcf578382905f5260205f20018054610d4490612549565b80601f0160208091040260200160405190810160405280929190818152602001828054610d7090612549565b8015610dbb5780601f10610d9257610100808354040283529160200191610dbb565b820191905f5260205f20905b815481529060010190602001808311610d9e57829003601f168201915b505050505081526020019060010190610d27565b50505050905090565b5f546001600160a01b03163314610ded575f80fd5b60018054911515600160a01b0260ff60a01b19909216919091179055565b5f546001600160a01b03163314610e20575f80fd5b5f80546040516001600160a01b03909116917ff8df31144d9c2f0f6b59d69b8b98abd5459d07f2742c4df920b25aae33c6482091a25f80546001600160a01b0319169055565b6040805160a0810182525f8082526020820181905291810182905260608101829052608081019190915260125463ffffffff165b63ffffffff811615610f2c5780610eb08161257b565b63ffffffff8181165f90815260116020908152604091829020825160a081018452815494851681526401000000009094046001600160a01b031691840191909152600181015491830191909152600281015460608301526003015460ff161515608082018190529193509150610f265792915050565b50610e9a565b50506040805160a0810182525f8082526020820181905291810182905260608101919091526001608082015290565b81803414610fab5760405162461bcd60e51b815260206004820152601960248201527f56616c7565206d75737420657175616c207175616e7469747900000000000000604482015260640161039b565b600154600160a01b900460ff16610fd45760405162461bcd60e51b815260040161039b906124c0565b5f546001600160a01b03163303610fe9575f80fd5b6040805160a081019091526012545f9190819061100d9063ffffffff166001612599565b63ffffffff908116825233602080840191909152604080840189905260608085018990525f6080958601819052601254851681526011845282812087518154958901516001600160a01b0316640100000000026001600160c01b03199096169616959095179390931784559085015160018401558401516002830155918301516003909101805491151560ff199092169190911790559091506110ae610e66565b9050670de0b6b3a764000033311015611128576110cb3331611ec2565b6110d486611ec2565b6040516020016110e491906125b6565b60408051601f198184030181529082905261110292916020016125d1565b60408051601f198184030181529082905262461bcd60e51b825261039b916004016125ff565b8060800151801561113a5750600f5485105b156111a55760405162461bcd60e51b815260206004820152603560248201527f546865207175616e74697479206d75737420657175616c206f7220657863656560448201527432103a34329039ba30b93a34b73390383934b1b29760591b606482015260840161039b565b80608001511580156111fa57506012546011905f906111cc9060019063ffffffff16612525565b63ffffffff16815260208101919091526040015f20600101546111f79067016345785d8a0000612611565b85105b156112775760405162461bcd60e51b815260206004820152604160248201527f4e6577207175616e74697479206d75737420626520677265617465722074686160448201527f6e207468652070726576696f7573206174206c6561737420302e31204b4c41596064820152601760f91b608482015260a40161039b565b6001546040516001600160a01b03909116903480156108fc02915f818181858888f193505050501580156112ad573d5f803e3d5ffd5b506012546040805163ffffffff909216825260208201879052348282015251309133917fd935fb49a37280d0444c7535fea4a6f35f0e741795075668648bfdd008c7be039181900360600190a380608001516113c05760015460208201518251604080850151905163b21e000960e01b81526001600160a01b03938416600482015230602482015263ffffffff90921660448301526064820152911690819063b21e0009906084015f604051808303815f87803b15801561136c575f80fd5b505af115801561137e573d5f803e3d5ffd5b50505050600160115f6001855f01516113979190612525565b63ffffffff16815260208101919091526040015f20600301805460ff1916911515919091179055505b6012805463ffffffff16905f6113d583612624565b91906101000a81548163ffffffff021916908363ffffffff160217905550505050505050565b6012546060905f9063ffffffff1667ffffffffffffffff81111561142157611421612646565b60405190808252806020026020018201604052801561147857816020015b6040805160a0810182525f808252602080830182905292820181905260608201819052608082015282525f1990920191018161143f5790505b5090505f5b60125463ffffffff90811690821610156115275763ffffffff8181165f81815260116020908152604091829020825160a081018452815495861681526401000000009095046001600160a01b031691850191909152600181015491840191909152600281015460608401526003015460ff1615156080830152835184919081106115095761150961265a565b6020026020010181905250808061151f90612624565b91505061147d565b50919050565b5f546001600160a01b03163314611542575f80fd5b5f61154b610e66565b90508060800151156115945760405162461bcd60e51b81526020600482015260126024820152712737903134b239903a379039bab136b4ba1760711b604482015260640161039b565b6001545f546020830151604080850151905163e423aeb960e01b81526001600160a01b03938416600482015291831660248301523060448301526064820152911690819063e423aeb9906084015f604051808303815f87803b1580156115f8575f80fd5b505af115801561160a573d5f803e3d5ffd5b50506001805460ff60a01b191690555050602082015161162981611d7a565b6012547f467f63626ee88ac9096115f006478e3abe180bb37fb42a95178ad4b1bc7f237290309083906011905f906116699060019063ffffffff16612525565b63ffffffff16815260208082019290925260409081015f206001015481516001600160a01b039586168152949093169184019190915282015260600160405180910390a15f5b60125463ffffffff90811690821610156117115763ffffffff81165f90815260116020526040812080546001600160c01b0319168155600181018290556002810191909155600301805460ff191690558061170981612624565b9150506116af565b50506012805463ffffffff191690555050565b600154604051630935e01b60e21b81523360048201526001600160a01b039091169081906324d7806c906024015f6040518083038186803b158015611767575f80fd5b505afa158015611779573d5f803e3d5ffd5b50506001805460ff60a81b1916600160a81b179055505050565b61179b6120d0565b6002604051806101a00160405290815f820180546117b890612549565b80601f01602080910402602001604051908101604052809291908181526020018280546117e490612549565b801561182f5780601f106118065761010080835404028352916020019161182f565b820191905f5260205f20905b81548152906001019060200180831161181257829003601f168201915b5050505050815260200160018201805461184890612549565b80601f016020809104026020016040519081016040528092919081815260200182805461187490612549565b80156118bf5780601f10611896576101008083540402835291602001916118bf565b820191905f5260205f20905b8154815290600101906020018083116118a257829003601f168201915b505050505081526020016002820180546118d890612549565b80601f016020809104026020016040519081016040528092919081815260200182805461190490612549565b801561194f5780601f106119265761010080835404028352916020019161194f565b820191905f5260205f20905b81548152906001019060200180831161193257829003601f168201915b5050505050815260200160038201805461196890612549565b80601f016020809104026020016040519081016040528092919081815260200182805461199490612549565b80156119df5780601f106119b6576101008083540402835291602001916119df565b820191905f5260205f20905b8154815290600101906020018083116119c257829003601f168201915b505050505081526020016004820180546119f890612549565b80601f0160208091040260200160405190810160405280929190818152602001828054611a2490612549565b8015611a6f5780601f10611a4657610100808354040283529160200191611a6f565b820191905f5260205f20905b815481529060010190602001808311611a5257829003601f168201915b5050509183525050600582015461ffff166020820152600682018054604090920191611a9a90612549565b80601f0160208091040260200160405190810160405280929190818152602001828054611ac690612549565b8015611b115780601f10611ae857610100808354040283529160200191611b11565b820191905f5260205f20905b815481529060010190602001808311611af457829003601f168201915b50505050508152602001600782018054611b2a90612549565b80601f0160208091040260200160405190810160405280929190818152602001828054611b5690612549565b8015611ba15780601f10611b7857610100808354040283529160200191611ba1565b820191905f5260205f20905b815481529060010190602001808311611b8457829003601f168201915b50505050508152602001600882018054611bba90612549565b80601f0160208091040260200160405190810160405280929190818152602001828054611be690612549565b8015611c315780601f10611c0857610100808354040283529160200191611c31565b820191905f5260205f20905b815481529060010190602001808311611c1457829003601f168201915b50505050508152602001600982018054611c4a90612549565b80601f0160208091040260200160405190810160405280929190818152602001828054611c7690612549565b8015611cc15780601f10611c9857610100808354040283529160200191611cc1565b820191905f5260205f20905b815481529060010190602001808311611ca457829003601f168201915b50505050508152602001600a82018054611cda90612549565b80601f0160208091040260200160405190810160405280929190818152602001828054611d0690612549565b8015611d515780601f10611d2857610100808354040283529160200191611d51565b820191905f5260205f20905b815481529060010190602001808311611d3457829003601f168201915b5050509183525050600b82015463ffffffff166020820152600c90910154604090910152919050565b5f546001600160a01b03163314611d8f575f80fd5b611d9881611f52565b50565b5f6a636f6e736f6c652e6c6f6790505f80835160208501845afa505050565b6040805160a0810182525f8082526020820181905291810182905260608101829052608081018290525f5b60125463ffffffff9081169082161015611ea65763ffffffff81165f90815260116020526040902054336401000000009091046001600160a01b031603611e945763ffffffff8181165f90815260116020908152604091829020825160a081018452815494851681526401000000009094046001600160a01b031691840191909152600181015491830191909152600281015460608301526003015460ff161515608082015290939092509050565b80611e9e81612624565b915050611de5565b50604051637a42b47960e01b815233600482015260240161039b565b60605f611ece83611fbd565b60010190505f8167ffffffffffffffff811115611eed57611eed612646565b6040519080825280601f01601f191660200182016040528015611f17576020820181803683370190505b5090508181016020015b5f19016f181899199a1a9b1b9c1cb0b131b232b360811b600a86061a8153600a8504945084611f2157509392505050565b6001600160a01b038116611f64575f80fd5b5f80546040516001600160a01b03808516939216917f8be0079c531659141344cd1fd0a4f28419497f9722a3daafe3b4186f6b6457e091a35f80546001600160a01b0319166001600160a01b0392909216919091179055565b5f8072184f03e93ff9f4daa797ed6e38ed64bf6a1f0160401b8310611ffb5772184f03e93ff9f4daa797ed6e38ed64bf6a1f0160401b830492506040015b6d04ee2d6d415b85acef81000000008310612027576d04ee2d6d415b85acef8100000000830492506020015b662386f26fc10000831061204557662386f26fc10000830492506010015b6305f5e100831061205d576305f5e100830492506008015b612710831061207157612710830492506004015b60648310612083576064830492506002015b600a831061208f576001015b92915050565b61209d61266e565b565b6040805160a0810182525f80825260208201529081016120bd6120d0565b81526020015f8152602001606081525090565b604051806101a0016040528060608152602001606081526020016060815260200160608152602001606081526020015f61ffff16815260200160608152602001606081526020016060815260200160608152602001606081526020015f63ffffffff1681526020015f81525090565b5f6020828403121561214f575f80fd5b81356001600160a01b0381168114612165575f80fd5b9392505050565b5f5b8381101561218657818101518382015260200161216e565b50505f910152565b5f81518084526121a581602086016020860161216c565b601f01601f19169290920160200192915050565b5f6101a082518185526121ce8286018261218e565b915050602083015184820360208601526121e8828261218e565b91505060408301518482036040860152612202828261218e565b9150506060830151848203606086015261221c828261218e565b91505060808301518482036080860152612236828261218e565b91505060a083015161224e60a086018261ffff169052565b5060c083015184820360c0860152612266828261218e565b91505060e083015184820360e0860152612280828261218e565b915050610100808401518583038287015261229b838261218e565b9250505061012080840151858303828701526122b7838261218e565b9250505061014080840151858303828701526122d3838261218e565b92505050610160808401516122ef8287018263ffffffff169052565b5050610180928301519390920192909252919050565b5f82825180855260208086019550808260051b8401018186015f5b8481101561234e57601f1986840301895261233c83835161218e565b98840198925090830190600101612320565b5090979650505050505050565b6020815281511515602082015260018060a01b0360208301511660408201525f604083015160a0606084015261239460c08401826121b9565b9050606084015160808401526080840151601f198483030160a08501526123bb8282612305565b95945050505050565b602081525f6121656020830184612305565b5f602082840312156123e6575f80fd5b81358015158114612165575f80fd5b805163ffffffff1682526020808201516001600160a01b03169083015260408082015190830152606080820151908301526080908101511515910152565b60a0810161208f82846123f5565b5f8060408385031215612452575f80fd5b50508035926020909101359150565b602080825282518282018190525f9190848201906040850190845b818110156124a25761248f8385516123f5565b9284019260a0929092019160010161247c565b50909695505050505050565b602081525f61216560208301846121b9565b60208082526031908201527f546869732076656869636c6520636f6e747261637420686173206e6f7420737460408201527030b93a32b2103a34329030bab1ba34b7b760791b606082015260800190565b634e487b7160e01b5f52601160045260245ffd5b63ffffffff82811682821603908082111561254257612542612511565b5092915050565b600181811c9082168061255d57607f821691505b60208210810361152757634e487b7160e01b5f52602260045260245ffd5b5f63ffffffff82168061259057612590612511565b5f190192915050565b63ffffffff81811683821601908082111561254257612542612511565b5f82516125c781846020870161216c565b9190910192915050565b5f83516125e281846020880161216c565b8351908301906125f681836020880161216c565b01949350505050565b602081525f612165602083018461218e565b8082018082111561208f5761208f612511565b5f63ffffffff80831681810361263c5761263c612511565b6001019392505050565b634e487b7160e01b5f52604160045260245ffd5b634e487b7160e01b5f52603260045260245ffd5b634e487b7160e01b5f52605160045260245ffdfea2646970667358221220de6a8007a8e0da537c9bf1a1728f4b02ebfb80e3af18b930313bc4f25513e1f664736f6c634300081400334e65772056656869636c6520436f6e747261637420686173206265656e206465706c6f7965642e",
			"opcodes": "PUSH1 0x80 PUSH1 0x40 MSTORE CALLVALUE DUP1 ISZERO PUSH3 0x10 JUMPI PUSH0 DUP1 REVERT JUMPDEST POP PUSH1 0x40 MLOAD PUSH3 0x2FDD CODESIZE SUB DUP1 PUSH3 0x2FDD DUP4 CODECOPY DUP2 ADD PUSH1 0x40 DUP2 SWAP1 MSTORE PUSH3 0x33 SWAP2 PUSH3 0x519 JUMP JUMPDEST PUSH0 DUP1 SLOAD PUSH1 0x1 PUSH1 0x1 PUSH1 0xA0 SHL SUB NOT AND CALLER OR SWAP1 SSTORE PUSH1 0x40 DUP1 MLOAD PUSH1 0x60 DUP2 ADD SWAP1 SWAP2 MSTORE PUSH1 0x27 DUP1 DUP3 MSTORE PUSH3 0x69 SWAP2 SWAP1 PUSH3 0x2FB6 PUSH1 0x20 DUP4 ADD CODECOPY PUSH3 0x1F6 JUMP JUMPDEST PUSH1 0x1 DUP1 SLOAD PUSH1 0x1 PUSH1 0x1 PUSH1 0xA0 SHL SUB NOT AND PUSH1 0x1 PUSH1 0x1 PUSH1 0xA0 SHL SUB DUP7 AND OR SWAP1 SSTORE DUP3 MLOAD DUP4 SWAP1 PUSH1 0x2 SWAP1 DUP2 SWAP1 PUSH3 0x99 SWAP1 DUP3 PUSH3 0x7F4 JUMP JUMPDEST POP PUSH1 0x20 DUP3 ADD MLOAD PUSH1 0x1 DUP3 ADD SWAP1 PUSH3 0xB0 SWAP1 DUP3 PUSH3 0x7F4 JUMP JUMPDEST POP PUSH1 0x40 DUP3 ADD MLOAD PUSH1 0x2 DUP3 ADD SWAP1 PUSH3 0xC7 SWAP1 DUP3 PUSH3 0x7F4 JUMP JUMPDEST POP PUSH1 0x60 DUP3 ADD MLOAD PUSH1 0x3 DUP3 ADD SWAP1 PUSH3 0xDE SWAP1 DUP3 PUSH3 0x7F4 JUMP JUMPDEST POP PUSH1 0x80 DUP3 ADD MLOAD PUSH1 0x4 DUP3 ADD SWAP1 PUSH3 0xF5 SWAP1 DUP3 PUSH3 0x7F4 JUMP JUMPDEST POP PUSH1 0xA0 DUP3 ADD MLOAD PUSH1 0x5 DUP3 ADD DUP1 SLOAD PUSH2 0xFFFF NOT AND PUSH2 0xFFFF SWAP1 SWAP3 AND SWAP2 SWAP1 SWAP2 OR SWAP1 SSTORE PUSH1 0xC0 DUP3 ADD MLOAD PUSH1 0x6 DUP3 ADD SWAP1 PUSH3 0x128 SWAP1 DUP3 PUSH3 0x7F4 JUMP JUMPDEST POP PUSH1 0xE0 DUP3 ADD MLOAD PUSH1 0x7 DUP3 ADD SWAP1 PUSH3 0x13F SWAP1 DUP3 PUSH3 0x7F4 JUMP JUMPDEST POP PUSH2 0x100 DUP3 ADD MLOAD PUSH1 0x8 DUP3 ADD SWAP1 PUSH3 0x157 SWAP1 DUP3 PUSH3 0x7F4 JUMP JUMPDEST POP PUSH2 0x120 DUP3 ADD MLOAD PUSH1 0x9 DUP3 ADD SWAP1 PUSH3 0x16F SWAP1 DUP3 PUSH3 0x7F4 JUMP JUMPDEST POP PUSH2 0x140 DUP3 ADD MLOAD PUSH1 0xA DUP3 ADD SWAP1 PUSH3 0x187 SWAP1 DUP3 PUSH3 0x7F4 JUMP JUMPDEST POP PUSH2 0x160 DUP3 ADD MLOAD PUSH1 0xB DUP3 ADD DUP1 SLOAD PUSH4 0xFFFFFFFF NOT AND PUSH4 0xFFFFFFFF SWAP1 SWAP3 AND SWAP2 SWAP1 SWAP2 OR SWAP1 SSTORE PUSH2 0x180 SWAP1 SWAP2 ADD MLOAD PUSH1 0xC SWAP1 SWAP2 ADD SSTORE PUSH1 0xF DUP3 SWAP1 SSTORE DUP1 MLOAD PUSH3 0x1D0 SWAP1 PUSH1 0x10 SWAP1 PUSH1 0x20 DUP5 ADD SWAP1 PUSH3 0x279 JUMP JUMPDEST POP POP PUSH1 0x12 DUP1 SLOAD PUSH4 0xFFFFFFFF NOT AND SWAP1 SSTORE POP POP PUSH1 0x1 DUP1 SLOAD PUSH2 0xFFFF PUSH1 0xA0 SHL NOT AND SWAP1 SSTORE POP PUSH3 0x8F0 JUMP JUMPDEST PUSH3 0x241 DUP2 PUSH1 0x40 MLOAD PUSH1 0x24 ADD PUSH3 0x20D SWAP2 SWAP1 PUSH3 0x8BC JUMP JUMPDEST PUSH1 0x40 DUP1 MLOAD PUSH1 0x1F NOT DUP2 DUP5 SUB ADD DUP2 MSTORE SWAP2 SWAP1 MSTORE PUSH1 0x20 DUP2 ADD DUP1 MLOAD PUSH1 0x1 PUSH1 0x1 PUSH1 0xE0 SHL SUB SWAP1 DUP2 AND PUSH4 0x104C13EB PUSH1 0xE2 SHL OR SWAP1 SWAP2 MSTORE PUSH3 0x244 AND JUMP JUMPDEST POP JUMP JUMPDEST PUSH3 0x241 DUP2 PUSH3 0x25A PUSH1 0x20 SHL PUSH3 0x1D9B OR PUSH1 0x20 SHR JUMP JUMPDEST PUSH0 PUSH11 0x636F6E736F6C652E6C6F67 SWAP1 POP PUSH0 DUP1 DUP4 MLOAD PUSH1 0x20 DUP6 ADD DUP5 GAS STATICCALL POP POP POP JUMP JUMPDEST DUP3 DUP1 SLOAD DUP3 DUP3 SSTORE SWAP1 PUSH0 MSTORE PUSH1 0x20 PUSH0 KECCAK256 SWAP1 DUP2 ADD SWAP3 DUP3 ISZERO PUSH3 0x2C2 JUMPI SWAP2 PUSH1 0x20 MUL DUP3 ADD JUMPDEST DUP3 DUP2 GT ISZERO PUSH3 0x2C2 JUMPI DUP3 MLOAD DUP3 SWAP1 PUSH3 0x2B1 SWAP1 DUP3 PUSH3 0x7F4 JUMP JUMPDEST POP SWAP2 PUSH1 0x20 ADD SWAP2 SWAP1 PUSH1 0x1 ADD SWAP1 PUSH3 0x298 JUMP JUMPDEST POP PUSH3 0x2D0 SWAP3 SWAP2 POP PUSH3 0x2D4 JUMP JUMPDEST POP SWAP1 JUMP JUMPDEST DUP1 DUP3 GT ISZERO PUSH3 0x2D0 JUMPI PUSH0 PUSH3 0x2EA DUP3 DUP3 PUSH3 0x2F4 JUMP JUMPDEST POP PUSH1 0x1 ADD PUSH3 0x2D4 JUMP JUMPDEST POP DUP1 SLOAD PUSH3 0x302 SWAP1 PUSH3 0x768 JUMP JUMPDEST PUSH0 DUP3 SSTORE DUP1 PUSH1 0x1F LT PUSH3 0x312 JUMPI POP POP JUMP JUMPDEST PUSH1 0x1F ADD PUSH1 0x20 SWAP1 DIV SWAP1 PUSH0 MSTORE PUSH1 0x20 PUSH0 KECCAK256 SWAP1 DUP2 ADD SWAP1 PUSH3 0x241 SWAP2 SWAP1 JUMPDEST DUP1 DUP3 GT ISZERO PUSH3 0x2D0 JUMPI PUSH0 DUP2 SSTORE PUSH1 0x1 ADD PUSH3 0x32B JUMP JUMPDEST PUSH4 0x4E487B71 PUSH1 0xE0 SHL PUSH0 MSTORE PUSH1 0x41 PUSH1 0x4 MSTORE PUSH1 0x24 PUSH0 REVERT JUMPDEST PUSH1 0x40 MLOAD PUSH2 0x1A0 DUP2 ADD PUSH1 0x1 PUSH1 0x1 PUSH1 0x40 SHL SUB DUP2 GT DUP3 DUP3 LT OR ISZERO PUSH3 0x37A JUMPI PUSH3 0x37A PUSH3 0x340 JUMP JUMPDEST PUSH1 0x40 MSTORE SWAP1 JUMP JUMPDEST PUSH1 0x40 MLOAD PUSH1 0x1F DUP3 ADD PUSH1 0x1F NOT AND DUP2 ADD PUSH1 0x1 PUSH1 0x1 PUSH1 0x40 SHL SUB DUP2 GT DUP3 DUP3 LT OR ISZERO PUSH3 0x3AB JUMPI PUSH3 0x3AB PUSH3 0x340 JUMP JUMPDEST PUSH1 0x40 MSTORE SWAP2 SWAP1 POP JUMP JUMPDEST PUSH0 JUMPDEST DUP4 DUP2 LT ISZERO PUSH3 0x3CF JUMPI DUP2 DUP2 ADD MLOAD DUP4 DUP3 ADD MSTORE PUSH1 0x20 ADD PUSH3 0x3B5 JUMP JUMPDEST POP POP PUSH0 SWAP2 ADD MSTORE JUMP JUMPDEST PUSH0 DUP3 PUSH1 0x1F DUP4 ADD SLT PUSH3 0x3E7 JUMPI PUSH0 DUP1 REVERT JUMPDEST DUP2 MLOAD PUSH1 0x1 PUSH1 0x1 PUSH1 0x40 SHL SUB DUP2 GT ISZERO PUSH3 0x403 JUMPI PUSH3 0x403 PUSH3 0x340 JUMP JUMPDEST PUSH3 0x418 PUSH1 0x1F DUP3 ADD PUSH1 0x1F NOT AND PUSH1 0x20 ADD PUSH3 0x380 JUMP JUMPDEST DUP2 DUP2 MSTORE DUP5 PUSH1 0x20 DUP4 DUP7 ADD ADD GT ISZERO PUSH3 0x42D JUMPI PUSH0 DUP1 REVERT JUMPDEST PUSH3 0x440 DUP3 PUSH1 0x20 DUP4 ADD PUSH1 0x20 DUP8 ADD PUSH3 0x3B3 JUMP JUMPDEST SWAP5 SWAP4 POP POP POP POP JUMP JUMPDEST DUP1 MLOAD PUSH2 0xFFFF DUP2 AND DUP2 EQ PUSH3 0x45A JUMPI PUSH0 DUP1 REVERT JUMPDEST SWAP2 SWAP1 POP JUMP JUMPDEST DUP1 MLOAD PUSH4 0xFFFFFFFF DUP2 AND DUP2 EQ PUSH3 0x45A JUMPI PUSH0 DUP1 REVERT JUMPDEST PUSH0 DUP3 PUSH1 0x1F DUP4 ADD SLT PUSH3 0x483 JUMPI PUSH0 DUP1 REVERT JUMPDEST DUP2 MLOAD PUSH1 0x20 PUSH1 0x1 PUSH1 0x1 PUSH1 0x40 SHL SUB DUP1 DUP4 GT ISZERO PUSH3 0x4A2 JUMPI PUSH3 0x4A2 PUSH3 0x340 JUMP JUMPDEST DUP3 PUSH1 0x5 SHL PUSH3 0x4B3 DUP4 DUP3 ADD PUSH3 0x380 JUMP JUMPDEST SWAP4 DUP5 MSTORE DUP6 DUP2 ADD DUP4 ADD SWAP4 DUP4 DUP2 ADD SWAP1 DUP9 DUP7 GT ISZERO PUSH3 0x4CD JUMPI PUSH0 DUP1 REVERT JUMPDEST DUP5 DUP9 ADD SWAP3 POP JUMPDEST DUP6 DUP4 LT ISZERO PUSH3 0x50D JUMPI DUP3 MLOAD DUP5 DUP2 GT ISZERO PUSH3 0x4EC JUMPI PUSH0 DUP1 DUP2 REVERT JUMPDEST PUSH3 0x4FC DUP11 DUP8 DUP4 DUP13 ADD ADD PUSH3 0x3D7 JUMP JUMPDEST DUP4 MSTORE POP SWAP2 DUP5 ADD SWAP2 SWAP1 DUP5 ADD SWAP1 PUSH3 0x4D3 JUMP JUMPDEST SWAP9 SWAP8 POP POP POP POP POP POP POP POP JUMP JUMPDEST PUSH0 DUP1 PUSH0 DUP1 PUSH1 0x80 DUP6 DUP8 SUB SLT ISZERO PUSH3 0x52D JUMPI PUSH0 DUP1 REVERT JUMPDEST DUP5 MLOAD PUSH1 0x1 PUSH1 0x1 PUSH1 0xA0 SHL SUB DUP2 AND DUP2 EQ PUSH3 0x544 JUMPI PUSH0 DUP1 REVERT JUMPDEST PUSH1 0x20 DUP7 ADD MLOAD SWAP1 SWAP5 POP PUSH1 0x1 PUSH1 0x1 PUSH1 0x40 SHL SUB DUP1 DUP3 GT ISZERO PUSH3 0x561 JUMPI PUSH0 DUP1 REVERT JUMPDEST SWAP1 DUP7 ADD SWAP1 PUSH2 0x1A0 DUP3 DUP10 SUB SLT ISZERO PUSH3 0x576 JUMPI PUSH0 DUP1 REVERT JUMPDEST PUSH3 0x580 PUSH3 0x354 JUMP JUMPDEST DUP3 MLOAD DUP3 DUP2 GT ISZERO PUSH3 0x58F JUMPI PUSH0 DUP1 REVERT JUMPDEST PUSH3 0x59D DUP11 DUP3 DUP7 ADD PUSH3 0x3D7 JUMP JUMPDEST DUP3 MSTORE POP PUSH1 0x20 DUP4 ADD MLOAD DUP3 DUP2 GT ISZERO PUSH3 0x5B2 JUMPI PUSH0 DUP1 REVERT JUMPDEST PUSH3 0x5C0 DUP11 DUP3 DUP7 ADD PUSH3 0x3D7 JUMP JUMPDEST PUSH1 0x20 DUP4 ADD MSTORE POP PUSH1 0x40 DUP4 ADD MLOAD DUP3 DUP2 GT ISZERO PUSH3 0x5D8 JUMPI PUSH0 DUP1 REVERT JUMPDEST PUSH3 0x5E6 DUP11 DUP3 DUP7 ADD PUSH3 0x3D7 JUMP JUMPDEST PUSH1 0x40 DUP4 ADD MSTORE POP PUSH1 0x60 DUP4 ADD MLOAD DUP3 DUP2 GT ISZERO PUSH3 0x5FE JUMPI PUSH0 DUP1 REVERT JUMPDEST PUSH3 0x60C DUP11 DUP3 DUP7 ADD PUSH3 0x3D7 JUMP JUMPDEST PUSH1 0x60 DUP4 ADD MSTORE POP PUSH1 0x80 DUP4 ADD MLOAD DUP3 DUP2 GT ISZERO PUSH3 0x624 JUMPI PUSH0 DUP1 REVERT JUMPDEST PUSH3 0x632 DUP11 DUP3 DUP7 ADD PUSH3 0x3D7 JUMP JUMPDEST PUSH1 0x80 DUP4 ADD MSTORE POP PUSH3 0x646 PUSH1 0xA0 DUP5 ADD PUSH3 0x448 JUMP JUMPDEST PUSH1 0xA0 DUP3 ADD MSTORE PUSH1 0xC0 DUP4 ADD MLOAD DUP3 DUP2 GT ISZERO PUSH3 0x65D JUMPI PUSH0 DUP1 REVERT JUMPDEST PUSH3 0x66B DUP11 DUP3 DUP7 ADD PUSH3 0x3D7 JUMP JUMPDEST PUSH1 0xC0 DUP4 ADD MSTORE POP PUSH1 0xE0 DUP4 ADD MLOAD DUP3 DUP2 GT ISZERO PUSH3 0x683 JUMPI PUSH0 DUP1 REVERT JUMPDEST PUSH3 0x691 DUP11 DUP3 DUP7 ADD PUSH3 0x3D7 JUMP JUMPDEST PUSH1 0xE0 DUP4 ADD MSTORE POP PUSH2 0x100 DUP1 DUP5 ADD MLOAD DUP4 DUP2 GT ISZERO PUSH3 0x6AB JUMPI PUSH0 DUP1 REVERT JUMPDEST PUSH3 0x6B9 DUP12 DUP3 DUP8 ADD PUSH3 0x3D7 JUMP JUMPDEST DUP3 DUP5 ADD MSTORE POP POP PUSH2 0x120 DUP1 DUP5 ADD MLOAD DUP4 DUP2 GT ISZERO PUSH3 0x6D3 JUMPI PUSH0 DUP1 REVERT JUMPDEST PUSH3 0x6E1 DUP12 DUP3 DUP8 ADD PUSH3 0x3D7 JUMP JUMPDEST DUP3 DUP5 ADD MSTORE POP POP PUSH2 0x140 DUP1 DUP5 ADD MLOAD DUP4 DUP2 GT ISZERO PUSH3 0x6FB JUMPI PUSH0 DUP1 REVERT JUMPDEST PUSH3 0x709 DUP12 DUP3 DUP8 ADD PUSH3 0x3D7 JUMP JUMPDEST DUP3 DUP5 ADD MSTORE POP POP PUSH2 0x160 PUSH3 0x71F DUP2 DUP6 ADD PUSH3 0x45F JUMP JUMPDEST SWAP1 DUP3 ADD MSTORE PUSH2 0x180 SWAP3 DUP4 ADD MLOAD SWAP3 DUP2 ADD SWAP3 SWAP1 SWAP3 MSTORE PUSH1 0x40 DUP8 ADD MLOAD PUSH1 0x60 DUP9 ADD MLOAD SWAP3 SWAP6 POP SWAP4 POP DUP1 DUP3 GT ISZERO PUSH3 0x74D JUMPI PUSH0 DUP1 REVERT JUMPDEST POP PUSH3 0x75C DUP8 DUP3 DUP9 ADD PUSH3 0x473 JUMP JUMPDEST SWAP2 POP POP SWAP3 SWAP6 SWAP2 SWAP5 POP SWAP3 POP JUMP JUMPDEST PUSH1 0x1 DUP2 DUP2 SHR SWAP1 DUP3 AND DUP1 PUSH3 0x77D JUMPI PUSH1 0x7F DUP3 AND SWAP2 POP JUMPDEST PUSH1 0x20 DUP3 LT DUP2 SUB PUSH3 0x79C JUMPI PUSH4 0x4E487B71 PUSH1 0xE0 SHL PUSH0 MSTORE PUSH1 0x22 PUSH1 0x4 MSTORE PUSH1 0x24 PUSH0 REVERT JUMPDEST POP SWAP2 SWAP1 POP JUMP JUMPDEST PUSH1 0x1F DUP3 GT ISZERO PUSH3 0x7EF JUMPI PUSH0 DUP2 DUP2 MSTORE PUSH1 0x20 DUP2 KECCAK256 PUSH1 0x1F DUP6 ADD PUSH1 0x5 SHR DUP2 ADD PUSH1 0x20 DUP7 LT ISZERO PUSH3 0x7CA JUMPI POP DUP1 JUMPDEST PUSH1 0x1F DUP6 ADD PUSH1 0x5 SHR DUP3 ADD SWAP2 POP JUMPDEST DUP2 DUP2 LT ISZERO PUSH3 0x7EB JUMPI DUP3 DUP2 SSTORE PUSH1 0x1 ADD PUSH3 0x7D6 JUMP JUMPDEST POP POP POP JUMPDEST POP POP POP JUMP JUMPDEST DUP2 MLOAD PUSH1 0x1 PUSH1 0x1 PUSH1 0x40 SHL SUB DUP2 GT ISZERO PUSH3 0x810 JUMPI PUSH3 0x810 PUSH3 0x340 JUMP JUMPDEST PUSH3 0x828 DUP2 PUSH3 0x821 DUP5 SLOAD PUSH3 0x768 JUMP JUMPDEST DUP5 PUSH3 0x7A2 JUMP JUMPDEST PUSH1 0x20 DUP1 PUSH1 0x1F DUP4 GT PUSH1 0x1 DUP2 EQ PUSH3 0x85E JUMPI PUSH0 DUP5 ISZERO PUSH3 0x846 JUMPI POP DUP6 DUP4 ADD MLOAD JUMPDEST PUSH0 NOT PUSH1 0x3 DUP7 SWAP1 SHL SHR NOT AND PUSH1 0x1 DUP6 SWAP1 SHL OR DUP6 SSTORE PUSH3 0x7EB JUMP JUMPDEST PUSH0 DUP6 DUP2 MSTORE PUSH1 0x20 DUP2 KECCAK256 PUSH1 0x1F NOT DUP7 AND SWAP2 JUMPDEST DUP3 DUP2 LT ISZERO PUSH3 0x88E JUMPI DUP9 DUP7 ADD MLOAD DUP3 SSTORE SWAP5 DUP5 ADD SWAP5 PUSH1 0x1 SWAP1 SWAP2 ADD SWAP1 DUP5 ADD PUSH3 0x86D JUMP JUMPDEST POP DUP6 DUP3 LT ISZERO PUSH3 0x8AC JUMPI DUP8 DUP6 ADD MLOAD PUSH0 NOT PUSH1 0x3 DUP9 SWAP1 SHL PUSH1 0xF8 AND SHR NOT AND DUP2 SSTORE JUMPDEST POP POP POP POP POP PUSH1 0x1 SWAP1 DUP2 SHL ADD SWAP1 SSTORE POP JUMP JUMPDEST PUSH1 0x20 DUP2 MSTORE PUSH0 DUP3 MLOAD DUP1 PUSH1 0x20 DUP5 ADD MSTORE PUSH3 0x8DC DUP2 PUSH1 0x40 DUP6 ADD PUSH1 0x20 DUP8 ADD PUSH3 0x3B3 JUMP JUMPDEST PUSH1 0x1F ADD PUSH1 0x1F NOT AND SWAP2 SWAP1 SWAP2 ADD PUSH1 0x40 ADD SWAP3 SWAP2 POP POP JUMP JUMPDEST PUSH2 0x26B8 DUP1 PUSH3 0x8FE PUSH0 CODECOPY PUSH0 RETURN INVALID PUSH1 0x80 PUSH1 0x40 MSTORE PUSH1 0x4 CALLDATASIZE LT PUSH2 0x110 JUMPI PUSH0 CALLDATALOAD PUSH1 0xE0 SHR DUP1 PUSH4 0xB68BFD08 GT PUSH2 0x9D JUMPI DUP1 PUSH4 0xC66531CF GT PUSH2 0x62 JUMPI DUP1 PUSH4 0xC66531CF EQ PUSH2 0x2DD JUMPI DUP1 PUSH4 0xCEBD31BC EQ PUSH2 0x301 JUMPI DUP1 PUSH4 0xE7065DFF EQ PUSH2 0x31E JUMPI DUP1 PUSH4 0xE7F9ACED EQ PUSH2 0x332 JUMPI DUP1 PUSH4 0xF2FDE38B EQ PUSH2 0x353 JUMPI PUSH0 DUP1 REVERT JUMPDEST DUP1 PUSH4 0xB68BFD08 EQ PUSH2 0x256 JUMPI DUP1 PUSH4 0xB7751C71 EQ PUSH2 0x277 JUMPI DUP1 PUSH4 0xB81C78EC EQ PUSH2 0x28A JUMPI DUP1 PUSH4 0xC4C09A3A EQ PUSH2 0x2AB JUMPI DUP1 PUSH4 0xC5292C67 EQ PUSH2 0x2BF JUMPI PUSH0 DUP1 REVERT JUMPDEST DUP1 PUSH4 0x4364BAB9 GT PUSH2 0xE3 JUMPI DUP1 PUSH4 0x4364BAB9 EQ PUSH2 0x1AD JUMPI DUP1 PUSH4 0x68E24327 EQ PUSH2 0x1CE JUMPI DUP1 PUSH4 0x715018A6 EQ PUSH2 0x1ED JUMPI DUP1 PUSH4 0x8DA5CB5B EQ PUSH2 0x201 JUMPI DUP1 PUSH4 0x966DAE0E EQ PUSH2 0x237 JUMPI PUSH0 DUP1 REVERT JUMPDEST DUP1 PUSH4 0x28F371AA EQ PUSH2 0x114 JUMPI DUP1 PUSH4 0x2F54BF6E EQ PUSH2 0x149 JUMPI DUP1 PUSH4 0x37271CC7 EQ PUSH2 0x176 JUMPI DUP1 PUSH4 0x3BC5DE30 EQ PUSH2 0x18C JUMPI JUMPDEST PUSH0 DUP1 REVERT JUMPDEST CALLVALUE DUP1 ISZERO PUSH2 0x11F JUMPI PUSH0 DUP1 REVERT JUMPDEST POP PUSH1 0x1 SLOAD PUSH2 0x134 SWAP1 PUSH1 0x1 PUSH1 0xA8 SHL SWAP1 DIV PUSH1 0xFF AND DUP2 JUMP JUMPDEST PUSH1 0x40 MLOAD SWAP1 ISZERO ISZERO DUP2 MSTORE PUSH1 0x20 ADD JUMPDEST PUSH1 0x40 MLOAD DUP1 SWAP2 SUB SWAP1 RETURN JUMPDEST CALLVALUE DUP1 ISZERO PUSH2 0x154 JUMPI PUSH0 DUP1 REVERT JUMPDEST POP PUSH2 0x134 PUSH2 0x163 CALLDATASIZE PUSH1 0x4 PUSH2 0x213F JUMP JUMPDEST PUSH0 SLOAD PUSH1 0x1 PUSH1 0x1 PUSH1 0xA0 SHL SUB SWAP2 DUP3 AND SWAP2 AND EQ SWAP1 JUMP JUMPDEST CALLVALUE DUP1 ISZERO PUSH2 0x181 JUMPI PUSH0 DUP1 REVERT JUMPDEST POP PUSH2 0x18A PUSH2 0x372 JUMP JUMPDEST STOP JUMPDEST CALLVALUE DUP1 ISZERO PUSH2 0x197 JUMPI PUSH0 DUP1 REVERT JUMPDEST POP PUSH2 0x1A0 PUSH2 0x61F JUMP JUMPDEST PUSH1 0x40 MLOAD PUSH2 0x140 SWAP2 SWAP1 PUSH2 0x235B JUMP JUMPDEST CALLVALUE DUP1 ISZERO PUSH2 0x1B8 JUMPI PUSH0 DUP1 REVERT JUMPDEST POP PUSH2 0x1C1 PUSH2 0xD04 JUMP JUMPDEST PUSH1 0x40 MLOAD PUSH2 0x140 SWAP2 SWAP1 PUSH2 0x23C4 JUMP JUMPDEST CALLVALUE DUP1 ISZERO PUSH2 0x1D9 JUMPI PUSH0 DUP1 REVERT JUMPDEST POP PUSH2 0x18A PUSH2 0x1E8 CALLDATASIZE PUSH1 0x4 PUSH2 0x23D6 JUMP JUMPDEST PUSH2 0xDD8 JUMP JUMPDEST CALLVALUE DUP1 ISZERO PUSH2 0x1F8 JUMPI PUSH0 DUP1 REVERT JUMPDEST POP PUSH2 0x18A PUSH2 0xE0B JUMP JUMPDEST CALLVALUE DUP1 ISZERO PUSH2 0x20C JUMPI PUSH0 DUP1 REVERT JUMPDEST POP PUSH0 SLOAD PUSH2 0x21F SWAP1 PUSH1 0x1 PUSH1 0x1 PUSH1 0xA0 SHL SUB AND DUP2 JUMP JUMPDEST PUSH1 0x40 MLOAD PUSH1 0x1 PUSH1 0x1 PUSH1 0xA0 SHL SUB SWAP1 SWAP2 AND DUP2 MSTORE PUSH1 0x20 ADD PUSH2 0x140 JUMP JUMPDEST CALLVALUE DUP1 ISZERO PUSH2 0x242 JUMPI PUSH0 DUP1 REVERT JUMPDEST POP PUSH1 0x1 SLOAD PUSH2 0x21F SWAP1 PUSH1 0x1 PUSH1 0x1 PUSH1 0xA0 SHL SUB AND DUP2 JUMP JUMPDEST CALLVALUE DUP1 ISZERO PUSH2 0x261 JUMPI PUSH0 DUP1 REVERT JUMPDEST POP PUSH2 0x26A PUSH2 0xE66 JUMP JUMPDEST PUSH1 0x40 MLOAD PUSH2 0x140 SWAP2 SWAP1 PUSH2 0x2433 JUMP JUMPDEST PUSH2 0x18A PUSH2 0x285 CALLDATASIZE PUSH1 0x4 PUSH2 0x2441 JUMP JUMPDEST PUSH2 0xF5B JUMP JUMPDEST CALLVALUE DUP1 ISZERO PUSH2 0x295 JUMPI PUSH0 DUP1 REVERT JUMPDEST POP PUSH2 0x29E PUSH2 0x13FB JUMP JUMPDEST PUSH1 0x40 MLOAD PUSH2 0x140 SWAP2 SWAP1 PUSH2 0x2461 JUMP JUMPDEST CALLVALUE DUP1 ISZERO PUSH2 0x2B6 JUMPI PUSH0 DUP1 REVERT JUMPDEST POP PUSH2 0x18A PUSH2 0x152D JUMP JUMPDEST CALLVALUE DUP1 ISZERO PUSH2 0x2CA JUMPI PUSH0 DUP1 REVERT JUMPDEST POP PUSH1 0x1 SLOAD PUSH1 0x1 PUSH1 0xA0 SHL SWAP1 DIV PUSH1 0xFF AND PUSH2 0x134 JUMP JUMPDEST CALLVALUE DUP1 ISZERO PUSH2 0x2E8 JUMPI PUSH0 DUP1 REVERT JUMPDEST POP PUSH1 0x12 SLOAD PUSH1 0x40 MLOAD PUSH4 0xFFFFFFFF SWAP1 SWAP2 AND DUP2 MSTORE PUSH1 0x20 ADD PUSH2 0x140 JUMP JUMPDEST CALLVALUE DUP1 ISZERO PUSH2 0x30C JUMPI PUSH0 DUP1 REVERT JUMPDEST POP PUSH1 0xF SLOAD PUSH1 0x40 MLOAD SWAP1 DUP2 MSTORE PUSH1 0x20 ADD PUSH2 0x140 JUMP JUMPDEST CALLVALUE DUP1 ISZERO PUSH2 0x329 JUMPI PUSH0 DUP1 REVERT JUMPDEST POP PUSH2 0x18A PUSH2 0x1724 JUMP JUMPDEST CALLVALUE DUP1 ISZERO PUSH2 0x33D JUMPI PUSH0 DUP1 REVERT JUMPDEST POP PUSH2 0x346 PUSH2 0x1793 JUMP JUMPDEST PUSH1 0x40 MLOAD PUSH2 0x140 SWAP2 SWAP1 PUSH2 0x24AE JUMP JUMPDEST CALLVALUE DUP1 ISZERO PUSH2 0x35E JUMPI PUSH0 DUP1 REVERT JUMPDEST POP PUSH2 0x18A PUSH2 0x36D CALLDATASIZE PUSH1 0x4 PUSH2 0x213F JUMP JUMPDEST PUSH2 0x1D7A JUMP JUMPDEST PUSH1 0x1 SLOAD PUSH1 0x1 PUSH1 0xA0 SHL SWAP1 DIV PUSH1 0xFF AND PUSH2 0x3A4 JUMPI PUSH1 0x40 MLOAD PUSH3 0x461BCD PUSH1 0xE5 SHL DUP2 MSTORE PUSH1 0x4 ADD PUSH2 0x39B SWAP1 PUSH2 0x24C0 JUMP JUMPDEST PUSH1 0x40 MLOAD DUP1 SWAP2 SUB SWAP1 REVERT JUMPDEST PUSH2 0x3AC PUSH2 0x1DBA JUMP JUMPDEST POP POP PUSH0 SLOAD PUSH1 0x1 PUSH1 0x1 PUSH1 0xA0 SHL SUB AND CALLER SUB PUSH2 0x3C3 JUMPI PUSH0 DUP1 REVERT JUMPDEST PUSH1 0x12 SLOAD PUSH0 SWAP1 PUSH1 0x11 SWAP1 DUP3 SWAP1 PUSH2 0x3DF SWAP1 PUSH1 0x1 SWAP1 PUSH4 0xFFFFFFFF AND PUSH2 0x2525 JUMP JUMPDEST PUSH4 0xFFFFFFFF SWAP1 DUP2 AND DUP3 MSTORE PUSH1 0x20 DUP1 DUP4 ADD SWAP4 SWAP1 SWAP4 MSTORE PUSH1 0x40 SWAP2 DUP3 ADD PUSH0 KECCAK256 DUP3 MLOAD PUSH1 0xA0 DUP2 ADD DUP5 MSTORE DUP2 SLOAD SWAP3 DUP4 AND DUP2 MSTORE PUSH5 0x100000000 SWAP1 SWAP3 DIV PUSH1 0x1 PUSH1 0x1 PUSH1 0xA0 SHL SUB AND SWAP4 DUP3 ADD SWAP4 SWAP1 SWAP4 MSTORE PUSH1 0x1 DUP4 ADD SLOAD SWAP2 DUP2 ADD SWAP2 SWAP1 SWAP2 MSTORE PUSH1 0x2 DUP3 ADD SLOAD PUSH1 0x60 DUP3 ADD MSTORE PUSH1 0x3 SWAP1 SWAP2 ADD SLOAD PUSH1 0xFF AND ISZERO DUP1 ISZERO PUSH1 0x80 DUP4 ADD MSTORE SWAP1 SWAP2 POP PUSH2 0x4A1 JUMPI PUSH1 0x40 MLOAD PUSH3 0x461BCD PUSH1 0xE5 SHL DUP2 MSTORE PUSH1 0x20 PUSH1 0x4 DUP3 ADD MSTORE PUSH1 0x21 PUSH1 0x24 DUP3 ADD MSTORE PUSH32 0x546865206C6173742062696420686173206265656E2077697468647261776564 PUSH1 0x44 DUP3 ADD MSTORE PUSH1 0x17 PUSH1 0xF9 SHL PUSH1 0x64 DUP3 ADD MSTORE PUSH1 0x84 ADD PUSH2 0x39B JUMP JUMPDEST DUP1 PUSH1 0x20 ADD MLOAD PUSH1 0x1 PUSH1 0x1 PUSH1 0xA0 SHL SUB AND CALLER PUSH1 0x1 PUSH1 0x1 PUSH1 0xA0 SHL SUB AND EQ PUSH2 0x518 JUMPI PUSH1 0x40 MLOAD PUSH3 0x461BCD PUSH1 0xE5 SHL DUP2 MSTORE PUSH1 0x20 PUSH1 0x4 DUP3 ADD MSTORE PUSH1 0x29 PUSH1 0x24 DUP3 ADD MSTORE PUSH32 0x53656E646572206973206E6F742074686520626964646572206F662074686520 PUSH1 0x44 DUP3 ADD MSTORE PUSH9 0x3630B9BA103134B217 PUSH1 0xB9 SHL PUSH1 0x64 DUP3 ADD MSTORE PUSH1 0x84 ADD PUSH2 0x39B JUMP JUMPDEST PUSH1 0x1 SLOAD PUSH1 0x20 DUP3 ADD MLOAD DUP3 MLOAD PUSH1 0x40 DUP1 DUP6 ADD MLOAD SWAP1 MLOAD PUSH4 0xB21E0009 PUSH1 0xE0 SHL DUP2 MSTORE PUSH1 0x1 PUSH1 0x1 PUSH1 0xA0 SHL SUB SWAP4 DUP5 AND PUSH1 0x4 DUP3 ADD MSTORE ADDRESS PUSH1 0x24 DUP3 ADD MSTORE PUSH4 0xFFFFFFFF SWAP1 SWAP3 AND PUSH1 0x44 DUP4 ADD MSTORE PUSH1 0x64 DUP3 ADD MSTORE SWAP2 AND SWAP1 DUP2 SWAP1 PUSH4 0xB21E0009 SWAP1 PUSH1 0x84 ADD PUSH0 PUSH1 0x40 MLOAD DUP1 DUP4 SUB DUP2 PUSH0 DUP8 DUP1 EXTCODESIZE ISZERO DUP1 ISZERO PUSH2 0x581 JUMPI PUSH0 DUP1 REVERT JUMPDEST POP GAS CALL ISZERO DUP1 ISZERO PUSH2 0x593 JUMPI RETURNDATASIZE PUSH0 DUP1 RETURNDATACOPY RETURNDATASIZE PUSH0 REVERT JUMPDEST POP POP PUSH1 0x12 SLOAD PUSH1 0x40 MLOAD PUSH4 0xFFFFFFFF SWAP1 SWAP2 AND DUP2 MSTORE ADDRESS SWAP3 POP CALLER SWAP2 POP PUSH32 0x47BF46FAD2760EE84D62606D8AF5800C9752761579FD146D2B8F9D4FA55512F8 SWAP1 PUSH1 0x20 ADD PUSH1 0x40 MLOAD DUP1 SWAP2 SUB SWAP1 LOG3 PUSH1 0x12 SLOAD PUSH1 0x1 SWAP1 PUSH1 0x11 SWAP1 PUSH0 SWAP1 PUSH2 0x5F4 SWAP1 DUP5 SWAP1 PUSH4 0xFFFFFFFF AND PUSH2 0x2525 JUMP JUMPDEST PUSH4 0xFFFFFFFF AND DUP2 MSTORE PUSH1 0x20 DUP2 ADD SWAP2 SWAP1 SWAP2 MSTORE PUSH1 0x40 ADD PUSH0 KECCAK256 PUSH1 0x3 ADD DUP1 SLOAD PUSH1 0xFF NOT AND SWAP2 ISZERO ISZERO SWAP2 SWAP1 SWAP2 OR SWAP1 SSTORE POP POP JUMP JUMPDEST PUSH2 0x627 PUSH2 0x209F JUMP JUMPDEST PUSH1 0x40 DUP1 MLOAD PUSH1 0xA0 DUP2 ADD DUP3 MSTORE PUSH1 0x1 SLOAD PUSH1 0x1 PUSH1 0xA0 SHL SWAP1 DIV PUSH1 0xFF AND ISZERO ISZERO DUP2 MSTORE ADDRESS PUSH1 0x20 DUP3 ADD MSTORE DUP2 MLOAD PUSH2 0x1A0 DUP2 ADD DUP4 MSTORE PUSH1 0x2 DUP1 SLOAD SWAP3 SWAP4 DUP5 ADD SWAP3 DUP3 SWAP1 DUP3 SWAP1 PUSH2 0x667 SWAP1 PUSH2 0x2549 JUMP JUMPDEST DUP1 PUSH1 0x1F ADD PUSH1 0x20 DUP1 SWAP2 DIV MUL PUSH1 0x20 ADD PUSH1 0x40 MLOAD SWAP1 DUP2 ADD PUSH1 0x40 MSTORE DUP1 SWAP3 SWAP2 SWAP1 DUP2 DUP2 MSTORE PUSH1 0x20 ADD DUP3 DUP1 SLOAD PUSH2 0x693 SWAP1 PUSH2 0x2549 JUMP JUMPDEST DUP1 ISZERO PUSH2 0x6DE JUMPI DUP1 PUSH1 0x1F LT PUSH2 0x6B5 JUMPI PUSH2 0x100 DUP1 DUP4 SLOAD DIV MUL DUP4 MSTORE SWAP2 PUSH1 0x20 ADD SWAP2 PUSH2 0x6DE JUMP JUMPDEST DUP3 ADD SWAP2 SWAP1 PUSH0 MSTORE PUSH1 0x20 PUSH0 KECCAK256 SWAP1 JUMPDEST DUP2 SLOAD DUP2 MSTORE SWAP1 PUSH1 0x1 ADD SWAP1 PUSH1 0x20 ADD DUP1 DUP4 GT PUSH2 0x6C1 JUMPI DUP3 SWAP1 SUB PUSH1 0x1F AND DUP3 ADD SWAP2 JUMPDEST POP POP POP POP POP DUP2 MSTORE PUSH1 0x20 ADD PUSH1 0x1 DUP3 ADD DUP1 SLOAD PUSH2 0x6F7 SWAP1 PUSH2 0x2549 JUMP JUMPDEST DUP1 PUSH1 0x1F ADD PUSH1 0x20 DUP1 SWAP2 DIV MUL PUSH1 0x20 ADD PUSH1 0x40 MLOAD SWAP1 DUP2 ADD PUSH1 0x40 MSTORE DUP1 SWAP3 SWAP2 SWAP1 DUP2 DUP2 MSTORE PUSH1 0x20 ADD DUP3 DUP1 SLOAD PUSH2 0x723 SWAP1 PUSH2 0x2549 JUMP JUMPDEST DUP1 ISZERO PUSH2 0x76E JUMPI DUP1 PUSH1 0x1F LT PUSH2 0x745 JUMPI PUSH2 0x100 DUP1 DUP4 SLOAD DIV MUL DUP4 MSTORE SWAP2 PUSH1 0x20 ADD SWAP2 PUSH2 0x76E JUMP JUMPDEST DUP3 ADD SWAP2 SWAP1 PUSH0 MSTORE PUSH1 0x20 PUSH0 KECCAK256 SWAP1 JUMPDEST DUP2 SLOAD DUP2 MSTORE SWAP1 PUSH1 0x1 ADD SWAP1 PUSH1 0x20 ADD DUP1 DUP4 GT PUSH2 0x751 JUMPI DUP3 SWAP1 SUB PUSH1 0x1F AND DUP3 ADD SWAP2 JUMPDEST POP POP POP POP POP DUP2 MSTORE PUSH1 0x20 ADD PUSH1 0x2 DUP3 ADD DUP1 SLOAD PUSH2 0x787 SWAP1 PUSH2 0x2549 JUMP JUMPDEST DUP1 PUSH1 0x1F ADD PUSH1 0x20 DUP1 SWAP2 DIV MUL PUSH1 0x20 ADD PUSH1 0x40 MLOAD SWAP1 DUP2 ADD PUSH1 0x40 MSTORE DUP1 SWAP3 SWAP2 SWAP1 DUP2 DUP2 MSTORE PUSH1 0x20 ADD DUP3 DUP1 SLOAD PUSH2 0x7B3 SWAP1 PUSH2 0x2549 JUMP JUMPDEST DUP1 ISZERO PUSH2 0x7FE JUMPI DUP1 PUSH1 0x1F LT PUSH2 0x7D5 JUMPI PUSH2 0x100 DUP1 DUP4 SLOAD DIV MUL DUP4 MSTORE SWAP2 PUSH1 0x20 ADD SWAP2 PUSH2 0x7FE JUMP JUMPDEST DUP3 ADD SWAP2 SWAP1 PUSH0 MSTORE PUSH1 0x20 PUSH0 KECCAK256 SWAP1 JUMPDEST DUP2 SLOAD DUP2 MSTORE SWAP1 PUSH1 0x1 ADD SWAP1 PUSH1 0x20 ADD DUP1 DUP4 GT PUSH2 0x7E1 JUMPI DUP3 SWAP1 SUB PUSH1 0x1F AND DUP3 ADD SWAP2 JUMPDEST POP POP POP POP POP DUP2 MSTORE PUSH1 0x20 ADD PUSH1 0x3 DUP3 ADD DUP1 SLOAD PUSH2 0x817 SWAP1 PUSH2 0x2549 JUMP JUMPDEST DUP1 PUSH1 0x1F ADD PUSH1 0x20 DUP1 SWAP2 DIV MUL PUSH1 0x20 ADD PUSH1 0x40 MLOAD SWAP1 DUP2 ADD PUSH1 0x40 MSTORE DUP1 SWAP3 SWAP2 SWAP1 DUP2 DUP2 MSTORE PUSH1 0x20 ADD DUP3 DUP1 SLOAD PUSH2 0x843 SWAP1 PUSH2 0x2549 JUMP JUMPDEST DUP1 ISZERO PUSH2 0x88E JUMPI DUP1 PUSH1 0x1F LT PUSH2 0x865 JUMPI PUSH2 0x100 DUP1 DUP4 SLOAD DIV MUL DUP4 MSTORE SWAP2 PUSH1 0x20 ADD SWAP2 PUSH2 0x88E JUMP JUMPDEST DUP3 ADD SWAP2 SWAP1 PUSH0 MSTORE PUSH1 0x20 PUSH0 KECCAK256 SWAP1 JUMPDEST DUP2 SLOAD DUP2 MSTORE SWAP1 PUSH1 0x1 ADD SWAP1 PUSH1 0x20 ADD DUP1 DUP4 GT PUSH2 0x871 JUMPI DUP3 SWAP1 SUB PUSH1 0x1F AND DUP3 ADD SWAP2 JUMPDEST POP POP POP POP POP DUP2 MSTORE PUSH1 0x20 ADD PUSH1 0x4 DUP3 ADD DUP1 SLOAD PUSH2 0x8A7 SWAP1 PUSH2 0x2549 JUMP JUMPDEST DUP1 PUSH1 0x1F ADD PUSH1 0x20 DUP1 SWAP2 DIV MUL PUSH1 0x20 ADD PUSH1 0x40 MLOAD SWAP1 DUP2 ADD PUSH1 0x40 MSTORE DUP1 SWAP3 SWAP2 SWAP1 DUP2 DUP2 MSTORE PUSH1 0x20 ADD DUP3 DUP1 SLOAD PUSH2 0x8D3 SWAP1 PUSH2 0x2549 JUMP JUMPDEST DUP1 ISZERO PUSH2 0x91E JUMPI DUP1 PUSH1 0x1F LT PUSH2 0x8F5 JUMPI PUSH2 0x100 DUP1 DUP4 SLOAD DIV MUL DUP4 MSTORE SWAP2 PUSH1 0x20 ADD SWAP2 PUSH2 0x91E JUMP JUMPDEST DUP3 ADD SWAP2 SWAP1 PUSH0 MSTORE PUSH1 0x20 PUSH0 KECCAK256 SWAP1 JUMPDEST DUP2 SLOAD DUP2 MSTORE SWAP1 PUSH1 0x1 ADD SWAP1 PUSH1 0x20 ADD DUP1 DUP4 GT PUSH2 0x901 JUMPI DUP3 SWAP1 SUB PUSH1 0x1F AND DUP3 ADD SWAP2 JUMPDEST POP POP POP SWAP2 DUP4 MSTORE POP POP PUSH1 0x5 DUP3 ADD SLOAD PUSH2 0xFFFF AND PUSH1 0x20 DUP3 ADD MSTORE PUSH1 0x6 DUP3 ADD DUP1 SLOAD PUSH1 0x40 SWAP1 SWAP3 ADD SWAP2 PUSH2 0x949 SWAP1 PUSH2 0x2549 JUMP JUMPDEST DUP1 PUSH1 0x1F ADD PUSH1 0x20 DUP1 SWAP2 DIV MUL PUSH1 0x20 ADD PUSH1 0x40 MLOAD SWAP1 DUP2 ADD PUSH1 0x40 MSTORE DUP1 SWAP3 SWAP2 SWAP1 DUP2 DUP2 MSTORE PUSH1 0x20 ADD DUP3 DUP1 SLOAD PUSH2 0x975 SWAP1 PUSH2 0x2549 JUMP JUMPDEST DUP1 ISZERO PUSH2 0x9C0 JUMPI DUP1 PUSH1 0x1F LT PUSH2 0x997 JUMPI PUSH2 0x100 DUP1 DUP4 SLOAD DIV MUL DUP4 MSTORE SWAP2 PUSH1 0x20 ADD SWAP2 PUSH2 0x9C0 JUMP JUMPDEST DUP3 ADD SWAP2 SWAP1 PUSH0 MSTORE PUSH1 0x20 PUSH0 KECCAK256 SWAP1 JUMPDEST DUP2 SLOAD DUP2 MSTORE SWAP1 PUSH1 0x1 ADD SWAP1 PUSH1 0x20 ADD DUP1 DUP4 GT PUSH2 0x9A3 JUMPI DUP3 SWAP1 SUB PUSH1 0x1F AND DUP3 ADD SWAP2 JUMPDEST POP POP POP POP POP DUP2 MSTORE PUSH1 0x20 ADD PUSH1 0x7 DUP3 ADD DUP1 SLOAD PUSH2 0x9D9 SWAP1 PUSH2 0x2549 JUMP JUMPDEST DUP1 PUSH1 0x1F ADD PUSH1 0x20 DUP1 SWAP2 DIV MUL PUSH1 0x20 ADD PUSH1 0x40 MLOAD SWAP1 DUP2 ADD PUSH1 0x40 MSTORE DUP1 SWAP3 SWAP2 SWAP1 DUP2 DUP2 MSTORE PUSH1 0x20 ADD DUP3 DUP1 SLOAD PUSH2 0xA05 SWAP1 PUSH2 0x2549 JUMP JUMPDEST DUP1 ISZERO PUSH2 0xA50 JUMPI DUP1 PUSH1 0x1F LT PUSH2 0xA27 JUMPI PUSH2 0x100 DUP1 DUP4 SLOAD DIV MUL DUP4 MSTORE SWAP2 PUSH1 0x20 ADD SWAP2 PUSH2 0xA50 JUMP JUMPDEST DUP3 ADD SWAP2 SWAP1 PUSH0 MSTORE PUSH1 0x20 PUSH0 KECCAK256 SWAP1 JUMPDEST DUP2 SLOAD DUP2 MSTORE SWAP1 PUSH1 0x1 ADD SWAP1 PUSH1 0x20 ADD DUP1 DUP4 GT PUSH2 0xA33 JUMPI DUP3 SWAP1 SUB PUSH1 0x1F AND DUP3 ADD SWAP2 JUMPDEST POP POP POP POP POP DUP2 MSTORE PUSH1 0x20 ADD PUSH1 0x8 DUP3 ADD DUP1 SLOAD PUSH2 0xA69 SWAP1 PUSH2 0x2549 JUMP JUMPDEST DUP1 PUSH1 0x1F ADD PUSH1 0x20 DUP1 SWAP2 DIV MUL PUSH1 0x20 ADD PUSH1 0x40 MLOAD SWAP1 DUP2 ADD PUSH1 0x40 MSTORE DUP1 SWAP3 SWAP2 SWAP1 DUP2 DUP2 MSTORE PUSH1 0x20 ADD DUP3 DUP1 SLOAD PUSH2 0xA95 SWAP1 PUSH2 0x2549 JUMP JUMPDEST DUP1 ISZERO PUSH2 0xAE0 JUMPI DUP1 PUSH1 0x1F LT PUSH2 0xAB7 JUMPI PUSH2 0x100 DUP1 DUP4 SLOAD DIV MUL DUP4 MSTORE SWAP2 PUSH1 0x20 ADD SWAP2 PUSH2 0xAE0 JUMP JUMPDEST DUP3 ADD SWAP2 SWAP1 PUSH0 MSTORE PUSH1 0x20 PUSH0 KECCAK256 SWAP1 JUMPDEST DUP2 SLOAD DUP2 MSTORE SWAP1 PUSH1 0x1 ADD SWAP1 PUSH1 0x20 ADD DUP1 DUP4 GT PUSH2 0xAC3 JUMPI DUP3 SWAP1 SUB PUSH1 0x1F AND DUP3 ADD SWAP2 JUMPDEST POP POP POP POP POP DUP2 MSTORE PUSH1 0x20 ADD PUSH1 0x9 DUP3 ADD DUP1 SLOAD PUSH2 0xAF9 SWAP1 PUSH2 0x2549 JUMP JUMPDEST DUP1 PUSH1 0x1F ADD PUSH1 0x20 DUP1 SWAP2 DIV MUL PUSH1 0x20 ADD PUSH1 0x40 MLOAD SWAP1 DUP2 ADD PUSH1 0x40 MSTORE DUP1 SWAP3 SWAP2 SWAP1 DUP2 DUP2 MSTORE PUSH1 0x20 ADD DUP3 DUP1 SLOAD PUSH2 0xB25 SWAP1 PUSH2 0x2549 JUMP JUMPDEST DUP1 ISZERO PUSH2 0xB70 JUMPI DUP1 PUSH1 0x1F LT PUSH2 0xB47 JUMPI PUSH2 0x100 DUP1 DUP4 SLOAD DIV MUL DUP4 MSTORE SWAP2 PUSH1 0x20 ADD SWAP2 PUSH2 0xB70 JUMP JUMPDEST DUP3 ADD SWAP2 SWAP1 PUSH0 MSTORE PUSH1 0x20 PUSH0 KECCAK256 SWAP1 JUMPDEST DUP2 SLOAD DUP2 MSTORE SWAP1 PUSH1 0x1 ADD SWAP1 PUSH1 0x20 ADD DUP1 DUP4 GT PUSH2 0xB53 JUMPI DUP3 SWAP1 SUB PUSH1 0x1F AND DUP3 ADD SWAP2 JUMPDEST POP POP POP POP POP DUP2 MSTORE PUSH1 0x20 ADD PUSH1 0xA DUP3 ADD DUP1 SLOAD PUSH2 0xB89 SWAP1 PUSH2 0x2549 JUMP JUMPDEST DUP1 PUSH1 0x1F ADD PUSH1 0x20 DUP1 SWAP2 DIV MUL PUSH1 0x20 ADD PUSH1 0x40 MLOAD SWAP1 DUP2 ADD PUSH1 0x40 MSTORE DUP1 SWAP3 SWAP2 SWAP1 DUP2 DUP2 MSTORE PUSH1 0x20 ADD DUP3 DUP1 SLOAD PUSH2 0xBB5 SWAP1 PUSH2 0x2549 JUMP JUMPDEST DUP1 ISZERO PUSH2 0xC00 JUMPI DUP1 PUSH1 0x1F LT PUSH2 0xBD7 JUMPI PUSH2 0x100 DUP1 DUP4 SLOAD DIV MUL DUP4 MSTORE SWAP2 PUSH1 0x20 ADD SWAP2 PUSH2 0xC00 JUMP JUMPDEST DUP3 ADD SWAP2 SWAP1 PUSH0 MSTORE PUSH1 0x20 PUSH0 KECCAK256 SWAP1 JUMPDEST DUP2 SLOAD DUP2 MSTORE SWAP1 PUSH1 0x1 ADD SWAP1 PUSH1 0x20 ADD DUP1 DUP4 GT PUSH2 0xBE3 JUMPI DUP3 SWAP1 SUB PUSH1 0x1F AND DUP3 ADD SWAP2 JUMPDEST POP POP POP SWAP2 DUP4 MSTORE POP POP PUSH1 0xB DUP3 ADD SLOAD PUSH4 0xFFFFFFFF AND PUSH1 0x20 DUP1 DUP4 ADD SWAP2 SWAP1 SWAP2 MSTORE PUSH1 0xC SWAP1 SWAP3 ADD SLOAD PUSH1 0x40 SWAP2 DUP3 ADD MSTORE SWAP2 DUP4 MSTORE PUSH1 0xF SLOAD DUP4 DUP3 ADD MSTORE PUSH1 0x10 DUP1 SLOAD DUP4 MLOAD DUP2 DUP5 MUL DUP2 ADD DUP5 ADD DUP6 MSTORE DUP2 DUP2 MSTORE SWAP5 SWAP1 SWAP4 ADD SWAP4 SWAP3 SWAP1 SWAP2 PUSH0 SWAP1 DUP5 ADD JUMPDEST DUP3 DUP3 LT ISZERO PUSH2 0xCF9 JUMPI DUP4 DUP3 SWAP1 PUSH0 MSTORE PUSH1 0x20 PUSH0 KECCAK256 ADD DUP1 SLOAD PUSH2 0xC6E SWAP1 PUSH2 0x2549 JUMP JUMPDEST DUP1 PUSH1 0x1F ADD PUSH1 0x20 DUP1 SWAP2 DIV MUL PUSH1 0x20 ADD PUSH1 0x40 MLOAD SWAP1 DUP2 ADD PUSH1 0x40 MSTORE DUP1 SWAP3 SWAP2 SWAP1 DUP2 DUP2 MSTORE PUSH1 0x20 ADD DUP3 DUP1 SLOAD PUSH2 0xC9A SWAP1 PUSH2 0x2549 JUMP JUMPDEST DUP1 ISZERO PUSH2 0xCE5 JUMPI DUP1 PUSH1 0x1F LT PUSH2 0xCBC JUMPI PUSH2 0x100 DUP1 DUP4 SLOAD DIV MUL DUP4 MSTORE SWAP2 PUSH1 0x20 ADD SWAP2 PUSH2 0xCE5 JUMP JUMPDEST DUP3 ADD SWAP2 SWAP1 PUSH0 MSTORE PUSH1 0x20 PUSH0 KECCAK256 SWAP1 JUMPDEST DUP2 SLOAD DUP2 MSTORE SWAP1 PUSH1 0x1 ADD SWAP1 PUSH1 0x20 ADD DUP1 DUP4 GT PUSH2 0xCC8 JUMPI DUP3 SWAP1 SUB PUSH1 0x1F AND DUP3 ADD SWAP2 JUMPDEST POP POP POP POP POP DUP2 MSTORE PUSH1 0x20 ADD SWAP1 PUSH1 0x1 ADD SWAP1 PUSH2 0xC51 JUMP JUMPDEST POP POP POP SWAP2 MSTORE POP SWAP2 SWAP1 POP JUMP JUMPDEST PUSH1 0x60 PUSH1 0x10 DUP1 SLOAD DUP1 PUSH1 0x20 MUL PUSH1 0x20 ADD PUSH1 0x40 MLOAD SWAP1 DUP2 ADD PUSH1 0x40 MSTORE DUP1 SWAP3 SWAP2 SWAP1 DUP2 DUP2 MSTORE PUSH1 0x20 ADD PUSH0 SWAP1 JUMPDEST DUP3 DUP3 LT ISZERO PUSH2 0xDCF JUMPI DUP4 DUP3 SWAP1 PUSH0 MSTORE PUSH1 0x20 PUSH0 KECCAK256 ADD DUP1 SLOAD PUSH2 0xD44 SWAP1 PUSH2 0x2549 JUMP JUMPDEST DUP1 PUSH1 0x1F ADD PUSH1 0x20 DUP1 SWAP2 DIV MUL PUSH1 0x20 ADD PUSH1 0x40 MLOAD SWAP1 DUP2 ADD PUSH1 0x40 MSTORE DUP1 SWAP3 SWAP2 SWAP1 DUP2 DUP2 MSTORE PUSH1 0x20 ADD DUP3 DUP1 SLOAD PUSH2 0xD70 SWAP1 PUSH2 0x2549 JUMP JUMPDEST DUP1 ISZERO PUSH2 0xDBB JUMPI DUP1 PUSH1 0x1F LT PUSH2 0xD92 JUMPI PUSH2 0x100 DUP1 DUP4 SLOAD DIV MUL DUP4 MSTORE SWAP2 PUSH1 0x20 ADD SWAP2 PUSH2 0xDBB JUMP JUMPDEST DUP3 ADD SWAP2 SWAP1 PUSH0 MSTORE PUSH1 0x20 PUSH0 KECCAK256 SWAP1 JUMPDEST DUP2 SLOAD DUP2 MSTORE SWAP1 PUSH1 0x1 ADD SWAP1 PUSH1 0x20 ADD DUP1 DUP4 GT PUSH2 0xD9E JUMPI DUP3 SWAP1 SUB PUSH1 0x1F AND DUP3 ADD SWAP2 JUMPDEST POP POP POP POP POP DUP2 MSTORE PUSH1 0x20 ADD SWAP1 PUSH1 0x1 ADD SWAP1 PUSH2 0xD27 JUMP JUMPDEST POP POP POP POP SWAP1 POP SWAP1 JUMP JUMPDEST PUSH0 SLOAD PUSH1 0x1 PUSH1 0x1 PUSH1 0xA0 SHL SUB AND CALLER EQ PUSH2 0xDED JUMPI PUSH0 DUP1 REVERT JUMPDEST PUSH1 0x1 DUP1 SLOAD SWAP2 ISZERO ISZERO PUSH1 0x1 PUSH1 0xA0 SHL MUL PUSH1 0xFF PUSH1 0xA0 SHL NOT SWAP1 SWAP3 AND SWAP2 SWAP1 SWAP2 OR SWAP1 SSTORE JUMP JUMPDEST PUSH0 SLOAD PUSH1 0x1 PUSH1 0x1 PUSH1 0xA0 SHL SUB AND CALLER EQ PUSH2 0xE20 JUMPI PUSH0 DUP1 REVERT JUMPDEST PUSH0 DUP1 SLOAD PUSH1 0x40 MLOAD PUSH1 0x1 PUSH1 0x1 PUSH1 0xA0 SHL SUB SWAP1 SWAP2 AND SWAP2 PUSH32 0xF8DF31144D9C2F0F6B59D69B8B98ABD5459D07F2742C4DF920B25AAE33C64820 SWAP2 LOG2 PUSH0 DUP1 SLOAD PUSH1 0x1 PUSH1 0x1 PUSH1 0xA0 SHL SUB NOT AND SWAP1 SSTORE JUMP JUMPDEST PUSH1 0x40 DUP1 MLOAD PUSH1 0xA0 DUP2 ADD DUP3 MSTORE PUSH0 DUP1 DUP3 MSTORE PUSH1 0x20 DUP3 ADD DUP2 SWAP1 MSTORE SWAP2 DUP2 ADD DUP3 SWAP1 MSTORE PUSH1 0x60 DUP2 ADD DUP3 SWAP1 MSTORE PUSH1 0x80 DUP2 ADD SWAP2 SWAP1 SWAP2 MSTORE PUSH1 0x12 SLOAD PUSH4 0xFFFFFFFF AND JUMPDEST PUSH4 0xFFFFFFFF DUP2 AND ISZERO PUSH2 0xF2C JUMPI DUP1 PUSH2 0xEB0 DUP2 PUSH2 0x257B JUMP JUMPDEST PUSH4 0xFFFFFFFF DUP2 DUP2 AND PUSH0 SWAP1 DUP2 MSTORE PUSH1 0x11 PUSH1 0x20 SWAP1 DUP2 MSTORE PUSH1 0x40 SWAP2 DUP3 SWAP1 KECCAK256 DUP3 MLOAD PUSH1 0xA0 DUP2 ADD DUP5 MSTORE DUP2 SLOAD SWAP5 DUP6 AND DUP2 MSTORE PUSH5 0x100000000 SWAP1 SWAP5 DIV PUSH1 0x1 PUSH1 0x1 PUSH1 0xA0 SHL SUB AND SWAP2 DUP5 ADD SWAP2 SWAP1 SWAP2 MSTORE PUSH1 0x1 DUP2 ADD SLOAD SWAP2 DUP4 ADD SWAP2 SWAP1 SWAP2 MSTORE PUSH1 0x2 DUP2 ADD SLOAD PUSH1 0x60 DUP4 ADD MSTORE PUSH1 0x3 ADD SLOAD PUSH1 0xFF AND ISZERO ISZERO PUSH1 0x80 DUP3 ADD DUP2 SWAP1 MSTORE SWAP2 SWAP4 POP SWAP2 POP PUSH2 0xF26 JUMPI SWAP3 SWAP2 POP POP JUMP JUMPDEST POP PUSH2 0xE9A JUMP JUMPDEST POP POP PUSH1 0x40 DUP1 MLOAD PUSH1 0xA0 DUP2 ADD DUP3 MSTORE PUSH0 DUP1 DUP3 MSTORE PUSH1 0x20 DUP3 ADD DUP2 SWAP1 MSTORE SWAP2 DUP2 ADD DUP3 SWAP1 MSTORE PUSH1 0x60 DUP2 ADD SWAP2 SWAP1 SWAP2 MSTORE PUSH1 0x1 PUSH1 0x80 DUP3 ADD MSTORE SWAP1 JUMP JUMPDEST DUP2 DUP1 CALLVALUE EQ PUSH2 0xFAB JUMPI PUSH1 0x40 MLOAD PUSH3 0x461BCD PUSH1 0xE5 SHL DUP2 MSTORE PUSH1 0x20 PUSH1 0x4 DUP3 ADD MSTORE PUSH1 0x19 PUSH1 0x24 DUP3 ADD MSTORE PUSH32 0x56616C7565206D75737420657175616C207175616E7469747900000000000000 PUSH1 0x44 DUP3 ADD MSTORE PUSH1 0x64 ADD PUSH2 0x39B JUMP JUMPDEST PUSH1 0x1 SLOAD PUSH1 0x1 PUSH1 0xA0 SHL SWAP1 DIV PUSH1 0xFF AND PUSH2 0xFD4 JUMPI PUSH1 0x40 MLOAD PUSH3 0x461BCD PUSH1 0xE5 SHL DUP2 MSTORE PUSH1 0x4 ADD PUSH2 0x39B SWAP1 PUSH2 0x24C0 JUMP JUMPDEST PUSH0 SLOAD PUSH1 0x1 PUSH1 0x1 PUSH1 0xA0 SHL SUB AND CALLER SUB PUSH2 0xFE9 JUMPI PUSH0 DUP1 REVERT JUMPDEST PUSH1 0x40 DUP1 MLOAD PUSH1 0xA0 DUP2 ADD SWAP1 SWAP2 MSTORE PUSH1 0x12 SLOAD PUSH0 SWAP2 SWAP1 DUP2 SWAP1 PUSH2 0x100D SWAP1 PUSH4 0xFFFFFFFF AND PUSH1 0x1 PUSH2 0x2599 JUMP JUMPDEST PUSH4 0xFFFFFFFF SWAP1 DUP2 AND DUP3 MSTORE CALLER PUSH1 0x20 DUP1 DUP5 ADD SWAP2 SWAP1 SWAP2 MSTORE PUSH1 0x40 DUP1 DUP5 ADD DUP10 SWAP1 MSTORE PUSH1 0x60 DUP1 DUP6 ADD DUP10 SWAP1 MSTORE PUSH0 PUSH1 0x80 SWAP6 DUP7 ADD DUP2 SWAP1 MSTORE PUSH1 0x12 SLOAD DUP6 AND DUP2 MSTORE PUSH1 0x11 DUP5 MSTORE DUP3 DUP2 KECCAK256 DUP8 MLOAD DUP2 SLOAD SWAP6 DUP10 ADD MLOAD PUSH1 0x1 PUSH1 0x1 PUSH1 0xA0 SHL SUB AND PUSH5 0x100000000 MUL PUSH1 0x1 PUSH1 0x1 PUSH1 0xC0 SHL SUB NOT SWAP1 SWAP7 AND SWAP7 AND SWAP6 SWAP1 SWAP6 OR SWAP4 SWAP1 SWAP4 OR DUP5 SSTORE SWAP1 DUP6 ADD MLOAD PUSH1 0x1 DUP5 ADD SSTORE DUP5 ADD MLOAD PUSH1 0x2 DUP4 ADD SSTORE SWAP2 DUP4 ADD MLOAD PUSH1 0x3 SWAP1 SWAP2 ADD DUP1 SLOAD SWAP2 ISZERO ISZERO PUSH1 0xFF NOT SWAP1 SWAP3 AND SWAP2 SWAP1 SWAP2 OR SWAP1 SSTORE SWAP1 SWAP2 POP PUSH2 0x10AE PUSH2 0xE66 JUMP JUMPDEST SWAP1 POP PUSH8 0xDE0B6B3A7640000 CALLER BALANCE LT ISZERO PUSH2 0x1128 JUMPI PUSH2 0x10CB CALLER BALANCE PUSH2 0x1EC2 JUMP JUMPDEST PUSH2 0x10D4 DUP7 PUSH2 0x1EC2 JUMP JUMPDEST PUSH1 0x40 MLOAD PUSH1 0x20 ADD PUSH2 0x10E4 SWAP2 SWAP1 PUSH2 0x25B6 JUMP JUMPDEST PUSH1 0x40 DUP1 MLOAD PUSH1 0x1F NOT DUP2 DUP5 SUB ADD DUP2 MSTORE SWAP1 DUP3 SWAP1 MSTORE PUSH2 0x1102 SWAP3 SWAP2 PUSH1 0x20 ADD PUSH2 0x25D1 JUMP JUMPDEST PUSH1 0x40 DUP1 MLOAD PUSH1 0x1F NOT DUP2 DUP5 SUB ADD DUP2 MSTORE SWAP1 DUP3 SWAP1 MSTORE PUSH3 0x461BCD PUSH1 0xE5 SHL DUP3 MSTORE PUSH2 0x39B SWAP2 PUSH1 0x4 ADD PUSH2 0x25FF JUMP JUMPDEST DUP1 PUSH1 0x80 ADD MLOAD DUP1 ISZERO PUSH2 0x113A JUMPI POP PUSH1 0xF SLOAD DUP6 LT JUMPDEST ISZERO PUSH2 0x11A5 JUMPI PUSH1 0x40 MLOAD PUSH3 0x461BCD PUSH1 0xE5 SHL DUP2 MSTORE PUSH1 0x20 PUSH1 0x4 DUP3 ADD MSTORE PUSH1 0x35 PUSH1 0x24 DUP3 ADD MSTORE PUSH32 0x546865207175616E74697479206D75737420657175616C206F72206578636565 PUSH1 0x44 DUP3 ADD MSTORE PUSH21 0x32103A34329039BA30B93A34B73390383934B1B297 PUSH1 0x59 SHL PUSH1 0x64 DUP3 ADD MSTORE PUSH1 0x84 ADD PUSH2 0x39B JUMP JUMPDEST DUP1 PUSH1 0x80 ADD MLOAD ISZERO DUP1 ISZERO PUSH2 0x11FA JUMPI POP PUSH1 0x12 SLOAD PUSH1 0x11 SWAP1 PUSH0 SWAP1 PUSH2 0x11CC SWAP1 PUSH1 0x1 SWAP1 PUSH4 0xFFFFFFFF AND PUSH2 0x2525 JUMP JUMPDEST PUSH4 0xFFFFFFFF AND DUP2 MSTORE PUSH1 0x20 DUP2 ADD SWAP2 SWAP1 SWAP2 MSTORE PUSH1 0x40 ADD PUSH0 KECCAK256 PUSH1 0x1 ADD SLOAD PUSH2 0x11F7 SWAP1 PUSH8 0x16345785D8A0000 PUSH2 0x2611 JUMP JUMPDEST DUP6 LT JUMPDEST ISZERO PUSH2 0x1277 JUMPI PUSH1 0x40 MLOAD PUSH3 0x461BCD PUSH1 0xE5 SHL DUP2 MSTORE PUSH1 0x20 PUSH1 0x4 DUP3 ADD MSTORE PUSH1 0x41 PUSH1 0x24 DUP3 ADD MSTORE PUSH32 0x4E6577207175616E74697479206D757374206265206772656174657220746861 PUSH1 0x44 DUP3 ADD MSTORE PUSH32 0x6E207468652070726576696F7573206174206C6561737420302E31204B4C4159 PUSH1 0x64 DUP3 ADD MSTORE PUSH1 0x17 PUSH1 0xF9 SHL PUSH1 0x84 DUP3 ADD MSTORE PUSH1 0xA4 ADD PUSH2 0x39B JUMP JUMPDEST PUSH1 0x1 SLOAD PUSH1 0x40 MLOAD PUSH1 0x1 PUSH1 0x1 PUSH1 0xA0 SHL SUB SWAP1 SWAP2 AND SWAP1 CALLVALUE DUP1 ISZERO PUSH2 0x8FC MUL SWAP2 PUSH0 DUP2 DUP2 DUP2 DUP6 DUP9 DUP9 CALL SWAP4 POP POP POP POP ISZERO DUP1 ISZERO PUSH2 0x12AD JUMPI RETURNDATASIZE PUSH0 DUP1 RETURNDATACOPY RETURNDATASIZE PUSH0 REVERT JUMPDEST POP PUSH1 0x12 SLOAD PUSH1 0x40 DUP1 MLOAD PUSH4 0xFFFFFFFF SWAP1 SWAP3 AND DUP3 MSTORE PUSH1 0x20 DUP3 ADD DUP8 SWAP1 MSTORE CALLVALUE DUP3 DUP3 ADD MSTORE MLOAD ADDRESS SWAP2 CALLER SWAP2 PUSH32 0xD935FB49A37280D0444C7535FEA4A6F35F0E741795075668648BFDD008C7BE03 SWAP2 DUP2 SWAP1 SUB PUSH1 0x60 ADD SWAP1 LOG3 DUP1 PUSH1 0x80 ADD MLOAD PUSH2 0x13C0 JUMPI PUSH1 0x1 SLOAD PUSH1 0x20 DUP3 ADD MLOAD DUP3 MLOAD PUSH1 0x40 DUP1 DUP6 ADD MLOAD SWAP1 MLOAD PUSH4 0xB21E0009 PUSH1 0xE0 SHL DUP2 MSTORE PUSH1 0x1 PUSH1 0x1 PUSH1 0xA0 SHL SUB SWAP4 DUP5 AND PUSH1 0x4 DUP3 ADD MSTORE ADDRESS PUSH1 0x24 DUP3 ADD MSTORE PUSH4 0xFFFFFFFF SWAP1 SWAP3 AND PUSH1 0x44 DUP4 ADD MSTORE PUSH1 0x64 DUP3 ADD MSTORE SWAP2 AND SWAP1 DUP2 SWAP1 PUSH4 0xB21E0009 SWAP1 PUSH1 0x84 ADD PUSH0 PUSH1 0x40 MLOAD DUP1 DUP4 SUB DUP2 PUSH0 DUP8 DUP1 EXTCODESIZE ISZERO DUP1 ISZERO PUSH2 0x136C JUMPI PUSH0 DUP1 REVERT JUMPDEST POP GAS CALL ISZERO DUP1 ISZERO PUSH2 0x137E JUMPI RETURNDATASIZE PUSH0 DUP1 RETURNDATACOPY RETURNDATASIZE PUSH0 REVERT JUMPDEST POP POP POP POP PUSH1 0x1 PUSH1 0x11 PUSH0 PUSH1 0x1 DUP6 PUSH0 ADD MLOAD PUSH2 0x1397 SWAP2 SWAP1 PUSH2 0x2525 JUMP JUMPDEST PUSH4 0xFFFFFFFF AND DUP2 MSTORE PUSH1 0x20 DUP2 ADD SWAP2 SWAP1 SWAP2 MSTORE PUSH1 0x40 ADD PUSH0 KECCAK256 PUSH1 0x3 ADD DUP1 SLOAD PUSH1 0xFF NOT AND SWAP2 ISZERO ISZERO SWAP2 SWAP1 SWAP2 OR SWAP1 SSTORE POP JUMPDEST PUSH1 0x12 DUP1 SLOAD PUSH4 0xFFFFFFFF AND SWAP1 PUSH0 PUSH2 0x13D5 DUP4 PUSH2 0x2624 JUMP JUMPDEST SWAP2 SWAP1 PUSH2 0x100 EXP DUP2 SLOAD DUP2 PUSH4 0xFFFFFFFF MUL NOT AND SWAP1 DUP4 PUSH4 0xFFFFFFFF AND MUL OR SWAP1 SSTORE POP POP POP POP POP POP POP JUMP JUMPDEST PUSH1 0x12 SLOAD PUSH1 0x60 SWAP1 PUSH0 SWAP1 PUSH4 0xFFFFFFFF AND PUSH8 0xFFFFFFFFFFFFFFFF DUP2 GT ISZERO PUSH2 0x1421 JUMPI PUSH2 0x1421 PUSH2 0x2646 JUMP JUMPDEST PUSH1 0x40 MLOAD SWAP1 DUP1 DUP3 MSTORE DUP1 PUSH1 0x20 MUL PUSH1 0x20 ADD DUP3 ADD PUSH1 0x40 MSTORE DUP1 ISZERO PUSH2 0x1478 JUMPI DUP2 PUSH1 0x20 ADD JUMPDEST PUSH1 0x40 DUP1 MLOAD PUSH1 0xA0 DUP2 ADD DUP3 MSTORE PUSH0 DUP1 DUP3 MSTORE PUSH1 0x20 DUP1 DUP4 ADD DUP3 SWAP1 MSTORE SWAP3 DUP3 ADD DUP2 SWAP1 MSTORE PUSH1 0x60 DUP3 ADD DUP2 SWAP1 MSTORE PUSH1 0x80 DUP3 ADD MSTORE DUP3 MSTORE PUSH0 NOT SWAP1 SWAP3 ADD SWAP2 ADD DUP2 PUSH2 0x143F JUMPI SWAP1 POP JUMPDEST POP SWAP1 POP PUSH0 JUMPDEST PUSH1 0x12 SLOAD PUSH4 0xFFFFFFFF SWAP1 DUP2 AND SWAP1 DUP3 AND LT ISZERO PUSH2 0x1527 JUMPI PUSH4 0xFFFFFFFF DUP2 DUP2 AND PUSH0 DUP2 DUP2 MSTORE PUSH1 0x11 PUSH1 0x20 SWAP1 DUP2 MSTORE PUSH1 0x40 SWAP2 DUP3 SWAP1 KECCAK256 DUP3 MLOAD PUSH1 0xA0 DUP2 ADD DUP5 MSTORE DUP2 SLOAD SWAP6 DUP7 AND DUP2 MSTORE PUSH5 0x100000000 SWAP1 SWAP6 DIV PUSH1 0x1 PUSH1 0x1 PUSH1 0xA0 SHL SUB AND SWAP2 DUP6 ADD SWAP2 SWAP1 SWAP2 MSTORE PUSH1 0x1 DUP2 ADD SLOAD SWAP2 DUP5 ADD SWAP2 SWAP1 SWAP2 MSTORE PUSH1 0x2 DUP2 ADD SLOAD PUSH1 0x60 DUP5 ADD MSTORE PUSH1 0x3 ADD SLOAD PUSH1 0xFF AND ISZERO ISZERO PUSH1 0x80 DUP4 ADD MSTORE DUP4 MLOAD DUP5 SWAP2 SWAP1 DUP2 LT PUSH2 0x1509 JUMPI PUSH2 0x1509 PUSH2 0x265A JUMP JUMPDEST PUSH1 0x20 MUL PUSH1 0x20 ADD ADD DUP2 SWAP1 MSTORE POP DUP1 DUP1 PUSH2 0x151F SWAP1 PUSH2 0x2624 JUMP JUMPDEST SWAP2 POP POP PUSH2 0x147D JUMP JUMPDEST POP SWAP2 SWAP1 POP JUMP JUMPDEST PUSH0 SLOAD PUSH1 0x1 PUSH1 0x1 PUSH1 0xA0 SHL SUB AND CALLER EQ PUSH2 0x1542 JUMPI PUSH0 DUP1 REVERT JUMPDEST PUSH0 PUSH2 0x154B PUSH2 0xE66 JUMP JUMPDEST SWAP1 POP DUP1 PUSH1 0x80 ADD MLOAD ISZERO PUSH2 0x1594 JUMPI PUSH1 0x40 MLOAD PUSH3 0x461BCD PUSH1 0xE5 SHL DUP2 MSTORE PUSH1 0x20 PUSH1 0x4 DUP3 ADD MSTORE PUSH1 0x12 PUSH1 0x24 DUP3 ADD MSTORE PUSH18 0x2737903134B239903A379039BAB136B4BA17 PUSH1 0x71 SHL PUSH1 0x44 DUP3 ADD MSTORE PUSH1 0x64 ADD PUSH2 0x39B JUMP JUMPDEST PUSH1 0x1 SLOAD PUSH0 SLOAD PUSH1 0x20 DUP4 ADD MLOAD PUSH1 0x40 DUP1 DUP6 ADD MLOAD SWAP1 MLOAD PUSH4 0xE423AEB9 PUSH1 0xE0 SHL DUP2 MSTORE PUSH1 0x1 PUSH1 0x1 PUSH1 0xA0 SHL SUB SWAP4 DUP5 AND PUSH1 0x4 DUP3 ADD MSTORE SWAP2 DUP4 AND PUSH1 0x24 DUP4 ADD MSTORE ADDRESS PUSH1 0x44 DUP4 ADD MSTORE PUSH1 0x64 DUP3 ADD MSTORE SWAP2 AND SWAP1 DUP2 SWAP1 PUSH4 0xE423AEB9 SWAP1 PUSH1 0x84 ADD PUSH0 PUSH1 0x40 MLOAD DUP1 DUP4 SUB DUP2 PUSH0 DUP8 DUP1 EXTCODESIZE ISZERO DUP1 ISZERO PUSH2 0x15F8 JUMPI PUSH0 DUP1 REVERT JUMPDEST POP GAS CALL ISZERO DUP1 ISZERO PUSH2 0x160A JUMPI RETURNDATASIZE PUSH0 DUP1 RETURNDATACOPY RETURNDATASIZE PUSH0 REVERT JUMPDEST POP POP PUSH1 0x1 DUP1 SLOAD PUSH1 0xFF PUSH1 0xA0 SHL NOT AND SWAP1 SSTORE POP POP PUSH1 0x20 DUP3 ADD MLOAD PUSH2 0x1629 DUP2 PUSH2 0x1D7A JUMP JUMPDEST PUSH1 0x12 SLOAD PUSH32 0x467F63626EE88AC9096115F006478E3ABE180BB37FB42A95178AD4B1BC7F2372 SWAP1 ADDRESS SWAP1 DUP4 SWAP1 PUSH1 0x11 SWAP1 PUSH0 SWAP1 PUSH2 0x1669 SWAP1 PUSH1 0x1 SWAP1 PUSH4 0xFFFFFFFF AND PUSH2 0x2525 JUMP JUMPDEST PUSH4 0xFFFFFFFF AND DUP2 MSTORE PUSH1 0x20 DUP1 DUP3 ADD SWAP3 SWAP1 SWAP3 MSTORE PUSH1 0x40 SWAP1 DUP2 ADD PUSH0 KECCAK256 PUSH1 0x1 ADD SLOAD DUP2 MLOAD PUSH1 0x1 PUSH1 0x1 PUSH1 0xA0 SHL SUB SWAP6 DUP7 AND DUP2 MSTORE SWAP5 SWAP1 SWAP4 AND SWAP2 DUP5 ADD SWAP2 SWAP1 SWAP2 MSTORE DUP3 ADD MSTORE PUSH1 0x60 ADD PUSH1 0x40 MLOAD DUP1 SWAP2 SUB SWAP1 LOG1 PUSH0 JUMPDEST PUSH1 0x12 SLOAD PUSH4 0xFFFFFFFF SWAP1 DUP2 AND SWAP1 DUP3 AND LT ISZERO PUSH2 0x1711 JUMPI PUSH4 0xFFFFFFFF DUP2 AND PUSH0 SWAP1 DUP2 MSTORE PUSH1 0x11 PUSH1 0x20 MSTORE PUSH1 0x40 DUP2 KECCAK256 DUP1 SLOAD PUSH1 0x1 PUSH1 0x1 PUSH1 0xC0 SHL SUB NOT AND DUP2 SSTORE PUSH1 0x1 DUP2 ADD DUP3 SWAP1 SSTORE PUSH1 0x2 DUP2 ADD SWAP2 SWAP1 SWAP2 SSTORE PUSH1 0x3 ADD DUP1 SLOAD PUSH1 0xFF NOT AND SWAP1 SSTORE DUP1 PUSH2 0x1709 DUP2 PUSH2 0x2624 JUMP JUMPDEST SWAP2 POP POP PUSH2 0x16AF JUMP JUMPDEST POP POP PUSH1 0x12 DUP1 SLOAD PUSH4 0xFFFFFFFF NOT AND SWAP1 SSTORE POP POP JUMP JUMPDEST PUSH1 0x1 SLOAD PUSH1 0x40 MLOAD PUSH4 0x935E01B PUSH1 0xE2 SHL DUP2 MSTORE CALLER PUSH1 0x4 DUP3 ADD MSTORE PUSH1 0x1 PUSH1 0x1 PUSH1 0xA0 SHL SUB SWAP1 SWAP2 AND SWAP1 DUP2 SWAP1 PUSH4 0x24D7806C SWAP1 PUSH1 0x24 ADD PUSH0 PUSH1 0x40 MLOAD DUP1 DUP4 SUB DUP2 DUP7 DUP1 EXTCODESIZE ISZERO DUP1 ISZERO PUSH2 0x1767 JUMPI PUSH0 DUP1 REVERT JUMPDEST POP GAS STATICCALL ISZERO DUP1 ISZERO PUSH2 0x1779 JUMPI RETURNDATASIZE PUSH0 DUP1 RETURNDATACOPY RETURNDATASIZE PUSH0 REVERT JUMPDEST POP POP PUSH1 0x1 DUP1 SLOAD PUSH1 0xFF PUSH1 0xA8 SHL NOT AND PUSH1 0x1 PUSH1 0xA8 SHL OR SWAP1 SSTORE POP POP POP JUMP JUMPDEST PUSH2 0x179B PUSH2 0x20D0 JUMP JUMPDEST PUSH1 0x2 PUSH1 0x40 MLOAD DUP1 PUSH2 0x1A0 ADD PUSH1 0x40 MSTORE SWAP1 DUP2 PUSH0 DUP3 ADD DUP1 SLOAD PUSH2 0x17B8 SWAP1 PUSH2 0x2549 JUMP JUMPDEST DUP1 PUSH1 0x1F ADD PUSH1 0x20 DUP1 SWAP2 DIV MUL PUSH1 0x20 ADD PUSH1 0x40 MLOAD SWAP1 DUP2 ADD PUSH1 0x40 MSTORE DUP1 SWAP3 SWAP2 SWAP1 DUP2 DUP2 MSTORE PUSH1 0x20 ADD DUP3 DUP1 SLOAD PUSH2 0x17E4 SWAP1 PUSH2 0x2549 JUMP JUMPDEST DUP1 ISZERO PUSH2 0x182F JUMPI DUP1 PUSH1 0x1F LT PUSH2 0x1806 JUMPI PUSH2 0x100 DUP1 DUP4 SLOAD DIV MUL DUP4 MSTORE SWAP2 PUSH1 0x20 ADD SWAP2 PUSH2 0x182F JUMP JUMPDEST DUP3 ADD SWAP2 SWAP1 PUSH0 MSTORE PUSH1 0x20 PUSH0 KECCAK256 SWAP1 JUMPDEST DUP2 SLOAD DUP2 MSTORE SWAP1 PUSH1 0x1 ADD SWAP1 PUSH1 0x20 ADD DUP1 DUP4 GT PUSH2 0x1812 JUMPI DUP3 SWAP1 SUB PUSH1 0x1F AND DUP3 ADD SWAP2 JUMPDEST POP POP POP POP POP DUP2 MSTORE PUSH1 0x20 ADD PUSH1 0x1 DUP3 ADD DUP1 SLOAD PUSH2 0x1848 SWAP1 PUSH2 0x2549 JUMP JUMPDEST DUP1 PUSH1 0x1F ADD PUSH1 0x20 DUP1 SWAP2 DIV MUL PUSH1 0x20 ADD PUSH1 0x40 MLOAD SWAP1 DUP2 ADD PUSH1 0x40 MSTORE DUP1 SWAP3 SWAP2 SWAP1 DUP2 DUP2 MSTORE PUSH1 0x20 ADD DUP3 DUP1 SLOAD PUSH2 0x1874 SWAP1 PUSH2 0x2549 JUMP JUMPDEST DUP1 ISZERO PUSH2 0x18BF JUMPI DUP1 PUSH1 0x1F LT PUSH2 0x1896 JUMPI PUSH2 0x100 DUP1 DUP4 SLOAD DIV MUL DUP4 MSTORE SWAP2 PUSH1 0x20 ADD SWAP2 PUSH2 0x18BF JUMP JUMPDEST DUP3 ADD SWAP2 SWAP1 PUSH0 MSTORE PUSH1 0x20 PUSH0 KECCAK256 SWAP1 JUMPDEST DUP2 SLOAD DUP2 MSTORE SWAP1 PUSH1 0x1 ADD SWAP1 PUSH1 0x20 ADD DUP1 DUP4 GT PUSH2 0x18A2 JUMPI DUP3 SWAP1 SUB PUSH1 0x1F AND DUP3 ADD SWAP2 JUMPDEST POP POP POP POP POP DUP2 MSTORE PUSH1 0x20 ADD PUSH1 0x2 DUP3 ADD DUP1 SLOAD PUSH2 0x18D8 SWAP1 PUSH2 0x2549 JUMP JUMPDEST DUP1 PUSH1 0x1F ADD PUSH1 0x20 DUP1 SWAP2 DIV MUL PUSH1 0x20 ADD PUSH1 0x40 MLOAD SWAP1 DUP2 ADD PUSH1 0x40 MSTORE DUP1 SWAP3 SWAP2 SWAP1 DUP2 DUP2 MSTORE PUSH1 0x20 ADD DUP3 DUP1 SLOAD PUSH2 0x1904 SWAP1 PUSH2 0x2549 JUMP JUMPDEST DUP1 ISZERO PUSH2 0x194F JUMPI DUP1 PUSH1 0x1F LT PUSH2 0x1926 JUMPI PUSH2 0x100 DUP1 DUP4 SLOAD DIV MUL DUP4 MSTORE SWAP2 PUSH1 0x20 ADD SWAP2 PUSH2 0x194F JUMP JUMPDEST DUP3 ADD SWAP2 SWAP1 PUSH0 MSTORE PUSH1 0x20 PUSH0 KECCAK256 SWAP1 JUMPDEST DUP2 SLOAD DUP2 MSTORE SWAP1 PUSH1 0x1 ADD SWAP1 PUSH1 0x20 ADD DUP1 DUP4 GT PUSH2 0x1932 JUMPI DUP3 SWAP1 SUB PUSH1 0x1F AND DUP3 ADD SWAP2 JUMPDEST POP POP POP POP POP DUP2 MSTORE PUSH1 0x20 ADD PUSH1 0x3 DUP3 ADD DUP1 SLOAD PUSH2 0x1968 SWAP1 PUSH2 0x2549 JUMP JUMPDEST DUP1 PUSH1 0x1F ADD PUSH1 0x20 DUP1 SWAP2 DIV MUL PUSH1 0x20 ADD PUSH1 0x40 MLOAD SWAP1 DUP2 ADD PUSH1 0x40 MSTORE DUP1 SWAP3 SWAP2 SWAP1 DUP2 DUP2 MSTORE PUSH1 0x20 ADD DUP3 DUP1 SLOAD PUSH2 0x1994 SWAP1 PUSH2 0x2549 JUMP JUMPDEST DUP1 ISZERO PUSH2 0x19DF JUMPI DUP1 PUSH1 0x1F LT PUSH2 0x19B6 JUMPI PUSH2 0x100 DUP1 DUP4 SLOAD DIV MUL DUP4 MSTORE SWAP2 PUSH1 0x20 ADD SWAP2 PUSH2 0x19DF JUMP JUMPDEST DUP3 ADD SWAP2 SWAP1 PUSH0 MSTORE PUSH1 0x20 PUSH0 KECCAK256 SWAP1 JUMPDEST DUP2 SLOAD DUP2 MSTORE SWAP1 PUSH1 0x1 ADD SWAP1 PUSH1 0x20 ADD DUP1 DUP4 GT PUSH2 0x19C2 JUMPI DUP3 SWAP1 SUB PUSH1 0x1F AND DUP3 ADD SWAP2 JUMPDEST POP POP POP POP POP DUP2 MSTORE PUSH1 0x20 ADD PUSH1 0x4 DUP3 ADD DUP1 SLOAD PUSH2 0x19F8 SWAP1 PUSH2 0x2549 JUMP JUMPDEST DUP1 PUSH1 0x1F ADD PUSH1 0x20 DUP1 SWAP2 DIV MUL PUSH1 0x20 ADD PUSH1 0x40 MLOAD SWAP1 DUP2 ADD PUSH1 0x40 MSTORE DUP1 SWAP3 SWAP2 SWAP1 DUP2 DUP2 MSTORE PUSH1 0x20 ADD DUP3 DUP1 SLOAD PUSH2 0x1A24 SWAP1 PUSH2 0x2549 JUMP JUMPDEST DUP1 ISZERO PUSH2 0x1A6F JUMPI DUP1 PUSH1 0x1F LT PUSH2 0x1A46 JUMPI PUSH2 0x100 DUP1 DUP4 SLOAD DIV MUL DUP4 MSTORE SWAP2 PUSH1 0x20 ADD SWAP2 PUSH2 0x1A6F JUMP JUMPDEST DUP3 ADD SWAP2 SWAP1 PUSH0 MSTORE PUSH1 0x20 PUSH0 KECCAK256 SWAP1 JUMPDEST DUP2 SLOAD DUP2 MSTORE SWAP1 PUSH1 0x1 ADD SWAP1 PUSH1 0x20 ADD DUP1 DUP4 GT PUSH2 0x1A52 JUMPI DUP3 SWAP1 SUB PUSH1 0x1F AND DUP3 ADD SWAP2 JUMPDEST POP POP POP SWAP2 DUP4 MSTORE POP POP PUSH1 0x5 DUP3 ADD SLOAD PUSH2 0xFFFF AND PUSH1 0x20 DUP3 ADD MSTORE PUSH1 0x6 DUP3 ADD DUP1 SLOAD PUSH1 0x40 SWAP1 SWAP3 ADD SWAP2 PUSH2 0x1A9A SWAP1 PUSH2 0x2549 JUMP JUMPDEST DUP1 PUSH1 0x1F ADD PUSH1 0x20 DUP1 SWAP2 DIV MUL PUSH1 0x20 ADD PUSH1 0x40 MLOAD SWAP1 DUP2 ADD PUSH1 0x40 MSTORE DUP1 SWAP3 SWAP2 SWAP1 DUP2 DUP2 MSTORE PUSH1 0x20 ADD DUP3 DUP1 SLOAD PUSH2 0x1AC6 SWAP1 PUSH2 0x2549 JUMP JUMPDEST DUP1 ISZERO PUSH2 0x1B11 JUMPI DUP1 PUSH1 0x1F LT PUSH2 0x1AE8 JUMPI PUSH2 0x100 DUP1 DUP4 SLOAD DIV MUL DUP4 MSTORE SWAP2 PUSH1 0x20 ADD SWAP2 PUSH2 0x1B11 JUMP JUMPDEST DUP3 ADD SWAP2 SWAP1 PUSH0 MSTORE PUSH1 0x20 PUSH0 KECCAK256 SWAP1 JUMPDEST DUP2 SLOAD DUP2 MSTORE SWAP1 PUSH1 0x1 ADD SWAP1 PUSH1 0x20 ADD DUP1 DUP4 GT PUSH2 0x1AF4 JUMPI DUP3 SWAP1 SUB PUSH1 0x1F AND DUP3 ADD SWAP2 JUMPDEST POP POP POP POP POP DUP2 MSTORE PUSH1 0x20 ADD PUSH1 0x7 DUP3 ADD DUP1 SLOAD PUSH2 0x1B2A SWAP1 PUSH2 0x2549 JUMP JUMPDEST DUP1 PUSH1 0x1F ADD PUSH1 0x20 DUP1 SWAP2 DIV MUL PUSH1 0x20 ADD PUSH1 0x40 MLOAD SWAP1 DUP2 ADD PUSH1 0x40 MSTORE DUP1 SWAP3 SWAP2 SWAP1 DUP2 DUP2 MSTORE PUSH1 0x20 ADD DUP3 DUP1 SLOAD PUSH2 0x1B56 SWAP1 PUSH2 0x2549 JUMP JUMPDEST DUP1 ISZERO PUSH2 0x1BA1 JUMPI DUP1 PUSH1 0x1F LT PUSH2 0x1B78 JUMPI PUSH2 0x100 DUP1 DUP4 SLOAD DIV MUL DUP4 MSTORE SWAP2 PUSH1 0x20 ADD SWAP2 PUSH2 0x1BA1 JUMP JUMPDEST DUP3 ADD SWAP2 SWAP1 PUSH0 MSTORE PUSH1 0x20 PUSH0 KECCAK256 SWAP1 JUMPDEST DUP2 SLOAD DUP2 MSTORE SWAP1 PUSH1 0x1 ADD SWAP1 PUSH1 0x20 ADD DUP1 DUP4 GT PUSH2 0x1B84 JUMPI DUP3 SWAP1 SUB PUSH1 0x1F AND DUP3 ADD SWAP2 JUMPDEST POP POP POP POP POP DUP2 MSTORE PUSH1 0x20 ADD PUSH1 0x8 DUP3 ADD DUP1 SLOAD PUSH2 0x1BBA SWAP1 PUSH2 0x2549 JUMP JUMPDEST DUP1 PUSH1 0x1F ADD PUSH1 0x20 DUP1 SWAP2 DIV MUL PUSH1 0x20 ADD PUSH1 0x40 MLOAD SWAP1 DUP2 ADD PUSH1 0x40 MSTORE DUP1 SWAP3 SWAP2 SWAP1 DUP2 DUP2 MSTORE PUSH1 0x20 ADD DUP3 DUP1 SLOAD PUSH2 0x1BE6 SWAP1 PUSH2 0x2549 JUMP JUMPDEST DUP1 ISZERO PUSH2 0x1C31 JUMPI DUP1 PUSH1 0x1F LT PUSH2 0x1C08 JUMPI PUSH2 0x100 DUP1 DUP4 SLOAD DIV MUL DUP4 MSTORE SWAP2 PUSH1 0x20 ADD SWAP2 PUSH2 0x1C31 JUMP JUMPDEST DUP3 ADD SWAP2 SWAP1 PUSH0 MSTORE PUSH1 0x20 PUSH0 KECCAK256 SWAP1 JUMPDEST DUP2 SLOAD DUP2 MSTORE SWAP1 PUSH1 0x1 ADD SWAP1 PUSH1 0x20 ADD DUP1 DUP4 GT PUSH2 0x1C14 JUMPI DUP3 SWAP1 SUB PUSH1 0x1F AND DUP3 ADD SWAP2 JUMPDEST POP POP POP POP POP DUP2 MSTORE PUSH1 0x20 ADD PUSH1 0x9 DUP3 ADD DUP1 SLOAD PUSH2 0x1C4A SWAP1 PUSH2 0x2549 JUMP JUMPDEST DUP1 PUSH1 0x1F ADD PUSH1 0x20 DUP1 SWAP2 DIV MUL PUSH1 0x20 ADD PUSH1 0x40 MLOAD SWAP1 DUP2 ADD PUSH1 0x40 MSTORE DUP1 SWAP3 SWAP2 SWAP1 DUP2 DUP2 MSTORE PUSH1 0x20 ADD DUP3 DUP1 SLOAD PUSH2 0x1C76 SWAP1 PUSH2 0x2549 JUMP JUMPDEST DUP1 ISZERO PUSH2 0x1CC1 JUMPI DUP1 PUSH1 0x1F LT PUSH2 0x1C98 JUMPI PUSH2 0x100 DUP1 DUP4 SLOAD DIV MUL DUP4 MSTORE SWAP2 PUSH1 0x20 ADD SWAP2 PUSH2 0x1CC1 JUMP JUMPDEST DUP3 ADD SWAP2 SWAP1 PUSH0 MSTORE PUSH1 0x20 PUSH0 KECCAK256 SWAP1 JUMPDEST DUP2 SLOAD DUP2 MSTORE SWAP1 PUSH1 0x1 ADD SWAP1 PUSH1 0x20 ADD DUP1 DUP4 GT PUSH2 0x1CA4 JUMPI DUP3 SWAP1 SUB PUSH1 0x1F AND DUP3 ADD SWAP2 JUMPDEST POP POP POP POP POP DUP2 MSTORE PUSH1 0x20 ADD PUSH1 0xA DUP3 ADD DUP1 SLOAD PUSH2 0x1CDA SWAP1 PUSH2 0x2549 JUMP JUMPDEST DUP1 PUSH1 0x1F ADD PUSH1 0x20 DUP1 SWAP2 DIV MUL PUSH1 0x20 ADD PUSH1 0x40 MLOAD SWAP1 DUP2 ADD PUSH1 0x40 MSTORE DUP1 SWAP3 SWAP2 SWAP1 DUP2 DUP2 MSTORE PUSH1 0x20 ADD DUP3 DUP1 SLOAD PUSH2 0x1D06 SWAP1 PUSH2 0x2549 JUMP JUMPDEST DUP1 ISZERO PUSH2 0x1D51 JUMPI DUP1 PUSH1 0x1F LT PUSH2 0x1D28 JUMPI PUSH2 0x100 DUP1 DUP4 SLOAD DIV MUL DUP4 MSTORE SWAP2 PUSH1 0x20 ADD SWAP2 PUSH2 0x1D51 JUMP JUMPDEST DUP3 ADD SWAP2 SWAP1 PUSH0 MSTORE PUSH1 0x20 PUSH0 KECCAK256 SWAP1 JUMPDEST DUP2 SLOAD DUP2 MSTORE SWAP1 PUSH1 0x1 ADD SWAP1 PUSH1 0x20 ADD DUP1 DUP4 GT PUSH2 0x1D34 JUMPI DUP3 SWAP1 SUB PUSH1 0x1F AND DUP3 ADD SWAP2 JUMPDEST POP POP POP SWAP2 DUP4 MSTORE POP POP PUSH1 0xB DUP3 ADD SLOAD PUSH4 0xFFFFFFFF AND PUSH1 0x20 DUP3 ADD MSTORE PUSH1 0xC SWAP1 SWAP2 ADD SLOAD PUSH1 0x40 SWAP1 SWAP2 ADD MSTORE SWAP2 SWAP1 POP JUMP JUMPDEST PUSH0 SLOAD PUSH1 0x1 PUSH1 0x1 PUSH1 0xA0 SHL SUB AND CALLER EQ PUSH2 0x1D8F JUMPI PUSH0 DUP1 REVERT JUMPDEST PUSH2 0x1D98 DUP2 PUSH2 0x1F52 JUMP JUMPDEST POP JUMP JUMPDEST PUSH0 PUSH11 0x636F6E736F6C652E6C6F67 SWAP1 POP PUSH0 DUP1 DUP4 MLOAD PUSH1 0x20 DUP6 ADD DUP5 GAS STATICCALL POP POP POP JUMP JUMPDEST PUSH1 0x40 DUP1 MLOAD PUSH1 0xA0 DUP2 ADD DUP3 MSTORE PUSH0 DUP1 DUP3 MSTORE PUSH1 0x20 DUP3 ADD DUP2 SWAP1 MSTORE SWAP2 DUP2 ADD DUP3 SWAP1 MSTORE PUSH1 0x60 DUP2 ADD DUP3 SWAP1 MSTORE PUSH1 0x80 DUP2 ADD DUP3 SWAP1 MSTORE PUSH0 JUMPDEST PUSH1 0x12 SLOAD PUSH4 0xFFFFFFFF SWAP1 DUP2 AND SWAP1 DUP3 AND LT ISZERO PUSH2 0x1EA6 JUMPI PUSH4 0xFFFFFFFF DUP2 AND PUSH0 SWAP1 DUP2 MSTORE PUSH1 0x11 PUSH1 0x20 MSTORE PUSH1 0x40 SWAP1 KECCAK256 SLOAD CALLER PUSH5 0x100000000 SWAP1 SWAP2 DIV PUSH1 0x1 PUSH1 0x1 PUSH1 0xA0 SHL SUB AND SUB PUSH2 0x1E94 JUMPI PUSH4 0xFFFFFFFF DUP2 DUP2 AND PUSH0 SWAP1 DUP2 MSTORE PUSH1 0x11 PUSH1 0x20 SWAP1 DUP2 MSTORE PUSH1 0x40 SWAP2 DUP3 SWAP1 KECCAK256 DUP3 MLOAD PUSH1 0xA0 DUP2 ADD DUP5 MSTORE DUP2 SLOAD SWAP5 DUP6 AND DUP2 MSTORE PUSH5 0x100000000 SWAP1 SWAP5 DIV PUSH1 0x1 PUSH1 0x1 PUSH1 0xA0 SHL SUB AND SWAP2 DUP5 ADD SWAP2 SWAP1 SWAP2 MSTORE PUSH1 0x1 DUP2 ADD SLOAD SWAP2 DUP4 ADD SWAP2 SWAP1 SWAP2 MSTORE PUSH1 0x2 DUP2 ADD SLOAD PUSH1 0x60 DUP4 ADD MSTORE PUSH1 0x3 ADD SLOAD PUSH1 0xFF AND ISZERO ISZERO PUSH1 0x80 DUP3 ADD MSTORE SWAP1 SWAP4 SWAP1 SWAP3 POP SWAP1 POP JUMP JUMPDEST DUP1 PUSH2 0x1E9E DUP2 PUSH2 0x2624 JUMP JUMPDEST SWAP2 POP POP PUSH2 0x1DE5 JUMP JUMPDEST POP PUSH1 0x40 MLOAD PUSH4 0x7A42B479 PUSH1 0xE0 SHL DUP2 MSTORE CALLER PUSH1 0x4 DUP3 ADD MSTORE PUSH1 0x24 ADD PUSH2 0x39B JUMP JUMPDEST PUSH1 0x60 PUSH0 PUSH2 0x1ECE DUP4 PUSH2 0x1FBD JUMP JUMPDEST PUSH1 0x1 ADD SWAP1 POP PUSH0 DUP2 PUSH8 0xFFFFFFFFFFFFFFFF DUP2 GT ISZERO PUSH2 0x1EED JUMPI PUSH2 0x1EED PUSH2 0x2646 JUMP JUMPDEST PUSH1 0x40 MLOAD SWAP1 DUP1 DUP3 MSTORE DUP1 PUSH1 0x1F ADD PUSH1 0x1F NOT AND PUSH1 0x20 ADD DUP3 ADD PUSH1 0x40 MSTORE DUP1 ISZERO PUSH2 0x1F17 JUMPI PUSH1 0x20 DUP3 ADD DUP2 DUP1 CALLDATASIZE DUP4 CALLDATACOPY ADD SWAP1 POP JUMPDEST POP SWAP1 POP DUP2 DUP2 ADD PUSH1 0x20 ADD JUMPDEST PUSH0 NOT ADD PUSH16 0x181899199A1A9B1B9C1CB0B131B232B3 PUSH1 0x81 SHL PUSH1 0xA DUP7 MOD BYTE DUP2 MSTORE8 PUSH1 0xA DUP6 DIV SWAP5 POP DUP5 PUSH2 0x1F21 JUMPI POP SWAP4 SWAP3 POP POP POP JUMP JUMPDEST PUSH1 0x1 PUSH1 0x1 PUSH1 0xA0 SHL SUB DUP2 AND PUSH2 0x1F64 JUMPI PUSH0 DUP1 REVERT JUMPDEST PUSH0 DUP1 SLOAD PUSH1 0x40 MLOAD PUSH1 0x1 PUSH1 0x1 PUSH1 0xA0 SHL SUB DUP1 DUP6 AND SWAP4 SWAP3 AND SWAP2 PUSH32 0x8BE0079C531659141344CD1FD0A4F28419497F9722A3DAAFE3B4186F6B6457E0 SWAP2 LOG3 PUSH0 DUP1 SLOAD PUSH1 0x1 PUSH1 0x1 PUSH1 0xA0 SHL SUB NOT AND PUSH1 0x1 PUSH1 0x1 PUSH1 0xA0 SHL SUB SWAP3 SWAP1 SWAP3 AND SWAP2 SWAP1 SWAP2 OR SWAP1 SSTORE JUMP JUMPDEST PUSH0 DUP1 PUSH19 0x184F03E93FF9F4DAA797ED6E38ED64BF6A1F01 PUSH1 0x40 SHL DUP4 LT PUSH2 0x1FFB JUMPI PUSH19 0x184F03E93FF9F4DAA797ED6E38ED64BF6A1F01 PUSH1 0x40 SHL DUP4 DIV SWAP3 POP PUSH1 0x40 ADD JUMPDEST PUSH14 0x4EE2D6D415B85ACEF8100000000 DUP4 LT PUSH2 0x2027 JUMPI PUSH14 0x4EE2D6D415B85ACEF8100000000 DUP4 DIV SWAP3 POP PUSH1 0x20 ADD JUMPDEST PUSH7 0x2386F26FC10000 DUP4 LT PUSH2 0x2045 JUMPI PUSH7 0x2386F26FC10000 DUP4 DIV SWAP3 POP PUSH1 0x10 ADD JUMPDEST PUSH4 0x5F5E100 DUP4 LT PUSH2 0x205D JUMPI PUSH4 0x5F5E100 DUP4 DIV SWAP3 POP PUSH1 0x8 ADD JUMPDEST PUSH2 0x2710 DUP4 LT PUSH2 0x2071 JUMPI PUSH2 0x2710 DUP4 DIV SWAP3 POP PUSH1 0x4 ADD JUMPDEST PUSH1 0x64 DUP4 LT PUSH2 0x2083 JUMPI PUSH1 0x64 DUP4 DIV SWAP3 POP PUSH1 0x2 ADD JUMPDEST PUSH1 0xA DUP4 LT PUSH2 0x208F JUMPI PUSH1 0x1 ADD JUMPDEST SWAP3 SWAP2 POP POP JUMP JUMPDEST PUSH2 0x209D PUSH2 0x266E JUMP JUMPDEST JUMP JUMPDEST PUSH1 0x40 DUP1 MLOAD PUSH1 0xA0 DUP2 ADD DUP3 MSTORE PUSH0 DUP1 DUP3 MSTORE PUSH1 0x20 DUP3 ADD MSTORE SWAP1 DUP2 ADD PUSH2 0x20BD PUSH2 0x20D0 JUMP JUMPDEST DUP2 MSTORE PUSH1 0x20 ADD PUSH0 DUP2 MSTORE PUSH1 0x20 ADD PUSH1 0x60 DUP2 MSTORE POP SWAP1 JUMP JUMPDEST PUSH1 0x40 MLOAD DUP1 PUSH2 0x1A0 ADD PUSH1 0x40 MSTORE DUP1 PUSH1 0x60 DUP2 MSTORE PUSH1 0x20 ADD PUSH1 0x60 DUP2 MSTORE PUSH1 0x20 ADD PUSH1 0x60 DUP2 MSTORE PUSH1 0x20 ADD PUSH1 0x60 DUP2 MSTORE PUSH1 0x20 ADD PUSH1 0x60 DUP2 MSTORE PUSH1 0x20 ADD PUSH0 PUSH2 0xFFFF AND DUP2 MSTORE PUSH1 0x20 ADD PUSH1 0x60 DUP2 MSTORE PUSH1 0x20 ADD PUSH1 0x60 DUP2 MSTORE PUSH1 0x20 ADD PUSH1 0x60 DUP2 MSTORE PUSH1 0x20 ADD PUSH1 0x60 DUP2 MSTORE PUSH1 0x20 ADD PUSH1 0x60 DUP2 MSTORE PUSH1 0x20 ADD PUSH0 PUSH4 0xFFFFFFFF AND DUP2 MSTORE PUSH1 0x20 ADD PUSH0 DUP2 MSTORE POP SWAP1 JUMP JUMPDEST PUSH0 PUSH1 0x20 DUP3 DUP5 SUB SLT ISZERO PUSH2 0x214F JUMPI PUSH0 DUP1 REVERT JUMPDEST DUP2 CALLDATALOAD PUSH1 0x1 PUSH1 0x1 PUSH1 0xA0 SHL SUB DUP2 AND DUP2 EQ PUSH2 0x2165 JUMPI PUSH0 DUP1 REVERT JUMPDEST SWAP4 SWAP3 POP POP POP JUMP JUMPDEST PUSH0 JUMPDEST DUP4 DUP2 LT ISZERO PUSH2 0x2186 JUMPI DUP2 DUP2 ADD MLOAD DUP4 DUP3 ADD MSTORE PUSH1 0x20 ADD PUSH2 0x216E JUMP JUMPDEST POP POP PUSH0 SWAP2 ADD MSTORE JUMP JUMPDEST PUSH0 DUP2 MLOAD DUP1 DUP5 MSTORE PUSH2 0x21A5 DUP2 PUSH1 0x20 DUP7 ADD PUSH1 0x20 DUP7 ADD PUSH2 0x216C JUMP JUMPDEST PUSH1 0x1F ADD PUSH1 0x1F NOT AND SWAP3 SWAP1 SWAP3 ADD PUSH1 0x20 ADD SWAP3 SWAP2 POP POP JUMP JUMPDEST PUSH0 PUSH2 0x1A0 DUP3 MLOAD DUP2 DUP6 MSTORE PUSH2 0x21CE DUP3 DUP7 ADD DUP3 PUSH2 0x218E JUMP JUMPDEST SWAP2 POP POP PUSH1 0x20 DUP4 ADD MLOAD DUP5 DUP3 SUB PUSH1 0x20 DUP7 ADD MSTORE PUSH2 0x21E8 DUP3 DUP3 PUSH2 0x218E JUMP JUMPDEST SWAP2 POP POP PUSH1 0x40 DUP4 ADD MLOAD DUP5 DUP3 SUB PUSH1 0x40 DUP7 ADD MSTORE PUSH2 0x2202 DUP3 DUP3 PUSH2 0x218E JUMP JUMPDEST SWAP2 POP POP PUSH1 0x60 DUP4 ADD MLOAD DUP5 DUP3 SUB PUSH1 0x60 DUP7 ADD MSTORE PUSH2 0x221C DUP3 DUP3 PUSH2 0x218E JUMP JUMPDEST SWAP2 POP POP PUSH1 0x80 DUP4 ADD MLOAD DUP5 DUP3 SUB PUSH1 0x80 DUP7 ADD MSTORE PUSH2 0x2236 DUP3 DUP3 PUSH2 0x218E JUMP JUMPDEST SWAP2 POP POP PUSH1 0xA0 DUP4 ADD MLOAD PUSH2 0x224E PUSH1 0xA0 DUP7 ADD DUP3 PUSH2 0xFFFF AND SWAP1 MSTORE JUMP JUMPDEST POP PUSH1 0xC0 DUP4 ADD MLOAD DUP5 DUP3 SUB PUSH1 0xC0 DUP7 ADD MSTORE PUSH2 0x2266 DUP3 DUP3 PUSH2 0x218E JUMP JUMPDEST SWAP2 POP POP PUSH1 0xE0 DUP4 ADD MLOAD DUP5 DUP3 SUB PUSH1 0xE0 DUP7 ADD MSTORE PUSH2 0x2280 DUP3 DUP3 PUSH2 0x218E JUMP JUMPDEST SWAP2 POP POP PUSH2 0x100 DUP1 DUP5 ADD MLOAD DUP6 DUP4 SUB DUP3 DUP8 ADD MSTORE PUSH2 0x229B DUP4 DUP3 PUSH2 0x218E JUMP JUMPDEST SWAP3 POP POP POP PUSH2 0x120 DUP1 DUP5 ADD MLOAD DUP6 DUP4 SUB DUP3 DUP8 ADD MSTORE PUSH2 0x22B7 DUP4 DUP3 PUSH2 0x218E JUMP JUMPDEST SWAP3 POP POP POP PUSH2 0x140 DUP1 DUP5 ADD MLOAD DUP6 DUP4 SUB DUP3 DUP8 ADD MSTORE PUSH2 0x22D3 DUP4 DUP3 PUSH2 0x218E JUMP JUMPDEST SWAP3 POP POP POP PUSH2 0x160 DUP1 DUP5 ADD MLOAD PUSH2 0x22EF DUP3 DUP8 ADD DUP3 PUSH4 0xFFFFFFFF AND SWAP1 MSTORE JUMP JUMPDEST POP POP PUSH2 0x180 SWAP3 DUP4 ADD MLOAD SWAP4 SWAP1 SWAP3 ADD SWAP3 SWAP1 SWAP3 MSTORE SWAP2 SWAP1 POP JUMP JUMPDEST PUSH0 DUP3 DUP3 MLOAD DUP1 DUP6 MSTORE PUSH1 0x20 DUP1 DUP7 ADD SWAP6 POP DUP1 DUP3 PUSH1 0x5 SHL DUP5 ADD ADD DUP2 DUP7 ADD PUSH0 JUMPDEST DUP5 DUP2 LT ISZERO PUSH2 0x234E JUMPI PUSH1 0x1F NOT DUP7 DUP5 SUB ADD DUP10 MSTORE PUSH2 0x233C DUP4 DUP4 MLOAD PUSH2 0x218E JUMP JUMPDEST SWAP9 DUP5 ADD SWAP9 SWAP3 POP SWAP1 DUP4 ADD SWAP1 PUSH1 0x1 ADD PUSH2 0x2320 JUMP JUMPDEST POP SWAP1 SWAP8 SWAP7 POP POP POP POP POP POP POP JUMP JUMPDEST PUSH1 0x20 DUP2 MSTORE DUP2 MLOAD ISZERO ISZERO PUSH1 0x20 DUP3 ADD MSTORE PUSH1 0x1 DUP1 PUSH1 0xA0 SHL SUB PUSH1 0x20 DUP4 ADD MLOAD AND PUSH1 0x40 DUP3 ADD MSTORE PUSH0 PUSH1 0x40 DUP4 ADD MLOAD PUSH1 0xA0 PUSH1 0x60 DUP5 ADD MSTORE PUSH2 0x2394 PUSH1 0xC0 DUP5 ADD DUP3 PUSH2 0x21B9 JUMP JUMPDEST SWAP1 POP PUSH1 0x60 DUP5 ADD MLOAD PUSH1 0x80 DUP5 ADD MSTORE PUSH1 0x80 DUP5 ADD MLOAD PUSH1 0x1F NOT DUP5 DUP4 SUB ADD PUSH1 0xA0 DUP6 ADD MSTORE PUSH2 0x23BB DUP3 DUP3 PUSH2 0x2305 JUMP JUMPDEST SWAP6 SWAP5 POP POP POP POP POP JUMP JUMPDEST PUSH1 0x20 DUP2 MSTORE PUSH0 PUSH2 0x2165 PUSH1 0x20 DUP4 ADD DUP5 PUSH2 0x2305 JUMP JUMPDEST PUSH0 PUSH1 0x20 DUP3 DUP5 SUB SLT ISZERO PUSH2 0x23E6 JUMPI PUSH0 DUP1 REVERT JUMPDEST DUP2 CALLDATALOAD DUP1 ISZERO ISZERO DUP2 EQ PUSH2 0x2165 JUMPI PUSH0 DUP1 REVERT JUMPDEST DUP1 MLOAD PUSH4 0xFFFFFFFF AND DUP3 MSTORE PUSH1 0x20 DUP1 DUP3 ADD MLOAD PUSH1 0x1 PUSH1 0x1 PUSH1 0xA0 SHL SUB AND SWAP1 DUP4 ADD MSTORE PUSH1 0x40 DUP1 DUP3 ADD MLOAD SWAP1 DUP4 ADD MSTORE PUSH1 0x60 DUP1 DUP3 ADD MLOAD SWAP1 DUP4 ADD MSTORE PUSH1 0x80 SWAP1 DUP2 ADD MLOAD ISZERO ISZERO SWAP2 ADD MSTORE JUMP JUMPDEST PUSH1 0xA0 DUP2 ADD PUSH2 0x208F DUP3 DUP5 PUSH2 0x23F5 JUMP JUMPDEST PUSH0 DUP1 PUSH1 0x40 DUP4 DUP6 SUB SLT ISZERO PUSH2 0x2452 JUMPI PUSH0 DUP1 REVERT JUMPDEST POP POP DUP1 CALLDATALOAD SWAP3 PUSH1 0x20 SWAP1 SWAP2 ADD CALLDATALOAD SWAP2 POP JUMP JUMPDEST PUSH1 0x20 DUP1 DUP3 MSTORE DUP3 MLOAD DUP3 DUP3 ADD DUP2 SWAP1 MSTORE PUSH0 SWAP2 SWAP1 DUP5 DUP3 ADD SWAP1 PUSH1 0x40 DUP6 ADD SWAP1 DUP5 JUMPDEST DUP2 DUP2 LT ISZERO PUSH2 0x24A2 JUMPI PUSH2 0x248F DUP4 DUP6 MLOAD PUSH2 0x23F5 JUMP JUMPDEST SWAP3 DUP5 ADD SWAP3 PUSH1 0xA0 SWAP3 SWAP1 SWAP3 ADD SWAP2 PUSH1 0x1 ADD PUSH2 0x247C JUMP JUMPDEST POP SWAP1 SWAP7 SWAP6 POP POP POP POP POP POP JUMP JUMPDEST PUSH1 0x20 DUP2 MSTORE PUSH0 PUSH2 0x2165 PUSH1 0x20 DUP4 ADD DUP5 PUSH2 0x21B9 JUMP JUMPDEST PUSH1 0x20 DUP1 DUP3 MSTORE PUSH1 0x31 SWAP1 DUP3 ADD MSTORE PUSH32 0x546869732076656869636C6520636F6E747261637420686173206E6F74207374 PUSH1 0x40 DUP3 ADD MSTORE PUSH17 0x30B93A32B2103A34329030BAB1BA34B7B7 PUSH1 0x79 SHL PUSH1 0x60 DUP3 ADD MSTORE PUSH1 0x80 ADD SWAP1 JUMP JUMPDEST PUSH4 0x4E487B71 PUSH1 0xE0 SHL PUSH0 MSTORE PUSH1 0x11 PUSH1 0x4 MSTORE PUSH1 0x24 PUSH0 REVERT JUMPDEST PUSH4 0xFFFFFFFF DUP3 DUP2 AND DUP3 DUP3 AND SUB SWAP1 DUP1 DUP3 GT ISZERO PUSH2 0x2542 JUMPI PUSH2 0x2542 PUSH2 0x2511 JUMP JUMPDEST POP SWAP3 SWAP2 POP POP JUMP JUMPDEST PUSH1 0x1 DUP2 DUP2 SHR SWAP1 DUP3 AND DUP1 PUSH2 0x255D JUMPI PUSH1 0x7F DUP3 AND SWAP2 POP JUMPDEST PUSH1 0x20 DUP3 LT DUP2 SUB PUSH2 0x1527 JUMPI PUSH4 0x4E487B71 PUSH1 0xE0 SHL PUSH0 MSTORE PUSH1 0x22 PUSH1 0x4 MSTORE PUSH1 0x24 PUSH0 REVERT JUMPDEST PUSH0 PUSH4 0xFFFFFFFF DUP3 AND DUP1 PUSH2 0x2590 JUMPI PUSH2 0x2590 PUSH2 0x2511 JUMP JUMPDEST PUSH0 NOT ADD SWAP3 SWAP2 POP POP JUMP JUMPDEST PUSH4 0xFFFFFFFF DUP2 DUP2 AND DUP4 DUP3 AND ADD SWAP1 DUP1 DUP3 GT ISZERO PUSH2 0x2542 JUMPI PUSH2 0x2542 PUSH2 0x2511 JUMP JUMPDEST PUSH0 DUP3 MLOAD PUSH2 0x25C7 DUP2 DUP5 PUSH1 0x20 DUP8 ADD PUSH2 0x216C JUMP JUMPDEST SWAP2 SWAP1 SWAP2 ADD SWAP3 SWAP2 POP POP JUMP JUMPDEST PUSH0 DUP4 MLOAD PUSH2 0x25E2 DUP2 DUP5 PUSH1 0x20 DUP9 ADD PUSH2 0x216C JUMP JUMPDEST DUP4 MLOAD SWAP1 DUP4 ADD SWAP1 PUSH2 0x25F6 DUP2 DUP4 PUSH1 0x20 DUP9 ADD PUSH2 0x216C JUMP JUMPDEST ADD SWAP5 SWAP4 POP POP POP POP JUMP JUMPDEST PUSH1 0x20 DUP2 MSTORE PUSH0 PUSH2 0x2165 PUSH1 0x20 DUP4 ADD DUP5 PUSH2 0x218E JUMP JUMPDEST DUP1 DUP3 ADD DUP1 DUP3 GT ISZERO PUSH2 0x208F JUMPI PUSH2 0x208F PUSH2 0x2511 JUMP JUMPDEST PUSH0 PUSH4 0xFFFFFFFF DUP1 DUP4 AND DUP2 DUP2 SUB PUSH2 0x263C JUMPI PUSH2 0x263C PUSH2 0x2511 JUMP JUMPDEST PUSH1 0x1 ADD SWAP4 SWAP3 POP POP POP JUMP JUMPDEST PUSH4 0x4E487B71 PUSH1 0xE0 SHL PUSH0 MSTORE PUSH1 0x41 PUSH1 0x4 MSTORE PUSH1 0x24 PUSH0 REVERT JUMPDEST PUSH4 0x4E487B71 PUSH1 0xE0 SHL PUSH0 MSTORE PUSH1 0x32 PUSH1 0x4 MSTORE PUSH1 0x24 PUSH0 REVERT JUMPDEST PUSH4 0x4E487B71 PUSH1 0xE0 SHL PUSH0 MSTORE PUSH1 0x51 PUSH1 0x4 MSTORE PUSH1 0x24 PUSH0 REVERT INVALID LOG2 PUSH5 0x6970667358 0x22 SLT KECCAK256 0xDE PUSH11 0x8007A8E0DA537C9BF1A172 DUP16 0x4B MUL 0xEB 0xFB DUP1 0xE3 0xAF XOR 0xB9 ADDRESS BALANCE EXTCODESIZE 0xC4 CALLCODE SSTORE SGT 0xE1 0xF6 PUSH5 0x736F6C6343 STOP ADDMOD EQ STOP CALLER 0x4E PUSH6 0x772056656869 PUSH4 0x6C652043 PUSH16 0x6E747261637420686173206265656E20 PUSH5 0x65706C6F79 PUSH6 0x642E00000000 "
		},
		"gasEstimates": {
			"creation": {
				"codeDepositCost": "1982400",
				"executionCost": "infinite",
				"totalCost": "infinite"
			},
			"external": {
				"approveVehicle()": "infinite",
				"createBid(uint256,uint256)": "infinite",
				"factoryAddress()": "2447",
				"findNearestUnwithdrawedBid()": "infinite",
				"getBids()": "infinite",
				"getBidsSize()": "2310",
				"getData()": "infinite",
				"getStart()": "2420",
				"getStartingPrice()": "2323",
				"getVehicleImages()": "infinite",
				"getVehicleProperties()": "infinite",
				"isApproved()": "2339",
				"isOwner(address)": "2489",
				"owner()": "2424",
				"renounceOwnership()": "29847",
				"setStart(bool)": "26702",
				"submitAuction()": "infinite",
				"transferOwnership(address)": "30499",
				"withdrawBid()": "infinite"
			},
			"internal": {
				"getBid()": "infinite",
				"removeBid(address)": "infinite"
			}
		},
		"methodIdentifiers": {
			"approveVehicle()": "e7065dff",
			"createBid(uint256,uint256)": "b7751c71",
			"factoryAddress()": "966dae0e",
			"findNearestUnwithdrawedBid()": "b68bfd08",
			"getBids()": "b81c78ec",
			"getBidsSize()": "c66531cf",
			"getData()": "3bc5de30",
			"getStart()": "c5292c67",
			"getStartingPrice()": "cebd31bc",
			"getVehicleImages()": "4364bab9",
			"getVehicleProperties()": "e7f9aced",
			"isApproved()": "28f371aa",
			"isOwner(address)": "2f54bf6e",
			"owner()": "8da5cb5b",
			"renounceOwnership()": "715018a6",
			"setStart(bool)": "68e24327",
			"submitAuction()": "c4c09a3a",
			"transferOwnership(address)": "f2fde38b",
			"withdrawBid()": "37271cc7"
		}
	},
	"abi": [
		{
			"inputs": [
				{
					"internalType": "address",
					"name": "_factoryAddress",
					"type": "address"
				},
				{
					"components": [
						{
							"internalType": "string",
							"name": "ownerFullName",
							"type": "string"
						},
						{
							"internalType": "string",
							"name": "ownerAddress",
							"type": "string"
						},
						{
							"internalType": "string",
							"name": "brand",
							"type": "string"
						},
						{
							"internalType": "string",
							"name": "vehicleType",
							"type": "string"
						},
						{
							"internalType": "string",
							"name": "color",
							"type": "string"
						},
						{
							"internalType": "uint16",
							"name": "seatCapacity",
							"type": "uint16"
						},
						{
							"internalType": "string",
							"name": "origin",
							"type": "string"
						},
						{
							"internalType": "string",
							"name": "licensePlate",
							"type": "string"
						},
						{
							"internalType": "string",
							"name": "engineNumber",
							"type": "string"
						},
						{
							"internalType": "string",
							"name": "chassisNumber",
							"type": "string"
						},
						{
							"internalType": "string",
							"name": "modelCode",
							"type": "string"
						},
						{
							"internalType": "uint32",
							"name": "capacity",
							"type": "uint32"
						},
						{
							"internalType": "uint256",
							"name": "firstRegistrationDate",
							"type": "uint256"
						}
					],
					"internalType": "struct VehicleProperties",
					"name": "_props",
					"type": "tuple"
				},
				{
					"internalType": "uint256",
					"name": "_startingPrice",
					"type": "uint256"
				},
				{
					"internalType": "string[]",
					"name": "_vehicleImages",
					"type": "string[]"
				}
			],
			"stateMutability": "nonpayable",
			"type": "constructor"
		},
		{
			"inputs": [
				{
					"internalType": "address",
					"name": "bidder",
					"type": "address"
				}
			],
			"name": "BidNotFoundException",
			"type": "error"
		},
		{
			"anonymous": false,
			"inputs": [
				{
					"indexed": true,
					"internalType": "address",
					"name": "bidderAddress",
					"type": "address"
				},
				{
					"indexed": true,
					"internalType": "address",
					"name": "vehicleContractAddress",
					"type": "address"
				},
				{
					"indexed": false,
					"internalType": "uint32",
					"name": "index",
					"type": "uint32"
				},
				{
					"indexed": false,
					"internalType": "uint256",
					"name": "deposit",
					"type": "uint256"
				},
				{
					"indexed": false,
					"internalType": "uint256",
					"name": "quantity",
					"type": "uint256"
				}
			],
			"name": "CreateBid",
			"type": "event"
		},
		{
			"anonymous": false,
			"inputs": [
				{
					"indexed": true,
					"internalType": "address",
					"name": "previousOwner",
					"type": "address"
				}
			],
			"name": "OwnershipRenounced",
			"type": "event"
		},
		{
			"anonymous": false,
			"inputs": [
				{
					"indexed": true,
					"internalType": "address",
					"name": "previousOwner",
					"type": "address"
				},
				{
					"indexed": true,
					"internalType": "address",
					"name": "newOwner",
					"type": "address"
				}
			],
			"name": "OwnershipTransferred",
			"type": "event"
		},
		{
			"anonymous": false,
			"inputs": [
				{
					"indexed": false,
					"internalType": "address",
					"name": "vehicleOwner",
					"type": "address"
				},
				{
					"indexed": false,
					"internalType": "address",
					"name": "recipient",
					"type": "address"
				},
				{
					"indexed": false,
					"internalType": "uint256",
					"name": "bidPrice",
					"type": "uint256"
				}
			],
			"name": "SubmitAuction",
			"type": "event"
		},
		{
			"anonymous": false,
			"inputs": [
				{
					"indexed": true,
					"internalType": "address",
					"name": "bidderAddress",
					"type": "address"
				},
				{
					"indexed": true,
					"internalType": "address",
					"name": "vehicleContractAddress",
					"type": "address"
				},
				{
					"indexed": false,
					"internalType": "uint32",
					"name": "index",
					"type": "uint32"
				}
			],
			"name": "WithdrawBid",
			"type": "event"
		},
		{
			"inputs": [],
			"name": "approveVehicle",
			"outputs": [],
			"stateMutability": "nonpayable",
			"type": "function"
		},
		{
			"inputs": [
				{
					"internalType": "uint256",
					"name": "quantity",
					"type": "uint256"
				},
				{
					"internalType": "uint256",
					"name": "bidDate",
					"type": "uint256"
				}
			],
			"name": "createBid",
			"outputs": [],
			"stateMutability": "payable",
			"type": "function"
		},
		{
			"inputs": [],
			"name": "factoryAddress",
			"outputs": [
				{
					"internalType": "address",
					"name": "",
					"type": "address"
				}
			],
			"stateMutability": "view",
			"type": "function"
		},
		{
			"inputs": [],
			"name": "findNearestUnwithdrawedBid",
			"outputs": [
				{
					"components": [
						{
							"internalType": "uint32",
							"name": "index",
							"type": "uint32"
						},
						{
							"internalType": "address",
							"name": "bidder",
							"type": "address"
						},
						{
							"internalType": "uint256",
							"name": "quantity",
							"type": "uint256"
						},
						{
							"internalType": "uint256",
							"name": "bidDate",
							"type": "uint256"
						},
						{
							"internalType": "bool",
							"name": "isWithdrawed",
							"type": "bool"
						}
					],
					"internalType": "struct Vehicle.Bid",
					"name": "",
					"type": "tuple"
				}
			],
			"stateMutability": "view",
			"type": "function"
		},
		{
			"inputs": [],
			"name": "getBids",
			"outputs": [
				{
					"components": [
						{
							"internalType": "uint32",
							"name": "index",
							"type": "uint32"
						},
						{
							"internalType": "address",
							"name": "bidder",
							"type": "address"
						},
						{
							"internalType": "uint256",
							"name": "quantity",
							"type": "uint256"
						},
						{
							"internalType": "uint256",
							"name": "bidDate",
							"type": "uint256"
						},
						{
							"internalType": "bool",
							"name": "isWithdrawed",
							"type": "bool"
						}
					],
					"internalType": "struct Vehicle.Bid[]",
					"name": "",
					"type": "tuple[]"
				}
			],
			"stateMutability": "view",
			"type": "function"
		},
		{
			"inputs": [],
			"name": "getBidsSize",
			"outputs": [
				{
					"internalType": "uint32",
					"name": "",
					"type": "uint32"
				}
			],
			"stateMutability": "view",
			"type": "function"
		},
		{
			"inputs": [],
			"name": "getData",
			"outputs": [
				{
					"components": [
						{
							"internalType": "bool",
							"name": "isStart",
							"type": "bool"
						},
						{
							"internalType": "address",
							"name": "vehicleAddress",
							"type": "address"
						},
						{
							"components": [
								{
									"internalType": "string",
									"name": "ownerFullName",
									"type": "string"
								},
								{
									"internalType": "string",
									"name": "ownerAddress",
									"type": "string"
								},
								{
									"internalType": "string",
									"name": "brand",
									"type": "string"
								},
								{
									"internalType": "string",
									"name": "vehicleType",
									"type": "string"
								},
								{
									"internalType": "string",
									"name": "color",
									"type": "string"
								},
								{
									"internalType": "uint16",
									"name": "seatCapacity",
									"type": "uint16"
								},
								{
									"internalType": "string",
									"name": "origin",
									"type": "string"
								},
								{
									"internalType": "string",
									"name": "licensePlate",
									"type": "string"
								},
								{
									"internalType": "string",
									"name": "engineNumber",
									"type": "string"
								},
								{
									"internalType": "string",
									"name": "chassisNumber",
									"type": "string"
								},
								{
									"internalType": "string",
									"name": "modelCode",
									"type": "string"
								},
								{
									"internalType": "uint32",
									"name": "capacity",
									"type": "uint32"
								},
								{
									"internalType": "uint256",
									"name": "firstRegistrationDate",
									"type": "uint256"
								}
							],
							"internalType": "struct VehicleProperties",
							"name": "props",
							"type": "tuple"
						},
						{
							"internalType": "uint256",
							"name": "startingPrice",
							"type": "uint256"
						},
						{
							"internalType": "string[]",
							"name": "vehicleImages",
							"type": "string[]"
						}
					],
					"internalType": "struct VehicleData",
					"name": "",
					"type": "tuple"
				}
			],
			"stateMutability": "view",
			"type": "function"
		},
		{
			"inputs": [],
			"name": "getStart",
			"outputs": [
				{
					"internalType": "bool",
					"name": "",
					"type": "bool"
				}
			],
			"stateMutability": "view",
			"type": "function"
		},
		{
			"inputs": [],
			"name": "getStartingPrice",
			"outputs": [
				{
					"internalType": "uint256",
					"name": "",
					"type": "uint256"
				}
			],
			"stateMutability": "view",
			"type": "function"
		},
		{
			"inputs": [],
			"name": "getVehicleImages",
			"outputs": [
				{
					"internalType": "string[]",
					"name": "",
					"type": "string[]"
				}
			],
			"stateMutability": "view",
			"type": "function"
		},
		{
			"inputs": [],
			"name": "getVehicleProperties",
			"outputs": [
				{
					"components": [
						{
							"internalType": "string",
							"name": "ownerFullName",
							"type": "string"
						},
						{
							"internalType": "string",
							"name": "ownerAddress",
							"type": "string"
						},
						{
							"internalType": "string",
							"name": "brand",
							"type": "string"
						},
						{
							"internalType": "string",
							"name": "vehicleType",
							"type": "string"
						},
						{
							"internalType": "string",
							"name": "color",
							"type": "string"
						},
						{
							"internalType": "uint16",
							"name": "seatCapacity",
							"type": "uint16"
						},
						{
							"internalType": "string",
							"name": "origin",
							"type": "string"
						},
						{
							"internalType": "string",
							"name": "licensePlate",
							"type": "string"
						},
						{
							"internalType": "string",
							"name": "engineNumber",
							"type": "string"
						},
						{
							"internalType": "string",
							"name": "chassisNumber",
							"type": "string"
						},
						{
							"internalType": "string",
							"name": "modelCode",
							"type": "string"
						},
						{
							"internalType": "uint32",
							"name": "capacity",
							"type": "uint32"
						},
						{
							"internalType": "uint256",
							"name": "firstRegistrationDate",
							"type": "uint256"
						}
					],
					"internalType": "struct VehicleProperties",
					"name": "",
					"type": "tuple"
				}
			],
			"stateMutability": "view",
			"type": "function"
		},
		{
			"inputs": [],
			"name": "isApproved",
			"outputs": [
				{
					"internalType": "bool",
					"name": "",
					"type": "bool"
				}
			],
			"stateMutability": "view",
			"type": "function"
		},
		{
			"inputs": [
				{
					"internalType": "address",
					"name": "checkAddress",
					"type": "address"
				}
			],
			"name": "isOwner",
			"outputs": [
				{
					"internalType": "bool",
					"name": "",
					"type": "bool"
				}
			],
			"stateMutability": "view",
			"type": "function"
		},
		{
			"inputs": [],
			"name": "owner",
			"outputs": [
				{
					"internalType": "address",
					"name": "",
					"type": "address"
				}
			],
			"stateMutability": "view",
			"type": "function"
		},
		{
			"inputs": [],
			"name": "renounceOwnership",
			"outputs": [],
			"stateMutability": "nonpayable",
			"type": "function"
		},
		{
			"inputs": [
				{
					"internalType": "bool",
					"name": "state",
					"type": "bool"
				}
			],
			"name": "setStart",
			"outputs": [],
			"stateMutability": "nonpayable",
			"type": "function"
		},
		{
			"inputs": [],
			"name": "submitAuction",
			"outputs": [],
			"stateMutability": "nonpayable",
			"type": "function"
		},
		{
			"inputs": [
				{
					"internalType": "address",
					"name": "_newOwner",
					"type": "address"
				}
			],
			"name": "transferOwnership",
			"outputs": [],
			"stateMutability": "nonpayable",
			"type": "function"
		},
		{
			"inputs": [],
			"name": "withdrawBid",
			"outputs": [],
			"stateMutability": "nonpayable",
			"type": "function"
		}
	]
}